:020000040000fa
:080000000002040000000000f2
:020000040000fa
:10000800cc020000cc020000cc020000cc020000b0
:10001800cc020000cc020000cc020000cc020000a0
:10002800cc020000cc020000cc020000600f0000ef
:10003800cc020000cc020000cc020000680f0000d7
:10004800cc020000cc020000cc020000cc02000070
:10005800cc020000cc020000cc020000cc02000060
:10006800cc020000cc020000cc020000cc02000050
:10007800cc020000cc020000cc020000cc02000040
:10008800cc020000cc020000cc020000cc02000030
:10009800cc020000cc0200004a0c0000aa0c0000b0
:1000a800cc020000cc020000cc020000cc02000010
:1000b800cc020000cc020000cc020000cc02000000
:1000c800cc020000cc020000cc020000cc020000f0
:1000d800cc020000cc020000cc020000cc020000e0
:1000e800cc020000cc020000cc020000cc020000d0
:1000f800cc020000cc020000cc020000cc020000c0
:10010800cc020000cc020000cc020000cc020000af
:10011800cc020000cc020000cc020000cc0200009f
:10012800cc020000cc020000cc020000cc0200008f
:10013800cc020000cc020000cc020000cc0200007f
:10014800cc020000cc020000cc020000cc0200006f
:10015800cc020000cc020000cc020000cc0200005f
:10016800cc020000cc020000cc020000cc0200004f
:10017800cc020000cc020000cc020000cc0200003f
:10018800cc020000cc020000cc020000cc0200002f
:10019800cc020000cc020000cc020000cc0200001f
:1001a800cc020000cc020000cc020000cc0200000f
:1001b800cc020000cc020000cc020000cc020000ff
:1001c800cc020000cc020000cc020000cc020000ef
:1001d800cc020000cc020000cc020000cc020000df
:1001e800cc020000cc020000cc020000cc020000cf
:1001f800cc020000cc020000cc020000cc020000bf
:10020800cc020000cc020000cc020000cc020000ae
:10021800cc020000cc020000cc020000cc0200009e
:10022800cc020000cc020000cc020000cc0200008e
:10023800cc020000cc020000cc020000cc0200007e
:10024800cc020000cc020000cc020000cc0200006e
:10025800cc020000cc020000cc020000cc0200005e
:020000040000fa
:10040000cf0622000eff27000e018800000000002a
:1004100000012000200288000c00070000032100da
:10042000010020000f000700000020000000e00095
:10043000020032000000020000000000080f02006d
:10044000000000000040da000000fe002000200054
:100450000000e0000200320010002000900188003f
:1004600000000600a1028800800078000000eb0078
:100470001a003700e280400054a0b4009101ba0095
:10048000e280400054a0b4009102ba00e280400033
:1004900054a0b4000002eb00472bde00f507b200c9
:1004a000a6018800602ce10008003a000049eb003a
:1004b0000201e800020039003420ec0002f0a00044
:1004c0008301e900f9ff3e00040037006128e100e4
:1004d000010032000082eb00040007001101ba00a5
:1004e0000200e000e3ff3a000000060004d0a30091
:1004f000e20f49001c003900810278003549ba003a
:100500000201e800020039003420ec0002f0a000f3
:100510008301e9000f0032002549ba000201e8001a
:10052000020039003420ec0002f0a0008301e90051
:10053000080032000400e0000600320015c9ba00cd
:100540000201e800020039003420ec0002f0a000b3
:100550008301e9008180e80054a0b4000300e000ba
:10056000e2ff3a00000006009102ba000559780047
:100570008301e900f7ff3200c82ade000559780040
:100580008301e900f3ff32000400e000f1ff3200d4
:1005900011d9ba00eeff37000040da000000fe007b
:1005a0000000fa002428a90061e2a9000428a9009b
:1005b0000080fa00000006000000fa001013880016
:1005c00021138800021388000080fa000000060052
:1005d0000000fa0004138000610262000080eb005a
:1005e0000900320060c2a9001513800004402000f9
:1005f00004826200020032004013800002003700d3
:1006000040138000f00fb2000080fa0000000600e6
:100610000000fa0031e2a90023c8a90023e8a900dc
:1006200003c8a90003e8a9000080fa000000060042
:100630000000fa0003c8a90003e8a900e70260006f
:10064000c82add0076428000f48f2f000402630088
:100650000502720074428800800278000507b2002b
:10066000c82add0076428000f4ff280004026300ff
:100670000502720074428800e8026000c32ade00ae
:10068000e1826200ce2add001441800004e0a10076
:1006900005027200144188000008b2004700de0025
:1006a000610060004f00dd001441800004f0a100f3
:1006b00000027200144188000080fa000000060069
:1006c0000000fa00c2118800801188009111880092
:0806d0000080fa0000000600a2
:020000040000fa
:1006d8000800fa00100798002107980032079800d0
:1006e8002e029000e00f5200030032001e0290001c
:1006f800e00f520002003a000002eb00250037002c
:100708003e029000e10f520002003e000002eb00a2
:10071800200037001e029000ae029000550298009b
:100728000002eb00040f7800060037001e0290005c
:10073800540290009e0242000042eb00844a780076
:100748001e0fe8003e0290009e027800848f52003f
:10075800f6ff39001e0290008002eb00050a7800bf
:100768001e0290008002eb00150298001e02900005
:10077800be029000250298001e0290008002eb0045
:10078800350298009e0290000042eb00844a9800cf
:1007980014002000040078000080fa000000060021
:1007a8000400fa00000f7800110798001e02780074
:1007b800e00f5200340032001e027800340290002c
:1007c800e00f5200300032001e027800d402900080
:1007d8001e02780014027800048242001442780055
:1007e8009e029000844a78001e027800340290002d
:1007f800e10f52000f003a001e02780094027800c0
:100808001e027800240290000402e900848f52003e
:10081800040031001e027800140278000402e80087
:10082800010037000002eb009e027800840a78007d
:100838000e0037001e027800940278001e0278002d
:10084800240290000402e900848f52000400310061
:100858001e027800140278000402e8000100370044
:100868000002eb009e027800840a78001e027800dd
:10087800340290008402e9001e02780035029800d4
:1008880014002000010037000002eb00040078008b
:100898000080fa00000006000a00fa00200798000d
:1008a80031079800420798002e029000e00f52008e
:1008b800340032003e029000e00f52003100320056
:1008c8003e029000140798002e029000b402900097
:1008d8004e029000848f52002a0039000002eb007b
:1008e800040f78001b0037001e0278009e0290005b
:1008f800848242002e029000540390002e02900041
:10090800140278000402430014427800844a7800f4
:100918002e029000940278002e029000240290008b
:100928000402e900848f5200060031002e02900074
:10093800140278008402e8002e029000050a78006c
:10094800030037002e0290008002eb00050a7800b1
:100958001e0fe8009e0278004e029000848f52001d
:10096800e1ff39002e029000b40290004e02900080
:10097800848252002e029000350298001400200054
:10098800010037000002eb00040078000080fa0044
:10099800000006000400fa00000f780021479800c4
:1009a8001e027800e00f5200290032001e02780073
:1009b800b40290001e02780024029000848f520036
:1009c80007003a001e027800044a90000442e8003a
:1009d8009e027800844a98000002eb001d00370050
:1009e8001e027800d40290001e02780014029000c3
:1009f80004824200ae429000054a78001e02780048
:100a0800940290001e027800240290000402e9007b
:100a1800848f5200040031001e02780014029000f6
:100a28000402e800010037000002eb009e02780093
:100a3800940298001e027800340290008402e800b4
:100a48001e027800350298001400200001003700cb
:100a58000002eb00040078000080fa0000000600a5
:100a68000e00fa00300798004107980052079800d6
:100a7800434f98003e029000e00f5200750032008c
:100a88004e029000e00f5200720032004e029000b9
:100a9800240798004e4a9000e04f5200320032007e
:100aa8003e029000a40290003e02900034029000a2
:100ab800848252005e029000848f5200020031004e
:100ac8000002eb00640037000002eb00040f78001e
:100ad800190037003e029000d40290003e029000b8
:100ae80014029000848242001e0278002e039000b7
:100af8000402430014427800844a78001e0fe8007c
:100b08003e029000940290003e0290002402900061
:100b18000402e900848f5200040031003e02900074
:100b2800140290000402e800010037000002eb0004
:100b3800be029000940298009e0278005e02900027
:100b4800848f5200e3ff39003e029000b402900007
:100b58001e027800848242003e029000350298000e
:100b6800140020003c0037000002eb001407980036
:100b7800320037003e029000b40290003e0290001e
:100b880024029000848f52000c003a003e0290002c
:100b9800844a90005e029000044378001e02900090
:100ba800044278000442530004c24200be0290008e
:100bb800844a98000002eb00270037003e029000ac
:100bc800d40290003e0290001402900084824200f9
:100bd8001e0290002e039000040243001442780085
:100be800844a78001e0290000402e8001407980066
:100bf8003e029000340290008402e8003e02900019
:100c0800350298003e029000940290003e02900047
:100c1800240290000402e900848f5200040031008d
:100c28003e029000140290000402e8000100370020
:100c38000002eb00be029000940298009e02900011
:100c48005e029000848f5200caff39001400200011
:100c5800010037000002eb00040078000080fa0071
:100c6800000006000400fa00000f78001107980041
:100c78001e027800e00f52000e0032001e027800bb
:100c880034029000e00f52000a0032001e02780081
:100c9800d40290001e0278001402780004824200f8
:100ca800144278009e029000844a780014002000c4
:100cb800010037000002eb00040078000080fa0011
:100cc800000006000c00fa00300798004107980061
:100cd800520798003e029000e00f520028003200b0
:100ce8004e029000240798003e029000b402900043
:100cf8005e029000848f5200210039003e0290006d
:100d080014027800140798000002eb00040f780022
:100d1800150037002e0290009e0242003e0290000d
:100d2800540390001e02900004024300144278000d
:100d3800844a78009e0290003e02900024029000af
:100d48000402e900848f5200040031001e02900062
:100d58000402e80014079800020037000002eb00c4
:100d6800140798001e0fe8005e0290009e027800ab
:100d7800848f5200e7ff390014002000010037007b
:100d88000002eb00040078000080fa000000060072
:100d98000400fa00000f7800110798001e0278007e
:100da800b40290001e029000848f5200200036008a
:100db8001e027800a40290001e0278001402780037
:100dc800848252001e029000848f52000a00310073
:100dd8001e027800940278001e0278002402900017
:100de800848252001e029000848242001e02780013
:100df800050a7800060037001e0278009402780081
:100e08001e029000848242001e027800050a7800c3
:100e18001e027800b40290001e02900084825200e4
:100e28001e027800350298001400200008003700e0
:100e38001e027800940290001e027800050a7800cd
:100e48001e0278008002eb00350298001400200092
:100e5800040078000080fa00000006000c00fa0088
:100e6800000f7800110798002207980033079800b0
:100e780044079800550798001e027800746488009b
:100e88001e029000346488002e029000746288006c
:100e98003e029000346288004e029000746388001d
:100ea8005e029000346388000080fa0000000600ab
:100eb8000400fa00000f7800110798001e02900045
:100ec800e00f5200a2003a001571800004002400cf
:100ed80004826200e00f5200160032001571800093
:100ee8000400220004826200e00f52001100320068
:100ef8009471800061026200e00f52000d003a0018
:100f08000002eb00746488000002eb00346488007f
:100f18001e027800746288000002eb0034628800c8
:100f28000002eb00746388001e02780034638800b6
:100f3800310137001571800004002400048262002a
:100f4800e00f520016003a001571800004002200dc
:100f580004826200e00f5200110032009471800098
:100f680061026200e00f52000d003a000002eb003f
:100f7800746488001e027800346488001e027800b9
:100f8800746288000002eb00346288000002eb0003
:100f9800746388000002eb00346388001601370090
:100fa800157180000400240004826200e00f5200e2
:100fb80016003a00157180000400220004826200c5
:100fc800e00f52001100320094718000610262004b
:100fd800e00f52000d0032000002eb00746488003c
:100fe8001e027800346488000002eb0074628800f6
:100ff8000002eb00346288001e02780074638800e7
:101008000002eb0034638800fb0037001571800094
:101018000400240004826200e00f520016003a0027
:10102800157180000400220004826200e00f520063
:1010380011003a009471800061026200e00f5200d2
:101048000d0032000002eb00746488000002eb001f
:10105800346488000002eb00746288001e02780085
:10106800346288001e027800746388000002eb0076
:1010780034638800e0003700157180000400240004
:1010880004826200e00f52001600320015718000e1
:101098000400220004826200e00f520011003a00ae
:1010a8009471800061026200e00f52000d0032006e
:1010b8001e027800746488000002eb003464880023
:1010c8000002eb00746288001e0278003462880017
:1010d8000002eb00746388000002eb0034638800b0
:1010e800c5003700157180000400240004826200e6
:1010f800e00f5200bb00320015718000040022008e
:1011080004826200e00f5200b8003a009471800037
:1011180061026200e00f5200b6003a001e02780039
:10112800746488000002eb00346488000002eb005d
:10113800746288000002eb00346288000002eb0051
:10114800746388001e02780034638800aa003700a0
:101158001e029000e10f5200a7003a0015718000ae
:101168000400240004826200e00f520016003200de
:10117800157180000400220004826200e00f520012
:10118800110032009471800061026200e00f520089
:101198000d003a000002eb00746488000002eb00c6
:1011a800346488000002eb00746288001e02780034
:1011b800346288001e027800746388000002eb0025
:1011c800346388008c003700157180000400240007
:1011d80004826200e00f520016003a001571800088
:1011e8000400220004826200e00f52001100320065
:1011f8009471800061026200e00f52000d003a0015
:101208001e027800746488000002eb0034648800d1
:101218000002eb00746288001e02780034628800c5
:101228000002eb00746388000002eb00346388005e
:1012380071003700157180000400240004826200e8
:10124800e00f520016003a001571800004002200d9
:1012580004826200e00f5200110032009471800095
:1012680061026200e00f52000d0032001e02780099
:10127800746488000002eb00346488000002eb000c
:10128800746288000002eb00346288000002eb0000
:10129800746388001e0278003463880056003700a3
:1012a800157180000400240004826200e00f5200df
:1012b80016003a00157180000400220004826200c2
:1012c800e00f520011003a00947180006102620040
:1012d800e00f52000d0032000002eb007464880039
:1012e8000002eb00346488001e02780074628800f3
:1012f8000002eb00346288000002eb00746388008f
:101308001e027800346388003b00370015718000a6
:101318000400240004826200e00f5200160032002c
:10132800157180000400220004826200e00f520060
:1013380011003a009471800061026200e00f5200cf
:101348000d0032000002eb00746488001e02780071
:10135800346488001e027800746288000002eb0082
:10136800346288000002eb00746388000002eb001e
:1013780034638800200037001571800004002400c1
:1013880004826200e00f52001b00320015718000d9
:101398000400220004826200e00f520016003a00a6
:1013a8009471800061026200e00f520012003a005e
:1013b8000002eb00746488001e0278003464880020
:1013c8000002eb00746288000002eb0034628800bf
:1013d8001e027800746388000002eb003463880002
:1013e800050037000000000003003700000000007f
:1013f80001003700000000000080fa00000006002d
:101408000000fa0031e2a90031a2a9003182a90046
:101418003162a900841180000480a1000490a10019
:101428008411880030e2a80030c2a90030a2a900c7
:101438003082a900841180000410a1000420a100ba
:10144800841188003002a9003062a90004402400f9
:1014580074428800941180000460a0000470a10008
:10146800941188003222a90054022000c411880077
:1014780031e2a8003342a8000080fa00000006000c
:101488000000fa00843e2000246088000002eb007f
:10149800446488000002eb00846488000002eb00ca
:1014a800446288000002eb00846288000002eb00be
:1014b800446388000002eb00846388000002eb00ac
:1014c800346288000002eb00746288000002eb00be
:1014d800346388000002eb00746388000002eb00ac
:1014e800346488000002eb00746488000002eb009a
:1014f80054638800546380005462880054628000fa
:10150800546488000002eb00646388006463800010
:1015180064628800646280006464880004c02c00ef
:1015280014648800146480001463880014638000c5
:10153800146288000002eb00146188000002eb00ce
:1015480004638800046380000462880004628000e9
:101558000464880034002000246388002463800029
:101568002462880024628000246488000002eb0062
:1015780014608800040028000460880064eea80055
:10158800650ea9000080fa00000006000000fa00bd
:10159800a4042000343a8800253a800004fe2f0075
:1015a80004826200243a8800243a80000460a10082
:1015b8000470a100243a8800160020008407200047
:1015c800a509200037742000844b7800854b7800eb
:1015d800864b7800143a8000040378000600a000c7
:1015e800640420007505200027742000844b7800cf
:1015f800854b7800864b780000000000153a800083
:10160800040027008482620004002100848f5200b5
:10161800faff3a0000000000153a8000040220009a
:1016280004826200e00f5200fbff32000080fa00e3
:10163800000006000000fa0060eea900610ea90093
:1016480021cea80021aea800300ea80060cea900c7
:1016580060eea900610ea9000002eb00f47088009a
:101668000002eb00f47188000002eb00747288003d
:101678000002eb0074738800153a8000f4fb2f0019
:10168800048362006404200075052000277420008c
:10169800844b7800854b7800864b7800153a80009b
:1016a80004042000048372006404200075052000ef
:1016b80027742000844b7800854b7800864b78008f
:1016c8000080fa00000006000000fa0011e1a900fd
:1016d8001021a90010c1a900840880000440a000be
:1016e8000450a000840888000002eb003408880039
:1016f80004962000640888001442800004c0a000fa
:1017080004d0a10004e0a1001442880000e8a90068
:1017180020e8a80011e1a8000080fa0000000600f7
:101728000200fa00000f780002402000c1002100ea
:1017380000002100e6fb0700024020008141210053
:10174800c0402100e2fb0700affb07001e01780044
:10175800d175230000482c00d7fb0700e0fe2f00be
:10176800b1fb07000080fa00000006000400fa0040
:1017780010079800941180004a22de00614262003e
:10178800044f780031e2a9001e029000c4118800bd
:1017980031e2a8009e42780061c262000482fb0028
:1017a800610262004a22dd0096118000f5bf2f0019
:1017b8008502630004827200941188000080fa0098
:1017c800000006000200fa00060037008e007800cc
:1017d800c0402100f2fb07001e4278000482fb0093
:1017e800a411880094a08000e00f52000500320088
:1017f800951180000420200004826200e00f52004e
:10180800f2ff32000080fa00000006000200fa0031
:10181800000f78009e00780000002100e0fb070020
:1018280000027800040078000080fa00000006003a
:101838000200fa00004f78009e407800c040210066
:1018480054fc0700dfff07000080fa0000000600d4
:101858000600fa0010079800210798008041eb0065
:101868002e0190009e009000c04021007cfc0700e3
:1018780000027800040f7800d2ff07001e027800eb
:10188800040078000080fa00000006003600f80026
:10189800809fbe00829fbe00849fbe00869fbe00c0
:1018a8003200f800100020009001880000000000bd
:1018b8000200fa009411800062026200e00f5200f8
:1018c800140032003222a90013003700941180005e
:1018d80064026200e00f5200070032009411800099
:1018e80068026200e00f520003003200b411800069
:1018f800044f780008003700b4118000044f7800c6
:101908001e427800844078000000210021fc070076
:10191800010037000000000094118000610262009d
:10192800e00f5200e9ff3a0003c8a9000080fa005e
:101938003200f9004f03be004f02be004f01be0047
:101948004f00be003600f900004006003600f800df
:10195800809fbe00829fbe00849fbe00869fbe00ff
:101968003200f800100020009001880000000000fc
:101978000000fa000000000095118000041020000b
:1019880004826200e00f5200fbff32008dff070067
:1019980003e8a9000080fa003200f9004f03be00f6
:1019a8004f02be004f01be004f00be003600f900d6
:1019b800004006000400fa00100798009e029000fc
:1019c800150278000400a1000410a100840a780020
:1019d8009e029000150278000430a100840a780065
:1019e8009e029000150278000420a100840a780065
:1019f8009e029000150278000440a0000450a00048
:101a0800840a78001e02900014037800f5832f00e2
:101a1800050363000558200085027300050a780055
:101a28009e029000150290000440a10094029800c4
:101a38009e029000150290000450a10094029800a4
:101a48009e029000150290000420a1000430a1001d
:101a5800940298001e02900014039000f5832f0052
:101a680085026300150298009e02900015029000fe
:101a78000400a1000410a100940298002000200096
:101a8800b100070000027800040f78003000200041
:101a9800ad00070000027800040f78001e029000d5
:101aa80014027800840078002000200071000700ec
:101ab8001e0290001402900084007800300020007c
:101ac8006c000700200020009f000700000278003b
:101ad800040f7800300020009b0007000002780007
:101ae800040f78001e029000d4c1880014c0b3000f
:101af8000400780038f8b7000042eb000440780092
:101b08000080fa00000006000000fa00881f780034
:101b1800d8c180000000eb008b00070000027800ad
:101b280024049800d8c18000100020008600070017
:101b3800000278002404980020002000820007009a
:101b48003000200080000700d5c1800014c0b30019
:101b5800844a98004f0478000080fa0000000600cc
:101b68000000fa00d5c18000150278000420a0000a
:101b7800840a7800d4c180001402780084007800b8
:101b8800200020003b0007000080fa00000006004b
:101b98000200fa00004f78001e427800e04f520021
:101ba80009003200d5c18000150290000440a00051
:101bb80094029800d5c18000150290000450a0003e
:101bc8009402980008003700d5c1800015029000e3
:101bd8000440a10094029800d5c18000150290002d
:101be8000450a10094029800d4c18000140290000f
:101bf80084007800300020001e0007000080fa00f2
:101c0800000006000000fa00048321001442780056
:101c1800e14f520002003a0014c0b300120037002e
:101c28005dfa070044422e0094c18800f4ff2300a7
:101c3800a4c18800f4fb2d00b4c18800b6c180009f
:101c4800a5c1800094c18000060178008500780055
:101c58000400780056fa070014c0b30004007800a6
:101c680030f8b7000042eb00044078000080fa002a
:101c7800000006000600fa001007980021079800e7
:101c8800652ea90044138000040f78001e029000fe
:101c9800cb22dd002e02900004827200040f78002f
:101ca8001e029000cb22dd002e02900004827200fa
:101cb800441388000002eb00040f7800010037008d
:101cc8001e0fe800b45d20009e027800848f520049
:101cd800fbff3400652ea8000002eb00040f78001b
:101ce800010037001e0fe8001e027800f30f5200b3
:101cf800fcff3400652ea90044138000040f78000f
:101d08001e029000cb22dd002e0290000482720099
:101d1800441388000002eb00040f7800010037002c
:101d28001e0fe800b45d20009e027800848f5200e8
:101d3800fbff340024fa0700000278000400780052
:101d48000080fa00000006000400fa00100798005e
:101d5800652ea90044138000040f78001e0290002d
:101d6800cb22dd000400280004827200441388009e
:101d78000002eb00040f7800010037001e0fe80096
:101d8800b45d20009e027800848f5200fbff36006d
:101d9800652ea8000002eb00040f78000100370050
:101da8001e0fe8001e027800f30f5200fcff3600f9
:101db800652ea90044138000040f78001e029000cd
:101dc800cb22dd000400280004827200441388003e
:101dd8000002eb00040f7800010037001e0fe80036
:101de800b45d20009e027800848f5200fbff36000d
:101df800652ea800f4f907000002780004007800b6
:101e08000080fa00000006000200fa00dffd07006b
:101e18005002200042fe070006fe070098fd07005a
:101e280078ff070080812100710007000002eb00a5
:101e3800040f7800010037001e0fe800f452270055
:101e48009e027800848f5200fbff34000002eb00f2
:101e5800040f7800010037001e0fe800f452270035
:101e68009e027800848f5200fbff34000002eb00d2
:101e7800040f7800010037001e0fe800f452270015
:101e88009e027800848f5200fbff3400608221009c
:101e9800c8fe07000cfe0700150ea800152ea800a6
:101ea800154ea800156ea80011002000403820002b
:101eb800fffb0700fcff37000000fa000068a900dc
:101ec8000080fa00004006003600f800809fbe003f
:101ed800829fbe00849fbe00869fbe000000fa005d
:101ee80015718000040024000482620004f0a70039
:101ef8000402ea000402ea004f22de0004427800ed
:101f08000482fb00610262004822dd00a6708000a6
:101f1800f5ef2f008502630004827200a470880028
:101f280015718000040022000482620004f0a700fa
:101f38000402ea000402ea004f22de0004427800ac
:101f48000482fb00610262004922dd00a670800065
:101f5800f5df2f008502630004827200a4708800f8
:101f6800947180000442780061426200614262001c
:101f7800614262000482fb00610262004a22dd00c5
:101f8800a6708000f5bf2f008502630004827200ee
:101f9800a47088006082210086fe0700a47080007b
:101fa8004b22de00614262000404a200614262002a
:101fb8000482fb00610262004b22dd00a6708000f3
:101fc800f57f2f008502630004827200a4708800e8
:101fd80000e8a9000080fa004f03be004f02be00cf
:101fe8004f01be004f00be003600f9000040060059
:101ff8000200fa00000f78001e027800e00f52007d
:102008000200320014c0b300010037000042eb00a8
:10201800044078000080fa00000006000400fa007e
:10202800008fbe000080fa00000006000200fa00df
:10203800004f78000080fa00000006000400fa0053
:10204800008fbe000080fa00000006000000fa00c1
:082058000080fa000000060000
:020000040000fa
:102060001818000018000000800000003018000060
:102070000800000080000000381800000400000084
:102080008000000000100000180800008000000020
:04209000000000004c
:020000040000fa
:0200000401f009
:04000c0078ff000079
:020000040000fa
:0200000401f009
:040010007fff00006e
:020000040000fa
:0200000401f009
:040014007fff00006a
:020000040000fa
:0200000401f009
:04001c00dfff000002
:00000001FF
