:020000040000fa
:080000000002040000000000f2
:020000040000fa
:10000800cc020000cc020000cc020000cc020000b0
:10001800cc020000cc020000cc020000cc020000a0
:10002800cc020000cc020000cc0200008a0a0000ca
:10003800cc020000cc020000cc020000920a0000b2
:10004800cc020000cc020000cc020000cc02000070
:10005800cc020000cc020000cc020000cc02000060
:10006800cc020000cc020000cc020000cc02000050
:10007800cc020000cc020000cc020000cc02000040
:020000040000fa
:100400000f0821000eff2c000e01880000000000e4
:1004100000012000200288000c000700c02c2100f1
:10042000010020000f000700000020000000e00095
:100430000200320000000200000000006a07020013
:10044000000000000040da000000fe002000200054
:100450000000e0000200320000202000900188002f
:1004600000000600a1028800800078000000eb0078
:100470001a003700e280400054a0b4009101ba0095
:10048000e280400054a0b4009102ba00e280400033
:1004900054a0b4000002eb00472bde00f507b200c9
:1004a000a6018800602ce10008003a000049eb003a
:1004b0000201e800020039003420ec0002f0a00044
:1004c0008301e900f9ff3e00040037006128e100e4
:1004d000010032000082eb00040007001101ba00a5
:1004e0000200e000e3ff3a000000060004d0a30091
:1004f000e20f49001c003900810278003549ba003a
:100500000201e800020039003420ec0002f0a000f3
:100510008301e9000f0032002549ba000201e8001a
:10052000020039003420ec0002f0a0008301e90051
:10053000080032000400e0000600320015c9ba00cd
:100540000201e800020039003420ec0002f0a000b3
:100550008301e9008180e80054a0b4000300e000ba
:10056000e2ff3a00000006009102ba000559780047
:100570008301e900f7ff3200c82ade000559780040
:100580008301e900f3ff32000400e000f1ff3200d4
:1005900011d9ba00eeff37000040da000000fe007b
:1005a0000000fa002428a90061e2a9000428a9009b
:1005b0000080fa00000006000000fa001013880016
:1005c00021138800021388000080fa000000060052
:1005d0000000fa0004138000610262000080eb005a
:1005e0000900320060c2a9001513800004402000f9
:1005f00004826200020032004013800002003700d3
:1006000040138000f00fb2000080fa0000000600e6
:1006100003f0a200889fbe008a9fbe008c1f780056
:10062000850007008c0033006450e1004f00320069
:100630006420e1005200320003826c0007003b009e
:100640000905d0000306d000820f54000c065d009f
:1006500002003900020032008901780003067800a8
:100660008582550004003d000003fd008103fd006c
:100670008502ea008b854200840f720002003b0075
:1006800060001000e08018006011b8000005eb0069
:100690007a28e1000a00390006007800c75ddd0015
:1006a000f707b200878075002d0037008281710046
:1006b0000a017800610560008180d1000080d300cc
:1006c0008502e900f9ff3b000604400087844800ea
:1006d00002003b0060041400e0841c000988a300b1
:1006e000070032008a81710082817100610164001b
:1006f0008904d1000884d3008b05e8001700370077
:100700000978a30013003a000b00e0001300340046
:100710008b05e9000804440089844c000a447400f5
:100720000978a3000d003a000b00e0000700340038
:100730008b05e9000804440089844c0001003a005c
:100740000b0020000978a300f7ff32000001eb0046
:1007500002003700828171000a0178001000070052
:100760000cf0a70001f0a000440037006420e10075
:1007700002003a00838f6c00440033000801be0081
:100780000200be003d0037000081eb00760037001c
:10079000f4ff2f00df0037006011b8001e013700a2
:1007a00081002000618055000b003d000b002000ff
:1007b00061fe2f000100e1001d0034008281710004
:1007c000610164008904d1000884d3000000e800be
:1007d000faff3a007100200061006400030070001d
:1007e000020060000900320061044400e0844c0013
:1007f0000988a500050032008b05e8006808e100c3
:1008000002003a008904d1000884d300f20f2000ce
:100810000258e10005003d00c75ddd00f907b200a8
:100820008980750008007800000006000bf827009a
:100830008b007800000005000004be007601070070
:100840000003be000405be000200be0072010700e6
:10085000844f7500000006000200be006450e100f5
:10086000050036006420e100020036000968a3009c
:1008700001003a000800be000160a0004f067800a9
:100880004f05be004f04be0000000600f0ff2f0021
:10089000f1ff2700f9ff3700889fbe008a9fbe0046
:1008a0008c1f7800e4ff0700ebff330003866c0029
:1008b0006450e100240032006420e100270032008f
:1008c0006150e100220032006120e100210032008d
:1008d0008b854200eb07b1000134b800003ab80044
:1008e0000804420089844a00013ab8000030b80088
:1008f0008880400009014a000400330000004000e5
:1009000081804800020149008b05e900c909dd002a
:10091000830170000100320013002000c814de00c3
:100920004814dd004709de001200b200c808de00ee
:10093000088470009aff070001f0a1000cf0a700e6
:1009400001f0a000cdff37006120e100cfff3200b1
:100950000801be000200be00f7ff37006150e10051
:10096000fcff3a00c9ff3700889fbe008a9fbe0087
:100970008c9fbe00820578000004be00260107009f
:100980000800be006420e1000700390002003a00c0
:10099000f1ff2700f0ff2f000160a00012022000ed
:1009a000f2838800550037006120e10003003a001f
:1009b0000b00a70001f823005000370001f0a10050
:1009c00002002100936424006d0007000800be00af
:1009d00004003500b2fd2000930c2400bd00070088
:1009e0000004be000005eb000b00a6004f0dde006a
:1009f00001f0a1000004be0032982f0023ea23007a
:100a0000a5ff07000001eb0003f023000b00a70087
:100a100003f82300fffe07005b0007000000a700ab
:100a20000a00a200790007000b00e000030032007a
:100a30000200200003f02300f5fe070001f0a200f1
:100a40000006be00020020009304240092ff07006d
:100a50000801be00effe0700809fbe000c00be0034
:100a600022a22a00d3a723008bff07004f01be005c
:100a7000e8fe07000004be0001f0a1000200200013
:100a8000039823003e0007000800be00190035004f
:100a90000001be0080ff07000006be00b2c52900ad
:100aa000e36223007cff070022222b00f3942b003b
:100ab000d8fe07000c01be0077ff0700e273280094
:100ac00083c02300d3fe07000c01be0072ff0700a5
:100ad00042aa2a00a3e22b00cefe07000c01be00b2
:100ae0006dff07000801be006bff07000801be0094
:100af000c8fe07000a00a70001f0a2004f06be00d2
:100b00004f05be004f04be00000006000001eb00d0
:100b100095ff3700889fbe008a9fbe00841f780023
:100b200045ff07004f00780011003300f0ff2f0051
:100b3000838f6c0006003b00040565000a00a700d7
:100b40000800370009f0a600100020000800370058
:100b5000820f5400838f5c000300390010002000d6
:100b600001003e000000200009f0a7000000ea009c
:100b70004f05be004f04be000000e000000006006c
:100b800014002000e3ff37000001be00a2000700b0
:100b90000470a70003f0a1006509b100160032003f
:100ba0000d0035006828e10006003500f0ff2f0039
:100bb000f1ff27000300e00013003b0001002800c4
:100bc0000000050000004000818048008502e90027
:100bd000fcff3a0008003700f88f420002003c009a
:100be0008000eb00000005008100d1000080d300f0
:100bf0008502e800fcff3a000300e00002003b0031
:100c000060001000e0801800000006004f89de0040
:100c10008201780095003700889fbe008a9fbe0041
:100c2000008270000402710004827100260032000c
:100c30000004be000200be006011b8006b09200075
:100c4000950220000182cf000a0039000541b10061
:100c50000082cf00070039000541b1000982cf00b2
:100c6000040039000541b1000882cf0001003900bd
:100c70000541b10005425200120032000a003b005b
:100c800082817100610164008100d1000080d30085
:100c90008984d3000884d3008b05e8000442e8006f
:100ca000f7ff3a00070037000804440089844c002d
:100cb00000004800818048008b05e9000442e900fb
:100cc000f9ff3a00b6fe07004f05be004f04be0014
:100cd000000006000400200000003700889fbe00ce
:100ce0008a9fbe008c1f78004f26dd00d2fe0700d1
:100cf000d9fe33006120e100430032006250e10080
:100d000041003e003e0039006420e1003c0032001a
:100d1000058255000f003b000402e80038003a004d
:100d2000800f5300818f5b00350034000800be0047
:100d300003f0a10001f0a60003f0a0000cf0a70052
:100d400034fe0700cdfe37000603430087834b00c7
:100d50000c4646000005530081855b00020033000d
:100d60000a03be000c00a0000402e900f6ff3b00ed
:100d7000850578000602430087824b0004003a0094
:100d80006000b80009f0a70001f0a000bbfe37002a
:100d90000002520081825a000704e0000400330080
:100da0000603430087834b008b05e900faff3700f9
:100db000090578000604be000203be006011b800f9
:100dc00077fe0700e00f5200e08f5a000700350061
:100dd00002003c000c08a300040032000601be0023
:100de00003f0a0000cf0a7000afe07000a856800c7
:100df00001f0a1000af0a70001f0a0009ffe37005b
:100e00000800be009dfe3700100220000cf0a60076
:100e1000f08388009dfe3700c70ade00f107b200ac
:100e2000f50fb20008003200e1cf420002003200ac
:100e30000170a00024000500810f70000100320045
:100e40000408050044000500810f700002003a000c
:100e5000140005008502e9000000400081c0480040
:100e6000fcff3b000170a00024000500881f7800f3
:100e7000030478000300e00007003d00600010005c
:100e8000e080180060011900e081190002003b00b9
:100e900001f02d00030037005fff070008f0a700f6
:100ea00001f0a0004f047800000006000000fa00e6
:100eb0000002780002003700015a78000201e900c0
:100ec000e00f5100fcff3a000080fa00000006002d
:020000040000fa
:040ed0006e100000a0
:020000040000fa
:100ed4000400fa00bd030700e603070074030700db
:100ee40031040700400321006d0507000002eb00f8
:100ef400040f7800010037001e0fe800f4522700a9
:100f04009e027800848f5200fbff34000002eb0045
:100f1400040f7800010037001e0fe800f452270088
:100f24009e027800848f5200fbff34000002eb0025
:100f3400040f7800010037001e0fe800f452270068
:100f44009e027800848f5200fbff340020042100ad
:100f5400b9040700eb030700240ea800242ea80000
:100f6400244ea800256ea8000100370000000000f0
:100f7400947080004822de0061426200844278005e
:100f8400147180004d22de006142620084c242007e
:100f9400947080004722de006142620004c2420075
:100fa4000002fd004cf0b7000002fd0094708000c8
:100fb4004822de00614262008482fb0014718000da
:100fc4004d22de00614262000482fb008482420002
:100fd400947080004722de00614262000482fb00bc
:100fe40084824200c4042100144278000482fb007d
:100ff400848f520004003a00748280000402e800e6
:1010040074828800040037000042eb000002fd00f7
:1010140050f0b7000002fd007582800004712200c8
:10102400848f5200770036009570800004102000f1
:1010340004826200e00f52000f003200157180003c
:101044000400220004826200e00f52000a00320011
:10105400957080000408200004826200e00f5200b2
:1010640005003a0024c0b3000002fd0050f0b700b0
:101074000002fd006300370095708000041020001a
:1010840004826200e00f52000f003a0015718000e4
:101094000400220004826200e00f52000a003200c1
:1010a400957080000408200004826200e00f520062
:1010b40005003a0034c0b3000002fd0050f0b70050
:1010c4000002fd004f0037009570800004102000de
:1010d40004826200e00f52000f003a001571800094
:1010e4000400220004826200e00f52000a00320071
:1010f400957080000408200004826200e00f520012
:101104000500320044c0b3000002fd0050f0b700f7
:101114000002fd003b0037009570800004102000a1
:1011240004826200e00f52000f003a001571800043
:101134000400220004826200e00f52000a003a0018
:10114400957080000408200004826200e00f5200c1
:101154000500320054c0b3000002fd0050f0b70097
:101164000002fd0027003700957080000410200065
:1011740004826200e00f52000f00320015718000fb
:101184000400220004826200e00f52000a003a00c8
:10119400957080000408200004826200e00f520071
:1011a4000500320064c0b3000002fd0050f0b70037
:1011b4000002fd0013003700957080000410200029
:1011c40004826200e00f52000e00320015718000ac
:1011d4000400220004826200e00f52000900320081
:1011e400957080000408200004826200e00f520021
:1011f4000400320014c0b3000002fd0050f0b70038
:101204000002fd00e43d2000140798009570800062
:101214000410200004826200e00f52000a00320031
:10122400157180000400220004826200e00f520065
:1012340005003200957080000408200004826200da
:10124400e00f52000400320004052100144278002b
:10125400e14f52000d003a000002eb007464880074
:101264000002eb00346488001e029000746288005f
:101274000002eb00346288000002eb007463880013
:101284001e02900034638800a0003700957080002f
:101294000410200004826200e00f52000a003a00a9
:1012a400157180000400220004826200e00f5200e5
:1012b400050032009570800004082000048262005a
:1012c400e00f5200040032000405210014427800ab
:1012d400e24f52000d003a000002eb0074648800f3
:1012e4001e029000346488001e029000746288001c
:1012f4000002eb00346288000002eb007463880093
:101304000002eb0034638800800037009570800091
:101314000410200004826200e00f52000a003a0028
:10132400157180000400220004826200e00f520064
:1013340005003200957080000408200004826200d9
:10134400e00f520004003a00040521001442780022
:10135400e34f52000d003a000002eb007464880071
:101364001e029000346488000002eb00746288005e
:101374000002eb00346288001e029000746388004f
:101384000002eb0034638800600037009570800031
:101394000410200004826200e00f52000a003a00a8
:1013a400157180000400220004826200e00f5200e4
:1013b40005003a0095708000040820000482620051
:1013c400e00f520004003a000405210014427800a2
:1013d400e44f52000d003a000002eb0074648800f0
:1013e4000002eb00346488000002eb0074628800a1
:1013f4001e029000346288001e029000746388000c
:101404000002eb00346388004000370095708000d0
:101414000410200004826200e00f52000a0032002f
:10142400157180000400220004826200e00f520063
:1014340005003a00957080000408200004826200d0
:10144400e00f520004003a00040521001442780021
:10145400e54f52000d003a001e02900074648800ab
:101464000002eb00346488000002eb007462880020
:101474001e029000346288000002eb00746388004e
:101484000002eb0034638800200037009570800070
:101494000410200004826200e00f52000a003200af
:1014a400157180000400220004826200e00f5200e3
:1014b4000500320095708000040820000482620058
:1014c400e00f520004003a000405210014427800a1
:1014d400e64f5200a5fe3a001e0290007464880094
:1014e4000002eb00346488000002eb0074628800a0
:1014f4000002eb00346288000002eb007463880091
:101504001e0290003463880099fe370098fe37006d
:101514000000fa000068a9000080fa0000400600fc
:101524003600f800809fbe00829fbe00849fbe00ec
:10153400869fbe000000fa009a0307002471800011
:101544000402d100614262000404a200614262000c
:101554000482fb00610262000402420026718000e2
:10156400d5ff2f0085026300048272002471880075
:1015740000e8a9000080fa004f03be004f02be003d
:101584004f01be004f00be003600f90000400600c7
:101594001a00fa00889fbe0094828000a582800011
:1015a4000400be0058fd07000002be0014079800a6
:1015b4002507980094828000a58280000400be0064
:1015c40070fc07000002be0034079800450798002d
:1015d400d4828000e58280003e019000ce0190001c
:1015e4000400be00abfc07000002be000404be0001
:1015f400b4828000c58280001e019000ae0190007c
:101604000400be00a3fc07000002be000401be00eb
:101614000800be00fdfb07000002be00540798004e
:1016240065079800b4828000c58280003e01900066
:10163400ce0190000400be0096fc07000002be002c
:101644000404be00d4828000e58280001e01900064
:10165400ae0190000400be008efc07000002be0034
:101664000401be000800be00e9fb07000002be0042
:1016740014079800250798000002eb00040f780077
:10168400200037009e02780063824200c222dd00ff
:1016940004002100048242001402be001e019000d6
:1016a400ae0190000400be007afc07000002be00f8
:1016b4000404be001e027800c222dd0004002100e2
:1016c400048242001402be005e019000ee0190000c
:1016d4000400be006ffc07000002be000401be004f
:1016e4000800be00cafb07000002be001e0378000b
:1016f4004233dd006e03430006034700048bbe0043
:101704001e0fe8001e027800e20f5200ddff3400d5
:101714007e0290008e0a900018c0b3006011b800d9
:101724000400be0019fc070000027800e00f52001c
:1017340001003d000044eb00e04f54008300320000
:101744001e0a9000ae0a900018c0b3006011b800e1
:101754000400be000dfc070000027800e00f5200f8
:1017640001003d000044eb00e04f54002300320030
:101774001e0a9000ae0a900002002000832c240070
:101784000400be0043fc07000002be0014079800da
:10179400250798006022b800548388006583880078
:1017a4001e029000ae029000f48288000583880037
:1017b4007e0290008e0a900002002000832c2400f8
:1017c4000400be0033fc07000002be001e019000ae
:1017d400ae0190000400be008dfb07000002be00b5
:1017e4003483880045838800040020000504240015
:1017f4001483880025838800d80037003e0a9000af
:10180400ce0a900018c0b3006011b8000400be00f6
:10181400defb070000027800e00f520001003d00eb
:101824000044eb00e04f5400230032007e0290009d
:101834008e0a900002002000832c24000400be00c5
:1018440014fc07000002be00140798002507980046
:101854003e0a9000ce0a900002002000832c24004f
:101864000400be000bfc07000002be001e01900035
:10187400ae0190000400be0065fb07000002be003c
:1018840054838800658388006022b800f48288004d
:10189400058388001e029000ae0290003483880005
:1018a4004583880004002000050a2400148388006e
:1018b40025838800a90037001e0a9000ae0a900014
:1018c40005f0a20002002000832c24000400be00c6
:1018d400f0fb07000002be001407980025079800db
:1018e4001e029000ae029000548388006583880035
:1018f4006022b800f4828800058388003e0a9000c4
:10190400ce0a900005f0a20002002000832c2400df
:101914000400be00dffb07000002be001e019000b1
:10192400ae0190000400be0039fb07000002be00b7
:1019340034838800458388000400200005f82300d0
:101944001483880025838800840037001e0a9000d1
:10195400ae0a900018c0b3006011b8000400be00c5
:101964008afb070000027800e00f520001003d00ee
:101974000044eb00e04f5400540032003e0a900053
:10198400ce0a900018c0b3006011b8000400be0075
:101994007efb070000027800e00f520001003d00ca
:1019a4000044eb00e04f5400230032003e0a900054
:1019b400ce0a900002002000832c24000400be0004
:1019c400b4fb07000002be00140798002507980026
:1019d4001e029000ae029000548388006583880044
:1019e4001e0a9000ae0a900002002000832c2400fe
:1019f4000400be00a7fb07000002be001e01900009
:101a0400ae0190000400be0001fb07000002be000e
:101a1400f4828800058388006022b800348388003b
:101a24004583880004002000050c240014838800ea
:101a340025838800490037003e0a9000ce0a9000b2
:101a440005f0a20002002000832c24000400be0044
:101a540090fb07000002be001407980025079800b9
:101a64006022b80054838800658388007e02900059
:101a74008e0a900005f0a20002002000832c2400ae
:101a84000400be0083fb07000002be001e0190009c
:101a9400ae0190000400be00ddfa07000002be00a3
:101aa400f4828800058388001e029000ae02900034
:101ab4003483880045838800040020000500240046
:101ac4001483880025838800240037007e02900058
:101ad4008e0a900005f0a20002002000832c24004e
:101ae4000400be006bfb07000002be001407980050
:101af400250798001e0a9000ae0a900005f0a20087
:101b040002002000832c24000400be0061fb0700b7
:101b14000002be001e019000ae0190000400be0051
:101b2400bbfa07000002be00548388006583880066
:101b34001e029000ae029000f482880005838800a3
:101b44006022b800348388004583880004002000a4
:101b54000508240014838800258388004f04be00f0
:101b64000080fa00000006000000fa00443b8400f4
:101b74008002eb00050a7800020120008000eb00df
:101b8400e0052100c8fc07006022b80094828800a8
:101b9400a58288006022b800b4828800c5828800cb
:101ba4006022b800d4828800e5828800c480800066
:101bb400d580800094828800a5828800e48080001b
:101bc400f5808000f4828800058388000481800009
:101bd4001581800014838800258388002481800077
:101be40035818000b4828800c582880044818000e9
:101bf4005581800034838800458388006481800097
:101c04007581800054838800658388008481800006
:101c140095818000d4828800e58288000080fa00e3
:101c2400000006000000fa000080fa000000060030
:101c34000000fa0031e2a90031a2a9003182a90012
:101c44003162a900841180000480a1000490a100e5
:101c54008411880030e2a80030c2a90030a2a90093
:101c64003082a900841180000410a1000420a10086
:101c7400841188003002a9003062a90004402400c5
:101c840074428800941180000460a1000470a100d3
:101c9400941188003222a900a4012000c4118800f4
:101ca40031e2a8003342a8000080fa0000000600d8
:101cb4000000fa00843e2000246088000002eb004b
:101cc400446488000002eb00846488000002eb0096
:101cd400446288000002eb00846288000002eb008a
:101ce400446388000002eb00846388000002eb0078
:101cf400346288000002eb00746288000002eb008a
:101d0400346388000002eb00746388000002eb0077
:101d1400346488000002eb00746488000002eb0065
:101d240054638800546380005462880054628000c5
:101d3400546488000002eb006463880064638000dc
:101d440064628800646280006464880004c02c00bb
:101d54001464880014648000146388001463800091
:101d6400146288000002eb00146188000002eb009a
:101d7400146588000002eb00146688000002eb0082
:101d840004638800046380000462880004628000a5
:101d940004648800340020002463880024638000e5
:101da4002462880024628000246488000002eb001e
:101db40014608800040028000460880064eea80011
:101dc400650ea9000080fa00000006000000fa0079
:101dd400a4042000343a8800253a800004fe2f0031
:101de40004826200243a8800243a80000460a1003e
:101df4000470a100243a8800160020008407200003
:101e0400a509200037742000844b7800854b7800a6
:101e1400864b7800143a8000040378000600a00082
:101e2400640420007505200027742000844b78008a
:101e3400854b7800864b780000000000153a80003e
:101e4400040027008482620004002100848f520071
:101e5400faff3a0000000000153a80000402200056
:101e640004826200e00f5200fbff32000080fa009f
:101e7400000006000000fa0060eea900610ea9004f
:101e8400110ea80021aea80010eea80060cea90093
:101e940060eea900610ea900210ea90020eea900a0
:101ea40020cea900200ea900202ea900204ea900b2
:101eb400216ea9000002eb00747088000002eb00a0
:101ec400f47088000002eb00747188000002eb00db
:101ed400f47188000002eb00747288000002eb00c9
:101ee400f47288000002eb007473880020eea900ed
:101ef40020cea90060cea90011eea8000080fa004f
:101f0400000006000000fa0005e1a9000421a90070
:101f140004c1a900240880000440a1000450a100c9
:101f2400240888000002eb00040888000002eb008b
:101f3400140888000442800004c0a00004d0a0005b
:101f440004e0a000044288000068a9002068a800fa
:101f540005e1a80011e1a9001021a90010c1a90000
:101f6400840880000440a0000450a0008408880075
:101f74000002eb0034088800044b20006408880049
:101f84001442800004c0a00004d0a10004e0a10019
:101f94001442880000e8a90020e8a80011e1a80084
:101fa4000080fa00000006000000fa000407210087
:101fb40014427800e14f520002003a0014c0b3000a
:101fc40035003700153a8000f4fb2f0004836200cb
:101fd400640420007505200027742000844b7800d9
:101fe400854b7800864b78006536800004f82f0016
:101ff40084826200f4022000048272006436880045
:10200400a5348000f40f2c00848262000480200038
:1020140004827200a43488006534800004fc2f001c
:10202400048262009400b30064348800153a80008e
:102034000404200004837200640420007505200059
:1020440027742000844b7800854b7800864b7800f9
:1020540052f9070044422e0094838800f4ff2300c1
:10206400a4838800f4fb2d00b4838800b683800029
:10207400a5838000948380000601780085007800a1
:10208400040078004bf9070014c0b3000400780082
:1020940070f0b7000042eb00044078000080fa00c2
:1020a400000006000600fa001007980021079800b7
:1020b40024eea90044138000040f78001e0290004f
:1020c400cb22dd002e02900004827200040f7800ff
:1020d4001e029000cb22dd002e02900004827200ca
:1020e400441388000002eb00040f7800010037005d
:1020f4001e0fe800b45d20009e027800848f520019
:10210400fbff340024eea8000002eb00040f78006b
:10211400010037001e0fe8001e027800f30f520082
:10212400fcff340024eea90044138000040f78005f
:102134001e029000cb22dd002e0290000482720069
:10214400441388000002eb00040f780001003700fc
:102154001e0fe800b45d20009e027800848f5200b8
:10216400fbff340019f9070000027800040078002e
:102174000080fa00000006000400fa00100798002e
:1021840024eea90044138000040f78001e0290007e
:10219400cb22dd000400280004827200441388006e
:1021a4000002eb00040f7800010037001e0fe80066
:1021b400b45d20009e027800848f5200fbff36003d
:1021c40024eea8000002eb00040f780001003700a1
:1021d4001e0fe8001e027800f30f5200fcff3600c9
:1021e40024eea90044138000040f78001e0290001e
:1021f400cb22dd000400280004827200441388000e
:102204000002eb00040f7800010037001e0fe80005
:10221400b45d20009e027800848f5200fbff3600dc
:1022240024eea800e9f80700000278000400780012
:102234000080fa00000006000400fa00100798006d
:102244008407210014427800e14f520002003a0052
:1022540014c0b300500037009e02900015027800ad
:102264000400a1000410a100840a78009e029000da
:10227400150278000430a000840a78009e029000c1
:10228400150278000420a100840a78009e029000c0
:10229400150278000440a1000450a100840a7800cb
:1022a4001e02900014037800f5832f0005036300d9
:1022b400055c200085027300050a78009e029000e8
:1022c400150290000440a100940298009e02900020
:1022d400150290000450a100940298009e02900000
:1022e400150290000420a1000430a100940298007b
:1022f4001e02900014039000f5832f0085026300f2
:10230400150298009e029000150290000400a1009e
:102314000410a100940298002000200096ff0700fa
:1023240000027800040f78003000200092ff0700bc
:1023340000027800040f78001e0290001402780056
:10234400840078002000200056ff07001e02900041
:1023540014029000840078003000200051ff070030
:102364002000200084ff070000027800040f78009a
:102374003000200080ff070000027800040f78007e
:102384001e029000d483880014c0b30004007800b7
:1023940078f0b7000042eb00044078000080fa00b7
:1023a400000006000000fa00881f7800d88380002f
:1023b4000000eb0070ff070000027800240498007e
:1023c400d8838000100020006bff07000002780013
:1023d400240498002000200067ff0700300020003c
:1023e40065ff0700d583800014c0b300844a9800b9
:1023f4004f0478000080fa00000006000000fa0094
:10240400d5838000150278000420a000840a780097
:10241400d483800014027800840078002000200017
:1024240020ff07000080fa00000006000200fa0006
:10243400004f78001e427800e04f5200090032003d
:10244400d5838000150290000440a00094029800f7
:10245400d5838000150290000450a00094029800d7
:1024640008003700d5838000150290000440a100c5
:1024740094029800d5838000150290000450a100b6
:1024840094029800d48380001402900084007800a1
:102494003000200003ff07000080fa00000006005f
:1024a4000200fa00000f78001e027800e00f5200cc
:1024b40005003200acfd07001e027800e4838800aa
:1024c40014c0b300010037000042eb000440780060
:1024d4000080fa00000006000400fa00008fbe002d
:1024e4001e02be0094828800a58288000080fa0043
:1024f400000006000200fa00004f78001e42780037
:102504000482fb00050020000400be00a1f80700bf
:102514000002be00b4828800c58288000080fa00f0
:10252400000006000400fa00008fbe001e02be0078
:10253400d4828800e58288000080fa00000006004a
:102544000000fa0012fc0700e68380003483800058
:1025540045838000048bbe00e683800054838000a2
:10256400658380002403980035039800e683800087
:10257400f48280000583800044039800550398008a
:10258400e583800014c0b300c44a98000080fa00b8
:04259400000006003d
:020000040000fa
:10259800341000001e0000008000000070100000d1
:1025a80008000000800000007c100000020000000d
:1025b80080000000521000001e0000008000000093
:1025c80000100000340000008200000000008000bd
:1025d8003f00000000bf00000000bf000000000036
:1025e80000d7b3005d3fd700b35dbf000000000017
:1025f80000000000000000000000000000000000d3
:1026080000000000000000000000000000000000c2
:1026180000000000781000000400000080000000a6
:102628007e10000002000000800000000000000092
:020000040000fa
:02000004000af0
:04afe000dfff00008f
:020000040000fa
:02000004000af0
:04afe8007fff0000e7
:020000040000fa
:02000004000af0
:04afec007fff0000e3
:020000040000fa
:02000004000af0
:04aff00038ff000026
:00000001FF
