:020000040000fa
:080000000002040000000000f2
:020000040000fa
:10000800cc020000cc020000cc020000cc020000b0
:10001800cc020000cc020000cc020000cc020000a0
:10002800cc020000cc020000cc02000094170000b3
:10003800cc020000cc020000cc0200009c1700009b
:10004800cc020000cc020000cc020000cc02000070
:10005800cc020000cc020000cc020000cc02000060
:10006800cc020000cc020000cc020000cc02000050
:10007800cc020000cc020000cc020000cc02000040
:10008800cc020000cc020000cc020000cc02000030
:10009800cc020000cc0200007e140000de14000038
:1000a800cc020000cc020000cc020000cc02000010
:1000b800cc020000cc020000cc020000cc02000000
:1000c800cc020000cc020000cc020000cc020000f0
:1000d800cc020000cc020000cc020000cc020000e0
:1000e800cc020000cc020000cc020000cc020000d0
:1000f800cc020000cc020000cc020000cc020000c0
:10010800cc020000cc020000cc020000cc020000af
:10011800cc020000cc020000cc020000cc0200009f
:10012800cc020000cc020000cc020000cc0200008f
:10013800cc020000cc020000cc020000cc0200007f
:10014800cc020000cc020000cc020000cc0200006f
:10015800cc020000cc020000cc020000cc0200005f
:10016800cc020000cc020000cc020000cc0200004f
:10017800cc020000cc020000cc020000cc0200003f
:10018800cc020000cc020000cc020000cc0200002f
:10019800cc020000cc020000cc020000cc0200001f
:1001a800cc020000cc020000cc020000cc0200000f
:1001b800cc020000cc020000cc020000cc020000ff
:1001c800cc020000cc020000cc020000cc020000ef
:1001d800cc020000cc020000cc020000cc020000df
:1001e800cc020000cc020000cc020000cc020000cf
:1001f800cc020000cc020000cc020000cc020000bf
:10020800cc020000cc020000cc020000cc020000ae
:10021800cc020000cc020000cc020000cc0200009e
:10022800cc020000cc020000cc020000cc0200008e
:10023800cc020000cc020000cc020000cc0200007e
:10024800cc020000cc020000cc020000cc0200006e
:10025800cc020000cc020000cc020000cc0200005e
:10026800cc020000cc020000cc020000cc0200004e
:0c027800cc020000cc020000cc02000010
:020000040000fa
:100400002f8921000eff27000e0188000000000048
:1004100000012000200288000c000700e08a210073
:10042000010020000f000700000020000000e00095
:100430000200320000000200000000003c17020031
:10044000000000000040da000000fe002000200054
:100450000000e0000200320000202000900188002f
:1004600000000600a1028800800078000000eb0078
:100470001a003700e280400054a0b4009101ba0095
:10048000e280400054a0b4009102ba00e280400033
:1004900054a0b4000002eb00472bde00f507b200c9
:1004a000a6018800602ce10008003a000049eb003a
:1004b0000201e800020039003420ec0002f0a00044
:1004c0008301e900f9ff3e00040037006128e100e4
:1004d000010032000082eb00040007001101ba00a5
:1004e0000200e000e3ff3a000000060004d0a30091
:1004f000e20f49001c003900810278003549ba003a
:100500000201e800020039003420ec0002f0a000f3
:100510008301e9000f0032002549ba000201e8001a
:10052000020039003420ec0002f0a0008301e90051
:10053000080032000400e0000600320015c9ba00cd
:100540000201e800020039003420ec0002f0a000b3
:100550008301e9008180e80054a0b4000300e000ba
:10056000e2ff3a00000006009102ba000559780047
:100570008301e900f7ff3200c82ade000559780040
:100580008301e900f3ff32000400e000f1ff3200d4
:1005900011d9ba00eeff37000040da000000fe007b
:1005a0000000fa002428a90061e2a9000428a9009b
:1005b0000080fa00000006000000fa001013880016
:1005c00021138800021388000080fa000000060052
:1005d0000000fa0004138000610262000080eb005a
:1005e0000900320060c2a9001513800004402000f9
:1005f00004826200020032004013800002003700d3
:1006000040138000f00fb2000080fa0000000600e6
:100610000000fa0031e2a90023c8a90023e8a900dc
:1006200003c8a90003e8a9000080fa000000060042
:100630000000fa0003c8a90003e8a900e70260006f
:10064000c82add0076428000f48f2f000402630088
:100650000502720074428800800278000507b2002b
:10066000c82add0076428000f4ff280004026300ff
:100670000502720074428800e8026000c32ade00ae
:10068000e1826200ce2add001441800004e0a10076
:1006900005027200144188000008b2004700de0025
:1006a000610060004f00dd001441800004f0a100f3
:1006b00000027200144188000080fa000000060069
:1006c0000000fa00c2118800801188009111880092
:1006d0000080fa000000060003f0a200889fbe0020
:1006e0008a9fbe008c1f7800850007008c003300b5
:1006f0006450e1004f0032006420e10052003200fb
:1007000003826c0007003b000905d0000306d000ff
:10071000820f54000c065d00020039000200320016
:1007200089017800030678008582550004003d00a9
:100730000003fd008103fd008502ea008b85420075
:10074000840f720002003b0060001000e08018007f
:100750006011b8000005eb007a28e1000a003900ba
:1007600006007800c75ddd00f707b20087807500de
:100770002d003700828171000a0178006105600058
:100780008180d1000080d3008502e900f9ff3b00a1
:10079000060440008784480002003b006004140007
:1007a000e0841c000988a300070032008a817100e0
:1007b00082817100610164008904d1000884d30042
:1007c0008b05e800170037000978a30013003a00f2
:1007d0000b00e000130034008b05e900080444001e
:1007e00089844c000a4474000978a3000d003a0083
:1007f0000b00e000070034008b05e900080444000a
:1008000089844c0001003a000b0020000978a30005
:10081000f7ff32000001eb00020037008281710017
:100820000a017800100007000cf0a70001f0a000fa
:10083000440037006420e10002003a00838f6c001e
:10084000440033000801be000200be003d00370036
:100850000081eb0076003700f4ff2f00df00370047
:100860006011b8001e013700810020006180550032
:100870000b003d000b00200061fe2f000100e10095
:100880001d00340082817100610164008904d1007f
:100890000884d3000000e800faff3a00710020004d
:1008a0006100640003007000020060000900320073
:1008b00061044400e0844c000988a5000500320072
:1008c0008b05e8006808e10002003a008904d100c5
:1008d0000884d300f20f20000258e10005003d001b
:1008e000c75ddd00f907b200898075000800780057
:1008f000000006000bf827008b00780000000500c0
:100900000004be00760107000003be000405be001f
:100910000200be0072010700844f7500000006004f
:100920000200be006450e100050036006420e100d2
:10093000020036000968a30001003a000800be006a
:100940000160a0004f0678004f05be004f04be00b6
:1009500000000600f0ff2f00f1ff2700f9ff37002d
:10096000889fbe008a9fbe008c1f7800e4ff0700ae
:10097000ebff330003866c006450e100240032007a
:100980006420e100270032006150e10022003200c3
:100990006120e100210032008b854200eb07b100ad
:1009a0000134b800003ab8000804420089844a00c3
:1009b000013ab8000030b8008880400009014a00c0
:1009c000040033000000400081804800020149001b
:1009d0008b05e900c909dd008301700001003200c8
:1009e00013002000c814de004814dd004709de00b3
:1009f0001200b200c808de00088470009aff0700e9
:100a000001f0a1000cf0a70001f0a000cdff37001d
:100a10006120e100cfff32000801be000200be00ed
:100a2000f7ff37006150e100fcff3a00c9ff3700d3
:100a3000889fbe008a9fbe008c9fbe008205780002
:100a40000004be00260107000800be006420e1008b
:100a50000700390002003a00f1ff2700f0ff2f00e5
:100a60000160a0001202200082c4880055003700f7
:100a70006120e10003003a000b00a70001f8230009
:100a80005000370001f0a10002002100936424000f
:100a90006d0007000800be0004003500b2fd200014
:100aa000930c2400bd0007000004be000005eb000d
:100ab0000b00a6004f0dde0001f0a1000004be00f7
:100ac00032982f0023ea2300a5ff07000001eb0066
:100ad00003f023000b00a70003f82300fffe07002c
:100ae0005b0007000000a7000a00a20079000700d1
:100af0000b00e000030032000200200003f023009e
:100b0000f5fe070001f0a2000006be000200200072
:100b10009304240092ff07000801be00effe0700c7
:100b2000809fbe000c00be0022a22a00d3a7230093
:100b30008bff07004f01be00e8fe07000004be0067
:100b400001f0a10002002000039823003e000700ee
:100b50000800be00190035000001be0080ff07003c
:100b60000006be00b2c52900e36223007cff070037
:100b700022222b00f3942b00d8fe07000c01be00ac
:100b800077ff0700e273280083c02300d3fe07002d
:100b90000c01be0072ff070042aa2a00a3e22b004c
:100ba000cefe07000c01be006dff07000801be006d
:100bb0006bff07000801be00c8fe07000a00a7007f
:100bc00001f0a2004f06be004f05be004f04be005c
:100bd000000006000001eb0095ff3700889fbe0073
:100be0008a9fbe00841f780045ff07004f007800f1
:100bf00011003300f0ff2f00838f6c0006003b00d4
:100c0000040565000a00a7000800370009f0a600e7
:100c10001000200008003700820f5400838f5c0012
:100c2000030039001000200001003e0000002000f9
:100c300009f0a7000000ea004f05be004f04be0007
:100c40000000e0000000060014002000e3ff370071
:100c50000001be00a20007000470a70003f0a1007d
:100c60006509b100160032000d0035006828e1006a
:100c700006003500f0ff2f00f1ff27000300e00021
:100c800013003b00010028000000050000004000a8
:100c9000818048008502e900fcff3a000800370027
:100ca000f88f420002003c008000eb0000000500cd
:100cb0008100d1000080d3008502e800fcff3a00eb
:100cc0000300e00002003b0060001000e08018001c
:100cd000000006004f89de00820178009500370091
:100ce000889fbe008a9fbe000082700004027100cf
:100cf00004827100260032000004be000200be0023
:100d00006011b8006b092000950220000182cf001d
:100d10000a0039000541b1000082cf000700390008
:100d20000541b1000982cf00040039000541b1003e
:100d30000882cf00010039000541b1000542520090
:100d4000120032000a003b008281710061016400e0
:100d50008100d1000080d3008984d3000884d300af
:100d60008b05e8000442e800f7ff3a00070037006f
:100d70000804440089844c00000048008180480039
:100d80008b05e9000442e900f9ff3a00b6fe0700ce
:100d90004f05be004f04be00000006000400200006
:100da00000003700889fbe008a9fbe008c1f78001d
:100db0004f26dd00d2fe0700d9fe33006120e1009e
:100dc000430032006250e10041003e003e00390025
:100dd0006420e1003c003200058255000f003b001a
:100de0000402e80038003a00800f5300818f5b0056
:100df000350034000800be0003f0a10001f0a60099
:100e000003f0a0000cf0a70034fe0700cdfe370071
:100e10000603430087834b000c4646000005530041
:100e200081855b00020033000a03be000c00a000b5
:100e30000402e900f6ff3b00850578000602430046
:100e400087824b0004003a006000b80009f0a70058
:100e500001f0a000bbfe37000002520081825a0060
:100e60000704e000040033000603430087834b00bf
:100e70008b05e900faff3700090578000604be007b
:100e80000203be006011b80077fe0700e00f5200b9
:100e9000e08f5a000700350002003c000c08a30058
:100ea000040032000601be0003f0a0000cf0a70011
:100eb0000afe07000a85680001f0a1000af0a700f9
:100ec00001f0a0009ffe37000800be009dfe370025
:100ed000100220000cf0a60080c488009dfe3700a0
:100ee000c70ade00f107b200f50fb20008003200b9
:100ef000e1cf4200020032000170a0002400050092
:100f0000810f700001003200040805004400050054
:100f1000810f700002003a00140005008502e9000c
:100f20000000400081c04800fcff3b000170a000b1
:100f300024000500881f7800030478000300e00007
:100f400007003d0060001000e080180060011900fb
:100f5000e081190002003b0001f02d000300370082
:100f60005fff070008f0a70001f0a0004f04780021
:100f7000000006000000fa000002780002003700be
:100f8000015a78000201e900e00f5100fcff3a002d
:080f90000080fa0000000600d9
:020000040000fa
:040f980068180000d5
:020000040000fa
:100f9c000800fa0010079800210798003207980003
:100fac002e029000e00f5200030032001e0290004f
:100fbc00e00f520002003a000002eb00250037005f
:100fcc003e029000e10f520002003e000002eb00d6
:100fdc00200037001e029000ae02900055029800cf
:100fec000002eb00040f7800060037001e02900090
:100ffc00540290009e0242000042eb00844a7800aa
:10100c001e0fe8003e0290009e027800848f520072
:10101c00f6ff39001e0290008002eb00050a7800f2
:10102c001e0290008002eb00150298001e02900038
:10103c00be029000250298001e0290008002eb0078
:10104c00350298009e0290000042eb00844a980002
:10105c0014002000040078000080fa000000060054
:10106c000400fa00000f7800110798001e027800a7
:10107c00e00f5200340032001e027800340290005f
:10108c00e00f5200300032001e027800d4029000b3
:10109c001e02780014027800048242001442780088
:1010ac009e029000844a78001e0278003402900060
:1010bc00e10f52000f003a001e02780094027800f3
:1010cc001e027800240290000402e900848f520072
:1010dc00040031001e027800140278000402e800bb
:1010ec00010037000002eb009e027800840a7800b1
:1010fc000e0037001e027800940278001e02780061
:10110c00240290000402e900848f52000400310094
:10111c001e027800140278000402e8000100370077
:10112c000002eb009e027800840a78001e02780010
:10113c00340290008402e9001e0278003502980007
:10114c0014002000010037000002eb0004007800be
:10115c000080fa00000006000a00fa002007980040
:10116c0031079800420798002e029000e00f5200c1
:10117c00340032003e029000e00f52003100320089
:10118c003e029000140798002e029000b4029000ca
:10119c004e029000848f52002a0039000002eb00ae
:1011ac00040f78001b0037001e0278009e0290008e
:1011bc00848242002e029000540390002e02900074
:1011cc00140278000402430014427800844a780028
:1011dc002e029000940278002e02900024029000bf
:1011ec000402e900848f5200060031002e029000a8
:1011fc00140278008402e8002e029000050a7800a0
:10120c00030037002e0290008002eb00050a7800e4
:10121c001e0fe8009e0278004e029000848f520050
:10122c00e1ff39002e029000b40290004e029000b3
:10123c00848252002e029000350298001400200087
:10124c00010037000002eb00040078000080fa0077
:10125c00000006000400fa00000f780021479800f7
:10126c001e027800e00f5200290032001e027800a6
:10127c00b40290001e02780024029000848f520069
:10128c0007003a001e027800044a90000442e8006d
:10129c009e027800844a98000002eb001d00370083
:1012ac001e027800d40290001e02780014029000f6
:1012bc0004824200ae429000054a78001e0278007b
:1012cc00940290001e027800240290000402e900af
:1012dc00848f5200040031001e027800140290002a
:1012ec000402e800010037000002eb009e027800c7
:1012fc00940298001e027800340290008402e800e8
:10130c001e027800350298001400200001003700fe
:10131c000002eb00040078000080fa0000000600d8
:10132c000e00fa0030079800410798005207980009
:10133c00434f98003e029000e00f520075003200bf
:10134c004e029000e00f5200720032004e029000ec
:10135c00240798004e4a9000e04f520032003200b1
:10136c003e029000a40290003e02900034029000d5
:10137c00848252005e029000848f52000200310081
:10138c000002eb00640037000002eb00040f780051
:10139c00190037003e029000d40290003e029000eb
:1013ac0014029000848242001e0278002e039000ea
:1013bc000402430014427800844a78001e0fe800af
:1013cc003e029000940290003e0290002402900095
:1013dc000402e900848f5200040031003e029000a8
:1013ec00140290000402e800010037000002eb0038
:1013fc00be029000940298009e0278005e0290005b
:10140c00848f5200e3ff39003e029000b40290003a
:10141c001e027800848242003e0290003502980041
:10142c00140020003c0037000002eb001407980069
:10143c00320037003e029000b40290003e02900051
:10144c0024029000848f52000c003a003e0290005f
:10145c00844a90005e029000044378001e029000c3
:10146c00044278000442530004c24200be029000c1
:10147c00844a98000002eb00270037003e029000df
:10148c00d40290003e02900014029000848242002c
:10149c001e0290002e0390000402430014427800b8
:1014ac00844a78001e0290000402e8001407980099
:1014bc003e029000340290008402e8003e0290004c
:1014cc00350298003e029000940290003e0290007b
:1014dc00240290000402e900848f520004003100c1
:1014ec003e029000140290000402e8000100370054
:1014fc000002eb00be029000940298009e02900045
:10150c005e029000848f5200caff39001400200044
:10151c00010037000002eb00040078000080fa00a4
:10152c00000006000400fa00000f78001107980074
:10153c001e027800e00f52000e0032001e027800ee
:10154c0034029000e00f52000a0032001e027800b4
:10155c00d40290001e02780014027800048242002b
:10156c00144278009e029000844a780014002000f7
:10157c00010037000002eb00040078000080fa0044
:10158c00000006000c00fa00300798004107980094
:10159c00520798003e029000e00f520028003200e3
:1015ac004e029000240798003e029000b402900076
:1015bc005e029000848f5200210039003e029000a0
:1015cc0014027800140798000002eb00040f780056
:1015dc00150037002e0290009e0242003e02900041
:1015ec00540390001e029000040243001442780041
:1015fc00844a78009e0290003e02900024029000e3
:10160c000402e900848f5200040031001e02900095
:10161c000402e80014079800020037000002eb00f7
:10162c00140798001e0fe8005e0290009e027800de
:10163c00848f5200e7ff39001400200001003700ae
:10164c000002eb00040078000080fa0000000600a5
:10165c000400fa00000f7800110798001e027800b1
:10166c00b40290001e029000848f520020003600bd
:10167c001e027800a40290001e027800140278006a
:10168c00848252001e029000848f52000a003100a6
:10169c001e027800940278001e027800240290004a
:1016ac00848252001e029000848242001e02780046
:1016bc00050a7800060037001e02780094027800b4
:1016cc001e029000848242001e027800050a7800f7
:1016dc001e027800b40290001e0290008482520018
:1016ec001e02780035029800140020000800370014
:1016fc001e027800940290001e027800050a780001
:10170c001e0278008002eb003502980014002000c5
:10171c00040078000080fa00000006001a00fa00ad
:10172c00889fbe0064c2800075c280000400be00a9
:10173c0025fd07000002be0014079800250798003d
:10174c0064c2800075c280000400be003dfc07002e
:10175c000002be003407980045079800a4c2800020
:10176c00b5c280003e019000ce0190000400be0086
:10177c0078fc07000002be000404be0084c2800096
:10178c0095c280001e019000ae0190000400be00c6
:10179c0070fc07000002be000401be000800be0081
:1017ac00cafb07000002be005407980065079800aa
:1017bc0084c2800095c280003e019000ce01900052
:1017cc000400be0063fc07000002be000404be005f
:1017dc00a4c28000b5c280001e019000ae01900032
:1017ec000400be005bfc07000002be000401be004a
:1017fc000800be00b6fb07000002be0014079800ec
:10180c00250798000002eb00040f78002000370039
:10181c009e02780063824200c222dd008481210096
:10182c00048242001402be001e019000ae01900022
:10183c000400be0047fc07000002be000404be000a
:10184c001e027800c222dd00848121000482420045
:10185c001402be005e019000ee0190000400be0078
:10186c003cfc07000002be000401be000800be00e4
:10187c0097fb07000002be001e0378004233dd0018
:10188c006e03430006034700048bbe001e0fe800e6
:10189c001e027800e20f5200ddff34007e02900041
:1018ac008e0a900018c0b3006011b8000400be008e
:1018bc00e6fb070000027800e00f520001003d003b
:1018cc000044eb00e04f5400830032001e0a9000ed
:1018dc00ae0a900018c0b3006011b8000400be003e
:1018ec00dafb070000027800e00f520001003d0017
:1018fc000044eb00e04f5400230032001e0a90001d
:10190c00ae0a900002002000832c24000400be00cc
:10191c0010fc07000002be00140798002507980071
:10192c006022b80024c3880035c388001e029000d2
:10193c00ae029000c4c28800d5c288007e0290001e
:10194c008e0a900002002000832c24000400be00ac
:10195c0000fc07000002be001e019000ae019000ca
:10196c000400be005afb07000002be0004c388003e
:10197c0015c388000400200005042400e4c288007c
:10198c00f5c28800d80037003e0a9000ce0a9000bd
:10199c0018c0b3006011b8000400be00abfb070018
:1019ac0000027800e00f520001003d000044eb0003
:1019bc00e04f5400230032007e0290008e0a90000b
:1019cc0002002000832c24000400be00e1fb070071
:1019dc000002be0014079800250798003e0a9000ec
:1019ec00ce0a900002002000832c24000400be00cc
:1019fc00d8fb07000002be001e019000ae01900053
:101a0c000400be0032fb07000002be0024c38800a5
:101a1c0035c388006022b800c4c28800d5c28800d3
:101a2c001e029000ae02900004c3880015c388000b
:101a3c0004002000050a2400e4c28800f5c28800d6
:101a4c00a90037001e0a9000ae0a900005f0a20013
:101a5c0002002000832c24000400be00bdfb070004
:101a6c000002be0014079800250798001e02900083
:101a7c00ae02900024c3880035c388006022b800f1
:101a8c00c4c28800d5c288003e0a9000ce0a9000dd
:101a9c0005f0a20002002000832c24000400be00ec
:101aac00acfb07000002be001e019000ae019000ce
:101abc000400be0006fb07000002be0004c3880041
:101acc0015c388000400200005f82300e4c2880038
:101adc00f5c28800840037001e0a9000ae0a900000
:101aec0018c0b3006011b8000400be0057fb07001b
:101afc0000027800e00f520001003d000044eb00b2
:101b0c00e04f5400540032003e0a9000ce0a900080
:101b1c0018c0b3006011b8000400be004bfb0700f6
:101b2c0000027800e00f520001003d000044eb0081
:101b3c00e04f5400230032003e0a9000ce0a900081
:101b4c0002002000832c24000400be0081fb07004f
:101b5c000002be0014079800250798001e02900092
:101b6c00ae02900024c3880035c388001e0a900082
:101b7c00ae0a900002002000832c24000400be005a
:101b8c0074fb07000002be001e019000ae01900025
:101b9c000400be00cefa07000002be00c4c28800da
:101bac00d5c288006022b80004c3880015c3880021
:101bbc0004002000050c2400e4c28800f5c2880053
:101bcc00490037003e0a9000ce0a900005f0a200b2
:101bdc0002002000832c24000400be005dfb0700e3
:101bec000002be0014079800250798006022b80078
:101bfc0024c3880035c388007e0290008e0a9000b2
:101c0c0005f0a20002002000832c24000400be007a
:101c1c0050fb07000002be001e019000ae019000b8
:101c2c000400be00aafa07000002be00c4c288006d
:101c3c00d5c288001e029000ae02900004c388003a
:101c4c0015c388000400200005002400e4c28800ad
:101c5c00f5c28800240037007e0290008e0a9000a6
:101c6c0005f0a20002002000832c24000400be001a
:101c7c0038fb07000002be001407980025079800e7
:101c8c001e0a9000ae0a900005f0a200020020008f
:101c9c00832c24000400be002efb07000002be00b3
:101cac001e019000ae0190000400be0088fa0700ef
:101cbc000002be0024c3880035c388001e029000b9
:101ccc00ae029000c4c28800d5c288006022b80061
:101cdc0004c3880015c388000400200005082400f4
:101cec00e4c28800f5c288004f04be000080fa00f0
:101cfc00000006000000fa00643e84008002eb0045
:101d0c00050a7800020120008000eb00808521008c
:101d1c0095fc07006022b80064c2880075c2880078
:101d2c006022b80084c2880095c288006022b80086
:101d3c00a4c28800b5c2880084c1800095c180000f
:101d4c0064c2880075c28800a4c18000b5c180003f
:101d5c00c4c28800d5c28800c4c18000d5c180002f
:101d6c00e4c28800f5c28800e4c18000f5c180009f
:101d7c0084c2880095c2880004c2800015c280000d
:101d8c0004c3880015c3880024c2800035c28000bb
:101d9c0024c3880035c3880044c2800055c280002b
:101dac00a4c28800b5c288000080fa0000000600ba
:101dbc000000fa000080fa00000006000c00fa0097
:101dcc00000f78001107980022079800330798003d
:101ddc0044079800550798001e0278007464880028
:101dec001e029000346488002e02900074628800f9
:101dfc003e029000346288004e02900074638800aa
:101e0c005e029000346388000080fa000000060037
:101e1c000400fa00000f7800110798001e029000d1
:101e2c00e00f5200a8003a009570800004102000ca
:101e3c0004826200e00f520017003200157180001e
:101e4c000400220004826200e00f520012003200f3
:101e5c00957080000408200004826200e00f52009c
:101e6c000d003a000002eb00746488000002eb00e5
:101e7c00346488001e027800746288000002eb0053
:101e8c00346288000002eb00746388001e02780044
:101e9c00346388003c0137009570800004102000ea
:101eac0004826200e00f520017003a0015718000a6
:101ebc000400220004826200e00f52001200320083
:101ecc00957080000408200004826200e00f52002c
:101edc000d003a000002eb00746488001e027800ca
:101eec00346488001e027800746288000002eb00e3
:101efc00346288000002eb00746388000002eb007f
:101f0c003463880020013700957080000410200095
:101f1c0004826200e00f520017003a001571800035
:101f2c000400220004826200e00f52001200320012
:101f3c00957080000408200004826200e00f5200bb
:101f4c000d0032000002eb00746488001e02780061
:101f5c00346488000002eb00746288000002eb001d
:101f6c00346288001e027800746388000002eb0063
:101f7c003463880004013700957080000410200041
:101f8c0004826200e00f520017003a0015718000c5
:101f9c000400220004826200e00f520012003a009a
:101fac00957080000408200004826200e00f52004b
:101fbc000d0032000002eb00746488000002eb009c
:101fcc00346488000002eb00746288001e02780002
:101fdc00346288001e027800746388000002eb00f3
:101fec0034638800e80037009570800004102000ee
:101ffc0004826200e00f520017003200157180005d
:10200c000400220004826200e00f520012003a0029
:10201c00957080000408200004826200e00f5200da
:10202c000d0032001e027800746488000002eb0080
:10203c00346488000002eb00746288001e02780091
:10204c00346288000002eb00746388000002eb002d
:10205c0034638800cc003700957080000410200099
:10206c0004826200e00f5200c20032001571800041
:10207c000400220004826200e00f5200bf003a000c
:10208c00957080000408200004826200e00f52006a
:10209c00bc003a001e027800746488000002eb0059
:1020ac00346488000002eb00746288000002eb00cc
:1020bc00346288000002eb00746388001e02780012
:1020cc0034638800b00037001e029000e10f52000c
:1020dc00ad003a009570800004102000048262006c
:1020ec00e00f52001700320015718000040022002e
:1020fc0004826200e00f52001200320095708000e2
:10210c000408200004826200e00f52000d003a0027
:10211c000002eb00746488000002eb003464880059
:10212c000002eb00746288001e02780034628800a2
:10213c001e027800746388000002eb003463880090
:10214c00910037009570800004102000048262001a
:10215c00e00f520017003a001571800004002200b5
:10216c0004826200e00f5200120032009570800071
:10217c000408200004826200e00f52000d003a00b7
:10218c001e027800746488000002eb00346488003e
:10219c000002eb00746288001e0278003462880032
:1021ac000002eb00746388000002eb0034638800cb
:1021bc0075003700957080000410200004826200c6
:1021cc00e00f520017003a00157180000400220045
:1021dc0004826200e00f5200120032009570800001
:1021ec000408200004826200e00f52000d0032004f
:1021fc001e027800746488000002eb0034648800ce
:10220c000002eb00746288000002eb00346288006c
:10221c000002eb00746388001e02780034638800af
:10222c005900370095708000041020000482620071
:10223c00e00f520017003a001571800004002200d4
:10224c0004826200e00f520012003a009570800088
:10225c000408200004826200e00f52000d003200de
:10226c000002eb00746488000002eb003464880008
:10227c001e027800746288000002eb003462880051
:10228c000002eb00746388001e027800346388003f
:10229c003d0037009570800004102000048262001d
:1022ac00e00f52001700320015718000040022006c
:1022bc0004826200e00f520012003a009570800018
:1022cc000408200004826200e00f52000d0032006e
:1022dc000002eb00746488001e02780034648800ed
:1022ec001e027800746288000002eb0034628800e1
:1022fc000002eb00746388000002eb00346388007a
:10230c0021003700957080000410200004826200c8
:10231c00e00f52001c0032001571800004002200f6
:10232c0004826200e00f520017003a0095708000a2
:10233c000408200004826200e00f520012003a00f0
:10234c000002eb00746488001e027800346488007c
:10235c000002eb00746288000002eb00346288001b
:10236c001e027800746388000002eb00346388005e
:10237c0005003700000000000300370000000000db
:10238c0001003700000000000080fa000000060089
:10239c000000fa0031e2a90031a2a9003182a900a3
:1023ac003162a900841180000480a1000490a10076
:1023bc008411880030e2a80030c2a90030a2a90024
:1023cc003082a900841180000410a1000420a10017
:1023dc00841188003002a9003062a9000440240056
:1023ec0074428800941180000460a0000470a10065
:1023fc00941188003222a90054022000c4118800d4
:10240c0031e2a8003342a8000080fa000000060068
:10241c000000fa00843e2000246088000002eb00db
:10242c00446488000002eb00846488000002eb0026
:10243c00446288000002eb00846288000002eb001a
:10244c00446388000002eb00846388000002eb0008
:10245c00346288000002eb00746288000002eb001a
:10246c00346388000002eb00746388000002eb0008
:10247c00346488000002eb00746488000002eb00f6
:10248c005463880054638000546288005462800056
:10249c00546488000002eb0064638800646380006d
:1024ac0064628800646280006464880004c02c004c
:1024bc001464880014648000146388001463800022
:1024cc00146288000002eb00146188000002eb002b
:1024dc00146588000002eb00146688000002eb0013
:1024ec000463880004638000046288000462800036
:1024fc000464880034002000246388002463800076
:10250c002462880024628000246488000002eb00ae
:10251c0014608800040028000460880064eea800a1
:10252c00650ea9000080fa00000006000000fa0009
:10253c00a4042000343a8800253a800004fe2f00c1
:10254c0004826200243a8800243a80000460a100ce
:10255c000470a100243a8800160020008407200093
:10256c00a509200037742000844b7800854b780037
:10257c00864b7800143a8000040378000600a00013
:10258c00640420007505200027742000844b78001b
:10259c00854b7800864b780000000000153a8000cf
:1025ac00040027008482620004002100848f520002
:1025bc00faff3a0000000000153a800004022000e7
:1025cc0004826200e00f5200fbff32000080fa0030
:1025dc00000006000000fa0060eea900610ea900e0
:1025ec00110ea80021aea80010eea80060cea90024
:1025fc0060eea900610ea90020eea90020cea90072
:10260c00200ea900202ea900204ea900216ea900a1
:10261c000002eb00747088000002eb00f47088007c
:10262c000002eb00747188000002eb00f47188006a
:10263c000002eb00747288000002eb00f472880058
:10264c000002eb007473880020eea90020cea900d4
:10265c0060cea90011eea800010ea800108ea900f2
:10266c00210ea800153a8000f4fb2f0004836200b1
:10267c00640420007505200027742000844b78002a
:10268c00854b7800864b78006536800004f82f0067
:10269c0084826200f4022000048272006436880096
:1026ac00a5348000f40f2c0084826200048020008a
:1026bc0004827200a43488006534800004fc2f006e
:1026cc00048262009400b30064348800840120000a
:1026dc00a43688001534800004fc2f0004826200ac
:1026ec00e400b300143488003536800004f82f0061
:1026fc0084826200840320000482720034368800d5
:10270c00153a800004042000048372006404200045
:10271c007505200027742000844b7800854b7800c9
:10272c00864b78000080fa00000006000000fa00da
:10273c0011e1a9001021a90010c1a9008408800092
:10274c000440a0000450a000840888000002eb00a4
:10275c003408880004962000640888001442800025
:10276c0004c0a00004d0a10004e0a1001442880021
:10277c0000e8a90020e8a80011e1a8000080fa00f8
:10278c00000006000200fa00000f78000240200052
:10279c00c100210000002100fdf9070002402000cb
:1027ac0081412100c0402100f9f9070095f707008d
:1027bc001e017800d175230000482c00bdf70700de
:1027cc00e0fe2f0097f707000080fa0000000600db
:1027dc000400fa0010079800941180004a22de00d1
:1027ec0061426200044f780031e2a9001e029000a1
:1027fc00c411880031e2a8009e42780061c26200d8
:10280c000482fb00610262004a22dd009611800006
:10281c00f5bf2f00850263000482720094118800ba
:10282c000080fa00000006000200fa0006003700e3
:10283c008e007800c040210009fa07001e42780083
:10284c000482fb00a411880094a08000e00f5200c9
:10285c0005003200951180000420200004826200e3
:10286c00e00f5200f2ff32000080fa000000060078
:10287c000200fa00000f78009e0078000000210092
:10288c00f7f9070000027800040078000080fa00d5
:10289c00000006000200fa00004f78009e4078000d
:1028ac00c04021006bfa0700dfff07000080fa0030
:1028bc00000006000600fa00100798002107980097
:1028cc008041eb002e0190009e009000c040210042
:1028dc0093fa070000027800040f7800d2ff07007b
:1028ec001e027800040078000080fa000000060048
:1028fc003600f800809fbe00829fbe00849fbe0001
:10290c00869fbe003200f800002020009001880055
:10291c00000000000200fa009411800062026200c4
:10292c00e00f5200140032003222a90013003700cd
:10293c009411800064026200e00f52000700320024
:10294c009411800068026200e00f52000300320014
:10295c00b4118000044f780008003700b4118000d7
:10296c00044f78001e42780084407800000021005b
:10297c0038fa0700010037000000000094118000b5
:10298c0061026200e00f5200e9ff3a0003c8a9009f
:10299c000080fa003200f9004f03be004f02be0067
:1029ac004f01be004f00be003600f900004006008b
:1029bc003600f800809fbe00829fbe00849fbe0040
:1029cc00869fbe003200f800002020009001880095
:1029dc00000000000000fa000000000095118000cb
:1029ec000410200004826200e00f5200fbff320052
:1029fc008dff070003e8a9000080fa003200f900ff
:102a0c004f03be004f02be004f01be004f00be0080
:102a1c003600f900004006000400fa001007980088
:102a2c009e029000150278000400a1000410a10081
:102a3c00840a78009e029000150278000430a100f0
:102a4c00840a78009e029000150278000420a100f0
:102a5c00840a78009e029000150278000440a000c1
:102a6c000450a000840a78001e0290001403780021
:102a7c00f5832f00050363000558200085027300c1
:102a8c00050a78009e029000150290000440a100f7
:102a9c00940298009e029000150290000450a10030
:102aac00940298009e029000150290000420a10050
:102abc000430a100940298001e02900014039000b0
:102acc00f5832f0085026300150298009e0290008a
:102adc00150290000400a1000410a10094029800bb
:102aec0020002000b100070000027800040f7800dd
:102afc0030002000ad00070000027800040f7800c1
:102b0c001e0290001402780084007800200020003f
:102b1c00710007001e0290001402900084007800df
:102b2c00300020006c000700200020009f000700f0
:102b3c0000027800040f7800300020009b00070092
:102b4c0000027800040f78001e02900064c4880014
:102b5c0014c0b300040078008af8b7000042eb0000
:102b6c00044078000080fa00000006000000fa0023
:102b7c00881f780068c480000000eb008b00070001
:102b8c00000278002404980068c480001000200023
:102b9c008600070000027800240498002000200022
:102bac0082000700300020008000070065c4800010
:102bbc0014c0b300844a98004f0478000080fa00d7
:102bcc00000006000000fa0065c4800015027800c1
:102bdc000420a000840a780064c4800014027800e9
:102bec0084007800200020003b0007000080fa00e1
:102bfc00000006000200fa00004f78001e42780028
:102c0c00e04f52000900320065c4800015029000ac
:102c1c000440a0009402980065c480001502900046
:102c2c000450a000940298000800370065c480008e
:102c3c00150290000440a1009402980065c4800025
:102c4c00150290000450a1009402980064c4800006
:102c5c001402900084007800300020001e00070051
:102c6c000080fa00000006000000fa002488210011
:102c7c0014427800e14f520002003a0014c0b30035
:102c8c001200370043f6070044422e0024c488008b
:102c9c00f4ff230034c48800f4fb2d0044c48800e6
:102cac0046c4800035c4800024c48000060178002e
:102cbc0085007800040078003cf6070014c0b300cf
:102ccc000400780082f8b7000042eb000440780062
:102cdc000080fa00000006000600fa0010079800b9
:102cec002107980024eea90044138000040f7800fb
:102cfc001e029000cb22dd002e0290000482720096
:102d0c00040f78001e029000cb22dd002e029000f2
:102d1c0004827200441388000002eb00040f780058
:102d2c00010037001e0fe800b45d20009e02780001
:102d3c00848f5200fbff340024eea8000002eb004d
:102d4c00040f7800010037001e0fe8001e02780007
:102d5c00f30f5200fcff340024eea9004413800052
:102d6c00040f78001e029000cb22dd002e02900092
:102d7c0004827200441388000002eb00040f7800f8
:102d8c00010037001e0fe800b45d20009e027800a1
:102d9c00848f5200fbff34000af607000002780013
:102dac00040078000080fa00000006000400fa001d
:102dbc001007980024eea90044138000040f78003b
:102dcc001e029000cb22dd00040028000482720059
:102ddc00441388000002eb00040f78000100370058
:102dec001e0fe800b45d20009e027800848f520014
:102dfc00fbff360024eea8000002eb00040f780065
:102e0c00010037001e0fe8001e027800f30f52007d
:102e1c00fcff360024eea90044138000040f780058
:102e2c001e029000cb22dd000400280004827200f8
:102e3c00441388000002eb00040f780001003700f7
:102e4c001e0fe800b45d20009e027800848f5200b3
:102e5c00fbff360024eea800daf50700000278002c
:102e6c00040078000080fa00000006000200fa005e
:102e7c00aefd07005002200042fe0700d5fd070002
:102e8c0063fd070078ff0700a08621007300070090
:102e9c000002eb00040f7800010037001e0fe80061
:102eac00f45227009e027800848f5200fbff3400fe
:102ebc000002eb00040f7800010037001e0fe80041
:102ecc00f45227009e027800848f5200fbff3400de
:102edc000002eb00040f7800010037001e0fe80021
:102eec00f45227009e027800848f5200fbff3400be
:102efc0080872100c8fe07000cfe0700240ea800e6
:102f0c00242ea800244ea800256ea8001100200035
:102f1c0040382000befb0700fcff37000000fa0021
:102f2c000068a9000080fa00004006003600f80096
:102f3c00809fbe00829fbe00849fbe00869fbe0005
:102f4c000000fa00957080000410200004826200da
:102f5c0004f0a7000402ea000402ea004f22de009b
:102f6c00044278000482fb0061026200267180003a
:102f7c00e5ff2f0085026300048272002471880033
:102f8c0015718000040022000482620004f0a70086
:102f9c000402ea000402ea004f22de000442780038
:102fac000482fb0061026200040242002671800070
:102fbc00d5ff2f0085026300048272002471880003
:102fcc0095708000040820000482620004f0a700c1
:102fdc000402ea000402ea004f22de0004427800f8
:102fec000482fb00610262004222dd002671800037
:102ffc00b5ff2f00850263000482720024718800e3
:10300c008087210084fe0700247180004b22de00a3
:10301c00614262000404a200614262000482fb006f
:10302c00610262004b22dd0026718000f57f2f00cb
:10303c0085026300048272002471880000e8a900f4
:10304c000080fa004f03be004f02be004f01be00cd
:10305c004f00be003600f900004006000200fa00e6
:10306c00000f78001e027800e00f520005003200bd
:10307c0020fb07001e02780074c4880014c0b30043
:10308c00010037000042eb00044078000080fa0099
:10309c00000006000400fa00008fbe001e02be00f5
:1030ac0064c2880075c288000080fa000000060027
:1030bc000200fa00004f78001e4278000482fb00e8
:1030cc00050020000400be00e2f507000002be006f
:1030dc0084c2880095c288000080fa0000000600b7
:1030ec000400fa00008fbe001e02be00a4c28800bd
:1030fc00b5c288000080fa00000006000000fa004b
:10310c0086f9070076c4800004c3800015c38000d4
:10311c00048bbe0076c4800024c3800035c38000bd
:10312c00240398003503980076c48000c4c2800044
:10313c00d5c28000440398005503980075c48000e4
:10314c0014c0b300c44a98000080fa0000000600c6
:020000040000fa
:10315c006a180000180000008000000082180000af
:10316c0008000000800000008e1800000200000023
:10317c00800000004c1800001e00000080000000c1
:10318c0018180000340000008200000000008000cd
:10319c003f00000000bf00000000bf000000000066
:1031ac0000d7b3005d3fd700b35dbf000000000047
:1031bc000000000000000000000000000000000003
:1031cc0000000000000000000000000000000000f3
:1031dc00000000008a1800000400000080000000bd
:1031ec00001000001808000080000000901800007b
:0c31fc0002000000800000000000000045
:020000040000fa
:02000004000af0
:04afe000dfff00008f
:020000040000fa
:02000004000af0
:04afe8007fff0000e7
:020000040000fa
:02000004000af0
:04afec007fff0000e3
:020000040000fa
:02000004000af0
:04aff00038ff000026
:00000001FF
