:020000040000fa
:080000000002040000000000f2
:020000040000fa
:10000800cc020000cc020000cc020000cc020000b0
:10001800cc020000cc020000cc020000cc020000a0
:10002800cc020000cc020000cc0200002c0b000027
:10003800cc020000cc020000cc020000340b00000f
:10004800cc020000cc020000cc020000cc02000070
:10005800cc020000cc020000cc020000cc02000060
:10006800cc020000cc020000cc020000cc02000050
:10007800cc020000cc020000cc020000cc02000040
:10008800cc020000cc020000cc020000cc02000030
:10009800cc020000cc020000cc020000cc02000020
:1000a800cc020000cc020000cc020000cc02000010
:1000b800cc020000cc020000cc020000cc02000000
:1000c800cc020000cc020000cc020000cc020000f0
:1000d800cc020000cc020000cc020000cc020000e0
:1000e800cc020000cc020000cc020000cc020000d0
:1000f800cc020000cc020000cc020000cc020000c0
:10010800cc020000cc020000cc020000cc020000af
:10011800cc020000cc020000cc020000cc0200009f
:10012800cc020000cc020000cc020000cc0200008f
:10013800cc020000cc020000cc020000cc0200007f
:10014800cc020000cc020000cc020000cc0200006f
:10015800cc020000cc020000cc020000cc0200005f
:10016800cc020000cc020000cc020000cc0200004f
:10017800cc020000cc020000cc020000cc0200003f
:10018800cc020000cc020000cc020000bc0f000032
:10019800cc020000cc020000cc020000cc0200001f
:1001a800cc020000cc020000cc020000cc0200000f
:1001b800cc020000cc020000cc020000cc020000ff
:1001c800cc020000cc020000cc020000cc020000ef
:1001d800cc020000cc020000cc020000cc020000df
:1001e800cc020000cc020000cc020000cc020000cf
:1001f800cc020000cc020000cc020000cc020000bf
:10020800cc020000cc020000cc020000cc020000ae
:10021800cc020000cc020000cc020000cc0200009e
:10022800cc020000cc020000cc020000cc0200008e
:10023800cc020000cc020000cc020000cc0200007e
:10024800cc020000cc020000cc020000cc0200006e
:10025800cc020000cc020000cc020000cc0200005e
:10026800cc020000cc020000cc020000cc0200004e
:0c027800cc020000cc020000cc02000010
:020000040000fa
:10040000af0721000eff2c000e0188000000000045
:1004100000012000200288000c00070020162100a7
:10042000010020000f000700000020000000e00095
:10043000020032000000020000000000f20a020088
:10044000000000000040da000000fe002000200054
:100450000000e0000200320000202000900188002f
:1004600000000600a1028800800078000000eb0078
:100470001a003700e280400054a0b4009101ba0095
:10048000e280400054a0b4009102ba00e280400033
:1004900054a0b4000002eb00472bde00f507b200c9
:1004a000a6018800602ce10008003a000049eb003a
:1004b0000201e800020039003420ec0002f0a00044
:1004c0008301e900f9ff3e00040037006128e100e4
:1004d000010032000082eb00040007001101ba00a5
:1004e0000200e000e3ff3a000000060004d0a30091
:1004f000e20f49001c003900810278003549ba003a
:100500000201e800020039003420ec0002f0a000f3
:100510008301e9000f0032002549ba000201e8001a
:10052000020039003420ec0002f0a0008301e90051
:10053000080032000400e0000600320015c9ba00cd
:100540000201e800020039003420ec0002f0a000b3
:100550008301e9008180e80054a0b4000300e000ba
:10056000e2ff3a00000006009102ba000559780047
:100570008301e900f7ff3200c82ade000559780040
:100580008301e900f3ff32000400e000f1ff3200d4
:1005900011d9ba00eeff37000040da000000fe007b
:1005a0000000fa002b68a900a1e2a9000b68a900cd
:1005b0000080fa00000006000000fa000b68a900a5
:1005c000e7026000cc2add0066438000f4ff2800cb
:1005d0000402630005027200644388006800600042
:1005e0004300de00610060004b00dd0054418000ec
:1005f00004b0a10000027200544188000080fa009b
:10060000000006000000fa0010158800211588007f
:10061000021588000080fa00000006000000fa00c1
:1006200004158000610262000080eb0009003200c6
:10063000a0c2a900151580000440200004826200b9
:100640000200320040158000020037004015800093
:10065000f00fb2000080fa00000006000000fa006f
:1006600015158000044020000482620001003a0059
:10067000f00fb200401588000080fa00000006006c
:1006800003f0a200889fbe008a9fbe008c1f7800e6
:10069000850007008c0033006450e1004f003200f9
:1006a0006420e1005200320003826c0007003b002e
:1006b0000905d0000306d000820f54000c065d002f
:1006c0000200390002003200890178000306780038
:1006d0008582550004003d000003fd008103fd00fc
:1006e0008502ea008b854200840f720002003b0005
:1006f00060001000e08018006011b8000005eb00f9
:100700007a28e1000a00390006007800c75ddd00a4
:10071000f707b200878075002d00370082817100d5
:100720000a017800610560008180d1000080d3005b
:100730008502e900f9ff3b00060440008784480079
:1007400002003b0060041400e0841c000988a30040
:10075000070032008a8171008281710061016400aa
:100760008904d1000884d3008b05e8001700370006
:100770000978a30013003a000b00e00013003400d6
:100780008b05e9000804440089844c000a44740085
:100790000978a3000d003a000b00e00007003400c8
:1007a0008b05e9000804440089844c0001003a00ec
:1007b0000b0020000978a300f7ff32000001eb00d6
:1007c00002003700828171000a01780010000700e2
:1007d0000cf0a70001f0a000440037006420e10005
:1007e00002003a00838f6c00440033000801be0011
:1007f0000200be003d0037000081eb0076003700ac
:10080000f4ff2f00df0037006011b8001e01370031
:1008100081002000618055000b003d000b0020008e
:1008200061fe2f000100e1001d0034008281710093
:10083000610164008904d1000884d3000000e8004d
:10084000faff3a00710020006100640003007000ac
:10085000020060000900320061044400e0844c00a2
:100860000988a500050032008b05e8006808e10052
:1008700002003a008904d1000884d300f20f20005e
:100880000258e10005003d00c75ddd00f907b20038
:100890008980750008007800000006000bf827002a
:1008a0008b007800000005000004be007601070000
:1008b0000003be000405be000200be007201070076
:1008c000844f7500000006000200be006450e10085
:1008d000050036006420e100020036000968a3002c
:1008e00001003a000800be000160a0004f06780039
:1008f0004f05be004f04be0000000600f0ff2f00b1
:10090000f1ff2700f9ff3700889fbe008a9fbe00d5
:100910008c1f7800e4ff0700ebff330003866c00b8
:100920006450e100240032006420e100270032001e
:100930006150e100220032006120e100210032001c
:100940008b854200eb07b1000134b800003ab800d3
:100950000804420089844a00013ab8000030b80017
:100960008880400009014a00040033000000400074
:1009700081804800020149008b05e900c909dd00ba
:10098000830170000100320013002000c814de0053
:100990004814dd004709de001200b200c808de007e
:1009a000088470009aff070001f0a1000cf0a70076
:1009b00001f0a000cdff37006120e100cfff320041
:1009c0000801be000200be00f7ff37006150e100e1
:1009d000fcff3a00c9ff3700889fbe008a9fbe0017
:1009e0008c9fbe00820578000004be00260107002f
:1009f0000800be006420e1000700390002003a0050
:100a0000f1ff2700f0ff2f000160a000120220007c
:100a1000c2838800550037006120e10003003a00de
:100a20000b00a70001f823005000370001f0a100df
:100a300002002100936424006d0007000800be003e
:100a400004003500b2fd2000930c2400bd00070017
:100a50000004be000005eb000b00a6004f0dde00f9
:100a600001f0a1000004be0032982f0023ea230009
:100a7000a5ff07000001eb0003f023000b00a70017
:100a800003f82300fffe07005b0007000000a7003b
:100a90000a00a200790007000b00e000030032000a
:100aa0000200200003f02300f5fe070001f0a20081
:100ab0000006be00020020009304240092ff0700fd
:100ac0000801be00effe0700809fbe000c00be00c4
:100ad00022a22a00d3a723008bff07004f01be00ec
:100ae000e8fe07000004be0001f0a10002002000a3
:100af000039823003e0007000800be0019003500df
:100b00000001be0080ff07000006be00b2c529003c
:100b1000e36223007cff070022222b00f3942b00ca
:100b2000d8fe07000c01be0077ff0700e273280023
:100b300083c02300d3fe07000c01be0072ff070034
:100b400042aa2a00a3e22b00cefe07000c01be0041
:100b50006dff07000801be006bff07000801be0023
:100b6000c8fe07000a00a70001f0a2004f06be0061
:100b70004f05be004f04be00000006000001eb0060
:100b800095ff3700889fbe008a9fbe00841f7800b3
:100b900045ff07004f00780011003300f0ff2f00e1
:100ba000838f6c0006003b00040565000a00a70067
:100bb0000800370009f0a6001000200008003700e8
:100bc000820f5400838f5c00030039001000200066
:100bd00001003e000000200009f0a7000000ea002c
:100be0004f05be004f04be000000e00000000600fc
:100bf00014002000e3ff37000001be00a200070040
:100c00000470a70003f0a1006509b10016003200ce
:100c10000d0035006828e10006003500f0ff2f00c8
:100c2000f1ff27000300e00013003b000100280053
:100c30000000050000004000818048008502e900b6
:100c4000fcff3a0008003700f88f420002003c0029
:100c50008000eb00000005008100d1000080d3007f
:100c60008502e800fcff3a000300e00002003b00c0
:100c700060001000e0801800000006004f89de00d0
:100c80008201780095003700889fbe008a9fbe00d1
:100c9000008270000402710004827100260032009c
:100ca0000004be000200be006011b8006b09200005
:100cb000950220000182cf000a0039000541b100f1
:100cc0000082cf00070039000541b1000982cf0042
:100cd000040039000541b1000882cf00010039004d
:100ce0000541b10005425200120032000a003b00eb
:100cf00082817100610164008100d1000080d30015
:100d00008984d3000884d3008b05e8000442e800fe
:100d1000f7ff3a00070037000804440089844c00bc
:100d200000004800818048008b05e9000442e9008a
:100d3000f9ff3a00b6fe07004f05be004f04be00a3
:100d4000000006000400200000003700889fbe005d
:100d50008a9fbe008c1f78004f26dd00d2fe070060
:100d6000d9fe33006120e100430032006250e1000f
:100d700041003e003e0039006420e1003c003200aa
:100d8000058255000f003b000402e80038003a00dd
:100d9000800f5300818f5b00350034000800be00d7
:100da00003f0a10001f0a60003f0a0000cf0a700e2
:100db00034fe0700cdfe37000603430087834b0057
:100dc0000c4646000005530081855b00020033009d
:100dd0000a03be000c00a0000402e900f6ff3b007d
:100de000850578000602430087824b0004003a0024
:100df0006000b80009f0a70001f0a000bbfe3700ba
:100e00000002520081825a000704e000040033000f
:100e10000603430087834b008b05e900faff370088
:100e2000090578000604be000203be006011b80088
:100e300077fe0700e00f5200e08f5a0007003500f0
:100e400002003c000c08a300040032000601be00b2
:100e500003f0a0000cf0a7000afe07000a85680056
:100e600001f0a1000af0a70001f0a0009ffe3700ea
:100e70000800be009dfe3700100220000cf0a60006
:100e8000c08388009dfe3700c70ade00f107b2006c
:100e9000f50fb20008003200e1cf4200020032003c
:100ea0000170a00024000500810f700001003200d5
:100eb0000408050044000500810f700002003a009c
:100ec000140005008502e9000000400081c04800d0
:100ed000fcff3b000170a00024000500881f780083
:100ee000030478000300e00007003d0060001000ec
:100ef000e080180060011900e081190002003b0049
:100f000001f02d00030037005fff070008f0a70085
:100f100001f0a0004f047800000006000000fa0075
:100f20000002780002003700015a78000201e9004f
:100f3000e00f5100fcff3a000080fa0000000600bc
:020000040000fa
:040f4000501000004d
:020000040000fa
:100f44001a00fa00889fbe00a4818000b581800049
:100f54000400be0008ff07000002be00140798004a
:100f640025079800a4818000b58180000400be009c
:100f740020fe07000002be003407980045079800d1
:100f8400e4818000f58180003e019000ce01900054
:100f94000400be005bfe07000002be000404be00a5
:100fa400c4818000d58180001e019000ae019000b4
:100fb4000400be0053fe07000002be000401be0090
:100fc4000800be00adfd07000002be0054079800f3
:100fd40065079800c4818000d58180003e0190009f
:100fe400ce0190000400be0046fe07000002be00d1
:100ff4000404be00e4818000f58180001e0190009d
:10100400ae0190000400be003efe07000002be00d8
:101014000401be000800be0099fd07000002be00e6
:1010240014079800250798000002eb00040f7800cd
:10103400200037009e02780063824200c222dd0055
:1010440004002100048242001402be001e0190002c
:10105400ae0190000400be002afe07000002be009c
:101064000404be001e027800c222dd000400210038
:10107400048242001402be005e019000ee01900062
:101084000400be001ffe07000002be000401be00f3
:101094000800be007afd07000002be001e037800af
:1010a4004233dd006e03430006034700048bbe0099
:1010b4001e0fe8001e027800e20f5200ddff34002c
:1010c4007e0290008e0a900018c0b3006011b80030
:1010d4000400be00c9fd070000027800e00f5200c2
:1010e40001003d000044eb00e04f54008300320057
:1010f4001e0a9000ae0a900018c0b3006011b80038
:101104000400be00bdfd070000027800e00f52009d
:1011140001003d000044eb00e04f54002300320086
:101124001e0a9000ae0a900002002000832c2400c6
:101134000400be00f3fd07000002be00140798007f
:10114400250798006022b8006482880075828800b0
:101154001e029000ae02900004828800158288006e
:101164007e0290008e0a900002002000832c24004e
:101174000400be00e3fd07000002be001e01900053
:10118400ae0190000400be003dfd07000002be0059
:10119400448288005582880004002000050424004d
:1011a4002482880035828800d80037003e0a9000e7
:1011b400ce0a900018c0b3006011b8000400be004d
:1011c4008efd070000027800e00f520001003d0090
:1011d4000044eb00e04f5400230032007e029000f4
:1011e4008e0a900002002000832c24000400be001c
:1011f400c4fd07000002be001407980025079800ec
:101204003e0a9000ce0a900002002000832c2400a5
:101214000400be00bbfd07000002be001e019000da
:10122400ae0190000400be0015fd07000002be00e0
:1012340064828800758288006022b8000482880075
:10124400158288001e029000ae029000448288003d
:101254005582880004002000050a240024828800a6
:1012640035828800a90037001e0a9000ae0a90005b
:1012740005f0a20002002000832c24000400be001c
:10128400a0fd07000002be0014079800250798007f
:101294001e029000ae02900064828800758288006d
:1012a4006022b80004828800158288003e0a9000fb
:1012b400ce0a900005f0a20002002000832c240036
:1012c4000400be008ffd07000002be001e01900056
:1012d400ae0190000400be00e9fc07000002be005d
:1012e40044828800558288000400200005f8230009
:1012f4002482880035828800840037001e0a90000a
:10130400ae0a900018c0b3006011b8000400be001b
:101314003afd070000027800e00f520001003d0092
:101324000044eb00e04f5400540032003e0a9000a9
:10133400ce0a900018c0b3006011b8000400be00cb
:101344002efd070000027800e00f520001003d006e
:101354000044eb00e04f5400230032003e0a9000aa
:10136400ce0a900002002000832c24000400be005a
:1013740064fd07000002be001407980025079800ca
:101384001e029000ae02900064828800758288007c
:101394001e0a9000ae0a900002002000832c240054
:1013a4000400be0057fd07000002be001e019000ad
:1013b400ae0190000400be00b1fc07000002be00b4
:1013c40004828800158288006022b8004482880064
:1013d4005582880004002000050c24002482880023
:1013e40035828800490037003e0a9000ce0a9000fa
:1013f40005f0a20002002000832c24000400be009b
:1014040040fd07000002be0014079800250798005d
:101414006022b80064828800758288007e02900091
:101424008e0a900005f0a20002002000832c240004
:101434000400be0033fd07000002be001e01900040
:10144400ae0190000400be008dfc07000002be0047
:1014540004828800158288001e029000ae0290006b
:10146400448288005582880004002000050024007e
:101474002482880035828800240037007e02900090
:101484008e0a900005f0a20002002000832c2400a4
:101494000400be001bfd07000002be0014079800f4
:1014a400250798001e0a9000ae0a900005f0a200dd
:1014b40002002000832c24000400be0011fd07005c
:1014c4000002be001e019000ae0190000400be00a8
:1014d4006bfc07000002be006482880075828800ed
:1014e4001e029000ae0290000482880015828800db
:1014f4006022b800448288005582880004002000dd
:101504000508240024828800358288004f04be0028
:101514000080fa00000006000000fa00043d840088
:101524008002eb00050a7800020120008000eb0035
:101534000004210078fe07006022b800a48188001e
:10154400b58188006022b800c4818800d5818800f4
:101554006022b800e4818800f5818800c48080009e
:10156400d5808000a4818800b5818800e480800053
:10157400f580800004828800158288000481800040
:1015840015818000248288003582880024818000af
:1015940035818000c4818800d58188004481800021
:1015a40055818000448288005582880064818000cf
:1015b400758180006482880075828800848180003f
:1015c40095818000e4818800f58188000080fa001c
:1015d400000006000000fa000080fa000000060087
:1015e4000200fa004b010700740107000201070022
:1015f400bf010700950107000002eb00040f78000b
:1016040008003700d0ea2d0013fc0700000000009a
:101614000415800062026200e00f5200fcff3a00f1
:101624001e0fe8001e027800f30f5200f5ff34008d
:1016340020052100e50207000006210052020700f0
:10164400240ea800242ea800244ea800256ea8006d
:10165400ffff37000000fa000068a9000080fa00cc
:10166400004006003600f800809fbe00829fbe0046
:10167400849fbe00869fbe000200fa00441f200023
:10168400040f78009570800004102000048262002a
:10169400e00f520017003200157180000400220090
:1016a40004826200e00f5200120032009570800044
:1016b4000408200004826200e00f52000d003a008a
:1016c4000002eb00746488000002eb0034648800bc
:1016d4001e027800746288000002eb003462880005
:1016e4000002eb00746388001e02780034638800f3
:1016f4008b00370095708000041020000482620083
:10170400e00f520017003a00157180000400220017
:1017140004826200e00f52001200320095708000d3
:101724000408200004826200e00f52000d003a0019
:101734000002eb00746488001e02780034648800a0
:101744001e027800746288000002eb003462880094
:101754000002eb00746388000002eb00346388002d
:101764006f0037009570800004102000048262002e
:10177400e00f520017003a001571800004002200a7
:1017840004826200e00f5200120032009570800063
:101794000408200004826200e00f52000d003200b1
:1017a4000002eb00746488001e0278003464880030
:1017b4000002eb00746288000002eb0034628800cf
:1017c4001e027800746388000002eb003463880012
:1017d40053003700957080000410200004826200da
:1017e400e00f520017003a00157180000400220037
:1017f40004826200e00f520012003a0095708000eb
:101804000408200004826200e00f52000d00320040
:101814000002eb00746488000002eb00346488006a
:101824000002eb00746288001e02780034628800b3
:101834001e027800746388000002eb0034638800a1
:101844003700370095708000041020000482620085
:10185400e00f5200170032001571800004002200ce
:1018640004826200e00f520012003a00957080007a
:101874000408200004826200e00f52000d003200d0
:101884001e027800746488000002eb00346488004f
:101894000002eb00746288001e0278003462880043
:1018a4000002eb00746388000002eb0034638800dc
:1018b4001b00370095708000041020000482620031
:1018c400e00f52001600320015718000040022005f
:1018d40004826200e00f5200110032009570800013
:1018e4000408200004826200e00f52000c00320061
:1018f4001e027800746488000002eb0034648800df
:101904000002eb00746288000002eb00346288007d
:101914000002eb00746388001e02780034638800c0
:10192400ef010700247180000402d10061426200cb
:101934000404a200614262000482fb0061026200ae
:101944000402420026718000d5ff2f008502630047
:10195400048272002471880000e8a9000080fa0063
:101964004f03be004f02be004f01be004f00be0039
:101974003600f900004006000000fa0031e2a90038
:1019840031a2a9003182a9003162a900841180002a
:101994000480a1000490a1008411880030e2a80012
:1019a40030c2a90030a2a9003082a90084118000ad
:1019b4000410a1000420a100841188003002a900b1
:1019c4003062a9000440240074428800941180000d
:1019d4000460a1000470a100941188003222a900bf
:1019e400a4012000c411880031e2a8003342a800f9
:1019f4000080fa00000006000000fa00843e200087
:101a0400246088000002eb00446488000002eb00bc
:101a1400846488000002eb00446288000002eb004a
:101a2400846288000002eb00446388000002eb003b
:101a3400846388000002eb00346288000002eb003b
:101a4400746288000002eb00346388000002eb003b
:101a5400746388000002eb00346488000002eb0029
:101a6400746488000002eb005463880054638000af
:101a74005462880054628000546488000002eb00c1
:101a84006463880064638000646288006462800028
:101a94006464880004c02c0014648800146480000a
:101aa4001463880014638000146288000002eb0051
:101ab400146188000002eb00146588000002eb004a
:101ac400146688000002eb0004638800046380004d
:101ad40004628800046280000464880034002000ea
:101ae40024638800246380002462880024628000c8
:101af400246488000002eb001460880004002800bd
:101b04000460880064eea800650ea9000080fa0055
:101b1400000006000000fa00a4042000343a880003
:101b2400253a800004fe2f0004826200243a8800d3
:101b3400243a80000460a1000470a100243a8800c3
:101b44001600200084072000a50920003774200017
:101b5400844b7800854b7800864b7800143a8000db
:101b6400040378000600a00064042000750520002a
:101b740027742000844b7800854b7800864b7800ce
:101b840000000000153a80000400270084826200ef
:101b940004002100848f5200faff3a000000000084
:101ba400153a80000402200004826200e00f520013
:101bb400fbff32000080fa00000006000000fa007b
:101bc40060eea900610ea900110ea80021aea800c4
:101bd40010eea80060cea90060eea900610ea90075
:101be400210ea90020eea90020cea900200ea900f4
:101bf400202ea900204ea900216ea9000002eb00ae
:101c0400747088000002eb00f47088000002eb009e
:101c1400747188000002eb00f47188000002eb008c
:101c2400747288000002eb00f47288000002eb007a
:101c34007473880020eea90020cea90060cea9000c
:101c440011cea8000080fa00000006000000fa008f
:101c540005e1a9000421a90004c1a9002408800009
:101c64000440a0000450a000240888000002eb00f7
:101c74000408880004192000140888000442800025
:101c840004c0a00004d0a10004e0a1000442880024
:101c94000068a9002068a80005e1a80011e1a900d6
:101ca4001021a90010c1a900840880000440a000ec
:101cb4000450a000840888000002eb003408880067
:101cc40044012000640888001442800004c0a0007d
:101cd40004d0a10004e0a1001442880000e8a90097
:101ce40020e8a80011e1a8000080fa000000060026
:101cf4000000fa00a406210014427800e14f5200cb
:101d040002003a0014c0b3003800370023fa070079
:101d140044462e0064838800f4ff23007483880003
:101d2400f4fb2d0084838800e0ff2f0021fa0700d4
:101d3400153a8000f4fb2f00048362006404200041
:101d44007505200027742000844b7800854b7800ab
:101d5400864b7800d536800004f82f008482620018
:101d6400f402200004827200d4368800a534800076
:101d7400f40f2c008482620004f0210004827200bb
:101d8400a43488006534800004fc2f00848262003f
:101d9400040220000482720064348800153a800032
:101da40004042000048372006404200075052000ec
:101db40027742000844b7800854b7800864b78008c
:101dc4008683800075838000648380000601780028
:101dd400850078000400780009fa070014c0b300f5
:101de400040078006af0b7000042eb000440780079
:101df4000080fa00000006000400fa00000f7800da
:101e04001107980024eea9001e027800cb22dd0001
:101e14001e02900004827200040078000efa07008b
:101e2400000000000415800062026200e00f52000e
:101e3400fcff3a0024eea8000000000000000000af
:101e4400000000000000000000000000000000008e
:101e5400000000000000000000000000000000007e
:101e6400000000000000000000000000000000006e
:101e7400000000000000000000000000000000005e
:101e840024eea9000000eb00f3f9070000000000b5
:101e94000415800062026200e00f5200fcff3a0069
:101ea40024eea800dcf907000002780004007800a2
:101eb4000080fa00000006000200fa00000f78001b
:101ec40024eea9001e027800cb22dd0004002800c5
:101ed4000482720004007800dff9070000000000ab
:101ee4000415800062026200e00f5200fcff3a0019
:101ef40024eea80000000000000000000000000024
:101f040000000000000000000000000000000000cd
:101f140000000000000000000000000000000000bd
:101f240000000000000000000000000000000000ad
:101f340000000000000000000000000024eea900e2
:101f44000000eb00c4f90700000000000415800045
:101f540062026200e00f5200fcff3a0024eea80087
:101f6400adf9070000027800040078000080fa0050
:101f7400000006000000fa000b68a900a0c2a90036
:101f84000080fa00004006000400fa0010079800e0
:101f94002407210014427800e14f520002003a0065
:101fa40014c0b3004b0037009e0290001502780065
:101fb4000400a1000410a100840a78009e0290008d
:101fc400150278000430a100840a78009e02900073
:101fd400150278000420a100840a78009e02900073
:101fe400150278000440a1000450a100840a78007e
:101ff4001e02900014037800f5832f00050363008c
:102004000548200085027300050a78009e029000ae
:10201400150290000440a100940298009e029000d2
:10202400150290000450a100940298009e029000b2
:10203400150290000420a1000430a100940298002d
:102044001e02900014039000f5832f0085026300a4
:10205400150298009e029000150290000400a10051
:102064000410a100940298001e029000140278004b
:1020740084007800200020005fff07001e0290000b
:102084001402900084007800300020005aff0700fa
:102094001000200088ff070000027800040f780079
:1020a4001e0278006f026200e00f52000800320046
:1020b4001e029000a483880014c0b3000002fd0037
:1020c40072f0b7000002fd000042eb00010037008f
:1020d40014c0b300044078000080fa000000060039
:1020e4000000fa00881f7800a88380000000eb003d
:1020f40071ff07000002780024049800a883800080
:102104000000eb006cff0700000278002404980034
:10211400a583800014c0b300844a98004f0478005b
:102124000080fa00000006000000fa00a583800089
:10213400150278000420a000840a7800a48380009b
:102144001402780084007800200020002aff070091
:102154000080fa00000006000200fa00004f780038
:102164001e427800e04f520009003200a58380002f
:10217400150290000440a00094029800a5838000fa
:10218400150290000450a000940298000800370043
:10219400a5838000150290000440a10094029800d9
:1021a400a5838000150290000450a10094029800b9
:1021b400a483800014029000840078003000200082
:1021c4000dff07000080fa00000006000200fa007c
:1021d400000f78001e027800e00f52000500320064
:1021e400cdfc07001e027800b483880014c0b3003d
:1021f400010037000042eb00044078000080fa0040
:10220400000006000400fa00008fbe001e02be009b
:10221400a4818800b58188000080fa0000000600cf
:102224000200fa00004f78001e4278000482fb008e
:10223400050020000400be0072f907000002be0081
:10224400c4818800d58188000080fa00000006005f
:102254000400fa00008fbe001e02be00e481880064
:10226400f58188000080fa00000006000000fa00f2
:1022740033fb0700b68380004482800055828000cf
:10228400048bbe00b6838000648280007582800067
:102294002403980035039800b683800004828000ec
:1022a400158280004403980055039800b58380008c
:1022b40014c0b300c44a98000080fa00000006006d
:020000040000fa
:1022c4005210000018000000800000006a10000096
:1022d40008000000800000007610000002000000ea
:1022e40080000000341000001e0000008000000088
:1022f4000010000034000000820000000000800094
:102304003f00000000bf00000000bf00000000000c
:1023140000d7b3005d3fd700b35dbf0000000000ed
:1023240000000000000000000000000000000000a9
:102334000000000000000000000000000000000099
:102344000000000072100000040000008000000083
:10235400781000000200000080000000000000006f
:020000040000fa
:02000004000af0
:04afe000dfff00008f
:020000040000fa
:02000004000af0
:04afe8007fff0000e7
:020000040000fa
:02000004000af0
:04afec007fff0000e3
:020000040000fa
:02000004000af0
:04aff00038ff000026
:00000001FF
