:020000040000fa
:080000000002040000000000f2
:020000040000fa
:10000800d0020000d0020000d0020000d0020000a0
:10001800d0020000d0020000d0020000d002000090
:10002800d0020000d0020000d0020000d002000080
:10003800c05d0000d0020000d0020000d002000025
:10004800fc580000d0020000d0020000d0020000de
:10005800d0020000d0020000c85d0000d0020000fd
:10006800d0020000d0020000d0020000724c000054
:10007800d0020000d0020000d0020000d002000030
:10008800f25d0000d0020000d0020000d0020000a3
:10009800d0020000d0020000d0020000d002000010
:1000a800d0020000d0020000d0020000d002000000
:1000b800fa5d0000d0020000d0020000d00200006b
:1000c800d0020000d0020000d0020000d0020000e0
:1000d800d0020000d0020000245e0000d002000020
:1000e800dc580000d0020000d0020000d00200005e
:1000f800d0020000d0020000d0020000d0020000b0
:10010800d0020000d00200000a4d0000d00200001a
:10011800d00200002c5e0000d0020000d0020000d7
:10012800d0020000d0020000d0020000d00200007f
:10013800565e0000d0020000d0020000d00200008d
:10014800d0020000d0020000d0020000d00200005f
:10015800d0020000d0020000d0020000d00200004f
:10016800d0020000d0020000d0020000d00200003f
:10017800d0020000d0020000d0020000d00200002f
:10018800d0020000d0020000d0020000d00200001f
:10019800d0020000d0020000d0020000d00200000f
:1001a800d0020000d0020000d0020000d0020000ff
:1001b800d0020000d0020000d0020000d0020000ef
:1001c800d0020000d0020000d0020000d0020000df
:1001d800d0020000d0020000d0020000d0020000cf
:1001e800d0020000d0020000d0020000d0020000bf
:1001f800d0020000d0020000d0020000d0020000af
:10020800d0020000d0020000d0020000d00200009e
:10021800d0020000d0020000d0020000d00200008e
:10022800d0020000d0020000d0020000d00200007e
:10023800d0020000d0020000d0020000d00200006e
:10024800d0020000d0020000d0020000d00200005e
:10025800d0020000d0020000d0020000d00200004e
:020000040000fa
:100400000f512300eef227000e01880000000000cb
:1004100000012000200288000c000700a0422300f9
:10042000010020000f000700000020000000e00095
:10043000020032000000020000000000685e0200be
:10044000000000000040da000000fe004002200032
:100450000000e0000200320000202000900188002f
:1004600000000600a1028800800078000000eb0078
:100470001a003700e280400054a0b4009101ba0095
:10048000e280400054a0b4009102ba00e280400033
:1004900054a0b4000002eb00472bde00f507b200c9
:1004a000a6018800602ce10008003a000049eb003a
:1004b0000201e800020039003420ec0002f0a00044
:1004c0008301e900f9ff3e00040037006128e100e4
:1004d000010032000082eb00040007001101ba00a5
:1004e0000200e000e3ff3a000000060004d0a30091
:1004f000e20f49001c003900810278003549ba003a
:100500000201e800020039003420ec0002f0a000f3
:100510008301e9000f0032002549ba000201e8001a
:10052000020039003420ec0002f0a0008301e90051
:10053000080032000400e0000600320015c9ba00cd
:100540000201e800020039003420ec0002f0a000b3
:100550008301e9008180e80054a0b4000300e000ba
:10056000e2ff3a00000006009102ba000559780047
:100570008301e900f7ff3200c82ade000559780040
:100580008301e900f3ff32000400e000f1ff3200d4
:1005900011d9ba00eeff3700b45e0400000000007d
:1005a0000040da000000fe000000fa000748a90041
:1005b000e7026000c82add00e6428000f48f2f00c9
:1005c0000402630005027200e442880068006000d3
:1005d0004300de00610060004a00dd00344180001d
:1005e00004a0a10000027200344188000080fa00db
:1005f000000006000000fa00000e8800110e8800be
:10060000220e88000080fa00000006000000fa00b8
:10061000b00e8000d10e80000080fa0000000600bd
:100620000000fa0010029000d40e8800100078003c
:10063000b00e88000080fa00000006000000fa00fa
:100640002148a90041e2a9000148a9000080fa0060
:10065000000006000000fa00101288002112880035
:10066000021288000080fa00000006000000fa0074
:100670008411800066026200e60f52000c003a000e
:10068000030037003322ab00feff3a00a5118800bb
:10069000b0027800e08f5200faff3a0007003700fe
:1006a0003322ab00feff3a008502fb00a511880053
:1006b000b0427800e0cf5200f9ff3a000080fa0023
:1006c0000000060003f0a200889fbe008a9fbe00c3
:1006d0008c1f7800fc000700030133006450e10028
:1006e0004f0032006420e1005200320003826c00af
:1006f00007003b000905d0000306d000820f54001c
:100700000c065d0002003900020032008901780009
:10071000030678008582550004003d000003fd00bb
:100720008103fd008502ea008b854200840f720080
:1007300002003b0060001000e08018006011b8006b
:100740000005eb007a28e1000a0039000600780075
:10075000c75ddd00f707b200878075002d00370008
:10076000828171000a017800610560008180d100fa
:100770000080d3008502e900f9ff3b000604400039
:100780008784480002003b0060041400e0841c00e1
:100790000988a300070032008a81710082817100fc
:1007a000610164008904d1000884d3008b05e8004e
:1007b000170037000978a30013003a000b00e0008f
:1007c000130034008b05e9000804440089844c00c0
:1007d0000a4474000978a3000d003a000b00e00001
:1007e000070034008b05e9000804440089844c00ac
:1007f00001003a000b0020000978a300f7ff320047
:100800000001eb0002003700828171000a017800cc
:10081000720007000cf0a70001f0a000bb00370039
:100820006420e10002003a00838f6c00bb003300bb
:100830000801be000200be00b40037000081eb00da
:10084000ed003700889fbe008a9fbe008c1f780095
:100850009d000700a400330003866c006450e10093
:100860002e0032006420e100330032006150e100cc
:100870002f0032006120e1003100320085855500f3
:10088000eb07b00009002000080420000500370035
:100890000804440089844c000a0031000603430028
:1008a00087834b000001530081815b00f8ff330018
:1008b0000203be000800a0000804440089844c0024
:1008c000f6ff3900c639dd008301730001003200f4
:1008d000130020008904d1000884d3000998a300e4
:1008e000050032000800a7000300a0008904d10021
:1008f0000884d3008b05e8008904d1000884d30064
:100900000001eb000281d2003400070001f0a100d9
:100910000cf0a70001f0a0007c0037006420e1008b
:100920007e0032000801be000200be00f7ff370063
:100930006120e100790032006000b800f3ff370069
:100940000000200001f82700f0ff3700140020000d
:1009500024013700f4ff2f00220137000001be0000
:10096000440007000470a70003f0a10003f8a300ef
:1009700013003a006509b10010003200090035008b
:100980006928e10002003500010028000000050090
:1009900000004000818048008502e900fcff3a0029
:1009a00000000600f88f4200050035008100d100ec
:1009b0000080d3008502e800fcff3a00000006003a
:1009c0008000eb00000005004f89de008201780006
:1009d000400137006011b8004e013700810020004f
:1009e000618055000b003d000b00200061fe2f00d0
:1009f0000100e1001d00340082817100610164008a
:100a00008904d1000884d3000000e800faff3a000e
:100a100071002000610064000300700002006000ab
:100a20000900320061044400e0844c000988a500fc
:100a3000050032008b05e8006808e10002003a007a
:100a40008904d1000884d300f20f20000258e1008d
:100a500005003d00c75ddd00f907b2008980750023
:100a600008007800000006000bf827008b007800d3
:100a700000000500c70ade00f107b200f50fb20062
:100a800008003200e1cf4200020032000170a000f5
:100a900024000500810f70000100320004080500e9
:100aa00044000500810f700002003a0014000500a8
:100ab0008502e9000000400081c04800fcff3b00c7
:100ac0000170a000240005000004be00e9ff07003b
:100ad0000003be000405be000200be00e5ff0700e3
:100ae000844f7500000006000200be006450e10063
:100af000050036006420e100020036000968a3000a
:100b000001003a000800be000160a0004f06780016
:100b10004f05be004f04be0000000600f0ff2f008e
:100b2000f1ff2700f9ff3700889fbe008a9fbe00b3
:100b30008c1f7800e4ff0700ebff330003866c0096
:100b40006450e100240032006420e10027003200fc
:100b50006150e100220032006120e10021003200fa
:100b60008b854200eb07b1000134b800003ab800b1
:100b70000804420089844a00013ab8000030b800f5
:100b80008880400009014a00040033000000400052
:100b900081804800020149008b05e900c909dd0098
:100ba000830170000100320013002000c814de0031
:100bb0004814dd004709de001200b200c808de005c
:100bc0000884700085ff070001f0a1000cf0a70069
:100bd00001f0a000cdff37006120e100cfff32001f
:100be0000801be000200be00f7ff37006150e100bf
:100bf000fcff3a00c9ff3700889fbe008a9fbe00f5
:100c00008c9fbe00820578000004be0099ff07009b
:100c10000800be006420e1000700390002003a002d
:100c2000f1ff2700f0ff2f000160a000120220005a
:100c300002808800550037006120e10003003a007f
:100c40000b00a70001f823005000370001f0a100bd
:100c500002002100936424003cff07000800be004e
:100c600004003500b2fd2000930c2400d8000700da
:100c70000004be000005eb000b00a6004f0dde00d7
:100c800001f0a1000004be0032982f0023ea2300e7
:100c9000a5ff07000001eb0003f023000b00a700f5
:100ca00003f8230088fe0700690007000000a70082
:100cb0000a00a20044ff07000b00e000030032001e
:100cc0000200200003f023007efe070001f0a200d6
:100cd0000006be00020020009304240092ff0700db
:100ce0000801be0078fe0700809fbe000c00be0019
:100cf00022a22a00d3a723008bff07004f01be00ca
:100d000071fe07000004be0001f0a10002002000f7
:100d1000039823000dff07000800be0019003500ee
:100d20000001be0080ff07000006be00b2c529001a
:100d3000e36223007cff070022222b00f3942b00a8
:100d400061fe07000c01be0077ff0700e273280078
:100d500083c023005cfe07000c01be0072ff070089
:100d600042aa2a00a3e22b0057fe07000c01be0096
:100d70006dff07000801be006bff07000801be0001
:100d800051fe07000a00a70001f0a2004f06be00b6
:100d90004f05be004f04be00000006000001eb003e
:100da00095ff37006022b800060220000000d00046
:100db0008180d2000482d2008582d2000000a0008f
:100dc0000202520083825a000300310002024200f4
:100dd00083824a000000a1000603e900f3ff3a0005
:100de00000000600889fbe008a9fbe00841f780016
:100df00035ff07004f00780011003300f0ff2f008f
:100e0000838f6c0006003b00040565000a00a70004
:100e10000800370009f0a600100020000800370085
:100e2000820f5400838f5c00030039001000200003
:100e300001003e000000200009f0a7000000ea00c9
:100e40004f05be004f04be000000e0000000060099
:100e50000001be0007ff07000470a70003f0a10017
:100e60006509b100160032000d0035006828e10068
:100e700006003500f0ff2f00f1ff27000300e0001f
:100e800013003b00010028000000050000004000a6
:100e9000818048008502e900fcff3a000800370025
:100ea000f88f420002003c008000eb0000000500cb
:100eb0008100d1000080d3008502e800fcff3a00e9
:100ec0000300e00002003b0060001000e08018001a
:100ed00000000600881f7800030478000300e0008b
:100ee00007003d0060001000e0801800600119005c
:100ef000e081190002003b0001f02d0003003700e3
:100f00000400070008f0a70001f0a0004f047800db
:100f100000000600889fbe008a9fbe00008270000d
:100f20000402710004827100260032000004be0039
:100f30000200be006011b8006b092000950220007d
:100f40000182cf000a0039000541b1000082cf00c4
:100f5000070039000541b1000982cf0004003900c3
:100f60000541b1000882cf00010039000541b10000
:100f700005425200120032000a003b0082817100db
:100f8000610164008100d1000080d3008984d30016
:100f90000884d3008b05e8000442e800f7ff3a001c
:100fa000070037000804440089844c000000480012
:100fb000818048008b05e9000442e900f9ff3a000e
:100fc00086fe07004f05be004f04be00000006006d
:100fd0000400200000003700889fbe008a9fbe00ea
:100fe0008c1f78004f26dd00b7fe0700befe3300e1
:100ff0006120e100430032006250e10041003e0008
:101000003e0039006420e1003c00320005825500ba
:101010000f003b000402e80038003a00800f530044
:10102000818f5b00350034000800be0003f0a10092
:1010300001f0a60003f0a0000cf0a700a2fd07003d
:10104000b2fe37000603430087834b000c46460080
:101050000005530081855b00020033000a03be00d7
:101060000c00a0000402e900f6ff3b0085057800b3
:101070000602430087824b0004003a006000b8007b
:1010800009f0a70001f0a000a0fe37000002520006
:1010900081825a000704e000040033000603430085
:1010a00087834b008b05e900faff370009057800bc
:1010b0000604be000203be006011b80047fe070030
:1010c000e00f5200e08f5a000700350002003c009c
:1010d0000c08a300040032000601be0003f0a000cb
:1010e0000cf0a70078fd07000a85680001f0a10058
:1010f0000af0a70001f0a00084fe37000800be003f
:1011000082fe3700100220000cf0a600008088004c
:1011100082fe37000c00fa00889fbe0000047800b1
:10112000f4ff2700540798008004eb00190798008b
:10113000080f780028079800240c20003407980036
:1011400068015700ceb897000e007800060007002f
:101150001e027800094a78001e0014004f04be00e9
:101160000080fa00000006003a00fa00889fbe00e6
:101170008a9fbe008c9fbe008006780001179800f1
:10118000421798000000eb006017980077033700c3
:101190008e1090008100e8000117980054c2b3003f
:1011a000844f500006003a00010278000006eb0070
:1011b00001c3b30000c2b300b7c2b30010003700d0
:1011c0003d0290000404b200040032001d027800c9
:1011d000004a7800840ee800050037000000fb009c
:1011e0008d0078006c030700e10f40005f033200c0
:1011f0006e1190000201e800621798005b0337004f
:101200008402780034437800d3c2b300834f530084
:101210000900320005003c00804f530008003200f6
:10122000874f53000c003a0007003700814f5300ee
:1012300009003a00060037000c30a000f0ff37002c
:101240000c00a000eeff37000c10a000ecff3700f0
:101250000c20a000eaff37006202660001003200a5
:101260000c00a10068026600010032000c20a10001
:101270000602fb000403b100e90f52000c003e001f
:10128000050378000002eb00ea22b800b602fb007a
:101290000503b10004824200860278009603fb0039
:1012a0000703b100e98f5300f7ff3600080037004d
:1012b0000002eb00a7c2b300874f530004003a00be
:1012c0004e13900046027800461798008502e80009
:1012d0008003eb0057179800e6c2b300954f130048
:1012e0000c003a000ce0a00064435300d54f1300fb
:1012f000030032000503780007007800090037007a
:101300004e149000c80478004817980059179800a8
:101310008502e8000503780009003700ea00b800fc
:101320000080430086027800b603fb000703b1008b
:10133000e98f5300f9ff360050179800f5ff37008a
:10134000b642780006179800cbc6b3008bcf520088
:10135000250032000f003c0036c6b30086cf520095
:10136000a200320004003c00e0cf5200040332002f
:101370006b4353000f00370046c6b30086cf5200c0
:10138000170032006543430086cf5200b4003a0094
:101390001300370036c7b30086cf52001f0032005b
:1013a00007003c006443530086cf52001400320013
:1013b0000643e80086cf5200a9003a001300370028
:1013c00056c7b30086cf5200aa00320063434300e1
:1013d00086cf5200a2003a00054f78000d0037007a
:1013e000054f7800a5003700f003660005012000d6
:1013f000010032000500280005067600d0ff370006
:10140000054f78000c60a0009c003700054f780065
:101410000c50a0000c70a00098003700054f780019
:101420004e109000c0027800401798007517980081
:10143000e08f520002003a0042c322007217980067
:101440007e1390008002eb00010037008502e80067
:10145000850343008041eb0097cf1100fbff3a006a
:10146000051f9800de129000e08f52000500320048
:101470000e1b9000868f5200020031008503780019
:10148000071f98008e1a90000004eb00850f520091
:1014900001003600050452006806660009c2b30068
:1014a000110032002d0037003d0290000404b2000c
:1014b000040032001d027800094a7800840ee8001a
:1014c000050037008d00780000022000b2020700fe
:1014d000e10f4000030032006e1590000a05e8009d
:1014e0006a1798000804e900e00f5400eeff3a0084
:1014f0000084eb0019003700bd0290000504b20023
:10150000090032009d037800880278003543780096
:10151000864b7800870ee80005047800e04f530002
:101520000a003a0012003700880278003500fb00fc
:10153000050478008d007800441f9800960207008b
:101540004e1a9000e10f4000090032006e1090002a
:101550000000e800601798000500370008027800d6
:101560007e1490008e1c90001e1d9000ae1d9000f9
:10157000890278008504e900e08f5200deff3a001e
:1015800078179800091f98001a1f98002b1f9800c1
:1015900004047800e00f56007402320009c2b30060
:1015a0006e1690000e0037003d0290000404b20059
:1015b000040032001d027800094a7800840ee80019
:1015c000050037008d00780000022000720207003d
:1015d000e10f4000010032000c06e8000804e900b9
:1015e000e00f5400f0ff3a005f023700ce10900089
:1015f0004104780041179800cfc4de000905780047
:101600008a0578000800be000a01be004800de001e
:10161000c80add0000807200004f78007003660089
:1016200009003200e04f500007003200e14f400057
:101630000500320010479800284798002600200037
:10164000061f980003003700184798001700200075
:10165000071f98000e04e8007817980081ff3700f4
:10166000054f78007e1798001a0020000a1f980086
:101670007cff3700054f78000c0cb3008c0278001b
:10168000050cb2003b003a00e00f560005003d009b
:10169000ce1290004501be004500be0045179800df
:1016a0000f003700f0026600120032004e14900066
:1016b0004803be004817980046079800570798004f
:1016c00098029000cfaade00650798007507980081
:1016d0004e009000de0090006e019000fe01900030
:1016e00070179800011f9800121f9800231f980080
:1016f0000b003700ce109000c1027800411798000f
:1017000005047800cfc4de00090578008a0578005a
:1017100078179800091f98001a1f98002b1f98002f
:101720007e1090008e1890001e199000ae19900047
:10173000e00f5000e08f5800e00f5900e08f590093
:1017400032003d003c00b3006000b8006011b800fa
:101750007e1490008e1c90001e1d9000ae1d900007
:1017600008045000898458000a0559008b855900e7
:1017700022003700e00f560005003d00ce12900019
:101780004501be004500be00451798000f00370018
:10179000f0026600120032004e1490004803be00b2
:1017a00048179800460f9800570f98008004eb00e8
:1017b000690f98000005eb007a0f98004e08900022
:1017c000de0890006e099000fe09900070179800e6
:1017d000011f9800121f9800231f98000b0037006c
:1017e000ce109000c10278004117980005047800df
:1017f000090020000a0020000b0020007817980044
:10180000091f98001a1f98002b1f9800de149000e3
:10181000e08f54000d003a001a0020005a1798007b
:101820007e1090008e1890001e199000ae19900046
:10183000e00f5000e08f5800e00f5900e08f590092
:10184000020032008000eb00511798000c01780074
:10185000020cb2003217980005042000850f5100d9
:101860003400320003003c00e00f51000800320059
:101870004800370005082000be119000858f5100f8
:1018800014003200050c2000858f510041003a0001
:10189000a6a5220015c0b3003600be003601be006a
:1018a0007e1490008e1c90001e1d9000ae1d9000b6
:1018b0000040e10001c8e10002d0e10003d8e100ee
:1018c000330039008542e800f4cf5200f2ff3a00bd
:1018d0002f00370015c0b3000001200001002000d8
:1018e0006011b8007e1490008e1c90001e1d9000a8
:1018f000ae1d90000040e10001c8e10002d0e1000f
:1019000003d8e10022003900490020000000d00087
:101910008180d2000281d2008381d2008904e90053
:10192000faff3a008542e800f0cf5200edff3a009e
:101930001700370015c0b300800020000100200010
:101940006011b8007e1490008e1c90001e1d900047
:10195000ae1d90000040e10001c8e10002d0e100ae
:1019600003d8e1000a003900390020000000d0004f
:101970008180d2000281d2008381d2008904e900f3
:10198000faff3a008542e800f5cf5200edff3a0039
:10199000054f78009e02fb005e1590008a8f520072
:1019a00002003d000a4f780004003700de15900069
:1019b000858f550001003d0055179800e00f52003b
:1019c00003003200e3026600010032000402e90075
:1019d0000500240085026600060032005e109000bb
:1019e000800f520002003400000252000100370054
:1019f0000002eb009e02fb008000eb002117980024
:101a0000850f52000200340085025200251798000d
:101a10006402660045003200e20266006102660070
:101a2000e08f520017003200bd0290000504b200a2
:101a3000080032009d027800b6c2b300e00f5200e9
:101a40000100320006c3e800864a7800850ee800ef
:101a500008003700b0022000e00f52000100320001
:101a60000080e8008d0078004b010700e10f400086
:101a7000160032006e1190000201e8006217980013
:101a800012003700e00f5200100032003d029000bb
:101a90000404b200050032001d02780005c2b30044
:101aa000054a7800840ee800050037008d007800b4
:101ab0000002200038010700e10f4000030032005f
:101ac000ee1190008301e800631798002e12900039
:101ad000e00f52005b00320008c3b30084047800ba
:101ae0003d0290000404b200040032001d027800a0
:101af000084a7800840ee800050037008d00780061
:101b00000003200024010700e10f40000300320021
:101b1000ee1290008502e800651798008904e9003c
:101b2000efff3a0029179800460037002e13900067
:101b3000e00f5300160032006802660014003a00fd
:101b400008c2b300860478003d0290000404b2008d
:101b5000040032001d027800084a7800840ee80074
:101b6000050037008d007800000220000a01070000
:101b7000e10f400003003200ee1390008703e800fd
:101b8000671798008904e900efff3a0029179800c9
:101b9000e202660061026600e08f52001700320028
:101ba000bd0290000504b200080032009d027800da
:101bb000b6c2b300e00f52000100320006c3e800d5
:101bc000864a7800850ee80008003700b002200041
:101bd000e00f5200010032000080e8008d00780024
:101be000ed000700e10f4000160032006e14900077
:101bf0000804e8006817980012003700e00f520050
:101c0000100032003d0290000404b20005003200d2
:101c10001d02780005c2b300054a7800840ee80072
:101c2000050037008d00780000022000da00070070
:101c3000e10f400003003200ee1490008904e80038
:101c4000691798005e1590008a02e900c32add003a
:101c500024a522000482420014179800f0056600b3
:101c60003b0798000c0078000002b20020079800a3
:101c7000a3003700de1090008100e90051179800a2
:101c80003e11900003042000830f510076003200c3
:101c900003003c00e00f51000800320083003700d1
:101ca00004082000be129000848f520058003200b9
:101cb000040c2000848f52007c003a00e00f560094
:101cc0001b003d001e1390003604be002605be001a
:101cd0000802be000a03be007e1090008e1890001d
:101ce0001e199000ae1990000a020700004f7800fc
:101cf0000000fb00cf80de00010178008201780047
:101d00000802be000a03be00730207007e149000a2
:101d10008e1c90001e1d9000ae1d9000000454000b
:101d200081845c0002055d0083855d002000370032
:101d3000be049000e08f5400220032007e1290001a
:101d40008e1a90001e1090003004be002005be00c8
:101d50000801be000400be00441f9800351f980013
:101d600010fc0700004f78000000fb00cf80de0071
:101d70000801be00420107004e1a9000be1a9000f2
:101d80000001520081815a00020f9800130f980041
:101d90008001eb00230f98000002eb00340f980045
:101da0000e0c90009e0c90002e0d9000be0d900029
:101db00078179800091f98001a1f98002b1f980089
:101dc000100037009e149000190278007e159000d4
:101dd00080027800811f7800110009000485d80076
:101de0008002fd00cf007800a4002000809fbe008c
:101df000110009008482d800010278004f00be0063
:101e0000044f78000bc3b3001ecf450027003700f6
:101e100034c222002e009000e00f5000010032007a
:101e200024c12200de109000c20add007e10900066
:101e30008e1890001e199000ae1990008502e900de
:101e4000050033008301d1000281d3008180d300db
:101e50000080d300f9ff3700ef0260000502420066
:101e6000144f7800110037005e119000e312b800a3
:101e70007e1490008e1c90001e1d9000ae1d9000e0
:101e8000040078000000e900050033008b05d10054
:101e90000a85d3008984d3000884d300f9ff370072
:101ea0006742640001c3b300014f42003d0290004d
:101eb0000404b200070032009d0278001e42780040
:101ec000844a7800850ee800e04f520006003a0090
:101ed000080037001e00fb008d0078002e00070070
:101ee000e10f4000030032006e1190000201e80093
:101ef000621798009e119000e88151001317980016
:101f00005e129000e00f52005aff3a006806660029
:101f100016003200ae129000e08f52001300340021
:101f200008c2b300850478006e1690003d02900050
:101f30000404b200040032001d027800084a780050
:101f4000840ee800050037008d00780000022000b4
:101f500011000700e10f4000010032000c06e8000c
:101f60008904e900f1ff3a006c1798000e13900005
:101f700016407800004f7800e04f500084fc3a0093
:101f80006e1090004f06be004f05be004f04be000d
:101f90000080fa00000006000000fa00889fbe00e2
:101fa0000104780038029000e20262008084eb00b5
:101fb0003b003200040378000620b2009802900033
:101fc00002003a00e08f520035003a000490a00071
:101fd0003404980080047800f90fb200e08f5200ba
:101fe00002003a00a8029000050c7800ea8f540025
:101ff00005003a000408b20003003a0088007800a7
:10200000d0002000e4ff070018029000d8029000e2
:10201000850f52000b0032000402e80014049800ff
:1020200018027800094a7800040ce80015c0b300d3
:1020300024cd2200054a7800ea8f540018003a00a7
:102040000500370088007800094078001800070074
:102050008004780012003700380290000410b200ab
:102060000f00320018019000a80090004800900076
:102070005300070018029000840f50000400320043
:10208000380290000403b300340498008084eb000d
:102090000002eb001404980028029000040c780061
:1020a000090078004f04be000080fa00000006001e
:1020b0000200fa00889fbe00004f780001047800fb
:1020c00038029000840278000504b2000200320059
:1020d0000000fb0033003700e202620005003a0016
:1020e0000403b30034049800150498000080eb004a
:1020f0002c003700d8049000e08f540006003a000e
:10210000120020008e007800480090002c0007008c
:102110001904980022003700a8029000e08f5200b6
:1021200008003a0055cd220025049800050c7800df
:102130002500200055049800150498000430a000e4
:102140003404980018019000a80090004800900006
:102150001b000700280290008082eb001504980005
:102160001e4a7800040ce800a4c0b3009e4f120081
:102170000b003a00380290000410b2000800320050
:1021800018019000a8009000480090000c00070083
:102190000002eb001404980028029000040c780060
:1021a0001e00fb004f04be000080fa000000060085
:1021b0000000fa0000c0da000080fa00000006000b
:1021c0000a00fa00e20f500022003e00f46681008f
:1021d000e10f520006003200872320004623200032
:1021e0002423200005232000e08f530004003a0040
:1021f00087222000462220002422200005222000e1
:10220000000028001500600003003a00800b7800f1
:1022100007002800958a7300054020009482620020
:1022200001003a0014a0a0008202780006003700e6
:10223000940378000710b200fdff3200b103fb00e9
:10224000070b78008502e900e08f5200f8ff3a00a2
:102250000800370034002000040f780010079800b1
:1022600021079800320798000e007800d0ff070081
:102270003e019000020078000080fa000000060095
:10228000020ab900001bb9000200b8008100420038
:1022900081004300000006000000fa00889fbe0095
:1022a0008a9fbe003004be002005be000404440026
:1022b00085844c0006054d0087854d000898be00ba
:1022c0000a90be000440e10005c8e10006d0e1002c
:1022d00007d8e10002003100680040001008e80063
:1022e0004f05be004f04be000080fa00000006004b
:1022f0001000fa00889fbe008a9fbe000605be003f
:102300000404be003002be002003be00049fbe00d5
:102310000697be000802520089825a000a035b0039
:102320008b835b0044079800550798006607980068
:10233000770798000498be000698be0011002000a0
:102340003e02be002e03be000820e10009a8e10005
:102350000ab0e1000bb8e100010039008000eb0099
:10236000108810004f05be004f04be000080fa0028
:10237000000006001400fa00889fbe008a9fbe007d
:102380008c9fbe00590007000605be000404be0075
:102390000006eb004c0798003c0798002c079800bb
:1023a0001c0798000c0f78000d0420004e039000cd
:1023b000be029000860343002e029000e00f5300ff
:1023c00003003d002a000700b3ff070002003700aa
:1023d00027000700c6ff0700ce029000150f9800e7
:1023e000e08f52000900350045000700140020006e
:1023f000050020006033b800000072008180720088
:102400000201730083817300380007000c06e800a6
:102410008d0f5600e5ff3a001e0a9000e00f5200b3
:1024200004003d000802be000a03be000e00780052
:1024300099ff07004eba9700e00f520006003a00dd
:102440003e04be002e05be0058079800690798009c
:102450007a0798000b0f9800290007004f06be006e
:102460004f05be004f04be000080fa0000000600c9
:102470004f2bde0087037300470798004f23de00d1
:102480008582420085027300350798009e02900005
:102490004f2bde0004024200040273002407980060
:1024a0001e0278004f23de00858242008502730001
:1024b00015079800120007004f18de0004024200c2
:1024c000000f72000e0007000000400081804800ed
:1024d0000201490083814900040007000802be0090
:1024e0000a03be000e0078000000060050079800a6
:1024f0006107980072079800030f9800000006001b
:102500005e009000ee0090007e0190008e09900029
:10251000000006000000fa00881f78001800200064
:10252000881f780093ff07008f87e9004f04780029
:102530000080fa00000006000000fa00801feb0097
:102540008cff07008f87e9000080fa00000006007a
:102550000000fa00889fbe008a9fbe00e00f500076
:10256000e08f5800e00f5900e08f59000c003d004b
:102570006044b8006055b8000000540081805c00e1
:1025800002015d0083815d00180020001600070035
:1025900008003d00190007000004eb0005003700ab
:1025a0000004eb001000070002003d0013000700cc
:1025b00018002000d7ff0700e00f5400060032008b
:1025c0006022b8006033b8000000520081805a00d9
:1025d00002015b0083815b004f05be004f04be001b
:1025e0000080fa0000000600e00f5200e08f5a0061
:1025f000e00f5b00e08f5b00000006006044b80065
:102600006055b8000402540085825c0006035d003a
:1026100087835d00000006000000fa00889fbe006e
:102620008a9fbe008c1f7800e00f5000e08f58009a
:10263000e00f5900e08f59000d003d006044b800e4
:102640006055b8000000540081805c0002015d000c
:1026500083815d001c0020000820e10009a8e10042
:102660000ab0e1000bb8e1000d003d0008003700a2
:102670000006eb00e00f5200e08f5a00e00f5b0015
:10268000e08f5b0006003d006044b8006055b80074
:102690000402540085825c0006035d0087835d00b0
:1026a000a5ff0700e00f5600060032006022b800c8
:1026b0006033b8000000520081805a0002015b00c4
:1026c00083815b004f0678004f05be004f04be00bb
:1026d0000080fa00000006000000fa00889fbe009b
:1026e0008a9fbe008c1f78000006eb00e00f5000b0
:1026f000e08f5800e00f5900e08f590007003d00bf
:102700006044b8006055b8000000540081805c004f
:1027100002015d0083815d001c002000e00f52007b
:10272000e08f5a00e00f5b00e08f5b0007003d0088
:102730006044b8006055b8000402540085825c0013
:1027400006035d0087835d000c00a2000d000700fa
:10275000e00f5600060032006022b8006033b80077
:102760000000520081805a0002015b0083815b00ff
:102770004f0678004f05be004f04be000080fa00ef
:1027800000000600889fbe008a9fbe008c9fbe008e
:102790000404b8000506b8008904460060854e00b0
:1027a0000606b8000a054600e0854e000706b80098
:1027b0008b054600040eb800890446000a854e00c9
:1027c000e0854d00050eb8000a0546008b854e00d9
:1027d000060eb8008b0546000416b8000a05460030
:1027e0008b854e000516b8008b054600041eb80008
:1027f0008b0546000800be000a01be004f06be0061
:0c2800004f05be004f04be0000000600a3
:020000040000fa
:10280c00496e000069740000696100006c69000089
:10281c007a610000746900006f6e000020430000b4
:10282c006f6d0000706c000065740000652e000078
:10283c000d0a000000000000256900002c25000096
:08284c00750d00000a000000f8
:020000040000fa
:10285400ffff0000ffff0000ffff0000ffff00007c
:10286400ffff0000ffff0000ffff0000ffff00006c
:10287400ffff0000ffff0000ffff0000ffff00005c
:10288400ffff0000ffff0000ffff0000ffff00004c
:10289400ffff0000ffff0000ffff0000ffff00003c
:1028a400ffff00007f0000000000000000000000a7
:1028b4000000000000000000000000000000000014
:1028c4000000000000000000000000000000000004
:1028d40000000000000000000000000000000000f4
:1028e40000000000000000000000000000000000e4
:1028f40000000000000000000000000000000000d4
:1029040000000000000000000000000000000000c3
:1029140000000000000000000000000000000000b3
:1029240000000000000000000000000000000000a3
:102934000000000000000000000000000000000093
:102944000000000000000000000000000000000083
:102954000000000000000000000000000000000073
:102964000000000000000000000000000000000063
:102974000000000000000000000000000000000053
:102984000000000000000000000000000000000043
:102994000000000000000000000000000000000033
:1029a4000000000000000000000000000000000023
:1029b4000000000000000000000000000000000013
:1029c4000000000000000000000000000000000003
:1029d40000000000000000000000000000000000f3
:1029e40000000000000000000000000000000000e3
:1029f40000000000000000000000000000000000d3
:102a040000000000e0ff0000ffff0000ffff0000e7
:102a1400ffff0000ffff0000ffff0000ffff0000ba
:102a2400ffff0000ffff0000ffff0000ffff0000aa
:102a3400ffff0000ffff0000ffff0000ffff00009a
:102a4400ffff0000ffff0000ffff0000ffff00008a
:102a5400ffff0000ffff0000ffff00000000000078
:102a64000000000000000000000000000000000062
:102a74000000000000000000000000000000000052
:102a84000000000000000000000000000000000042
:102a94000000000000000000000000000000000032
:102e240000f00000ffff0000ffff0000ffff0000b4
:102e3400ffff0000ffff0000ffff0000ffff000096
:102e4400ffff0000ffff0000ffff0000ffff000086
:102e5400ffff0000ffff0000ffff0000ffff000076
:102e6400ffff0000ffff0000ffff0000ffff000066
:102e7400ffff0000ffff0000ffff0000ffff000056
:102e8400ffff0000ffff0000ffff0000ffff000046
:102e9400ffff0000ffff0000ffff0000ffff000036
:102ea400ffff0000ffff0000ffff0000ffff000026
:102eb400ffff0000ffff0000ffff0000ffff000016
:102ec400ffff0000ffff0000ffff0000ffff000006
:102ed400ffff0000ffff0000ffff0000ffff0000f6
:102ee400ffff0000ffff0000ffff0000ffff0000e6
:102ef400ffff0000ffff0000ffff0000ffff0000d6
:102f0400ffff0000ffff0000ffff0000ffff0000c5
:102f1400ffff0000ffff0000ffff0000ffff0000b5
:102f2400ffff0000ffff0000ffff0000ffff0000a5
:102f3400ffff0000ffff0000ff3f00000000000053
:102f4400000000000000000000000000000000007d
:102f5400000000000000000000000000000000006d
:102f6400000000000000000000000000000000005d
:102f7400000000000000000000000000000000004d
:102f8400000000000000000000000000000000003d
:102f9400000000000000000000000000000000002d
:102fa400000000000000000000000000000000001d
:102fb400000000000000000000000000000000000d
:102fc40000000000000000000000000000000000fd
:102fd40000000000000000000000000000000000ed
:102fe40000000000000000000000000000000000dd
:102ff40000000000000000000000000000000000cd
:1030040000000000000000000000000000000000bc
:1030140000000000000000000000000000000000ac
:10302400000000000000000000000000000000009c
:10303400000000000000000000000000000000008c
:10304400000000000000000000000000000000007c
:10305400000000000000000000000000000000006c
:10306400000000000000000000000000000000005c
:10307400000000000000000000000000000000004c
:10308400000000000000000000000000000000003c
:10309400000000000000000000000000000000002c
:1030a400000000000000000000000000000000001c
:1030b400000000000000000000000000000000000c
:1030c40000000000000000000000000000000000fc
:1030d4000000000080ff0000ffff0000ffff000071
:1030e400ffff0000ffff0000ffff0000ffff0000e4
:1030f400ffff0000ffff0000ffff0000ffff0000d4
:10310400ffff0000ffff0000ffff0000ffff0000c3
:10311400ffff0000ffff0000ffff0000ffff0000b3
:10312400ffff0000ffff0000ffff0000ffff0000a3
:10313400ffff0000ffff0000ffff0000ffff000093
:10314400ffff0000ffff0000ffff0000ffff000083
:10315400ffff0000ffff0000ffff0000ffff000073
:10316400ffff0000ffff0000ffff0000ffff000063
:10317400ffff0000ffff0000ffff0000ffff000053
:10318400ffff0000ffff0000ffff0000ffff000043
:10319400ffff0000ffff0000ffff0000ffff000033
:1031a400ffff0000ffff0000ffff0000ffff000023
:1031b400ffff0000ffff0000ffff0000ffff000013
:1031c400ffff0000ffff0000ffff0000ffff000003
:1031d400ffff0000ffff0000ffff0000ffff0000f3
:1031e400ffff0000ffff0000ffff0000ffff0000e3
:1031f400ffff0000ffff0000ffff0000ffff0000d3
:10320400ffff0000ffff0000ffff0000ffff0000c2
:10321400ffff00001f00000000000000000000008d
:10322400000000000000000000000000000000009a
:10323400000000000000000000000000000000008a
:10324400000000000000000000000000000000007a
:10325400000000000000000000000000000000006a
:10326400000000000000000000000000000000005a
:10327400000000000000000000000000000000004a
:10328400000000000000000000000000000000003a
:10329400000000000000000000000000000000002a
:1032a400000000000000000000000000000000001a
:1032b400000000000000000000000000000000000a
:1032c40000000000000000000000000000000000fa
:1032d40000000000000000000000000000000000ea
:1032e40000000000000000000000000000000000da
:1032f40000000000000000000000000000000000ca
:1033040000000000000000000000000000000000b9
:1033140000000000000000000000000000000000a9
:103324000000000000000000000000000000000099
:10333400ffff0000ffff0000ffff0000ffff000091
:10334400ffff0000ffff0000ffff0000ffff000081
:10335400ffff0000ffff0000ffff0000ffff000071
:10336400ffff0000ffff0000ffff0000ffff000061
:10337400ffff0000ffff0000ffff0000ffff000051
:10338400ffff0000ffff0000ffff0000ffff000041
:10339400ffff0000ffff0000ffff0000ffff000031
:1033a400ffff0000ffff0000ffff0000ffff000021
:1033b400ffff0000ffff0000ffff0000ffff000011
:1033c400ffff0000ffff0000ffff0000ffff000001
:1033d400ffff0000ffff0000ffff0000ffff0000f1
:1033e400ffff0000ffff0000ffff0000ffff0000e1
:1033f400ffff0000ffff0000ffff0000ffff0000d1
:10340400ffff0000ffff0000ffff0000ffff0000c0
:10341400ffff0000ffff0000ffff0000ffff0000b0
:10342400ffff000007000000000000000000000093
:103434000000000000000000000000000000000088
:103444000000000000000000000000000000000078
:103454000000000000000000000000000000000068
:103464000000000000000000000000000000000058
:103474000000000000000000000000000000000048
:103484000000000000000000000000000000000038
:103494000000000000000000000000000000000028
:1034a4000000000000000000000000000000000018
:1034b4000000000000000000000000000000000008
:1034c40000000000000000000000000000000000f8
:1034d40000000000000000000000000000000000e8
:1034e40000000000000000000000000000000000d8
:1034f40000000000000000000000000000000000c8
:1035040000000000000000000000000000000000b7
:1035140080ff0000ffff0000ffff0000ffff00002e
:10352400ffff0000ffff0000ffff0000ffff00009f
:10353400ffff0000ffff0000ffff0000ffff00008f
:10354400ffff0000ffff0000ffff0000ffff00007f
:10355400ffff0000ffff0000ffff0000ffff00006f
:10356400ffff0000ffff0000ffff0000ffff00005f
:10357400ffff0000ffff0000ffff0000ffff00004f
:10358400ffff0000ffff0000ffff0000ffff00003f
:10359400ffff0000ffff0000ffff0000ffff00002f
:1035a400ffff0000ffff0000ffff0000ffff00001f
:1035b400ffff0000ffff0000ffff0000ffff00000f
:1035c400ffff0000ffff0000ffff0000ffff0000ff
:1035d400ffff0000ffff0000ffff0000ffff0000ef
:1035e400ffff0000ffff0000ffff0000ffff0000df
:1035f400ffff0000ffff0000ffff0000ffff0000cf
:10360400ffff0000ffff0000ffff0000ffff0000be
:10361400ffff0000ffff0000ffff0000ffff0000ae
:10362400ffff0000ffff0000ffff0000ffff00009e
:10363400ffff0000ffff0000ffff0000ffff00008e
:10364400ffff0000ffff0000ffff00001f0000005d
:103654000000000000000000000000000000000066
:103664000000000000000000000000000000000056
:103674000000000000000000000000000000000046
:103684000000000000000000000000000000000036
:1038c400ffff0000000000000000000000000000f6
:1038d40000000000000000000000000000000000e4
:1038e40000000000000000000000000000000000d4
:1038f40000000000000000000000000000000000c4
:1039040000000000000000000000000000000000b3
:1039140000000000000000000000000000000000a3
:103924000000000000000000000000000000000093
:103934000000000000000000000000000000000083
:103944000000000000000000000000000000000073
:103954000000000000000000000000000000000063
:103964000000000000000000000000000000000053
:103974000000000000000000000000000000000043
:103984000000000000000000000000000000000033
:103994000000000000000000000000000000000023
:1039a4000000000000000000000000000000000013
:1039b4000000000000000000000000000000000003
:1039c40000000000000000000000000000000000f3
:1039d40000000000000000000000000000000000e3
:1039e40000000000000000000000000000000000d3
:1039f40000000000000000000000000000000000c3
:103a040000000000000000000000000000000000b2
:103a140000000000000000000000000000000000a2
:103a24000000000000000000000000000000000092
:103a34000000000000000000000000000000000082
:103a44000000000000000000000000000000000072
:103a54000000000000000000000000000000000062
:103a640000000000ffff0000ffff0000ffff000058
:103a7400ffff0000ffff0000ffff0000ffff00004a
:103a8400ffff0000ffff0000ffff0000ffff00003a
:103a9400ffff0000ffff0000ffff0000ffff00002a
:103aa400ffff0000ffff0000ffff0000ffff00001a
:103ab400ffff0000ffff0000ffff0000ffff00000a
:103ac400ffff0000ffff0000ffff0000ffff0000fa
:103ad400ffff0000ffff0000ffff0000ffff0000ea
:103ae400ffff0000ffff0000ffff0000ffff0000da
:103af400ffff0000ffff0000ffff0000ffff0000ca
:103b0400ffff0000ffff0000ffff0000ffff0000b9
:103b1400ffff0000ffff0000ffff0000ffff0000a9
:103b2400ffff0000ffff0000ffff0000ffff000099
:103b3400ffff0000ff0f0000000000000000000075
:103b44000000000000000000000000000000000071
:103b54000000000000000000000000000000000061
:103b64000000000000000000000000000000000051
:103b74000000000000000000000000000000000041
:103b84000000000000000000000000000000000031
:103b94000000000000000000000000000000000021
:103ba4000000000000000000000000000000000011
:103bb4000000000000000000000000000000000001
:103bc40000000000000000000000000000000000f1
:103bd40000000000000000000000000000000000e1
:103be40000000000000000000000000000000000d1
:103bf40000000000000000000000000000000000c1
:103c040000000000000000000000000000000000b0
:103c140000000000000000000000000000000000a0
:103c24000000000000000000000000000000000090
:103c34000000000000000000000000000000000080
:103c44000000000000000000000000000000000070
:103c54000000000000000000000000000000000060
:103c64000000000000000000000000000000000050
:103c74000000000000000000000000000000000040
:103c84000000000000e00000ffff0000ffff000054
:103c9400ffff0000ffff0000ffff0000ffff000028
:103ca400ffff0000ffff0000ffff0000ffff000018
:103cb400ffff0000ffff0000ffff0000ffff000008
:103cc400ffff0000ffff0000ffff0000ffff0000f8
:103cd400ffff0000ffff0000ffff0000ffff0000e8
:103ce400ffff0000ffff0000ffff0000ffff0000d8
:103cf400ffff0000ffff0000ffff0000ffff0000c8
:103d0400ffff0000ffff0000ffff0000ffff0000b7
:103d1400ffff0000ffff0000ffff0000ffff0000a7
:103d2400ffff0000ffff0000ffff0000ffff000097
:103d3400ffff0000ffff0000ffff0000ffff000087
:103d4400ffff0000ffff0000ffff0000ffff000077
:103d5400ffff0000ffff0000ffff0000ffff000067
:103d6400ffff0000ffff0000ffff0000ffff000057
:103d7400ffff0000ffff0000ffff0000ffff000047
:103d8400ffff0000ffff0000ffff0000ffff000037
:103d9400ff1f000000000000000000000000000001
:103da400000000000000000000000000000000000f
:103db40000000000000000000000000000000000ff
:103dc40000000000000000000000000000000000ef
:103dd40000000000000000000000000000000000df
:103de40000000000000000000000000000000000cf
:103df40000000000000000000000000000000000bf
:103e040000000000000000000000000000000000ae
:103e1400000000000000000000000000000000009e
:103e2400000000000000000000000000000000008e
:103e3400000000000000000000000000000000007e
:103e4400000000000000000000000000000000006e
:103e5400000000000000000000000000000000005e
:103e6400000000000000000000000000000000004e
:103e7400000000000000000000000000000000003e
:103e8400000000000000000000000000000000002e
:103e9400000000000000000000000000000000001e
:103ea400000000000000000000000000000000000e
:103eb40000000000000000000000000000000000fe
:103ec40000000000000000000000000000000000ee
:103ed40000000000000000000000000000000000de
:103ee40000000000f8ff0000ffff0000ffff0000db
:103ef400ffff0000ffff0000ffff0000ffff0000c6
:103f0400ffff0000ffff0000ffff0000ffff0000b5
:103f1400ffff0000ffff0000ffff0000ffff0000a5
:103f2400ffff0000ffff0000ffff0000ffff000095
:10437400ffff0000ffff0000ff3f000000000000ff
:104384000000000000000000000000000000000029
:104394000000000000000000000000000000000019
:1043a4000000000000000000000000000000000009
:1043b40000000000000000000000000000000000f9
:1045a40000f00000ffff0000ffff0000ffff00001d
:1045b400ffff0000ffff0000ffff0000ffff0000ff
:1045c400ffff0000ffff0000ffff0000ffff0000ef
:1045d400ffff0000ffff0000ffff0000ffff0000df
:1045e400ffff0000ffff0000ffff0000ffff0000cf
:1045f400ffff0000ffff0000ffff0000ffff0000bf
:10460400ffff0000ffff0000ffff0000ffff0000ae
:10461400ffff0000ffff0000ffff0000ffff00009e
:10462400ffff0000ffff0000ffff0000ffff00008e
:10463400ffff0000ffff0000ffff0000ffff00007e
:10464400ffff0000ffff0000ffff0000ffff00006e
:10465400ffff0000ffff0000ffff0000ffff00005e
:10466400ffff0000ffff0000ffff0000ffff00004e
:10467400ffff0000ffff0000ffff0000ffff00003e
:10468400ffff0000ffff0000ffff0000ffff00002e
:10469400ffff0000ffff0000ffff0000ffff00001e
:1046a400ffff00003f0000000000000000000000c9
:1046b40000000000000000000000000000000000f6
:1046c40000000000000000000000000000000000e6
:1046d40000000000000000000000000000000000d6
:1046e40000000000000000000000000000000000c6
:1046f40000000000000000000000000000000000b6
:1047040000000000000000000000000000000000a5
:104714000000000000000000000000000000000095
:104724000000000000000000000000000000000085
:1047340000000000000000000000000000f800007d
:10474400ffff0000ffff0000ffff0000ffff00006d
:10475400ffff0000ffff0000ffff0000ffff00005d
:10476400ffff0000ffff0000ffff0000ffff00004d
:10477400ffff0000ffff0000ffff0000ffff00003d
:10478400ffff0000ffff0000ffff0000ffff00002d
:10479400ffff0000ffff0000ffff0000ffff00001d
:1047a400ffff0000ffff0000ffff0000ffff00000d
:1047b400ffff0000ffff0000ffff0000ffff0000fd
:1047c400ffff0000ffff0000ffff0000ffff0000ed
:1047d400ffff0000ffff0000ffff0000ffff0000dd
:1047e400ffff0000ffff0000ffff0000ffff0000cd
:1047f400ffff0000ffff0000ffff0000ffff0000bd
:10480400ffff0000ffff0000ffff0000ffff0000ac
:10481400ffff0000ffff0000ffff0000ffff00009c
:10482400ffff0000ffff0000ffff0000ffff00008c
:10483400ffff0000ffff0000ffff0000ffff00007c
:10484400ffff0000ffff0000ffff0000ffff00006c
:10485400ffff0000ffff0000ffff0000ffff00005c
:10486400ffff0000ffff0000ffff0000ffff00004c
:10487400ffff0000ffff0000ffff0000ffff00003c
:10488400ffff000001000000000000000000000025
:104894000000000000000000000000000000000014
:1048a4000000000000000000000000000000000004
:1048b40000000000000000000000000000000000f4
:1048c40000000000000000000000000000000000e4
:1048d40000000000000000000000000000000000d4
:1048e40000000000000000000000000000000000c4
:1048f40000000000000000000000000000000000b4
:1049040000000000000000000000000000000000a3
:104914000000000000000000000000000000000093
:104924000000000000000000000000000000000083
:104934000000000000000000000000000000000073
:104944000000000000000000000000000000000063
:104954000000000000000000000000000000000053
:104964000000000000000000000000000000000043
:104974000000000000000000000000000000000033
:104984000000000000000000000000000000000023
:104994000000000000000000000000000000000013
:1049a4000000000000000000000000000000000003
:1049b40000000000000000000000000000000000f3
:1049c40000000000000000000000000000000000e3
:1049d40000000000000000000000000000000000d3
:1049e40000000000000000000000000000000000c3
:1049f400e0ff0000ffff0000ffff0000ffff0000da
:104a0400ffff0000ffff0000ffff0000ffff0000aa
:104a1400ffff0000ffff0000ffff0000ffff00009a
:104a2400ffff0000ffff0000ffff0000ffff00008a
:104a3400ffff0000ffff0000ffff0000ffff00007a
:104a4400ffff0000ffff0000ffff0000ffff00006a
:104a5400ffff0000ffff0000ffff0000ffff00005a
:104a6400ffff0000ffff0000ffff0000ffff00004a
:104a7400ffff0000ffff0000ffff0000ffff00003a
:104a8400ffff0000ffff0000ffff0000ffff00002a
:104a9400ffff0000ffff0000ffff0000ffff00001a
:104aa400ffff0000ffff0000ffff0000ffff00000a
:104ab400ffff0000ffff0000ffff0000ffff0000fa
:104ac400ffff0000ffff0000ffff0000ffff0000ea
:104ad400ffff0000ffff0000ffff0000ffff0000da
:104ae400ffff0000ffff0000ffff0000ffff0000ca
:104af400ffff0000ffff0000ffff0000ffff0000ba
:104b0400ffff0000ffff0000ffff0000ffff0000a9
:104b1400ffff0000ffff0000ffff0000ffff000099
:104b2400ffff0000ffff0000ffff0000ffff000089
:104b3400ffff0000ffff0000ffff0000ffff000079
:104b4400ffff0000ffff0000ffff0000ffff000069
:104b5400ffff0000ffff0000ffff0000ffff000059
:104b6400ffff0000ffff0000ffff0000ffff000049
:104b7400ffff0000ffff0000ffff0000ffff000039
:104b8400ffff0000ffff0000ffff0000ffff000029
:104b9400ffff0000ffff0000ffff0000ffff000019
:104ba400ffff0000ffff0000ffff0000ff03000005
:104bb40000000000000000000000000000000000f1
:104bc40000000000000000000000000000000000e1
:104bd40000000000000000000000000000000000d1
:104be40000000000000000000000000000000000c1
:104e74000000000000000000c0ff0000ffff000071
:104e8400ffff0000ffff0000ffff0000ffff000026
:104e9400ffff0000ffff0000ffff0000ffff000016
:104ea400ffff0000ffff0000ffff0000ffff000006
:104eb400ffff0000ffff0000ffff0000ffff0000f6
:104ec400ffff0000ffff0000ffff0000ffff0000e6
:104ed400ffff0000ffff0000ffff0000ffff0000d6
:104ee400ffff0000ffff0000ffff0000ffff0000c6
:104ef400ffff0000ffff0000ffff0000ffff0000b6
:104f0400ffff0000ffff0000ffff0000ffff0000a5
:104f1400ffff0000ffff0000ffff0000ffff000095
:104f2400ffff0000ffff0000ffff0000ffff000085
:104f3400ffff0000ffff0000ffff0000ffff000075
:104f4400ffff0000ffff0000ffff0000ffff000065
:104f5400ffff0000ffff0000ffff0000ffff000055
:104f6400ffff00003f000000000000000000000000
:104f7400000000000000000000000000000000002d
:104f8400000000000000000000000000000000001d
:104f9400000000000000000000000000000000000d
:104fa40000000000000000000000000000000000fd
:104fb40000000000000000000000000000000000ed
:104fc40000000000000000000000000000000000dd
:104fd40000000000000000000000000000000000cd
:104fe40000000000000000000000000000000000bd
:104ff40000000000000000000000000000000000ad
:10500400000000000000000000000000000000009c
:10501400000000000000000000000000000000008c
:10502400000000000000000000000000000000007c
:10503400000000000000000000000000000000006c
:10504400000000000000000000000000000000005c
:10505400000000000000000000000000000000004c
:10506400000000000000000000000000000000003c
:10507400000000000000000000000000000000002c
:10508400000000000000000000000000000000001c
:1050940080ff0000ffff0000ffff0000ffff000093
:1050a400ffff0000ffff0000ffff0000ffff000004
:1050b400ffff0000ffff0000ffff0000ffff0000f4
:1050c400ffff0000ffff0000ffff0000ffff0000e4
:1050d400ffff0000ffff0000ffff0000ffff0000d4
:1050e400ffff0000ffff0000ffff0000ffff0000c4
:1050f400ffff0000ffff0000ffff0000ffff0000b4
:10510400ffff0000ffff0000ffff0000ffff0000a3
:10511400ffff0000ffff0000ffff0000ffff000093
:10512400ffff0000ffff0000ffff0000ffff000083
:10513400ffff0000ffff0000ffff0000ffff000073
:10514400ffff0000ffff0000ffff0000ff0300005f
:10515400000000000000000000000000000000004b
:10516400000000000000000000000000000000003b
:10517400000000000000000000000000000000002b
:10518400000000000000000000000000000000001b
:10519400000000000000000000000000000000000b
:1051a40000000000000000000000000000000000fb
:1051b40000000000000000000000000000000000eb
:1051c40000000000000000000000000000000000db
:1051d40000000000000000000000000000000000cb
:1051e40000000000000000000000000000000000bb
:1051f40000000000000000000000000000000000ab
:10520400000000000000000000000000000000009a
:10521400000000000000000000000000000000008a
:10522400000000000000000000000000000000007a
:10523400000000000000000000000000000000006a
:10524400000000000000000000000000000000005a
:105254000000000000000000feff0000ffff00004f
:10526400ffff0000ffff0000ffff0000ffff000042
:10527400ffff0000ffff0000ffff0000ffff000032
:10528400ffff0000ffff0000ffff0000ffff000022
:10529400ffff0000ffff0000ffff0000ffff000012
:1052a400ffff0000ffff0000ffff0000ffff000002
:1052b400ffff0000ffff0000ffff0000ffff0000f2
:1052c400ffff0000ffff0000ffff0000ffff0000e2
:1052d400ffff0000ffff0000ffff0000ffff0000d2
:1052e400ffff0000ffff0000ffff0000ffff0000c2
:1052f400ffff0000ffff0000ffff0000ffff0000b2
:10530400ffff0000ffff0000ffff0000ffff0000a1
:10531400ffff0000ffff0000ffff0000ffff000091
:10532400ffff0000ffff0000ffff0000ffff000081
:10533400ffff0000ffff0000ffff0000ffff000071
:10534400ffff0000ffff0000ffff0000ffff000061
:10535400ffff0000ffff0000ffff0000ffff000051
:10536400ffff0000ffff0000ffff0000ff07000039
:105374000000000000000000000000000000000029
:105384000000000000000000000000000000000019
:105394000000000000000000000000000000000009
:1053a40000000000000000000000000000000000f9
:1053b40000000000000000000000000000000000e9
:1053c40000000000000000000000000000000000d9
:1053d40000000000000000000000000000000000c9
:1053e40000000000000000000000000000000000b9
:1053f40000000000000000000000000000000000a9
:105404000000000000000000000000000000000098
:105414000000000000000000000000000000000088
:105424000000000000000000000000000000000078
:105434000000000000000000000000000000000068
:105444000000000000000000000000000000000058
:105454000000000000000000000000000000000048
:105464000000000000000000000000000000000038
:105474000000000000000000e0ff0000ffff00004b
:10548400ffff0000ffff0000ffff0000ffff000020
:10549400ffff0000ffff0000ffff0000ffff000010
:1054a400ffff0000ffff0000ffff0000ffff000000
:1054b400ffff0000ffff0000ffff0000ffff0000f0
:1054c400ffff0000ffff0000ffff0000ffff0000e0
:1054d400ffff0000ffff0000ffff0000ffff0000d0
:1054e400ffff0000ffff0000ffff0000ffff0000c0
:1054f400ffff0000ffff0000ffff0000ffff0000b0
:10550400ffff0000ffff0000ffff0000ffff00009f
:10551400ffff0000ffff0000ffff0000ffff00008f
:10552400ffff0000ffff0000ffff0000ffff00007f
:10553400ffff0000ffff0000ffff0000ffff00006f
:10554400ffff0000ffff0000ffff0000ffff00005f
:10555400ffff0000ffff0000ffff0000ffff00004f
:10556400ffff0000ffff0000ffff0000ffff00003f
:10557400ffff0000ffff0000ffff0000ffff00002f
:10558400ffff0000ffff0000ffff0000ffff00001f
:10559400ffff0000ffff0000ffff0000ffff00000f
:1055a400ffff0000ffff0000ffff0000ffff0000ff
:1055b400ffff0000ffff0000ffff0000ffff0000ef
:1055c400ffff0000ffff0000ffff0000ffff0000df
:1055d400ffff0000ffff0000ffff0000ffff0000cf
:1055e400ffff0000ffff0000ffff0000ffff0000bf
:1055f400ffff0000000000000000000000000000a9
:105604000000000000000000000000000000000096
:105614000000000000000000000000000000000086
:105624000000000000000000000000000000000076
:105634000000000000000000000000000000000066
:105644000000000000000000000000000000000056
:105654000000000000000000000000000000000046
:105664000000000000000000000000000000000036
:105674000000000000000000000000000000000026
:105684000000000000000000000000000000000016
:105694000000000000000000000000000000000006
:1056a40000000000000000000000000000000000f6
:1056b40000000000000000000000000000000000e6
:1056c40000000000000000000000000000000000d6
:1056d40000000000000000000000000000000000c6
:1056e40000000000000000000000000000000000b6
:1056f4000000000000000000feff0000ffff0000ab
:10570400ffff0000ffff0000ffff0000ffff00009d
:10571400ffff0000ffff0000ffff0000ffff00008d
:10572400ffff0000ffff0000ffff0000ffff00007d
:10573400ffff0000ffff0000ffff0000ffff00006d
:10574400ffff0000ffff0000ffff0000ffff00005d
:10575400ffff0000ffff0000ffff0000ffff00004d
:10576400ffff0000ffff0000ffff0000ffff00003d
:10577400ffff0000ffff0000ffff0000ffff00002d
:10578400ffff0000ffff0000ffff0000ffff00001d
:10579400ffff0000ffff0000ffff0000ffff00000d
:1057a400ffff0000ffff0000ffff0000ffff0000fd
:1057b400ffff0000ffff0000ffff0000ffff0000ed
:1057c400ffff0000ffff0000ffff0000ffff0000dd
:1057d400ffff0000ffff0000ffff0000ffff0000cd
:1057e400ffff0000ffff0000ffff00003f0000007c
:1057f40000000000000000000000000000000000a5
:105804000000000000000000000000000000000094
:105814000000000000000000000000000000000084
:105824000000000000000000000000000000000074
:105cd40000000000fcff0000ffff0000ffff0000c9
:105ce400ffff0000ffff0000ffff0000ffff0000b8
:105cf400ffff0000ffff0000ffff0000ffff0000a8
:105d0400ffff0000ffff0000ffff0000ffff000097
:105d1400ffff0000ffff0000ffff0000ffff000087
:105d2400ffff0000ffff0000ffff0000ffff000077
:105d3400ffff0000ffff0000ffff0000ffff000067
:105d4400ffff0000ffff0000ffff0000ffff000057
:105d5400ffff0000ffff0000ffff0000ffff000047
:105d6400ffff0000ffff0000ffff0000ffff000037
:105d7400ffff0000ffff0000ffff0000ffff000027
:105d8400ffff0000ffff0000ffff0000ffff000017
:105d9400ffff0000ffff0000ffff0000ffff000007
:105da400ffff0000ffff0000ffff0000ffff0000f7
:105db400ffff0000ffff0000ffff0000ffff0000e7
:105dc400ffff0000ffff0000ffff0000ffff0000d7
:105dd400ffff0000ffff0000ffff0000ffff0000c7
:105de400ffff0000ffff0000ffff0000ffff0000b7
:105df400ffff0000ffff0000ffff0000ffff0000a7
:105e0400ffff0000ffff0000ff3f00000000000054
:105e1400000000000000000000000000000000007e
:105e2400000000000000000000000000000000006e
:105e3400000000000000000000000000000000005e
:105e4400000000000000000000000000000000004e
:105e5400000000000000000000000000000000003e
:105e6400000000000000000000000000000000002e
:105e7400000000000000000000000000000000001e
:105e8400000000000000000000000000000000000e
:105e940000000000000000000000000000000000fe
:105ea40000000000000000000000000000000000ee
:105eb40000000000000000000000000000000000de
:105ec40000000000000000000000000000000000ce
:105ed40000000000000000000000000000000000be
:105ee40000000000000000000000000000000000ae
:105ef40000000000000000000000000000fe0000a0
:105f0400ffff0000ffff0000ffff0000ffff000095
:105f1400ffff0000ffff0000ffff0000ffff000085
:105f2400ffff0000ffff0000ffff0000ffff000075
:105f3400ffff0000ffff0000ffff0000ffff000065
:105f4400ffff0000ffff0000ffff0000ffff000055
:105f5400ffff0000ffff0000ffff0000ffff000045
:105f6400ffff0000ffff0000ffff0000ffff000035
:105f7400ffff0000ffff0000ffff0000ffff000025
:105f8400ffff0000ffff0000ffff0000ffff000015
:105f9400ffff0000ffff0000ffff0000ffff000005
:105fa400ffff0000ffff0000ffff0000ffff0000f5
:105fb400ffff0000ffff0000ffff0000ffff0000e5
:105fc400ffff0000ffff0000ffff0000ffff0000d5
:105fd400ffff0000ffff0000ffff0000ffff0000c5
:105fe400ffff0000ffff0000ffff0000ffff0000b5
:105ff400ffff0000ffff0000ffff0000ffff0000a5
:10600400ffff0000ffff0000ffff0000ffff000094
:10601400ffff0000ffff0000ffff0000ffff000084
:10602400ffff0000ffff0000ffff0000ffff000074
:10603400ffff0000ffff0000ffff0000ffff000064
:10604400ffff0000ffff0000ffff0000ffff000054
:10605400ffff0000ffff0000ffff0000ffff000044
:10606400ffff0000ffff0000070000000000000029
:10607400000000000000000000000000000000001c
:10608400000000000000000000000000000000000c
:1060940000000000000000000000000000000000fc
:1060a40000000000000000000000000000000000ec
:1060b40000000000000000000000000000000000dc
:1060c40000000000000000000000000000000000cc
:1060d40000000000000000000000000000000000bc
:1060e40000000000000000000000000000000000ac
:1060f400000000000000000000000000000000009c
:10610400000000000000000000000000000000008b
:10611400000000000000000000000000000000007b
:10612400000000000000000000000000000000006b
:10613400000000000000000000000000000000005b
:10614400000000000000000000000000000000004b
:10615400000000000000000000000000000000003b
:10616400000000000000000000000000000000002b
:10617400000000000000000000000000000000001b
:10618400000000000000000000000000000000000b
:1061940000000000000000000000000000000000fb
:1061a40000000000000000000000000000000000eb
:1061b40000000000000000000000000000000000db
:1061c40000000000000000000000000000000000cb
:1061d40000000000000000000000000000000000bb
:1061e40000000000000000000000000000000000ab
:1061f4000000000000000000ffff0000ffff00009f
:10620400ffff0000ffff0000ffff0000ffff000092
:10621400ffff0000ffff0000ffff0000ffff000082
:10622400ffff0000ffff0000ffff0000ffff000072
:10623400ffff0000ffff0000ffff0000ffff000062
:10624400ffff0000ffff0000ffff0000ffff000052
:10625400ffff0000ffff0000ffff0000ffff000042
:10626400ffff0000ffff0000ffff0000ffff000032
:10627400ffff0000ffff0000ffff0000ffff000022
:10628400ffff0000ffff0000ffff0000ffff000012
:10629400ffff0000ffff0000ffff0000ffff000002
:1062a400ffff0000ffff0000ffff0000ffff0000f2
:1062b400ffff0000ffff0000ffff0000ffff0000e2
:1062c400ffff0000ffff0000ffff0000ffff0000d2
:1062d400ffff0000ffff0000ffff0000ffff0000c2
:1062e400ffff0000ffff0000ffff0000ffff0000b2
:1062f400ffff0000ffff0000ffff0000ffff0000a2
:10630400ffff0000ffff0000ffff0000ffff000091
:10631400ffff0000ffff0000ffff0000ffff000081
:10632400ffff0000ffff0000ffff0000ffff000071
:10633400ffff0000ffff0000ffff0000ffff000061
:10634400ffff0000ffff0000ffff0000ffff000051
:10635400ff3f0000000000000000000000000000fb
:106364000000000000000000000000000000000029
:106374000000000000000000000000000000000019
:106384000000000000000000000000000000000009
:1063940000000000000000000000000000000000f9
:1063a40000000000000000000000000000000000e9
:1063b40000000000000000000000000000000000d9
:1063c40000000000000000000000000000000000c9
:1063d40000000000000000000000000000000000b9
:1063e40000000000000000000000000000000000a9
:1063f4000000000000000000000000000000000099
:106404000000000000000000000000000000000088
:106414000000000000000000000000000000000078
:106424000000000000000000000000000000000068
:106434000000000000000000000000000000000058
:106444000000000000000000000000000000000048
:106454000000000000000000000000000000000038
:106464000000000000000000000000000000000028
:106474000000000000000000000000000000000018
:106484000000000000000000000000000000000008
:1064940000000000000000000000000000000000f8
:1064a40000000000000000000000000000000000e8
:1064b40000000000000000000000000000000000d8
:1064c40000000000000000000000000000000000c8
:1064d40000000000000000000000000000000000b8
:1064e40000000000000000000000000000000000a8
:1064f4000000000000000000000000000000000098
:106504000000000000000000000000000000000087
:106514000000000000000000000000000000000077
:1065240000ff0000ffff0000ffff0000ffff00006e
:10653400ffff0000ffff0000ffff0000ffff00005f
:10654400ffff0000ffff0000ffff0000ffff00004f
:10655400ffff0000ffff0000ffff0000ffff00003f
:10656400ffff0000ffff0000ffff0000ffff00002f
:10657400ffff0000ffff0000ffff0000ffff00001f
:10658400ffff0000ffff0000ffff0000ffff00000f
:10659400ffff0000ffff0000ffff0000ffff0000ff
:1065a400ffff0000ffff0000ffff0000ffff0000ef
:1065b400ffff0000ffff0000ffff0000ffff0000df
:1065c400ffff0000ffff0000ffff0000ffff0000cf
:1065d400ffff0000ffff0000ffff0000ffff0000bf
:1065e400ffff0000ffff0000ffff0000ffff0000af
:1065f400ffff0000ffff0000ffff0000ffff00009f
:10660400ffff0000ffff0000ffff0000ffff00008e
:10661400ffff0000ffff0000ffff0000ffff00007e
:10662400ffff0000ffff0000ffff0000ffff00006e
:10663400ffff0000ffff0000ffff0000ffff00005e
:10664400ffff0000ffff0000ffff0000ffff00004e
:10665400ffff0000ffff0000ffff0000ffff00003e
:10666400ffff0000ffff0000ffff0000ffff00002e
:10667400ffff0000ffff0000ffff0000ffff00001e
:10668400ffff0000ffff0000ffff0000ffff00000e
:10669400ffff0000ffff0000ffff0000ffff0000fe
:1066a400ffff0000ffff0000ffff0000ffff0000ee
:1066b400ffff0000ffff0000ffff0000ffff0000de
:1066c400ffff0000ffff0000ffff0000ff030000ca
:1066d40000000000000000000000000000000000b6
:1066e40000000000000000000000000000000000a6
:1066f4000000000000000000000000000000000096
:106704000000000000000000000000000000000085
:106714000000000000000000000000000000000075
:106724000000000000000000000000000000000065
:106734000000000000000000000000000000000055
:106744000000000000000000000000000000000045
:106754000000000000000000000000000000000035
:106764000000000000000000000000000000000025
:106774000000000000000000000000000000000015
:106784000000000000000000000000000000000005
:1067940000000000000000000000000000000000f5
:1067a40000000000000000000000000000000000e5
:1067b40000000000000000000000000000000000d5
:1067c40000000000000000000000000000000000c5
:1067d40000000000000000000000000000000000b5
:1067e40000e00000ffff0000ffff0000ffff0000cb
:1067f400ffff0000ffff0000ffff0000ffff00009d
:10680400ffff0000ffff0000ffff0000ffff00008c
:10681400ffff0000ffff0000ffff0000ffff00007c
:10682400ffff0000ffff0000ffff0000ffff00006c
:10683400ffff0000ffff0000ffff0000ffff00005c
:10684400ffff0000ffff0000ffff0000ffff00004c
:020000040000fa
:10685400021000000c19000082000000000000007b
:106864000000000000000000000000007f1800008d
:1068740000e8030000000000000000000000000029
:106884000000000000000000000000000000000004
:1068940000000000000000000000000000000000f4
:1068a40000000000000000000000000000000000e4
:1068b40000000000000000000000000000000000d4
:1068c40000000000000000000000000000000000c4
:1068d40000000000000000000000000000000000b4
:1068e40000000000000000000000000000000000a4
:1068f4000000000000000000000000000000000094
:106904000000000000000000000000000000000083
:106914000000000000000000000000000000000073
:106924000000000000000000000000000000000063
:106934000000000000000000000000000000000053
:1069440000000000000096000000000000000000ad
:106954000000000000000000000000000000000033
:106964000000000000000000000000000000000023
:106974000000000000000000000000000000000013
:106984000000000000000000000000000000000003
:1069940000000000000000000000000000000000f3
:1069a40000000000000000000000000000000000e3
:1069b40000000000000000000000000000000000d3
:1069c40000000000000000000000000000000000c3
:1069d40000000000000000000000000000000000b3
:1069e40000000000000000000000000000000000a3
:1069f4000000000000000000000000000000000093
:106a04000000000000000000000000000000000082
:106a1400000000000000b70007000000e8030000c9
:106a24000000000000000000000000000000000062
:106a34000000000000000000000000000000000052
:106a44000000000000000000000000000000000042
:106a54000000000000000000000000000000000032
:106a64000000000000000000000000000000000022
:106a74000000000000000000000000000000000012
:106a84000000000000000000000000000000000002
:106a940000000000000000000000000000000000f2
:106aa40000000000000000000000000000000000e2
:106ab40000000000000000000000000000000000d2
:106ac40000000000000000000000000000000000c2
:106ad40000000000000000000000000000000000b2
:106ae40000000000000000000000000000000000a2
:106af400002c010000000000000000000000000065
:106b04000000000000000000000000000000000081
:106b14000000000000000000000000000000000071
:106b24000000000000000000000000000000000061
:106b34000000000000000000000000000000000051
:106b44000000000000000000000000000000000041
:106b54000000000000000000000000000000000031
:106b64000000000000000000000000000000000021
:106b74000000000000000000000000000000000011
:106b84000000000000000000000000000000000001
:106b940000000000000000000000000000000000f1
:106ba40000000000000000000000000000000000e1
:106bb40000000000000000000000000000000000d1
:106bc400002d09000000e8000300000000000000a0
:106bd40000000000000000000000000000000000b1
:106be40000000000000000000000000000000000a1
:106bf4000000000000000000000000000000000091
:106c04000000000000000000000000000000000080
:106c14000000000000000000000000000000000070
:106c24000000000000000000000000000000000060
:106c34000000000000000000000000000000000050
:106c44000000000000000000000000000000000040
:106c54000000000000000000000000000000000030
:106c64000000000000000000000000000000000020
:106c74000000000000000000000000000000000010
:106c84000000000000000000000000000000000000
:106c94000000000000000000000000002c010000c3
:106ca40000000000000000000000000000000000e0
:106cb40000000000000000000000000000000000d0
:106cc40000000000000000000000000000000000c0
:106cd40000000000000000000000000000000000b0
:106ce40000000000000000000000000000000000a0
:106cf4000000000000000000000000000000000090
:106d0400000000000000000000000000000000007f
:106d1400000000000000000000000000000000006f
:106d2400000000000000000000000000000000005f
:106d3400000000000000000000000000000000004f
:106d4400000000000000000000000000000000003f
:106d5400000000000000000000000000000000002f
:106d64000000000000000000000000007f18000088
:106d740000e8030000000000000000000000000024
:106d840000000000000000000000000000000000ff
:106d940000000000000000000000000000000000ef
:106da40000000000000000000000000000000000df
:106db40000000000000000000000000000000000cf
:106dc40000000000000000000000000000000000bf
:106dd40000000000000000000000000000000000af
:106de400000000000000000000000000000000009f
:106df400000000000000000000000000000000008f
:106e0400000000000000000000000000000000007e
:106e1400000000000000000000000000000000006e
:106e2400000000000000000000000000000000005e
:106e3400000000000000000000000000000000004e
:106e440000000000000064000000000000000000da
:106e5400000000000000000000000000000000002e
:106e6400000000000000000000000000000000001e
:106e7400000000000000000000000000000000000e
:106e840000000000000000000000000000000000fe
:106e940000000000000000000000000000000000ee
:106ea40000000000000000000000000000000000de
:106eb40000000000000000000000000000000000ce
:106ec40000000000000000000000000000000000be
:106ed40000000000000000000000000000000000ae
:106ee400000000000000000000000000000000009e
:106ef400000000000000000000000000000000008e
:106f0400000000000000000000000000000000007d
:106f14000000000000002d0009000000e80300004c
:106f2400000000000000000000000000000000005d
:106f3400000000000000000000000000000000004d
