:020000040000fa
:080000000002040000000000f2
:020000040000fa
:100008003c030000420300005a03000048030000bc
:100018004e030000540300005a0300005a03000076
:100028005a0300005a0300005a0300005a03000054
:100038002a4200005a0300005a0300005a03000035
:100048002e5700005a0300005a0300005a0300000c
:100058005a0300005a0300005a0300005a03000024
:100068005a0300005a0300005a0300005a03000014
:100078005a0300005a0300005a0300005a03000004
:10008800344200005a0300005a0300005a030000db
:100098005a0300005a0300005a0300005a030000e4
:1000a8005a0300005a0300005a030000f041000000
:1000b8005a0300005a0300005a0300005a030000c4
:1000c8005a0300005a0300005a0300005a030000b4
:1000d8005a0300005a0300005a0300005a030000a4
:1000e8005a0300005a0300005a0300005a03000094
:1000f8005a0300005a0300005a0300005a03000084
:100108005a0300005a0300005a0300005a03000073
:100118005a0300005a0300005a0300005a03000063
:100128005a0300005a0300005a0300005a03000053
:100138005a0300005a0300005a0300005a03000043
:100148005a0300005a0300005a0300005a03000033
:100158005a0300005a0300005a0300005a03000023
:100168005a0300005a0300005a0300005a03000013
:100178005a0300005a0300005a0300005a03000003
:100188005a0300005a0300005a0300005a030000f3
:100198005a0300005a0300005a0300005a030000e3
:1001a8005a0300005a0300005a0300005a030000d3
:1001b8005a0300005a0300005a0300005a030000c3
:1001c8005a0300005a0300005a0300005a030000b3
:1001d8005a0300005a0300005a0300005a030000a3
:1001e8005a0300005a0300005a0300005a03000093
:1001f8005a0300005a0300005a0300005a03000083
:100208005a0300005a0300005a0300005a03000072
:100218005a0300005a0300005a0300005a03000062
:100228005a0300005a0300005a0300005a03000052
:100238005a0300005a0300005a0300005a03000042
:100248005a0300005a0300005a0300005a03000032
:100258005a0300005a0300005a0300005a03000022
:020000040000fa
:100400000fdc21000ef727000e018800000000001d
:1004100000012000200288000c000700207a220042
:10042000010020000f000700000020000000e00095
:10043000020032000000020000000000cc41020077
:10044000000000000040da000000fe00a0112000c3
:100450000000e0000200320000202000900188002f
:1004600000000600a1028800800078000000eb0078
:100470001a003700e280400054a0b4009101ba0095
:10048000e280400054a0b4009102ba00e280400033
:1004900054a0b4000002eb00472bde00f507b200c9
:1004a000a6018800602ce10008003a000049eb003a
:1004b0000201e800020039003420ec0002f0a00044
:1004c0008301e900f9ff3e00040037006128e100e4
:1004d000010032000082eb00040007001101ba00a5
:1004e0000200e000e3ff3a000000060004d0a30091
:1004f000e20f49001c003900810278003549ba003a
:100500000201e800020039003420ec0002f0a000f3
:100510008301e9000f0032002549ba000201e8001a
:10052000020039003420ec0002f0a0008301e90051
:10053000080032000400e0000600320015c9ba00cd
:100540000201e800020039003420ec0002f0a000b3
:100550008301e9008180e80054a0b4000300e000ba
:10056000e2ff3a00000006009102ba000559780047
:100570008301e900f7ff3200c82ade000559780040
:100580008301e900f3ff32000400e000f1ff3200d4
:1005900011d9ba00eeff3700124404000000000039
:1005a0005a4a040000000000243804000000000043
:1005b0005a3b040000000000c638040000000000a0
:1005c000823b0400000000004e38040000000000e0
:1005d0006e330400000000005433040000000000eb
:1005e0008a330400000000008a09040000000000b3
:1005f0008c55040000000000ee55040000000000cf
:1006000036360400000000009a500400000000008c
:10061000ee3e040000000000f43e04000000000074
:10062000083f0400000000000e3f0400000000002e
:10063000c03b040000000000d23b040000000000aa
:10064000f655040000000000fc5504000000000006
:10065000c63b040000000000cc3b0400000000008a
:10066000b850040000000000d04e0400000000005c
:100670009c4c0400000000000000fa00c028a90003
:10068000ffff37000000fa00c068a900ffff370035
:100690000000fa00c048a900ffff37000000fa0080
:1006a000c088a900ffff37000000fa00c0a8a90019
:1006b000ffff37000040da000000fe0002000700e4
:1006c0000400be00000006006022b8000602200000
:1006d0000000d0008180d2000482d2008582d20046
:1006e0000000a0000202520083825a000300310081
:1006f0000202420083824a000000a1000603e900d2
:10070000f3ff3a00000006000400fa00000f780032
:100710000e027800012a78000d0037009e03780051
:10072000174078001e039000964278000201e9000d
:10073000854f5000040032000080fb008582fb00e2
:100740000500500005003700070fe800060ae80022
:10075000e00f5100f1ff3a00020078000080fa003b
:10076000000006000000fa000002780002003700d6
:10077000315a78000201e900e00f5100fcff3a0015
:080780000080fa0000000600f1
:020000040000fa
:100788000100000038100000010000000010000007
:100798004210000001000000011000007e1000005f
:1007a800010000001710000098100000050000006c
:1007b80018100000ca10000003000000001200001a
:1007c800f210000007000000001400003a110000b9
:1007d800070000000114000082110000070000005b
:1007e80002140000ca1100000700000003140000f2
:1007f8002412000009000000001600008e120000fc
:100808000900000001160000f812000009000000ad
:100818000216000062130000090000000316000021
:10082800c813000007000000001800001e14000094
:100838000700000001180000741400000700000001
:1008480002180000ca140000070000000318000086
:100858000815000002000000001a00003a15000008
:1008680009000000011a0000a4150000090000009a
:10087800021a00000e16000009000000031a00000a
:100888005616000001000000012000005e1600005e
:1008980001000000022000006616000001000000b0
:1008a800032000006e160000010000000420000074
:1008b8007616000001000000004000007e160000cf
:1008c80001000000646000008616000001000000be
:1008d8006c6000008e1600000100000078600000c7
:1008e80096160000010000007a6000009e160000c5
:1008f80001000000ff600000a816000006000000cc
:1009080010640000d8160000010000000265000015
:1009180004000000000000000500000009000000bd
:100928000d0000001100000004000000000000009d
:10093800080000000c000000100000001400000077
:10094800210000008001000000000000800200007b
:100958000000000080030000000000008004000088
:10096800000000000002000000000000000300007a
:100978000000000000040000000000000005000066
:10098800000000000000000000000000010000005e
:100998000100000000010000010100000101000049
:1009a800000000000001000001010000010000003b
:0409b800010000003a
:020000040000fa
:1009bc000400fa00800378000182fb0001407800fb
:1009cc0002c5b3000440bc008280430001109000bb
:1009dc0091109000e00f5000e08f580006003a0094
:1009ec00020378008682430025119000b511900017
:1009fc008212980093129800000520008020b80005
:100a0c00008243000411900094119000028fbe00ec
:100a1c0083022000808141008400780016c0b3005e
:100a2c00864278000e027800838143006159900061
:100a3c00e1089000070078002b2407000080fa00e2
:100a4c00000006000600fa00889fbe008a1f78008e
:100a5c00000478008e0278000602200007002000b7
:100a6c00869abe000140780002c5b3000440bc0069
:100a7c0083022000828141000205440017c0b300ac
:100a8c00074378000e027800830144006a599000f5
:100a9c00ea08900008007800ab230700e00f500034
:100aac00e08f580007003a000a0478001e02be00ce
:100abc0004149800151498004802b000000ceb00c8
:100acc00381478004f0578004f04be000080fa00ff
:100adc00000006000000fa00889fbe008a9fbe003e
:100aec00800278000203be008181fb000140780087
:100afc0002c5b3000440bc00828042002115900066
:100b0c00b11590000604450087844d0000c0eb0031
:100b1c0001022000810f5400e08f5c0026003e0093
:100b2c000200780001022000808040008180420099
:100b3c0000c0eb00b10f5400a18f5c001e003e0002
:100b4c00e00f5300e08f5b00120032006044b800ed
:100b5c000040eb00020520008219b8008080fb00e9
:100b6c00810042000804450089844d0008044100be
:100b7c0008844200086c9000884878000040e80027
:100b8c000084fb0009002000880f5300898f5b0054
:100b9c00f2ff3e0004052000841ab80004804200d5
:100bac004002b0004402b000848242003518430079
:100bbc0025904b000040eb004f05be004f04be00db
:100bcc000080fa00000006000000fa00889fbe00ba
:100bdc008a9fbe00800278000203be008181fb0068
:100bec000140780002c5b3000440bc008280420082
:100bfc0021159000b11590000604450087844d0026
:100c0c0000c0eb0001022000810f5400e08f5c005b
:100c1c001e003e00e00f5300e08f5b00120032001c
:100c2c006044b8000040eb00020520008219b800b7
:100c3c00028142000804450089844d0008044100eb
:100c4c008080fb008100420091407800016c98008c
:100c5c000040e8000084fb0009002000880f5300ce
:100c6c00898f5b00f3ff3e0004052000841ab80056
:100c7c00048042004002b0004402b0008482420072
:100c8c003518430025904b000040eb004f05be008b
:100c9c004f04be000080fa00000006000200fa00bb
:100cac00889fbe008a9fbe008c9fbe000005780006
:100cbc000144780082457800830678000446780069
:100ccc008544780009c2e900e34f52000f003e0052
:100cdc000881fb00030020006033b80004b1280039
:100cec0005192000a19820000a0078002c24070088
:100cfc00000278000840780002c5b3000440bc0034
:100d0c0002014500043198000a00370008407800c1
:100d1c0002c5b3000440bc00020f7800020245007b
:100d2c0004309000762407009e02780005024500ee
:100d3c00003298000884fb00050520008542b800ad
:100d4c00040245004b5298006d0a98006c5a9800aa
:100d5c0076034200094b78000040eb00705298007b
:100d6c0001022000848040006033b8008688be00f9
:100d7c0041022000848040008688be00810420004f
:100d8c00848040008048780010ca9800a10420009c
:100d9c008480400080487800c1042000848040009a
:100dac008688be000804e8008544b80008054500a4
:100dbc00004d7800104598002505200084824200e3
:100dcc00804a780046052000040343008002eb00b3
:100ddc00050b7800e605200004034300004b780067
:100dec002406b000050a78004f06be004f05be0071
:100dfc004f04be000080fa00000006000000fa005c
:100e0c00889fbe0080047800014478008042eb008b
:100e1c00054278008001eb0003417800884078009f
:100e2c00090078009dff07000882fb00084078004d
:100e3c0002c5b3000440bc0075022000828242004f
:100e4c008582440006022000070020000040eb00d1
:100e5c00806a780061035300e0835b00fcff3a007a
:100e6c00050520008522b800848444008042eb00f4
:100e7c00d5549800f8844400800ceb00b914780029
:100e8c004f04be000080fa00000006000000fa00cb
:100e9c00889fbe00800478000044eb0088407800f6
:100eac0009007800d5ff07000844e800e44f54001f
:100ebc00faff3a004f04be000080fa000000060062
:100ecc000000fa0060529000e04f52001300320014
:100edc0060e29000e04f52000a0032006072910014
:100eec00e04f52000a003200e042920000c2eb00d8
:100efc00e0cf520011003a0035c0b300340020009e
:100f0c000800370015c0b30014002000050037009e
:100f1c0025c0b30024002000020037000002eb00c3
:100f2c008442780005497800050520008522b80028
:100f3c0004004000515098000042eb00044078003f
:100f4c000080fa00000006000000fa007400400067
:100f5c000042eb0057c8b300a0429000e0cf520013
:100f6c000c00320087cf52000a00320090cf1000e4
:100f7c0008003a009042900082cf520005003a00df
:100f8c000040eb00e08f51000700320084497800ec
:100f9c00050037000442e8000005b000e44f5200a1
:100fac00edff3a0000c0eb000080fa0000000600e4
:100fbc000000fa00740040000042eb00a0429000d8
:100fcc00e0cf52000a00320090cf100008003a0027
:100fdc009042900082cf520005003a000040eb0096
:100fec00e08f51000700320084497800050037007b
:100ffc000442e8000005b000e44f5200efff3a0055
:10100c0000c0eb000080fa00000006000000fa00af
:10101c0000027800820278000183fb000140780016
:10102c0002c5b3000440bc008200420001109000d5
:10103c0091109000e00f5000e08f580003003a0030
:10104c00800aeb00b5127800060037000705200077
:10105c008733b8004602b00006024200b41a5000b2
:10106c00a49258000040eb000080fa00000006003b
:10107c000000fa00000278000203be0000c0eb0082
:10108c0005022000850f5100e08f590007003e003b
:10109c000140780002c5b3000440bc0002024200cb
:1010ac0006129800171298000040eb000080fa001e
:1010bc00000006000c00fa00202a9100e50f5200f7
:1010cc000400320080c2eb00f6072000860f5200ad
:1010dc0032003a00e1cf500011003a00500290006b
:1010ec001402780080c2eb00e00f52002b0032009b
:1010fc000281fb000402410060039000960f520035
:10110c0026003e0090029000e622b80004824200c5
:10111c0014027800340a9000140f78001200370083
:10112c00500290001402900080c2eb00e00f5200bd
:10113c001a0032000281fb0004024100e002900020
:10114c001503900080c2eb00860f520013003e0086
:10115c0090029000e622b80004824200140278004b
:10116c0074029000140f78000042eb0024479800a2
:10117c0084c0b3003447980063024700eb02470079
:10118c00336a7800850f5200fdff3a000008930087
:10119c008e007800472507008042780005407800d3
:1011ac000080fa00000006000800fa0005c8b30031
:1011bc00054f780013479800c819de0023479800a4
:1011cc003447980046479800c839dd004832de00a5
:1011dc0004827100c83ade0054479800403ade00a1
:1011ec000500200064479800483bde0076479800d5
:1011fc008e017800afff07000080fa0000000600a7
:10120c000600fa00889fbe008a9fbe008c9fbe001d
:10121c0000057800814478000244780003067800c9
:10122c008445780016079800270798008e017800ef
:10123c0008417800894078000a00780042ff0700d6
:10124c00e04f50001b003a00e14f54002b003a00d5
:10125c009e4078000a007800e8fe07001500370071
:10126c009e4278008586fb0006052000866bb80040
:10127c00860678000d0245000430900020230700fc
:10128c008d064500803698009e4378000782fb004f
:10129c00050520008522b8000402450055c8b3009e
:1012ac00655298001e039000ae039000460a980009
:1012bc00570a98001e039000ae0390000b42780072
:1012cc008c01780009417800884078000a00780089
:1012dc00b5ff0700004278000040eb00804f520041
:1012ec000100320000c0eb004f06be004f05be00ef
:1012fc004f04be000080fa0000000600e24f5400cc
:10130c00ecff3a00d6ff37000200fa00889fbe00bf
:10131c008a9fbe008c9fbe00000678000204be00af
:10132c005c02900014029000e00f52003c0032006e
:10133c00060520008613b800f4024300850246001f
:10134c00954278008582fb0004824200ec029000fa
:10135c0095029000850f520031003e009c029000d7
:10136c00e622b8000482420014027800740a90004d
:10137c001405be0006024600040f78000082eb0044
:10138c009e0278008432980054c8b300e45298004e
:10139c00860678000502780004007800f482460086
:1013ac008502460095409000060020004750200022
:1013bc00645a9000e0099000154178000c00780008
:1013cc0079ff070004002000455020001e03780020
:1013dc00440b9800550b98008d0646001d3290006a
:1013ec00e00f52000b0032008a4078000c007800ad
:1013fc00040001000d027800440b9000d40b900007
:10140c000400200045502000840f5300858f5b00a2
:10141c0003003a00884078000c00780077fe070043
:10142c004f06be004f05be004f04be000080fa0000
:10143c00000006001200fa00889fbe008a9fbe00c2
:10144c008c9fbe0000057800810478005a0490003f
:10145c0098007800ea01900013017800e08f5000aa
:10146c0023003200828f500021003e001a039000ae
:10147c00e60ab80004024300a442900000c0eb004e
:10148c00e1cf5200c30b3600190678000d00200086
:10149c001402780074029000b40f1600a48f1e0082
:1014ac00c10b32000102e800e622b80084024300be
:1014bc00010278000b00370085037800254390006b
:1014cc00e14f5300b00b360001435200e68242005c
:1014dc0097037800f7039000b70f1600a78f1e0034
:1014ec00b30b32000402e800840f5100f2ff31000c
:1014fc00180390009303900000c0eb00e00f530022
:10150c00a40b3200870f5300a20b3e001a0290006e
:10151c00e630b80080024200a540900000c0eb000d
:10152c00e3cf50009b0b36001500780019017800b2
:10153c0003002000b00a9000b50f1100a58f190010
:10154c0011003a000b00370025409000e34f50008b
:10155c008f0b36000646520015007800e6824200da
:10156c00b0089000b10f1100a18f19000a003a00c9
:10157c00010037000046eb00700a9000944678009a
:10158c002bc0b300090037000600e800e600b800e5
:10159c0080024200060278000402e800848f5300a7
:1015ac00e9ff310000c0eb007a0b370039429000a4
:1015bc00e84f52000a00320006002000078020008d
:1015cc000042eb008001eb000b4178008c4078006e
:1015dc000a0078000aff070000c0eb006d0b370013
:1015ec008e0178000b4178008c4078000a0078005e
:1015fc0055fe070000427800e04f52001c003a00f4
:10160c00e1cf550009003a001e4078000083fb0032
:10161c00050520008533b80086024500e552900090
:10162c00e4cf520012003a000a003700e2cf550016
:10163c000f003a001e4178000283fb0005052000d4
:10164c008533b80086024500e5529000e5cf520084
:10165c0007003a00c943900046c0b30005c8b30068
:10166c0085cf53000500320066c0b300030037007d
:10167c00494390000683fb004533de000683fb00e4
:10168c000700200000c0eb00e60f5300e08f5b006a
:10169c00400b3e0006060100060037003201370001
:1016ac0092023700c503370021053700610537006a
:1016bc0019083700e1cf550093003a00e04f520073
:1016cc0008003a001e4278000484fb000405200048
:1016dc008442b8000402450064529000e24f52006c
:1016ec000a00320016022000078020000042eb00a6
:1016fc008001eb000b4178008c4078000a007800e8
:10170c00bffe070000c0eb00220b370004052000d1
:10171c008442b8000402450004309000e10f400000
:10172c0012003200f62107000b0520008b42b80096
:10173c0004024500003298001e4478000881fb002a
:10174c00030020006033b80004b128000519200004
:10175c00a19820000a007800912107000882fb0064
:10176c008b22b80004024500003298009e4078009d
:10177c000140780002c5b3000440bc0002027800ae
:10178c0084024500e50d9000655c90004941900095
:10179c0005027800f45290008582fb004412de00b2
:1017ac0061026200848f52000a00320006002000a1
:1017bc0037502000084278008b01780012c0b3002b
:1017cc008c4078000a0078008dfe070000c0eb000a
:1017dc00f00a37000281fb000201d1000281ea000d
:1017ec00670161000300200012079800230798008e
:1017fc00658244000a007800f3fc0700e04f5000bb
:10180c000a00320006002000078020000842780001
:10181c008b01780012c0b3008c4078000a0078006d
:10182c0077fe070000c0eb00da0a37009e42780012
:10183c000582fb000d0520008d22b8000402450036
:10184c00745290000482fb004422dd000454a0007a
:10185c00644798000042eb0074479800044f9800ce
:10186c00144f9800244f9800344f9800444f980020
:10187c00544f9800e60147000c41780011c0b300aa
:10188c000a0078000bfe07009e4078000182fb00e6
:10189c008d22b80084024500755290000482fb0032
:1018ac000402e9004f22de00f452980049429000f5
:1018bc00610262000040eb00b60a32000a007800b8
:1018cc003bfc0700e00f5000e08f5800090032008d
:1018dc000003be00084278008b01780012c0b300f0
:1018ec008c4078000a00780045fe070000c0eb0031
:1018fc00a80a37009e4078000a0078003ffd0700d8
:10190c000040eb00a30a3700e04f520008003a00f9
:10191c001e4378000684fb00040520008442b800b6
:10192c000402450064529000e34f52000a0032005a
:10193c0016022000078020000042eb008001eb0023
:10194c000b4178008c4078000a0078002cfe0700d0
:10195c0000c0eb008f0a3700040520008442b80059
:10196c000402450004309000e10f400013003200e7
:10197c0063210700070520008742b80004024500d8
:10198c00003298001e4478000881fb000300200000
:10199c006033b80004b1280005192000a19820007c
:1019ac000a007800fe2007000882fb0002052000d8
:1019bc008222b80004024500003298009e40780054
:1019cc000140780002c5b3000440bc00020278005c
:1019dc0084024500e50a9000050f9800840245003a
:1019ec00655c90004941900005027800f45290002b
:1019fc008582fb004412de0061026200848f52007b
:101a0c000a003200060020003750200008427800ff
:101a1c008e0990000b4178008c4078000a00780009
:101a2c00f7fd070000c0eb005a0a37000281fb00eb
:101a3c000201d1000281ea0067016100030020006d
:101a4c001207980023079800658244000a0078006a
:101a5c005dfc0700e04f50000a0032000600200039
:101a6c0007802000084278008e0990000b41780016
:101a7c008c4078000a007800e1fd070000c0eb0004
:101a8c00440a37001e4278000484fb00060520003f
:101a9c008643b80006024500745290000482fb0095
:101aac000402e9004f22de00844278000603450060
:101abc007453980049429000610262001700320092
:101acc00090520008944b800060278000430900013
:101adc000b21070008044500003498009e42780052
:101aec000582fb008922b8008402450016c0b300b1
:101afc00e652980005027800143290000040eb008a
:101b0c00e00f5200230a32008d4078000a00780062
:101b1c00040001000040eb001e0a37000582fb00a8
:101b2c004422dd000446b300644798000044eb00f7
:101b3c0078479800084f9800184f9800284f980045
:101b4c00384f9800484f9800584f9800e6014700ce
:101b5c000c4178008b4078000a00780055fd070096
:101b6c00084078000b0a3700e1cf550099003a0085
:101b7c00e9459000c85ddd00d94290008582fb00ec
:101b8c008585750079449000e04f52000a003a00b8
:101b9c001602200007802000084278008b01780094
:101bac0012c0b3008c4078000a00780094fd070046
:101bbc0000c0eb00f70937000e01780011c0b3002c
:101bcc000a007800befc0700e04f50000a0032000b
:101bdc001602200007802000084278008b01780054
:101bec0012c0b3008c4078000a00780084fd070016
:101bfc0000c0eb00e709370025c0b30008427800ad
:101c0c008b0178000c4178009e4078000a00780027
:101c1c0022fc0700494290008402d100e18262005c
:101c2c00310032004223de006303630064031300bf
:101c3c00cfb3de0016079800270798009e40780067
:101c4c000140780002c5b3000440bc0002027800d9
:101c5c00040245000612980017129800688244008e
:101c6c000601be000a007800d7fb0700e04f5000c9
:101c7c000a0032000600200007802000084278008d
:101c8c008b01780012c0b3008c4078000a007800f9
:101c9c005bfd070000c0eb00be0937009e407800da
:101cac000a00780042fb0700e00f5000e08f58005c
:101cbc00090032000003be00084278008b01780056
:101ccc0012c0b3008c4078000a0078004cfd07006d
:101cdc0000c0eb00af0937009e4078000a00780086
:101cec0046fc070029003700610262002700320021
:101cfc00194a90000482fb0005002000482bdd00ef
:101d0c00c823de00870373004823dd0029499000b7
:101d1c008281fb00020020000601410087814900fe
:101d2c00094a90000482fb000500200002014200d9
:101d3c0083814a00394a9000c822dd00040020004b
:101d4c000201420083814a00120798002307980081
:101d5c009e4078000a007800c5fc0700e04f500058
:101d6c000a0032000600200007802000084278009c
:101d7c008b01780012c0b3008c4078000a00780008
:101d8c001ffd070000c0eb008209370004c6b3003a
:101d9c00644798007b479800c85dde000b4f9800a5
:101dac00184f98000044eb00284f9800384f9800cb
:101dbc00484f9800584f9800e60147000c417800b6
:101dcc0011c0b3000a007800bafc07000840780084
:101ddc0070093700e04f520008003a001e427800ac
:101dec000484fb00040520008442b8000402450072
:101dfc0064529000e24f52000a003200160220009a
:101e0c00078020000042eb008001eb000b417800c2
:101e1c008c4078000a007800f9fc070000c0eb0049
:101e2c005c093700040520008442b8000402450018
:101e3c0004309000e10f4000130032003020070006
:101e4c00050520008542b8000402450000329800c8
:101e5c001e4478000881fb00030020006033b800aa
:101e6c0004b1280005192000a19820000a00780070
:101e7c00cb1f07000882fb00060520008622b80055
:101e8c0004024500003298009e4078000140780022
:101e9c0002c5b3000440bc0002024500640a900075
:101eac00040f980002024500645c90000401780065
:101ebc00f25290008582fb00494290004422de00e1
:101ecc0061026200848f52000a003200060020007a
:101edc0037502000084278008e0990000b417800a2
:101eec008c4078000a007800c5fc070000c0eb00ad
:101efc00280937000e81e8000a00780043fc07002f
:101f0c001e039000ae039000e00f5300e08f5b00c7
:101f1c0019003a001e4178000284fb0009052000dc
:101f2c008944b8000802450004309000f41f0700f3
:101f3c0008044500003498009e4278000582fb009e
:101f4c008922b8008402450016c0b300e6529800fe
:101f5c0005027800143290000040eb00e00f5200b4
:101f6c000c0932008d4078000a0078000400010052
:101f7c000040eb0007093700e70f5300e08f5b00d0
:101f8c001f0036009e4078000140780002c5b30067
:101f9c000440bc0002024500745290000482fb0015
:101fac000402e9004f22de00020145007451980042
:101fbc00450020000522dd006447980067024700b9
:101fcc0072002000030020000a007800c1fa07000c
:101fdc00e04f50003e003200060020000780200039
:101fec00084278008e0990000b4178008c407800f4
:101ffc000a00780082fc070000c0eb00e5083700ff
:10200c009e4078000140780002c5b3000440bc003b
:10201c0002024500745290000482fb000402e900a5
:10202c004f22de000201450074519800450020004b
:10203c000522dd00844278000504a00074c0b300c2
:10204c00064252000442420004c2720064479800e7
:10205c00670247000601be000a0078009dfa0700df
:10206c00e04f50000a0032000600200007802000dc
:10207c00084278008e0990000b4178008c40780063
:10208c000a0078005efc070000c0eb00c1083700b6
:10209c001e029000ae02900061024200e0824a00f3
:1020ac0070002000010020000043eb000500370009
:1020bc006601470084034100864b780061024200b0
:1020cc00e0824a00800f5200818f5a00f8ff3600e0
:1020dc00e60147000c4178008b4078000a0078003c
:1020ec00f4fb07000040eb00aa083700e1cf5500d5
:1020fc008d003a00e9459000c85ddd00d9429000a2
:10210c008582fb008585750079449000e04f520074
:10211c000a003a00160220000780200008427800ce
:10212c008b01780012c0b3008c4078000a00780054
:10213c0033fc070000c0eb00960837000e01780056
:10214c0011c0b3000a0078005dfb0700e04f50009f
:10215c000a00320016022000078020000842780096
:10216c008b01780012c0b3008c4078000a00780014
:10217c0023fc070000c0eb008608370035c0b30015
:10218c00084278008b0178000c4178009e40780062
:10219c000a007800c1fa07009e4078000a00780017
:1021ac0028fa0700e00f5000e08f580009003200b9
:1021bc000003be00084278008b01780012c0b30007
:1021cc008c4078000a0078000dfc070000c0eb0082
:1021dc00700837000e81e8009e4078000a007800f5
:1021ec008afb07001e019000ae019000e40f510025
:1021fc00e08f59001800360014c4b30064479800ef
:10220c007b479800c85dde000b4f9800184f980074
:10221c00224f9800c81ade00481bdd004812de0071
:10222c0004027300344f9800401ade0005002000b1
:10223c00444f98004819de00524f9800e6014700c1
:10224c000c41780011c0b3000a00780099fb07001c
:10225c000040eb004f08370045c0b30082c252006b
:10226c0024002000042add003444b30064479800a5
:10227c007b479800485ade00044f9800184f98008e
:10228c006a0247009e4078000a00780011fa0700a5
:10229c00e04f50000a0032000600200007802000aa
:1022ac00084278008b01780012c0b3008c40780093
:1022bc000a007800d2fb070000c0eb00350837009d
:1022cc001e029000ae02900064024200e0824a00be
:1022dc0070002000010020000043eb0005003700d7
:1022ec006601470084034100864b7800610242007e
:1022fc00e0824a00800f5200818f5a00f8ff3600ae
:10230c00e60147000c41780011c0b3000a007800c8
:10231c0068fb07009e4078000a007800b7fa0700b7
:10232c000040eb001b083700e04f520008003a0059
:10233c001e4278000484fb00040520008442b8008f
:10234c000402450064529000e34f52000a00320030
:10235c0016022000078020000042eb008001eb00f9
:10236c000b4178008c4078000a007800a4fb070031
:10237c0000c0eb0007083700040520008442b800b9
:10238c000402450004309000e10f400013003200bd
:10239c00db1e0700050520008542b800040245003d
:1023ac00003298001e4478000881fb0003002000d6
:1023bc006033b80004b1280005192000a198200052
:1023cc000a007800761e07000882fb000605200034
:1023dc008622b80004024500003298009e40780026
:1023ec000140780002c5b3000440bc000202450065
:1023fc00640a9000040f980002014500625c900092
:10240c00494190000202d1006102620032003200a8
:10241c004211de006301610064011100cf91de0006
:10242c001207980023079800688244000a0078007d
:10243c00e5f90700e04f50000a00320006002000ca
:10244c0007802000084278008e0990000b4178002c
:10245c008c4078000a00780069fb070000c0eb0094
:10246c00cc0737001e4178000284fb0009052000d0
:10247c008944b8000802450004309000a01e0700f3
:10248c0008044500003498009e4278000582fb0049
:10249c008922b800840245001e039000ae03900010
:1024ac00861298009712980016c0b300e652980056
:1024bc0005027800143290000040eb00e00f52004f
:1024cc00b40732008d4078000a0078000400010047
:1024dc000040eb00af0737006101610026003200bd
:1024ec00194a90000482fb0005002000482bdd00f7
:1024fc00c823de00870373004823dd0029499000c0
:10250c008281fb0002002000060141008781490006
:10251c00094a90000482fb000500200002014200e1
:10252c0083814a00394a9000c822dd000400200053
:10253c000201420083814a00120798002307980089
:10254c000a007800cafa0700e04f50000a00320077
:10255c000600200007802000084278008e099000b9
:10256c000b4178008c4078000a00780024fb0700af
:10257c0000c0eb008707370004c6b300644798001f
:10258c000044eb0078479800084f9800184f9800cb
:10259c00284f9800384f9800484f9800584f980093
:1025ac00e60147000c4178008b4078000a00780067
:1025bc00c0fa07000840780076073700e1cf5500d5
:1025cc00b2003a00e04f520008003a009e437800f7
:1025dc000784fb00040520008442b8000402450077
:1025ec0064529000e34f52000a00320016022000a1
:1025fc00078020000042eb008001eb000b417800cb
:10260c008c4078000a007800fdfa070000c0eb004f
:10261c0060073700040520008442b800040245001e
:10262c0004309000e10f400012003200341e07000d
:10263c000b0520008b42b8000402450000329800c4
:10264c001e4478000881fb00030020006033b800b2
:10265c0004b1280005192000a19820000a00780078
:10266c00cf1d07000882fb008b22b8000402450036
:10267c00003298009e4078000140780002c5b300fb
:10268c000440bc0002024500e40d9000645c900024
:10269c0004017800f25290008582fb0049429000c0
:1026ac004422de0061026200848f52000a00320074
:1026bc000600200037502000084278008b0178007b
:1026cc0012c0b3008c4078000a007800ccfa0700e6
:1026dc0000c0eb002f0737000e81e8000a007800dd
:1026ec004afa07001e039000ae039000e70f530058
:1026fc00e08f5b002c0036009e4078000140780093
:10270c0002c5b3000440bc0002027800040245007c
:10271c00f452900044002000042add006447980025
:10272c006702470072002000030020000a007800b6
:10273c00e8f80700e04f50000a00320006002000c5
:10274c0007802000084278008b01780012c0b3008b
:10275c008c4078000a007800a9fa070000c0eb0052
:10276c000c0737001e4278008482fb000405200011
:10277c00842ab80084024500755290000482fb0044
:10278c000402e9004f22de00f4529800e6014700f3
:10279c000c41780011c0b3000a00780045fa07001c
:1027ac000040eb00fb0637009e40780001407800ab
:1027bc0002c5b3000440bc000202780004024500cc
:1027cc00f452900044002000842add000504a0008f
:1027dc0074c0b300064252000442420004c27200ac
:1027ec0064479800670247000601be000a007800a3
:1027fc00b8f80700e04f50000a0032000600200035
:10280c0007802000084278008b01780012c0b300ca
:10281c008c4078000a00780079fa070000c0eb00c1
:10282c00dc0637001e029000ae02900061024200ee
:10283c00e0824a0070002000010020000043eb0001
:10284c00050037006601470084034100864b780081
:10285c0061024200e0824a00800f5200818f5a00d0
:10286c00f8ff3600e60147000c41780011c0b300b8
:10287c000a0078000ffa07009e4078000a007800e2
:10288c005ef907000040eb00c2063700e04f520033
:10289c0008003a001e4278000484fb000405200066
:1028ac008442b8000402450064529000e24f52008a
:1028bc000a00320016022000078020000042eb00c4
:1028cc008001eb000b4178008c4078000a00780006
:1028dc004bfa070000c0eb00ae06370004052000e1
:1028ec008442b8000402450004309000e10f40001f
:1028fc0012003200821d0700090520008942b80031
:10290c0004024500003298001e4478000881fb0048
:10291c00030020006033b80004b128000519200022
:10292c00a19820000a0078001d1d07000882fb00fa
:10293c008922b80004024500003298009e407800bd
:10294c000140780002c5b3000440bc0002024500ff
:10295c00e40c900004017800625c90000e81e800a9
:10296c000a007800a9f907001e039000ae0390003e
:10297c00e00f5300e08f5b0019003a001e41780015
:10298c000284fb00090520008944b80008024500b8
:10299c00043090005a1d07000804450000349800cc
:1029ac009e4278000582fb008922b8008402450013
:1029bc0016c0b300e652980005027800143290005d
:1029cc000040eb00e00f5200720632008d407800a0
:1029dc000a007800040001000040eb006d0637008f
:1029ec00e70f5300e08f5b001b0036009e40780021
:1029fc000140780002c5b3000440bc00020278001c
:102a0c0004024500f452900044002000042add002a
:102a1c006447980067024700720020000300200002
:102a2c000a0078002bf80700e04f50003900320004
:102a3c0006002000078020000842780089017800f9
:102a4c000b4178008c4078000a007800ecf9070004
:102a5c0000c0eb004f0637009e4078000140780024
:102a6c0002c5b3000440bc00020278000402450019
:102a7c00f452900044002000842add000504a000dc
:102a8c0074c0b300064252000442420004c27200f9
:102a9c0064479800670247000601be000a007800f0
:102aac000cf80700e04f50000a003200060020002e
:102abc000780200008427800890178000b417800db
:102acc008c4078000a007800cdf9070000c0eb00bc
:102adc00300637001e009000ae00900061034000ed
:102aec00e0834800e70f5300e08f5b0009003e00d5
:102afc00e6024700068242006d01470006034100d2
:102b0c00000353008042eb00055a7800860f5200f8
:102b1c00fdff3a00e60147000c4178008b4078003d
:102b2c000a00780063f907000040eb001906370033
:102b3c00894a900005579800194e9000294c900036
:102b4c00b94c9000e1cf550008003a000040eb0072
:102b5c00804f52000f063a009e4078000a00780021
:102b6c00a6f807000040eb000a0637000040eb0017
:102b7c00804f520007063a001e4378008685fb0002
:102b8c00000520008058b800800578000b02450035
:102b9c0004309000da1c07008b0545008035980046
:102bac001e4178000282fb00050520008522b8003a
:102bbc008402450006c8b300e6529800f882420031
:102bcc000c83fb00070020004839dd00c831de0013
:102bdc00830171004831dd008880fb00000020007b
:102bec0000007100818071000e5190000283fb0087
:102bfc00070020000600700087807000c84bdd00c5
:102c0c0006002000861a70008792700004024500ae
:102c1c00143290000040eb00e00f5200dd05320052
:102c2c008d4078000a007800040001000040eb00a1
:102c3c00d80537004944900063446400e1cf550047
:102c4c0082013a00e04f540069003a00e9459000d7
:102c5c00c85ddd00d94290008582fb00858575003a
:102c6c0079449000e04f52000a003a00160220000e
:102c7c0007802000084278008b01780012c0b30056
:102c8c008c4078000a0078005df9070000c0eb006a
:102c9c00c00537000e01780011c0b3000a0078009f
:102cac0087f80700e04f50000a003200160220009f
:102cbc0007802000084278008b01780012c0b30016
:102ccc008c4078000a0078004df9070000c0eb003a
:102cdc00b005370055c0b300084278008b0178006e
:102cec000c4178009e4078000a007800ebf7070052
:102cfc009e4078000140780002c5b3000440bc003f
:102d0c0002027800040245008404b000c94290001d
:102d1c008582fb00c22ade0061ca6200894c9000e9
:102d2c00194298000a00780046f70700e00f50009f
:102d3c00e08f5800090032000003be000842780002
:102d4c008b01780012c0b3008c4078000a00780028
:102d5c002bf9070000c0eb008e0537000e81e80050
:102d6c009e4078000a007800a8f807001e02900028
:102d7c00ae0290001e4378008683fb0006052000ff
:102d8c00863bb80006034500642398007523980021
:102d9c0026ccb300664798007b479800c85dde00e0
:102dac000b4f9800184f9800244f9800c82bde004a
:102dbc004828dd004823de0006037000364f9800db
:102dcc00402bde0007002000464f9800482ade000a
:102ddc00544f9800e60147000c41780011c0b30035
:102dec000a007800b3f807000040eb0069053700d3
:102dfc00e14f540019003a00e04f520009003a002c
:102e0c009e4078000140780002c5b3000440bc002d
:102e1c00020278000402450064529000e54f520013
:102e2c000a00320016022000078020000042eb004e
:102e3c008001eb0012c0b3008c4078000a007800cf
:102e4c00eff8070000c0eb00520537000a007800cd
:102e5c00eaf707000040eb004e05370088c2e90096
:102e6c000040eb00e1cf52004a053e00804f52007b
:102e7c0008003a001e4278008486fb0004052000fe
:102e8c00846ab8000402450064529000e54f520079
:102e9c000a00320016022000078020000042eb00de
:102eac008001eb000b4178008c4078000a00780020
:102ebc00d3f8070000c0eb003605370004052000ee
:102ecc00846ab8000402450004309000e10f400011
:102edc00130032000a1c070005052000856ab800a3
:102eec0004024500003298009e4578000b81fb00df
:102efc00030020006033b80004b12800051920003d
:102f0c00a19820000a007800a51b07000b82fb008b
:102f1c00060520008622b800040245000032980005
:102f2c009e4078000140780002c5b3000440bc000c
:102f3c0082024500e50a9000050f98000201450049
:102f4c00e25e9000e24f54004f003a00020278001b
:102f5c006941900012ca9800594490000874a1006d
:102f6c000e81e8000a00780028f807001e02900085
:102f7c00ae029000e00f5200e08f5a0023003a009e
:102f8c009e4278000582fb000403e8000505200042
:102f9c008533b80086027800850245009542900082
:102fac0088cf520019003a00050520008522b80090
:102fbc002405b00004024500144278008482fb0012
:102fcc00c22add0014ccb30004c27200644798001e
:102fdc000044eb0078479800084f9800184f980071
:102fec00284f9800384f9800484f9800584f980039
:102ffc00e60147000c41780011c0b3000a007800cc
:10300c002cf8070008407800e20437001e437800d3
:10301c008683fb000880fb00e700b8000702e8008d
:10302c00060520008622b8000402450014427800f0
:10303c000482fb0004024000cfa2de00863bb800f5
:10304c0086034500a4139800b51398000602b0003f
:10305c0006034500b60f5200a68f5a000a00360030
:10306c0016022000078020000042eb008001eb00dc
:10307c0012c0b3008c4078000a00780060f807009a
:10308c0000c0eb00c30437009e4378008782fb002e
:10309c000503e800040520008433b800060345004e
:1030ac00842ab8000402450044629000044b780066
:1030bc001bc0b30078002000090020005800370026
:1030cc000402e800000520008022b800040245003c
:1030dc001b4298000e81e8000a007800cbf707002d
:1030ec001e019000ae019000880f5100898f59008d
:1030fc00190036006b479800670247000801be00b4
:10310c009e4078000a00780072f60700e04f5000ed
:10311c000a00320006002000078020000d427800d3
:10312c008e09900012c0b3008c4078000a00780021
:10313c0033f8070000c0eb0096043700e6014700a7
:10314c000c41780011c0b3000a007800d9f70700d1
:10315c008b45e800320037000b74a0006b479800d9
:10316c00670247009e4078000a00780059f6070075
:10317c00e04f50000a0032000600200007802000bb
:10318c000d4278008e09900012c0b3008c4078007c
:10319c000a0078001af8070000c0eb007d04370025
:1031ac001e029000ae02900061024200e0824a00d2
:1031bc0070002000010020000043eb0005003700e8
:1031cc006601470084034100864b7800610242008f
:1031dc00e0824a00800f5200818f5a00f8ff3600bf
:1031ec00e60147000c41780011c0b3000a007800da
:1031fc00b0f707001e4278008482fb000405200013
:10320c00842ab800040245002405b000ae429000a8
:10321c0076c0b300054a53000040eb005d04370054
:10322c009e4078000182fb00060520008623b80032
:10323c00860278008502450095ca900085cf55001e
:10324c009fff36000040eb0052043700e04f540063
:10325c0002003200e24f54000a013a00e04f5200e3
:10326c0008003a009e4378008786fb000405200086
:10327c00846ab8000402450064529000e44f520086
:10328c000a00320016022000078020000042eb00ea
:10329c008001eb000b4178008c4078000a0078002c
:1032ac00d7f7070000c0eb003a04370004052000f4
:1032bc00846ab8000402450004309000e10f40001d
:1032cc00130032000e1b070002052000826ab800b2
:1032dc0004024500003298009e4678000d81fb00e8
:1032ec00030020006033b80004b128000519200049
:1032fc00a19820000a007800a91a07000d82fb0093
:10330c00050520008522b800040245000032980013
:10331c00e04f540013003a001e4378008682fb00f5
:10332c0004052000842ab80084024500e50a9000b8
:10333c00050f980084024500e55a9000654f9800ef
:10334c00040245008404b000c94290008582fb0051
:10335c00c22ade0061ca6200894c900019429800b2
:10336c00540037009e4078000140780002c5b3003d
:10337c000440bc000202780004024500e9429000bf
:10338c0015ca9800594490000874a1000e81e800f9
:10339c000a0078001df707001e029000ae02900094
:1033ac00e00f5200e08f5a0023003a001e437800d1
:1033bc000682fb000403e800050520008533b800f5
:1033cc0086027800850245009542900088cf520015
:1033dc0019003a00050520008522b8002405b0002c
:1033ec0004024500144278008482fb00c22add00ee
:1033fc0014ccb30004c27200644798000044eb0084
:10340c0078479800084f9800184f9800284f98005c
:10341c00384f9800484f9800584f9800e6014700e5
:10342c000c4178008b4078000a00780021f70700e7
:10343c0008407800d70337001e4078008083fb00db
:10344c000880fb00e700b8000702e8000605200032
:10345c008622b80004024500144278000482fb0066
:10346c0004024000cfa2de00863bb8008603450074
:10347c00a4139800b51398000602b000060345008b
:10348c00b60f5200a68f5a000a0036001602200012
:10349c00078020000042eb008001eb000b4178001c
:1034ac008c4078000a00780055f7070000c0eb004c
:1034bc00b80337009e4078000182fb008402e800cc
:1034cc00060520008629b800820278008502450096
:1034dc008623b80086034500c7639000874a7800ae
:1034ec000603450096ca90000040eb0080cf5200c6
:1034fc00a80332001dc0b300780020000900200092
:10350c000402e800050520008522b80004024500ed
:10351c001d4298000e81e8000a007800bbf60700f7
:10352c001e019000ae019000880f5100898f590048
:10353c00220036006d479800670247000801be0064
:10354c009e4078000a00780062f50700e04f5000ba
:10355c000a00320006002000078020006e4a90000e
:10356c008e0990000b4178008c4078000a0078009e
:10357c0023f7070000c0eb0086033700e601470085
:10358c000c4178008b4078000a007800c9f60700df
:10359c008d46e8009e4078000182fb000705200064
:1035ac008723b8008602450095ca90008dcf520043
:1035bc00d3ff31000040eb00760337000d74a00000
:1035cc006d479800670247009e4078000a0078001b
:1035dc0040f50700e04f50000a00320006002000c2
:1035ec00078020006e4a90008e0990000b417800f5
:1035fc008c4078000a00780001f7070000c0eb004f
:10360c00640337001e009000ae0090006102400081
:10361c00e0824800e70f5200e08f5a0009003e009c
:10362c006601470004034100ed034700008053008e
:10363c00040040008042eb00055b7800800f5300d3
:10364c00fdff3a00e60147000c4178008b40780002
:10365c000a00780097f607001e4278008482fb006f
:10366c0004052000842ab800040245002405b0009b
:10367c00ae42900076c0b300054a53000040eb0008
:10368c0044033700e14f540019003a009e42780081
:10369c000584fb00090520008944b8000802450098
:1036ac0004309000161a07000804450000349800f6
:1036bc001e4378000682fb008922b8008402450074
:1036cc0016c0b300e6529800050278001432900040
:1036dc000040eb00e00f52002e0332008d407800ca
:1036ec000a007800040001000040eb0029033700b9
:1036fc0016022000078020000042eb008001eb0046
:10370c000b4178008c4078000a007800bcf607006a
:10371c0000c0eb001f033700e1cf5500ad013a00ac
:10372c00e04f52006d00320049429000614262004d
:10373c000a00320016022000078020000042eb0035
:10374c008001eb0012c0b3008c4078000a007800b6
:10375c00abf6070000c0eb000e033700e945900004
:10376c00c85ddd00594290000482fb008485750021
:10377c00794490000e01780011c0b3000a00780063
:10378c00cff50700e04f50000a003200160220006f
:10379c0007802000084278008b01780012c0b3002b
:1037ac008c4078000a00780095f6070000c0eb000a
:1037bc00f802370045c0b300084278008b0178004e
:1037cc000c4178009e4078000a00780033f5070021
:1037dc009e4378000782fb00050520008520b80079
:1037ec008002450016002000a62a98008504b0002f
:1037fc00494390000683fb004233de00e14a63003c
:10380c00c9429000e282620021003200000278007e
:10381c0004004500c004b000394a90000482fb004b
:10382c0005002000482bdd00c823de008703730051
:10383c004823dd00294a90000482fb00050020008b
:10384c000603420087834a004839dd00c831de0098
:10385c00830171004831dd00194a90000482fb009d
:10386c00050020000202420083824a00482bdd0042
:10387c00c823de00870373004823dd00094a90004b
:10388c000482fb00050020000418430005904b0047
:10389c0004cab300644798007b479800c85dde00fb
:1038ac000b4f9800184f980004c1b300244f980098
:1038bc000044eb00584f9800484f9800384f980040
:1038cc00e60147000c41780011c0b3000a007800f3
:1038dc00f8f5070008407800ae0237001e4178006a
:1038ec000284fb00040520008442b8000402450059
:1038fc00242a9000e10f5200a3003a000405200096
:10390c008442b8000402450004309000e10f4000ee
:10391c00120032007a1907000b0520008b42b80008
:10392c0004024500003298001e4478000881fb0018
:10393c00030020006033b80004b1280005192000f2
:10394c00a19820000a007800151907000882fb00d6
:10395c008b22b800040245000032980049429000c6
:10396c00844578000b74a100e04f52003d003d00ef
:10397c009e4278000582fb000b83fb008403e80069
:10398c00050520008538b8008002780085024500c6
:10399c00954290008582fb008502e800850f53005c
:1039ac0013003a00050520008523b8008603450066
:1039bc0020002000a02b98008403e8008539b80073
:1039cc0082027800850245009b4298006505200024
:1039dc0086824200850245005903be00868abe00dd
:1039ec0029039000b9039000a6029800b702980032
:1039fc0025cab300654798000402e80009052000b9
:103a0c008922b800040245001442900074479800c3
:103a1c0004c1b300044f98000044eb00584f9800c9
:103a2c00484f9800384f9800284f9800184f98002e
:103a3c00e60147000c41780011c0b3000a00780081
:103a4c009cf507009e4378000782fb000402e80007
:103a5c008922b800040545001845980008407800f4
:103a6c004c0237009e4078000182fb000b83fb0068
:103a7c008403e800050520008538b8008002450065
:103a8c00954290008582fb008502e800850f53006b
:103a9c001b003a0000027800040245001b4298000b
:103aac006582440072002000030020000a007800a8
:103abc0045f40700e04f5000110032001e41780021
:103acc008282fb0004052000842ab800840278005e
:103adc0005024500840278000600200007802000c3
:103aec00645a9000e509900012c0b3008c40780035
:103afc000a007800c2f5070000c0eb002502370071
:103b0c000040eb00f0cf550022023a0024cab3006b
:103b1c00644798009e4278000582fb000402e8008e
:103b2c00090520008922b8000402450014429000c7
:103b3c007447980004c1b300044f98000044780007
:103b4c00584f9800484f9800384f9800284f9800cd
:103b5c00184f9800e60147000c41780011c0b300e3
:103b6c000a00780053f507001e4378000682fb001c
:103b7c000402e8008922b8000405450018459800a5
:103b8c0008407800030237000040eb00e20f5200bf
:103b9c0000023a0049429000610262000a003a00b9
:103bac001602200007802000004278008001eb0004
:103bbc0012c0b3008c4078000a00780090f5070022
:103bcc0000c0eb00f3013700040520008442b8006c
:103bdc000402450004309000e10f40001200320056
:103bec00c71807000b0520008b42b80004024500e3
:103bfc00003298001e4478000881fb00030020006e
:103c0c006033b80004b1280005192000a1982000e9
:103c1c000a007800621807000882fb008b22b800ab
:103c2c0004024500003298009e4078000140780064
:103c3c0002c5b3000440bc00020278007405b00059
:103c4c00494190004211de006701610067011100db
:103c5c00cf91de00040245000a007800daf3070079
:103c6c00e04f5000110032001e4278008482fb00ad
:103c7c0004052000842ab80084027800050245005f
:103c8c00840278000600200007802000645a90000f
:103c9c00e509900012c0b3008c4078000a0078004f
:103cac0057f5070000c0eb00ba0137009e427800c0
:103cbc000582fb00050520008523b80086027800ec
:103ccc008502450065239000f5239000e00f53001a
:103cdc00e08f5b0015003200050520008520b80040
:103cec00800278004502b00085024500b50f5300f4
:103cfc00a58f5b000d0032008002780005024500a4
:103d0c00840278001602200007802000645a90007c
:103d1c00e509900012c0b3008c4078000a007800ce
:103d2c0037f5070000c0eb009a01370014cab30046
:103d3c00644798000042eb0074479800044f9800c9
:103d4c00144f9800244f9800344f9800444f98001b
:103d5c00544f9800e60147000c41780011c0b300a5
:103d6c000a007800d3f407009e4078000a0078001f
:103d7c000ff30700e00f5000e08f580010003200e6
:103d8c001e4178008282fb0004052000842ab800c2
:103d9c008402780005024500840278000003be000e
:103dac00645a9000e509900012c0b3008c40780072
:103dbc000a00780012f5070000c0eb00750137000f
:103dcc009e4078000a0078000cf407000040eb00dd
:103ddc0070013700e04f52000a003200160220003a
:103dec00078020000042eb008001eb000b417800c3
:103dfc008c4078000a00780001f5070000c0eb0049
:103e0c00640137001e4278000484fb000405200086
:103e1c008442b8000402450004309000e10f4000d9
:103e2c001300320036180700050520008542b80043
:103e3c0004024500003298001e4478000881fb0003
:103e4c00030020006033b80004b1280005192000dd
:103e5c00a19820000a007800d11707000882fb0007
:103e6c00060520008622b8000402450000329800a6
:103e7c009e4078000182fb000140780002c5b3002f
:103e8c000440bc0082024500a52a9000e08f52003d
:103e9c0041003a00c9429000e18262000040eb0010
:103eac003c013a008202450016002000a62a980028
:103ebc008504b000494390000683fb004233de00ca
:103ecc00e14a6300c9429000e282620021003200a4
:103edc000202780004004500c004b000394a90008a
:103eec000482fb0005002000482bdd00c823de0007
:103efc00870373004823dd00294a90000482fb00ed
:103f0c00050020000603420087834a004839dd0083
:103f1c00c831de00830171004831dd00194a900080
:103f2c000482fb00050020000202420083824a004a
:103f3c00482bdd00c823de00870373004823dd0017
:103f4c00094a90000482fb0005002000041843007d
:103f5c0005904b0034cab300644798000044eb0052
:103f6c0078479800084f9800184f9800284f9800f1
:103f7c00384f9800484f9800584f9800e60147007a
:103f8c000c4178008b4078000a00780049f4070057
:103f9c0008407800ff003700e18f520087003a009c
:103fac00c9429000854678000d74a100e0cf520004
:103fbc003b003d000d83fb008403e8000505200059
:103fcc008538b80080027800850245009542900043
:103fdc008582fb008502e800850f530013003a0030
:103fec00050520008523b80086034500200020002d
:103ffc00a02b98008403e8008539b8008202780071
:10400c00850245009d42980065052000868242008d
:10401c00850245005903be00868abe002903900024
:10402c00b9039000a6029800b702980025cab30005
:10403c00654798000402e800090520008922b800b1
:10404c0004024500144290007447980004c1b30068
:10405c00044f98000044eb00584f9800484f9800cc
:10406c00384f9800284f9800184f9800e6014700e9
:10407c000c4178008b4078000a0078000df40700a2
:10408c009e4378000782fb000402e8008922b800f6
:10409c00040545001845980008407800bd0037001d
:1040ac000d83fb008403e800050520008538b8006b
:1040bc0080024500954290008582fb008502e80055
:1040cc00850f53001b003a000002780004024500e3
:1040dc001d429800658244007200200003002000fd
:1040ec000a007800b8f20700e04f500011003200cf
:1040fc001e4178008282fb0004052000842ab8004f
:10410c008402780005024500840278000600200035
:10411c0007802000645a9000e50990000b4178005c
:10412c008c4078000a00780035f4070000c0eb00e2
:10413c00980037000040eb00f0cf560095003a0095
:10414c0024cab300644798009e4278000582fb00a5
:10415c000402e800090520008922b8000402450089
:10416c00144290007447980004c1b300044f9800a7
:10417c0000447800584f9800484f9800384f9800ea
:10418c00284f9800184f9800e60147000c41780022
:10419c008b4078000a007800c6f307001e437800b5
:1041ac000682fb000402e8008922b80004054500e1
:1041bc001845980008407800760037000040eb0066
:1041cc00e28f520073003a0049419000e102610015
:1041dc000a003a00160220000780200000427800f6
:1041ec008001eb000b4178008c4078000a007800cd
:1041fc0003f4070000c0eb00660037000505200043
:10420c008522b8007405b0004211de006701610020
:10421c0067011100cf91de00040245000a0078000e
:10422c0069f20700e04f5000110032009e43780005
:10423c008782fb0004052000842ab80084027800e1
:10424c00050245008402780006002000078020004b
:10425c00645a9000e50990000b4178008c4078007e
:10426c000a007800e6f3070000c0eb0049003700b5
:10427c001e4078000082fb00050520008521b80057
:10428c008202450065239000f5239000e00f530057
:10429c00e08f5b001400320002007800800278008e
:1042ac004502b00085024500b50f5300a58f5b0099
:1042bc000d0032008002780005024500840278006f
:1042cc001602200007802000645a9000e509900037
:1042dc000b4178008c4078000a007800c8f3070086
:1042ec0000c0eb002b00370014cab30064479800e1
:1042fc000042eb0074479800044f9800144f98004c
:10430c00244f9800344f9800444f9800544f980015
:10431c00e60147000c4178008b4078000a007800d9
:10432c0064f307001e4178000284fb00090520009d
:10433c008944b8000802450004309000f0160700cc
:10434c0008044500003498009e4278000582fb006a
:10435c008922b8008402450016c0b300e6529800ca
:10436c0005027800143290000040eb00e00f520080
:10437c00080032008d4078000a007800040001002b
:10438c000040eb000300370000c0eb0001003700d9
:10439c0000c0eb004f06be004f05be004f04be0030
:1043ac000080fa00000006000046eb000100370018
:1043bc00064678001bc0b3008046eb007bf4370048
:1043cc000000fa00881f7800500290001401900041
:1043dc00600290001404900080c1eb00e00f5100cb
:1043ec0024003200e3cfb300880f510021003e00bf
:1043fc0010039000e612b80004024300a44290009f
:10440c0080c1eb00e3cf52001a0036001402780092
:10441c00740a90008041eb0094cf1000150032001c
:10442c000202e800e622b80084024300020278008f
:10443c000a0037008503780025439000e34f5300b2
:10444c000b00360082415200e682420017037800ce
:10445c00760b900096cf1000060032000402e800a4
:10446c00840f5400f3ff3100e3cfb3000100370099
:10447c0080c1eb00034078004f0478000080fa0004
:10448c00000006000200fa00889fbe0000047800bd
:10449c008244780008007800c9ff070054c8b300b4
:1044ac00e34f40000c003e008e017800094178007b
:1044bc008040780008007800bdf2070000c2eb00d5
:1044cc00e04f500004003a009e407800080078004d
:1044dc004af207000042eb00044078004f04be0093
:1044ec000080fa00000006000e00fa00889fbe0053
:1044fc008a9fbe008c9fbe008004780062079800e3
:10450c00034678000405be008646780057079800dd
:10451c0009007800aaff070000447800e34f44002c
:10452c008e003e000e01780021c0b3000900780017
:10453c0063f20700e04f500087003a004ef29700fc
:10454c00e04f52000f00320045c0b3000c4278001f
:10455c00ee019000084178009e4078000900780038
:10456c00cef107001e4378008682fb000405200074
:10457c00842ab800048244006a2298007b229800a6
:10458c000700370025c0b3000c427800ee01900004
:10459c00084178009e40780009007800bff10700c0
:1045ac001e4278008483fb0004052000843ab80086
:1045bc00048244000a1298001b1298006dda9800cd
:1045cc00e00f5500e08f5d000a0032005e029000a3
:1045dc0006052000863bb80075022000868242004a
:1045ec00858244000a034200b46a7800860f5200a8
:1045fc00fdff3a00cef29700e0cf52000e003200e1
:10460c0024ccb300144798005a479800485bdd004f
:10461c004852de0004027300c85ade00644798005a
:10462c00405ade000500200074479800485dde000b
:10463c000a4f980028003700e40f5500e08f5d000a
:10464c0018003e0045c0b3008ac25200240020006e
:10465c00042add003442b3001447980004052000fe
:10466c00843ab80084824400856a900055479800cb
:10467c0084824400956a90006547980084824400c7
:10468c00a56a90007547980084824400b56a900032
:10469c00054f9800048244002a1298003b1298009f
:1046ac000d00370014c2b300144798005a47980005
:1046bc00485bdd004852de0004027300c85ade007d
:1046cc0064479800405ade000500200074479800ab
:1046dc00485dde000a4f98004e4a9000244798002f
:1046ec00ee029000482ade00344798004c479800b0
:1046fc008e017800334378008682fb00040520008d
:10470c00842ab80004824400ceba9700153298006f
:10471c000841780021c0b3000900780065f2070059
:10472c00e04f5000050032009e40780009007800f0
:10473c00b2f1070000c4eb00080037009e4078007f
:10474c000044eb00e4cf5000040036000900780070
:10475c00aaf107000100370000c4eb000840780004
:10476c004f06be004f05be004f04be000080fa008d
:10477c00000006000000fa00881f78000efc97006d
:10478c00881f780018c0b300881f7800801feb00ca
:10479c0055ff0700e68757004f0478000080fa00a9
:1047ac00000006000000fa00881f78006ef49700e5
:1047bc00881f780018c0b300881f78004ebc970083
:1047cc00881f780048ff0700e68757004f047800e1
:1047dc000080fa00000006000800fa00889fbe0066
:1047ec008a9fbe008c9fbe00000478008144780034
:1047fc0082057800634798001407980025079800f5
:10480c00064f780007057800eef697004ef69700f5
:10481c008c1f78008d1f7800cebb9700871f780007
:10482c008a0378000b017800894078000800780032
:10483c002dff070000427800e6875700e24f420048
:10484c004b003a00580290009402900068029000cd
:10485c001401900000c0eb00e08f52004a003200bf
:10486c00828f520048003e0018029000e62bb800e0
:10487c0086034200a7409000e3cf50004200360070
:10488c0097037800770890008040eb0090cf1000e1
:10489c002d003a000a003700a4439000e3cf5300e8
:1048ac003800360094037800e600430066024200ac
:1048bc00770890008041eb0090cf110026003a0061
:1048cc000980fb00f7039000046020000402400004
:1048dc00cfa2de00848bbe001802900006024200bc
:1048ec0014027800b40a9000045820000400400020
:1048fc00cf80de00808abe001802900006034200c2
:10490c0016027800740a9000094a78008c1f78000f
:10491c008d1f78004eba9700841f78008a037800a8
:10492c001e4378001e029000ae029000ee419000f3
:10493c000b0178008940780008007800eafe070037
:10494c00e6875700100037000503e800e633b8008f
:10495c000602420001003700010378008502e800de
:10496c00850f5100ccff310000c0eb000600370072
:10497c0000c0eb00e04f520003003a000040eb0097
:10498c000100370000c0eb004f06be004f05be0013
:10499c004f04be000080fa00000006000c00fa0074
:1049ac00889fbe008a9fbe008c9fbe00800478004a
:1049bc008206780003457800044678005507980075
:1049cc0086457800090078007dfe070000447800d9
:1049dc00e34f440058003e008e01780022c0b30023
:1049ec00884078000900780057f10700e04f50002c
:1049fc004e0032000e01780021c0b300090078008f
:104a0c002ff10700e04f50004a003a00e0cf55006c
:104a1c001a00320055c0b3000a4278008d017800ac
:104a2c00084178009e407800090078009bf0070050
:104a3c001e4278008482fb0004052000842ab80002
:104a4c00048244006cda980004cab300144798003e
:104a5c002d479800c86ede003d4798004a479800e5
:104a6c0004c1b300544798000042eb00644798001f
:104a7c0074479800044f98001800370035c0b300f5
:104a8c000a4278008d017800084178009e40780039
:104a9c000900780081f007001e4278008482fb0038
:104aac0004052000842ab800048244006cda9800c3
:104abc0004c4b300144798002d479800c86ede005c
:104acc003d4798004a4798000042eb005447980035
:104adc006447980074479800044f98008e01780042
:104aec00334278008482fb0004052000842ab8003d
:104afc0004824400de0290001532980008417800d0
:104b0c0021c0b300090078006af107000044eb00f3
:104b1c00884f5000080032009e4078000900780051
:104b2c00b6f0070000c4eb000300370000c4eb0034
:104b3c000100370000c4eb00084078004f06be00af
:104b4c004f05be004f04be000080fa0000000600b6
:104b5c000000fa00054378008002eb008fff07008d
:104b6c000080fa00000006000000fa008bff07002e
:104b7c000080fa00000006000200fa00889fbe00c8
:104b8c008a9fbe008c9fbe00000478008144780090
:104b9c00020578008346780004467800050f7800fb
:104bac00864578000a017800894078000800780072
:104bbc007aff070000427800e24f420045003a00bd
:104bcc0058029000940290006802900094009000ab
:104bdc0000c0eb00e08f520044003200818f520085
:104bec0042003e0018029000e62bb80086034200fb
:104bfc0027419000e34f51003c00360097037800aa
:104c0c00770890008041eb0090cf110027003a000c
:104c1c000a003700a4439000e3cf53003200360063
:104c2c009403780066014300660242007708900006
:104c3c008041eb0090cf110020003a000982fb006c
:104c4c00f70290000060200000004200cf80de00e0
:104c5c00808abe00980290008682420095027800fd
:104c6c00b50a90000058200000004200cf80de0002
:104c7c00808abe00180290000603420016027800db
:104c8c00740a9000094a78000b4378009e02780061
:104c9c000c4278008d4178000a0178008940780038
:104cac00080078003dff0700100037000503e800fe
:104cbc00e633b80006024200010037000203780018
:104ccc008502e800858f5000d2ff310000c0eb0058
:104cdc000600370000c0eb00e04f520003003a0022
:104cec000040eb000100370000c0eb004f06be0097
:104cfc004f05be004f04be000080fa000000060005
:104d0c000200fa00889fbe008a9fbe000004780053
:104d1c00820578008304780004057800000deb0010
:104d2c003a15780008007800a5fd0700e34f400015
:104d3c0004003600800ceb00b914780050c8b300a6
:104d4c00520037008e01780022c0b30080407800fa
:104d5c00080078007cf00700e04f5000040032009f
:104d6c00800ceb00b914780050c8b3004700370032
:104d7c001e4078000082fb0002c5b3000440bc005a
:104d8c0002014400e2529000e1cf520013003200c5
:104d9c0006c8b30086cf52000300320065434300bf
:104dac0086cf520008003a00060520008623b80082
:104dbc008602440045099000d5099000028dbe0082
:104dcc00800ceb00b9147800050520008522b80092
:104ddc0004044400685090002c00370006052000a5
:104dec008623b800860244000513900095139000aa
:104dfc00e00f5300e08f5b0004003a002511900097
:104e0c00b5119000821298009312980006052000ac
:104e1c008623b80086024400051390009513900079
:104e2c00b90f1300a98f1b0004003100800ceb009c
:104e3c00b9147800a0c8b30014003700868cbe00eb
:104e4c00e00f5300e08f5b000c00320005052000e2
:104e5c008522b800760220000403430006034400b8
:104e6c006022b800d65d780061024200e0824a0000
:104e7c00b90f1200a98f1a00faff3e00804078008b
:104e8c0008007800ddef070010c0b3004f05be002e
:104e9c004f04be000080fa00000006000200fa0079
:104eac00889fbe008a1f7800800478000205780075
:104ebc00004feb00000deb003a157800090078006c
:104ecc003ffd070058c8b300e34f400015003e00fb
:104edc008e01780022c0b300804078000900780071
:104eec0019f00700e04f50000e003a001e40780009
:104efc0002c5b3000440bc0002824400440b900085
:104f0c00d40b9000068dbe00040178006254900012
:104f1c00e14f540003003a0080407800090078000b
:104f2c00b6ef0700084078004f0578004f04be002c
:084f3c000080fa0000000600ed
:020000040000fa
:104f44007c1a0000480200008200000000000000fb
:104f5400000000000000000000000000000000004d
:104f6400000000000000000000000000000000003d
:104f7400000000000000000000000000000000002d
:104f8400000000000000000000000000000000001d
:10524400000000000000000000000000ffffff005d
:10525400ffffff0000000000c41c00004800000025
:1052640080000000401d000040000000800000009d
:10527400801d00004000000080000000241d00008c
:105284000400000080000000807f00004000000057
:10529400800000000c1d00001800000080000000c9
:1052a400001000007c0a00008200000000000000e2
:1052b40000000000000000000000000000000000ea
:1052c40000000000000000000000000000000000da
:1052d40000000000000000000000000000000000ca
:1052e40000000000000000000000000000000000ba
:1052f4000000000000000200070400000000340069
:105304001000000002050100000000004010000031
:10531400000000000000000000000000009f0100e9
:10532400000000004a1002000704000000004c00c6
:105334001000000000000000000000000000000059
:105344000080000000000000000000000000e800f1
:105354000300000000060200000000007a100400b0
:105364000000000000000000000000000000000039
:10537400000000000000020005010000000086009b
:105384001002070004000000008810000207040057
:10539400000000008c1002000704000000009000d0
:1053a4001002070004000000009410000200020034
:1053b4000600000082050000000205000100000054
:1053c40000c010000207040000000000c210020028
:1053d400070400000000c600100600008101000060
:1053e40000ff0000000000000000000000000200b8
:1053f400050100000000e2001000070004000000a6
:1054040000e410000005010000000000e8100000a6
:10541400060200000000ea00100005000100000080
:1054240000ec10000006020000000000ee10000076
:10543400050100000000f0001006000081020000d9
:1054440000ff000000000000000000000000020057
:105454000501000000002a001100070004000000fc
:10546400002c1100000501000000000030110000b4
:1054740006020000000032001100050001000000d7
:105484000034110000060200000000003611000084
:1054940005010000000038001106000000040000af
:1054a40000000000000000000000000000000200f6
:1054b4000501000000007200110007000400000054
:1054c40000741100000501000000000078110000c4
:1054d4000602000000007a0011000500010000002f
:1054e400007c110000060200000000007e11000094
:1054f4000501000000008000110600000005000006
:105504000000000000000000000000000000020095
:10551400050100000000ba001100070004000000ab
:1055240000bc11000005010000000000c0110000d3
:10553400060200000000c200110005000100000086
:1055440000c411000006020000000000c6110000a3
:10555400050100000000c800110800000000000060
:105564000000000000000000000000000000000037
:105574000000000000000000000000000000000027
:10558400000000000000000005010000000002000f
:1055940012000700040000000004120000070400c9
:1055a40000000000081200000704000000000c00c6
:1055b400120007000400000000101200000704009d
:1055c400000000001412000007040000000018008e
:1055d4001200070004000000001c12000007040071
:1055e400000000002012080000000000000000007d
:1055f40000000000000000000000000000000000a7
:105604000000000000000000000000000000000096
:105614000000000000050100000000006c12000002
:105624000704000000006e001200070004000000e0
:10563400007212000007040000000000761200004f
:105644000704000000007a001200070004000000b4
:10565400007e120000070400000000008212000017
:105664000704000000008600120007000400000088
:10567400008a120008000000000000000000000082
:105684000000000000000000000000000000000016
:105694000000000000000000000000000000000006
:1056a400000005000100000000d6120000070400fd
:1056b40000000000d8120000070400000000dc0015
:1056c400120007000400000000e0120000070400bc
:1056d40000000000e4120000070400000000e800dd
:1056e400120007000400000000ec12000007040090
:1056f40000000000f0120000070400000000f400a5
:10570400120800000000000000000000000000007b
:105714000000000000000000000000000000000085
:105724000000000000000000000000000000000075
:105734000501000000004000130007000400000001
:10574400004213000007040000000000461300009c
:105754000704000000004a001300070004000000d2
:10576400004e130000070400000000005213000064
:1057740007040000000056001300070004000000a6
:10578400005a130000070400000000005e13060026
:10579400008201000000ff0000000000000014006f
:1057a40000000000000000000000000000000000f5
:1057b4000000000000000200050100000000aa0033
:1057c400130007000400000000ac130000050100f2
:1057d40000000000b0130000060200000000b20048
:1057e400130005000100000000b4130000060200cd
:1057f40000000000b6130000050100000000b8001e
:1058040013060000800200000000000000000000f9
:105814000000000000000000000000000000000084
:10582400000000000000000000020500010000006c
:10583400000014000007040000000000021400002f
:10584400050100000000060014000600020000002c
:105854000008140000050100000000000a14000004
:105864000602000000000c00140005000100000006
:10587400000e140006008000030000000000000079
:105884000000000000000000000000000000000014
:1058940000000000000000000000000002050100fc
:1058a4000000000056140000070400000000580027
:1058b4001400050001000000005c14000006020052
:1058c400000000005e1400000501000000006000fc
:1058d400140006000200000000621400000501002c
:1058e40000000000641406000080040000000000b2
:1058f40000000000000000000000000000000000a4
:105904000000000000000000000000000000020091
:10591400050100000000ac001400070004000000b2
:1059240000ae14000005010000000000b2140000e5
:10593400060200000000b40014000500010000008d
:1059440000b614000006020000000000b8140000b5
:10595400050100000000ba001401000020006400ea
:1059640060000500010000000002150000070400ab
:105974000000000004150800000000000000000002
:105984000000000000000000000000000000000013
:105994000000000000000000000000000000000003
:1059a40000000000000501000000000018150000c0
:1059b4000704000000001a0015000700040000009e
:1059c400001e15000007040000000000221500005e
:1059d4000704000000002600150007000400000072
:1059e400002a150000070400000000002e15000026
:1059f4000704000000003200150007000400000046
:105a0400003615000800000000000000000000003f
:105a14000000000000000000000000000000000082
:105a24000000000000000000000000000000000072
:105a340000000500010000000082150000070400ba
:105a44000000000084150000070400000000880026
:105a54001500070004000000008c15000007040076
:105a640000000000901500000704000000009400ee
:105a7400150007000400000000981500000704004a
:105a8400000000009c150000070400000000a000b6
:105a940015080000000000000000000000000000e5
:105aa40000000000000000000000000000000000f2
:105ab40000000000000000000000000000000000e2
:105ac400050100000000ec001500070004000000c0
:105ad40000ee15000007040000000000f2150000ad
:105ae400070400000000f600150007000400000091
:105af40000fa15000007040000000000fe15000075
:105b04000704000000000200160007000400000063
:105b14000006160000070400000000000a1600003a
:105b2400070400000000000010000700040000004b
:105b3400000410000007040000000000081000002a
:105b44000704000000000c00100005000100000024
:105b540000101000020404000000000012100200f3
:105b640004040000000016001002030002000000fc
:105b7400001a100000040400000000001c100000c3
:105b840004040000000020001005000002050100cc
:105b940000000000a6160000060200000000240019
:105ba400100006000200000000261000000501009d
:105bb40000000000281000000602000000002a0077
:105bc4001000060002000000002c10000207040070
:105bd400000000002e10000000ffff00ffff000087
:105be40000000000000000000000000000000000b1
:105bf40000ffff00ffff00000000000000000000a5
:105c0400000000000000000000ffff00ffff000094
:105c14000000000000000000000000000000000080
:105c240000ffff00ffff0000000000000000000074
:105c3400000000000000320010c68300e0160000df
:105c4400003636008c84980084a48400c4839a00af
:105c540050000000000000000000000000000000f0
:105c64000000000000000000000000000000000030
:105c74000000000000000000000000000000000020
:105c84000000000000000000000000000000000010
:105c94000000000000000000000000000000000000
:105ca40000000000000000000000000000000000f0
:105cb400000000000000ff00ff00000000000000e2
:105cc40000000000000000000000000000000000d0
:105cd40000000000000000000000000000000000c0
:105ce40000000000000000000000000000000000b0
:105cf40000000000000000000000000000000000a0
:105d0400000000000000000000000000000000008f
:105d1400000000000000000000000000000000007f
:105d240000ffff0000000000000000000000000071
:105d3400000000000000000000000000000000005f
:105d4400000000000000000000000000000000004f
:105d5400000000000000000000000000000000003f
:105d6400000000000000000000000000000000002f
:105d7400000000000000000000000000000000001f
:105d8400000000000000000000000000ffff000011
:105d940000000000000000000000000000000000ff
:105da40000000000000000000000000000000000ef
:105db40000000000000000000000000000000000df
:105dc40000000000000000000000000000000000cf
:105dd40000000000000000000000000000000000bf
:105de40000000000000000000000000000000000af
:105df400000000000000ff00ff0000000f00000092
:105e0400000000000000000000ee3e00f43e080028
:105e14003f0e3f00000000000074100076102800c0
:105e24001d7a1000ffffc0003b0f00000f000f00a1
:105e3400000f00000f000f00000f00000f000f0004
:105e4400000f00000f000f00000f00000f000f00f4
:105e5400000f00000f000f00000f00000f000f00e4
:105e6400000f00000f000f00000f00000f000f00d4
:105e7400000f00000f000f00000f00000f000f00c4
:105e8400000f00000f000f00000f00000f000f00b4
:105e9400000f00000f000f00000f00000f000f00a4
:105ea400000f00000f000f00000f00000f000f0094
:105eb400000f00000f000f00000f00000f000f0084
:105ec400000f00000f000f00000f00000f000f0074
:105ed400000f00000f000f00000f00000f000f0064
:105ee400000f00000f000f00000f00000f000f0054
:105ef400000f00000f000f00000f00000f000f0044
