:020000040000fa
:080000000002040000000000f2
:020000040000fa
:10000800440300004a03000074030000500300008a
:10001800560300007403000074030000740300001a
:1000280074030000740300007403000074030000ec
:10003800a8eb0000740300007403000074030000c0
:1000480056f20000740300007403000074030000fb
:100058007403000074030000b0eb00007403000098
:1000680074030000740300007403000086bf0000de
:10007800740300007403000074030000740300009c
:10008800daeb00007403000074030000740300003e
:10009800740300007403000074030000740300007c
:1000a800740300007403000074030000829f0000c2
:1000b800e2eb000074030000740300007403000006
:1000c800740300007403000074030000740300004c
:1000d800740300007403000074030000740300003c
:1000e8006ade00007403000074030000740300005b
:1000f800740300007403000074030000740300001c
:100108007403000074030000c2b700007403000009
:1001180074030000740300007403000074030000fb
:1001280074030000740300007403000074030000eb
:100138000cec00007403000074030000740300005a
:1001480074030000740300007403000074030000cb
:1001580074030000740300007403000074030000bb
:1001680074030000740300007403000074030000ab
:10017800740300007403000074030000740300009b
:10018800740300007403000074030000740300008b
:10019800740300007403000074030000740300007b
:1001a800740300007403000074030000740300006b
:1001b800740300007403000074030000740300005b
:1001c800740300007403000074030000740300004b
:1001d800740300007403000074030000740300003b
:1001e800740300007403000074030000740300002b
:1001f800740300007403000074030000740300001b
:10020800740300007403000074030000740300000a
:1002180074030000740300007403000074030000fa
:1002280074030000740300007403000074030000ea
:1002380074030000740300007403000074030000da
:1002480074030000740300007403000074030000ca
:1002580074030000740300007403000074030000ba
:020000040000fa
:100400002f7124000edf27000e018800000000007d
:1004100000012000200288000c00070080992500c0
:10042000010020000f000700000020000000e00095
:100430000200320000000200000000008ade02001c
:10044000000000000040da000000fe00c081200033
:100450000000e0000200320000202000900188002f
:1004600000000600a1028800800078000000eb0078
:100470001a003700e280400054a0b4009101ba0095
:10048000e280400054a0b4009102ba00e280400033
:1004900054a0b4000002eb00472bde00f507b200c9
:1004a000a6018800602ce10008003a000049eb003a
:1004b0000201e800020039003420ec0002f0a00044
:1004c0008301e900f9ff3e00040037006128e100e4
:1004d000010032000082eb00040007001101ba00a5
:1004e0000200e000e3ff3a000000060004d0a30091
:1004f000e20f49001c003900810278003549ba003a
:100500000201e800020039003420ec0002f0a000f3
:100510008301e9000f0032002549ba000201e8001a
:10052000020039003420ec0002f0a0008301e90051
:10053000080032000400e0000600320015c9ba00cd
:100540000201e800020039003420ec0002f0a000b3
:100550008301e9008180e80054a0b4000300e000ba
:10056000e2ff3a00000006009102ba000559780047
:100570008301e900f7ff3200c82ade000559780040
:100580008301e900f3ff32000400e000f1ff3200d4
:1005900011d9ba00eeff3700aee9040000000000f8
:1005a00032aa0400000000004ce10400000000003a
:1005b0001acb04000000000022cb04000000000061
:1005c0003ecb04000000000046cb04000000000009
:1005d0000ec60400000000002ec60400000000004b
:1005e000a0ed040000000000a8ed040000000000e1
:1005f00018c604000000000022c60400000000002d
:1006000074e1040000000000ccd3040000000000ee
:100610000cdb04000000000006cc04000000000019
:100620009ed70400000000005ac004000000000033
:10063000acc304000000000098c2040000000000e9
:1006400094c3040000000000f0c204000000000099
:10065000c0a9040000000000f2a90400000000008e
:100660002eac040000000000da1e040000000000b0
:100670002eec0400000000001eec0400000000004e
:100680006ae00400000000000000fa00c028a90091
:10069000ffff37000000fa00c068a900ffff370025
:1006a0000000fa00c048a900ffff37000000fa0070
:1006b000c088a900ffff37000000fa00c028a90089
:1006c000ffff37000000fa00c068a900ffff3700f5
:1006d0000000fa00c048a900ffff37000000fa0040
:1006e000c088a900ffff37000040da000000fe00cc
:1006f0000000fa002024ef000080fa00000006004d
:100700000000fa002224ef000080fa00000006003a
:100710000000fa002824ef000080fa000000060024
:100720000000fa002a24ef000080fa000000060012
:100730000000fa000a24ef000468a9006020880085
:10074000e7826000cc2add00f4ff280086428000aa
:10075000060262000502720084428800e8806000a0
:1007600074ff2f00254180000502620081007200a5
:10077000214188000080fa00000006000000fa0015
:100780000748a900e7026000c82add00f48f2f00a7
:10079000e64280000602620005027200e442880020
:1007a000680060004300de00610060004a00dd0078
:1007b000f4bf2f0035418000050262000002720084
:1007c000344188000080fa00000006000000fa00b2
:1007d000000e8800110e8800220e88000080fa00aa
:1007e000000006000000fa00b00e8000d10e80006c
:1007f0000080fa00000006000000fa00300e8000c1
:10080000510e80000080fa00000006000000fa008f
:1008100010029000d40e880010007800b00e8800fe
:100820000080fa00000006000000fa002148a9003c
:1008300041e2a9000148a9000080fa00000006007a
:100840000000fa00101288002112880002128800ad
:100850000080fa000000060003f0a200889fbe009e
:100860008a9fbe008c1f7800830107008a01330035
:100870006450e1004f0032006420e1005200320079
:1008800003826c0007003b000905d0000306d0007e
:10089000820f54000c065d00020039000200320095
:1008a00089017800030678008582550004003d0028
:1008b0000003fd008103fd008502ea008b854200f4
:1008c000840f720002003b0060001000e0801800fe
:1008d0006011b8000005eb007a28e1000a00390039
:1008e00006007800c75ddd00f707b200878075005d
:1008f0002d003700828171000a01780061056000d7
:100900008180d1000080d3008502e900f9ff3b001f
:10091000060440008784480002003b006004140085
:10092000e0841c000988a300070032008a8171005e
:1009300082817100610164008904d1000884d300c0
:100940008b05e800170037000978a30013003a0070
:100950000b00e000130034008b05e900080444009c
:1009600089844c000a4474000978a3000d003a0001
:100970000b00e000070034008b05e9000804440088
:1009800089844c0001003a000b0020000978a30084
:10099000f7ff32000001eb00020037008281710096
:1009a0000a017800f90007000cf0a70001f0a00090
:1009b000420137006420e10002003a00838f6c009e
:1009c000420133000801be000200be003b013700b7
:1009d000889fbe008a9fbe008c1f780026010700fa
:1009e0002d01330003866c006450e1002e003200bc
:1009f0006420e100330032006150e1002f0032003a
:100a00006120e1003100320085855500eb07b00020
:100a100009002000080420000500370008044400f5
:100a200089844c000a0031000603430087834b0091
:100a30000001530081815b00f8ff33000203be0018
:100a40000800a0000804440089844c00f6ff390027
:100a5000c639dd008301730001003200130020005d
:100a60008904d1000884d3000998a300050032004e
:100a70000800a7000300a0008904d1000884d30067
:100a80008b05e8008904d1000884d3000001eb0045
:100a90000281d200bd00070001f0a1000cf0a70008
:100aa00001f0a000050137006420e10007013200d9
:100ab0000801be000200be00f7ff37006120e10020
:100ac000020132006000b800f3ff37000000200090
:100ad00001f82700f0ff3700839f68000100e00065
:100ae00002003d0060001000e08018000300e000fc
:100af00002003d0060011100e08119002a01070099
:100b00004f00e00002003b0060001000e080180091
:100b100000000600140020005d013700f4ff2f00e4
:100b20005b0137000001be00be0007000470a70093
:100b300003f0a1006509b100160032000d00350078
:100b40006828e10006003500f0ff2f00f1ff2700c4
:100b50000300e00013003b00010028000000050036
:100b600000004000818048008502e900fcff3a0057
:100b700008003700f88f420002003c008000eb00c4
:100b8000000005008100d1000080d3008502e8004c
:100b9000fcff3a000300e00002003b006000100090
:100ba000e0801800000006000001be009d00070064
:100bb0000470a70003f0a10003f8a30013003a009b
:100bc0006509b10010003200090035006928e10014
:100bd0000200350001002800000005000000400070
:100be000818048008502e900fcff3a000000060011
:100bf000f88f4200050035008100d1000080d3004d
:100c00008502e800fcff3a00000006008000eb00cf
:100c1000000005004f89de008201780037013700af
:100c20006011b800450137000001eb00f10007003a
:100c3000040032000200200003f8230001f0a700a6
:100c400005ff070000000600040020000000370038
:100c5000889fbe008a9fbe008c1f78004f26dd0053
:100c6000850007008c0033006120e1004300320062
:100c70006250e10041003e003e0039006420e10086
:100c80003c003200058255000f003b000402e800e2
:100c900038003a00800f5300818f5b00350034002c
:100ca0000800be0003f0a10001f0a60003f0a000c0
:100cb0000cf0a700e9fe07008000370006034300a0
:100cc00087834b000c4646000005530081855b007e
:100cd000020033000a03be000c00a0000402e90079
:100ce000f6ff3b00850578000602430087824b0033
:100cf00004003a006000b80009f0a70001f0a0006d
:100d00006e0037000002520081825a000704e000a2
:100d1000040033000603430087834b008b05e90082
:100d2000faff3700090578000604be000203be0082
:100d30006011b80015000700e00f5200e08f5a0064
:100d40000700350002003c000c08a300040032003c
:100d50000601be0003f0a0000cf0a700bffe0700d4
:100d60000a85680001f0a1000af0a70001f0a000c8
:100d7000520037000800be0050003700100220006b
:100d80000cf0a60000808800500037008100200091
:100d9000618055000b003d000b00200061fe2f001c
:100da0000100e1001d0034008281710061016400d6
:100db0008904d1000884d3000000e800faff3a005b
:100dc00071002000610064000300700002006000f8
:100dd0000900320061044400e0844c000988a50049
:100de000050032008b05e8006808e10002003a00c7
:100df0008904d1000884d300f20f20000258e100da
:100e000005003d00c75ddd00f907b200898075006f
:100e100008007800000006000bf827008b0078001f
:100e200000000500c70ade00f107b200f50fb200ae
:100e300008003200e1cf4200020032000170a00041
:100e400024000500810f7000010032000408050035
:100e500044000500810f700002003a0014000500f4
:100e60008502e9000000400081c04800fcff3b0013
:100e70000170a000240005000004be00e9ff070087
:100e80000003be000405be000200be00e5ff07002f
:100e9000844f7500000006000200be006450e100af
:100ea000050036006420e100020036000968a30056
:100eb00001003a000800be000160a0004f06780063
:100ec0004f05be004f04be0000000600f0ff2f00db
:100ed000f1ff2700f9ff3700889fbe008a9fbe0000
:100ee0008c1f7800e4ff0700ebff330003866c00e3
:100ef0006450e100240032006420e1002700320049
:100f00006150e100220032006120e1002100320046
:100f10008b854200eb07b1000134b800003ab800fd
:100f20000804420089844a00013ab8000030b80041
:100f30008880400009014a0004003300000040009e
:100f400081804800020149008b05e900c909dd00e4
:100f5000830170000100320013002000c814de007d
:100f60004814dd004709de001200b200c808de00a8
:100f70000884700085ff070001f0a1000cf0a700b5
:100f800001f0a000cdff37006120e100cfff32006b
:100f90000801be000200be00f7ff37006150e1000b
:100fa000fcff3a00c9ff37006022b80006022000ab
:100fb0000000d0008180d2000482d2008582d2005d
:100fc0000000a0000202520083825a000300310098
:100fd0000202420083824a000000a1000603e900e9
:100fe000f3ff3a0000000600efff07000400be0018
:100ff00000000600889fbe008a9fbe000003be005e
:1010000088ff0700850578008281520002002000d9
:101010006220e10004003a00f307b100040035004b
:101020007718e100040035000600be001400370008
:101030006000b8000f003700f50f2000faff2f0006
:101040008502d1000a85d3008301e900fcff3b0043
:101050008184620000046500890f7400f2ff320091
:101060008582ea000a85ea00818462000004650046
:1010700046ff070007f0a70001f0a0000081eb0089
:101080000200e0004f05be004f04be000000060055
:10109000889fbe008a9fbe00841f780076ff0700ed
:1010a0004f00780011003300f0ff2f00838f6c0099
:1010b00006003b00040565000a00a7000800370091
:1010c00009f0a6001000200008003700820f54002d
:1010d000838f5c00030039001000200001003e00f7
:1010e0000000200009f0a7000000ea004f05be0044
:1010f0004f04be000000e00000000600881f7800da
:10110000030478000300e00007003d0060001000c9
:10111000e080180060011900e081190002003b0026
:1011200001f02d00030037000400070008f0a700bd
:1011300001f0a0004f04780000000600889fbe0068
:101140008a9fbe0000827000040271000482710058
:10115000260032000004be000200be006011b8008c
:101160006b092000950220000182cf000a0039009f
:101170000541b1000082cf00070039000541b100f0
:101180000982cf00040039000541b1000882cf0078
:10119000010039000541b100054252001200320041
:1011a0000a003b0082817100610164008100d1006e
:1011b0000080d3008984d3000884d3008b05e80025
:1011c0000442e800f7ff3a00070037000804440033
:1011d00089844c0000004800818048008b05e900ac
:1011e0000442e900f9ff3a00e8fe07004f05be009f
:1011f0004f04be00000006000200fa00000f780055
:10120000ac0107001e007800540507000000fa003a
:10121000889fbe000104780038029000e20262005c
:101220008084eb003b003200040378000620b2000b
:101230009802900002003a00e08f520035003a0018
:101240000490a0003404980080047800f90fb200e4
:10125000e08f520002003a00a8029000050c7800ce
:10126000ea8f540005003a000408b20003003a0077
:1012700088007800d0002000e4ff070018029000ea
:10128000d8029000850f52000b0032000402e800e3
:101290001404980018027800094a7800040ce80049
:1012a00015c0b300846f2400054a7800ea8f54000b
:1012b00018003a00050037008800780009407800df
:1012c00053040700800478001200370038029000b1
:1012d0000410b2000f00320018019000a800900026
:1012e000480090003f05070018029000840f50004e
:1012f00004003200380290000403b3003404980064
:101300008084eb000002eb00140498002802900097
:10131000040c7800090078004f04be000080fa0039
:10132000000006000000fa00889fbe008a9fbe00f1
:101330008c9fbe008005780081047800020578004b
:10134000030478003802900062006200520032000c
:10135000040078000020b2009802900002003a00d9
:10136000e08f52004c003a000490a0003404980032
:10137000e08f520002003a0028029000040c78002e
:10138000b802900004c0200084826200848f520062
:1013900004003a00210020006011b8000800780025
:1013a000910407003802900004b0a10034049800b2
:1013b0008956b800e00f560036003200280290002f
:1013c000e00f520024003200380290000408b200fe
:1013d00021003200d8069000180290008486560042
:1013e0008c8f560003003e00e08f56001a0032003a
:1013f000010037008c067800180078000d01780095
:101400008b007800190107008d8545000d065600f8
:10141000188c460018029000848646001d0498002f
:1014200058029000848f560007003a0008007800a8
:10143000cb030700e00f50000e003200580290006e
:10144000040646000d00370014c0b300856f240069
:10145000844a7800070037001b00fb0088007800f2
:101460006aff0700e10f4000040032008b05e8002e
:101470000c06e900e00f5600d0ff3a000900e90031
:101480000c064000110009000986d8000000550034
:10149000010037000c0078004f06be004f05be006b
:1014a0004f04be000080fa00000006000400fa00ad
:1014b000889fbe008a9fbe008c9fbe00646d240082
:1014c000b5368200e08f52000b003a00e402420081
:1014d000b5368a0005378a0024029800f4368a005f
:1014e000a44290000504a00025429800e442900028
:1014f0000504a00065429800670440004244de00f5
:101500004244dd00f2368200040020000900200081
:101510008484540025002000110009008504d800af
:10152000000f78008502440085824200150798006c
:101530000003eb00e40544003c00200004065600d4
:101540000806460002003700160020000d01780052
:101550002242900061026200020032000a0037005d
:10156000150978009202780025429000610262001d
:10157000fbff320008024100848f52000200390054
:10158000e00f54003e003d00920678000d00a100df
:10159000828f5600edff3e00e10f5300eaff3a0054
:1015a0001e027800840f540002003600890f540098
:1015b0000f0039006143b800614ab900b0ff2f0045
:1015c000010020000402500085825800840f53005f
:1015d000858f5b00020035000b05780005003700a1
:1015e000110009000986d8008905b80001003700fc
:1015f0001e0590000a007800aa040700e10f4000d1
:1016000005003a000b0578000b007800a5040700e0
:10161000e10f40002b00320004378200000a7800fe
:101620000437820064034200a4429000860f5000f9
:10163000020032000504a000010037000504a100eb
:1016400025429800640555000a0540000a08780004
:101650000a378a00646d2400040d78000537820083
:10166000254290000404a000a4429800204290006b
:101670000404a100244098000003eb00b3ff3700ee
:10168000f4368a00848f5200070036001403be002f
:1016900016378a0027378a00120a78008042eb004a
:1016a000f436820025429800f73682000709780058
:1016b000224290000404a0002441980064004100ec
:1016c000010037000000eb004f06be004f05be00d2
:1016d0004f04be000080fa00000006000000fa007f
:1016e000e00f50000800320064005000f436820021
:1016f000840f500001003100f0368a002042900033
:101700000404a100244098000080fa0000000600b4
:101710000000fa00889fbe008a9fbe000004be0041
:10172000e08f540005003a00e00f54003200320010
:1017300008007800e9ff070030003700e00f540090
:1017400004003a000900780058ff07008004780080
:101750002a003700640254009405780068fa970064
:10176000610262000200320008007800dbff07001f
:10177000090078004dff070080047800e08f5400d6
:101780001e003200888f54001b00320069bd970094
:101790000905550042d5de0088855500c2ddde0012
:1017a0000a0178008b0f5500010036000b0178000c
:1017b0004211dd0088007800090078002b00070046
:1017c000888f54000d0031004255dd000a85440029
:1017d000880f5500090036000804550042c4de0099
:1017e0004244dd000884440014378200253782001b
:1017f000048cbe00010037008804780009007800de
:101800004f05be004f04be000080fa000000060035
:101810000400fa00000f78000e027800012a780018
:101820000d0037009e037800174078001e039000db
:10183000964278000201e900854f50000400320012
:101840000080fb008582fb0005005000050037008a
:10185000070fe800060ae800e00f5100f1ff3a0028
:10186000020078000080fa00000006000000fa0084
:101870000002780002003700315a78000201e900c6
:10188000e00f5100fcff3a000080fa000000060063
:101890000000fa000002780002003700015a7800c8
:1018a0000201e900e00f5100fcff3a000080fa005d
:1018b000000006000000fa000080fa0000000600a8
:1018c0000c00fa00889fbe0000047800f4ff270097
:1018d000540798008004eb0019079800080f78005f
:1018e00028079800240c200034079800680157004e
:1018f000ceb897000e007800060007001e027800a0
:10190000094a78001e0014004f04be000080fa004f
:10191000000006003200fa00889fbe008a9fbe00c9
:101920008c9fbe00500f9800310f9800221798002e
:101930008006eb007f023700be0890008100e800bf
:10194000310f980054c2b300844f500006003a0093
:10195000010278000006eb0001c3b30000c2b3002f
:10196000b7c2b300070037000000fb00de0890009c
:1019700026fe0700e10f40006e0232008d06e800ef
:101980006c0237008402780034437800d2c2b3007e
:10199000824f53000900320005003c00804f530085
:1019a00008003200874f53000c003a000700370050
:1019b000814f530009003a00060037000c30a000a8
:1019c000f0ff37000c00a000eeff37000c10a00065
:1019d000ecff37000c20a000eaff3700620266002f
:1019e000010032000c00a100680266000100320014
:1019f0000c20a1000602fb000403b100e90f520015
:101a00000c003e00050378000002eb00ea22b8005b
:101a1000b602fb000503b100048242008602780092
:101a20009603fb000703b100e98f5300f7ff360070
:101a3000080037000002eb00a7c2b300874f530035
:101a400004003a00ae11900043027800231798007a
:101a50008502e8000003eb0036179800e6c2b300e9
:101a6000954f13000c003a000ce0a00064435300b3
:101a7000d54f130003003200050378000000eb008f
:101a800009003700ae139000470078002717980030
:101a9000301798008502e800050378000900370038
:101aa000ea00b8000080430086027800b603fb001d
:101ab0000703b100e98f5300f9ff36003017980093
:101ac000f5ff3700b6427800360f9800c2c6b30063
:101ad00082cf5200250032000f003c0036c6b30012
:101ae00086cf52007500320004003c00e0cf520067
:101af000150232006b4353000f00370046c6b30097
:101b000086cf5200170032006543430086cf520053
:101b100089003a001300370036c7b30086cf520061
:101b20001f00320007003c006443530086cf520080
:101b3000140032000643e80086cf52007e003a00cf
:101b40001300370056c7b30086cf52007e00320024
:101b50006343430086cf520077003a00054f780078
:101b60000d003700054f780079003700f00366005c
:101b7000050120000100320005002800050676005e
:101b8000d0ff3700054f78000c60a00070003700d0
:101b9000054f78000c50a0000c70a0006c003700be
:101ba000054f7800ae119000c3027800231798000b
:101bb00005047800e08f520001003a0048f2270047
:101bc000080378008002eb00010037008502e8007e
:101bd000850343000040eb00974f1000fbff3a00e5
:101be00085047800be109000e08f500003003200a2
:101bf000898f500001003100810478008002eb00e1
:101c0000890f520001003600890252006806660002
:101c100018003a0009003700de089000000220009a
:101c20007517980079fd0700fe129000e10f400043
:101c3000010032008d06e8008502e900e08f5200c5
:101c4000f5ff3a008082eb000a00370008027800b6
:101c50003400fb0004047800de089000751798003b
:101c60006afd0700fe129000e10f40000100320003
:101c70008d06e800090278008404e900e00f5200b4
:101c8000f2ff3a00e00f5600aa0132000506780084
:101c900007003700de089000000220005bfd07000f
:101ca000e10f4000010032008d06e8000c06e9005b
:101cb000e00f5600f7ff3a009e0137002e1190000a
:101cc000c20278002217980005007800cf80de005d
:101cd0000101780082017800600f9800710f980070
:101ce00002179800131798004800de00c80add00ac
:101cf00000807200004f7800700366000900320017
:101d0000e04f500007003200e14f40000500320074
:101d1000104798004e5b900026479800290020004d
:101d200003003700ce5b9000174798001900200091
:101d30000e04e800abff3700054f78000e04780072
:101d400019002000a7ff3700054f78000c0cb300e6
:101d50008c027800050cb2002a003a00e00f560011
:101d600005003d002e1090004005be004004be005e
:101d70002017980016003700f00266000e003200af
:101d8000ae1290004501be0025179800320798005a
:101d90004307980095029000cfaade0055079800ef
:101da000650798003e049000ce0490005e05900008
:101db000ee05900006003700ae139000470478004f
:101dc00027179800cfc4de00090578008a0578003f
:101dd000e00f5400e08f5c00e00f5d00e08f5d00dd
:101de00025003d003c00b3006000b8006011b80061
:101df00008045000898458000a0559008b85590051
:101e00001d003700e00f560005003d002e10900029
:101e10004005be004004be002017980016003700a1
:101e2000f00266000e003200ae1290004501be00c6
:101e30002517980072079800030f98000003eb0025
:101e4000160f98008003eb00270f98007e04900087
:101e50008e0c90001e0d9000ae0d90000600370015
:101e60002e109000400478002017980009002000f0
:101e70000a0020000b002000be109000e08f5000f0
:101e800009003a001200200032179800e00f5400b9
:101e9000e08f5c00e00f5d00e08f5d00020032002b
:101ea0008001eb00331798008c027800050cb2001b
:101eb000650f9800050420006e0b9000850f5300fd
:101ec0002c00320003003c00e00f530008003200f9
:101ed0003c00370005082000ee0b9000858f530072
:101ee00010003200050c2000858f530035003a00a9
:101ef000464d240015c0b3003600be003601be00ba
:101f00000040e10001c8e10002d0e10003d8e10097
:101f10002b0039008542e800f4cf5200f6ff3a006a
:101f20002700370015c0b300000120000100200089
:101f30006011b8000040e10001c8e10002d0e100fa
:101f400003d8e1001e003900460020000000d00048
:101f50008180d2000281d2008381d2000603e90091
:101f6000faff3a008542e800f0cf5200f1ff3a0054
:101f70001300370015c0b3008000200001002000ce
:101f80006011b8000040e10001c8e10002d0e100aa
:101f900003d8e1000a003900370020000000d0001b
:101fa0008180d2000281d2008381d2008703e900c0
:101fb000faff3a008542e800f5cf5200f1ff3a00ff
:101fc000054f78009e02fb003e109000808f52006b
:101fd00002003d00004f780004003700be10900062
:101fe000858f500001003d0035179800e00f52002a
:101ff00003003200e3026600010032000402e9003f
:102000000500240085026600060032003e119000a3
:10201000820f520002003400020252000100370019
:102020000002eb009e02fb008001eb00430f9800d2
:10203000850f52000200340085025200450f9800bf
:10204000640266002c003200e20266006102660053
:10205000e08f520006003200b0022000e00f520074
:10206000010032000080e800de0890000400370024
:10207000e00f520006003200de089000000220004f
:1020800062fc0700e10f4000010032008d06e8000d
:102090004e0a9000e00f5200900032000802be008d
:1020a0000a03be00ce0c9000de0890000003200062
:1020b00044179800751798005617980067179800ee
:1020c00052fc07004e129000fe1290005e1390002a
:1020d000ee139000e10f4000010032008d06e80091
:1020e0008904e900f0ff3a00490f98000605be0098
:1020f0000404be0079003700ce0a9000e08f520041
:10210000180032006802660016003a000802be009d
:102110000a03be00ce0c9000de08900000022000f2
:10212000441798007517980056179800671798007d
:1021300036fc07004e129000fe1290005e139000d5
:10214000ee139000e10f4000010032008d06e80020
:102150008904e900f0ff3a00490f98000605be0027
:102160000404be00e202660061026600e08f5200d5
:1021700006003200b0022000e00f520001003200e1
:102180000080e800de08900004003700e00f5200f5
:1021900052003200de089000000220001bfc070005
:1021a000e10f40004d0032008d06e8004b00370083
:1021b0003e1390000603e90036179800ee0b9000de
:1021c0000c0420008c8f53002e00320003003c00d2
:1021d000e08f530008003200390037000408200067
:1021e0006e089000840f500012003200040c200092
:1021f000840f500032003a00be109000430add0008
:10220000c24c2400020242005403be004402be003d
:102210000800be000a01be0067020700a4002000fb
:10222000050020006033b8006c02070004c3b3004f
:102230002200370034f12700ae029000e08f5200f8
:102240000100320024f027003e139000c232dd006e
:102250000800be000a01be008502e9000500330047
:102260008301d1000281d3008180d3000080d3009c
:10227000f9ff37006f00600000004200104f780047
:102280000f003700be139000e33ab8000800be000c
:102290000a01be00040678000c06e90005003300c0
:1022a0008301d1000281d3008180d3000080d3005c
:1022b000f9ff37006742600000c3b300004f4200df
:1022c0001e00fb00de089000d0fb0700e10f40007d
:1022d000060032008d06e800040037008c0078000c
:1022e0000102b200210798000c1f98003e119000d7
:1022f000e00f5100aeff3a000e1e90006806660027
:102300000c003200ce099000e08f5100090034002b
:1023100003067800de08900000022000bbfb0700e7
:10232000e10f4000010032008d06e8000c06e900d4
:10233000f8ff3a003e0a900014407800004f780001
:10234000e04f50007cfd3a000d0078004f06be00c3
:102350004f05be004f04be000080fa0000000600da
:102360000000fa00881f7800000478003800900010
:10237000000278001420b200e10f520005003a007c
:102380000002eb001404980028029000040c78006e
:1023900019003700800278002520b2000000eb0011
:1023a00024202000848f520016003a00a8009000dc
:1023b000808f50001300320018019000800f5100f0
:1023c000100032004800900006010700180290003b
:1023d000840f500003003200380290000403b30061
:1023e000340498000002eb001404980028029000c6
:1023f000040c7800380090000002b20001003200a6
:102400000080eb004f0478000080fa000000060016
:102410000200fa00889fbe00004f78000104780097
:1024200038029000840278000504b20002003200f5
:102430000000fb0033003700e202620005003a00b2
:102440000403b30034049800150498000080eb00e6
:102450002c003700d8049000e08f540006003a00aa
:10246000120020008e00780048009000dd00070078
:102470001904980022003700a8029000e08f520053
:1024800008003a00b56f240025049800050c780078
:102490002500200055049800150498000430a00081
:1024a0003404980018019000a800900048009000a3
:1024b000cc000700280290008082eb0015049800f1
:1024c0001e4a7800040ce800a4c0b3009e4f12001e
:1024d0000b003a00380290000410b20008003200ed
:1024e00018019000a800900048009000bd0007006f
:1024f0000002eb001404980028029000040c7800fd
:102500001e00fb004f04be000080fa000000060021
:102510000000fa00881f78008a9fbe008c9fbe00d2
:1025200000047800110020006011b8001800780045
:102530009b0007000006be00210020006011b800cb
:1025400018007800960007000005be008000eb0030
:102550000c01be0018007800910007000a00be00c0
:102560004f06be004f05be004f0478000080fa0001
:10257000000006000000fa00881f780000047800c0
:10258000110020006011b80048009000840007008e
:1025900018029000e00f520002003d000002eb0024
:1025a000140498002802900098029000e00f520056
:1025b00007003200380290000420b200040032000c
:1025c000612ab9000000420081804a000300370000
:1025d000612ab90004005000858058004f0478003b
:1025e0000080fa00000006000400fa00881f78004e
:1025f00000047800380290000440a10034049800e0
:1026000028029000e00f520009003a0048009000b4
:1026100063000700010060000082ea0004f0a700e8
:102620000402ea000400e9004f80de0048003700a1
:10263000e18f500005003200e28f500008003200a8
:10264000e08f500010003200400037000800780092
:10265000020f780013079800c6ff07000600370036
:1026600008007800020f7800130798003cff07006d
:1026700068004400a6ff07001e0178009e0190003c
:10268000020140008381480008007800020f7800b2
:1026900013079800b7ff07001e0178009e01900005
:1026a000000251008182590003003200380390007b
:1026b00006b0a0003604980038039000630363005e
:1026c000e10f53000d003a00e00f5200e08f5a0076
:1026d0000a003500180390006130b900800f5200e5
:1026e000818f5a0005003c00040353001604980033
:1026f000180c42000000eb00150037003802900073
:102700000420b2000900320018029000e00f5200cd
:102710000600320008007800020f780013079800c6
:102720000fff07009e0190001e0178008000eb0063
:102730001104980028029000040c780048009000d2
:10274000170007004f88de00010037000080eb0013
:102750004f0478000080fa00000006000000fa0034
:1027600004118000e00f520007003d0004402000eb
:102770001511800005026200e00f520002003200d5
:102780002302ab00feff32000040da00feff3700fc
:102790000000fa0000c0da000080fa000000060025
:1027a0000a00fa0044002000040f78001007980087
:1027b0002207980033079800410798000e00780020
:1027c000f3ff07002e009000be0090000080fa008a
:1027d000000006000000fa0000c0da000080fa00e5
:1027e000000006000a00fa00e20f500022003e003e
:1027f00074388200e10f5200060032008723200067
:10280000462320002423200005232000e08f5300ce
:1028100004003a00872220004622200024222000c3
:1028200005222000000028001500600003003a0087
:10283000800b780007002800958a7300054020006f
:102840009482620001003a0014a0a0008202780085
:1028500006003700940378000710b200fdff320035
:10286000b103fb00070b78008502e900e08f5200fe
:10287000f8ff3a000800370034002000040f780009
:102880001007980021079800320798000e00780082
:10289000d0ff07003e019000020078000080fa009f
:1028a000000006000000fa00889fbe008004780047
:1028b00080388200e00f500004003a000f0007004b
:1028c0000084eb00e00f50000800350088388200db
:1028d000e08f5400050032000900440007000700a3
:1028e000e00f500001003d000084eb00080078007c
:1028f0004f04be000080fa00000006000000fa004d
:10290000e00f500004003a000400200084388a00e0
:1029100000027800060037000082eb00050020006e
:10292000850f500002003e0080388a000002eb0054
:10293000040078000080fa00000006000000fa00a1
:10294000889fbe008a9fbe003004be002005be00e6
:102950000404440085844c0006054d0087854d0025
:102960000898be000a90be000440e10005c8e100de
:1029700006d0e10007d8e100020031006800400005
:102980001008e8004f05be004f04be000080fa00aa
:10299000000006001000fa00889fbe008a9fbe005b
:1029a0000605be000404be003002be002003be00c7
:1029b000049fbe000697be000802520089825a009a
:1029c0000a035b008b835b0044079800550798005f
:1029d00066079800770798000498be000698be0026
:1029e000110020003e02be002e03be000820e100c0
:1029f00009a8e1000ab0e1000bb8e10001003900cc
:102a00008000eb00108810004f05be004f04be0090
:102a10000080fa00000006001400fa00889fbe0043
:102a20008a9fbe008c9fbe00590007000605be00ad
:102a30000404be000006eb004c0798003c07980019
:102a40002c0798001c0798000c0f78000d0420003c
:102a50004e039000be029000860343002e029000b9
:102a6000e00f530003003d002a000700b3ff0700fa
:102a70000200370027000700c6ff0700ce029000c3
:102a8000150f9800e08f520009003500450007003f
:102a900014002000050020006033b8000000720020
:102aa0008180720002017300838173003800070087
:102ab0000c06e8008d0f5600e5ff3a001e0a900054
:102ac000e00f520004003d000802be000a03be00f1
:102ad0000e00780099ff07004eba9700e00f5200f1
:102ae00006003a003e04be002e05be0058079800be
:102af000690798007a0798000b0f980029000700d3
:102b00004f06be004f05be004f04be000080fa0015
:102b1000000006004f2bde00870373004707980074
:102b20004f23de008582420085027300350798003e
:102b30009e0290004f2bde0004024200040273004c
:102b4000240798001e0278004f23de008582420091
:102b50008502730015079800120007004f18de0069
:102b600004024200000f72000e0007000000400047
:102b70008180480002014900838149000400070068
:102b80000802be000a03be000e0078000000060026
:102b9000500798006107980072079800030f98008b
:102ba000000006005e009000ee0090007e019000a4
:102bb0008e099000000006000000fa00881f7800cf
:102bc00018002000881f780093ff07008f87e90016
:102bd0004f0478000080fa00000006000000fa00b0
:102be000801feb008cff07008f87e9000080fa0050
:102bf000000006000000fa00889fbe008a9fbe0009
:102c0000e00f5000e08f5800e00f5900e08f5900ae
:102c10000c003d006044b8006055b800000054004e
:102c200081805c0002015d0083815d00180020004e
:102c30001600070008003d00190007000004eb0023
:102c4000050037000004eb001000070002003d0003
:102c50001300070018002000d7ff0700e00f540002
:102c6000060032006022b8006033b8000000520055
:102c700081805a0002015b0083815b004f05be002a
:102c80004f04be000080fa0000000600e00f520072
:102c9000e08f5a00e00f5b00e08f5b000000060051
:102ca0006044b8006055b8000402540085825c009e
:102cb00006035d0087835d00000006000000fa0047
:102cc000889fbe008a9fbe008c1f7800e00f5000d6
:102cd000e08f5800e00f5900e08f59000d003d00d3
:102ce0006044b8006055b8000000540081805c006a
:102cf00002015d0083815d001c0020000820e100ce
:102d000009a8e1000ab0e1000bb8e1000d003d00a8
:102d1000080037000006eb00e00f5200e08f5a0079
:102d2000e00f5b00e08f5b0006003d006044b800f0
:102d30006055b8000402540085825c0006035d0003
:102d400087835d00a5ff0700e00f560006003200f4
:102d50006022b8006033b8000000520081805a0041
:102d600002015b0083815b004f0678004f05be00c7
:0c2d70004f04be000080fa0000000600c6
:020000040000fa
:102d7c0041520000434300004f5300005f430000ea
:102d8c004f52000044490000432000002d20000059
:102d9c0046610000746100006c2000006572000048
:102dac00726f0000722100000a0000002020000059
:102dbc00312e0000302000003c2000007c5400002c
:102dcc007c2e00000a00000041520000435300001a
:102ddc00494e00005f4300004f5200004449000080
:102dec00432000002d2000004661000074610000ab
:102dfc006c20000065720000726f000072210000f0
:102e0c000a0000004c4e00005f4300004f520000cf
:102e1c0044490000432000002d20000046610000c2
:102e2c00746100006c20000065720000726f00007d
:102e3c00722100000a00000020200000496e0000f2
:102e4c00707500007420000061720000677500004e
:102e5c006d6500006e74000020580000203c0000de
:102e6c003d200000302e0000300a0000005200000f
:102e7c00385f0000554e0000494600004f520000dc
:102e8c004d5f000030310000202d00002046000076
:102e9c0061740000616c000020650000727200001b
:102eac006f720000210a0000002000002049000081
:102ebc006e7000007574000020760000616c0000dc
:102ecc0075650000206f000066200000534500006f
:102edc0045440000203d0000203000002e0a000078
:102eec000053000051520000545f0000434f00009b
:102efc005244000049430000202d000020460000f1
:102f0c0061740000616c00002065000072720000aa
:102f1c006f720000210a0000002000002058000001
:102f2c00203c0000203000002e0a000000000000b1
:102f3c00db0f0000493f000038630000ed3e00004d
:102f4c00b0db00007a3e0000d5ad0000fe3d000075
:102f5c00deaa00007f3d0000aeea0000ff3c00004e
:102f6c00abfa00007f3c0000abfe0000ff3b000012
:102f7c00abff00007f3b0000ebff0000ff3a0000be
:102f8c00fbff00007f3a0000ffff0000ff3900004c
:102f9c000000000080390000000000000039000033
:102fac000000000080380000000000000038000025
:102fbc000000000080370000000000000037000017
:102fcc000000000080360000000000000036000009
:102fdc0000000000803500000000000000350000fb
:102fec0000000000803400000000000000340000ed
:102ffc0000000000803300000000000000330000df
:10300c0000000000803200000000000000320000d0
:10301c0000000000803100000000000000310000c2
:10302c0000000000803000000000000000300000b4
:10303c0000000000802f000000000000002f0000a6
:10304c0000000000802e000000000000002e000098
:10305c0000000000802d000000000000002d00008a
:10306c0000000000802c000000000000002c00007c
:10307c0000000000802b000000000000002b00006e
:10308c0000000000802a000000000000002a000060
:10309c000000000080290000000000000029000052
:1030ac000000000080280000000000000028000044
:1030bc000000000080270000000000000027000036
:1030cc000000000080260000000000000026000028
:1030dc00000000008025000000000000002500001a
:1030ec00000000008024000000000000002400000c
:1030fc0000000000802300000000000000230000fe
:10310c0000000000802200000000000000220000ef
:10311c004c090000d33f0000f25a0000a43f00000d
:10312c00020b0000913f00005b410000883f000053
:10313c002b100000843f000005040000823f0000bb
:10314c0001010000813f000040800000803f000032
:10315c0010400000803f000004200000803f000071
:10316c0001100000803f000000080000803f0000bc
:10317c0000040000803f000000020000803f0000bf
:10318c0000010000803f000080000000803f000034
:10319c0040000000803f000020000000803f000045
:1031ac0010000000803f000008000000803f00007d
:1031bc0004000000803f000002000000803f00007f
:1031cc0001000000803f000001000000803f000073
:1031dc0000000000803f00004c090000d33f0000bd
:1031ec00f25a0000a43f0000020b0000913f0000c7
:1031fc005b410000883f00002b100000843f000062
:10320c0005040000823f000001010000813f000026
:10321c0040800000803f000010400000803f000014
:10322c0004200000803f000001100000803f0000df
:10323c0000080000803f000000040000803f0000f8
:10324c0000020000803f000000010000803f0000f1
:10325c0080000000803f000040000000803f000024
:10326c0020000000803f000010000000803f0000a4
:10327c0008000000803f000004000000803f0000b8
:10328c0002000000803f000001000000803f0000b1
:10329c0001000000803f000000000000803f0000a3
:1032ac00db0f0000493f000038630000ed3e0000da
:1032bc00b0db00007a3e0000d5ad0000fe3d000002
:1032cc00deaa00007f3d0000aeea0000ff3c0000db
:1032dc00abfa00007f3c0000abfe0000ff3b00009f
:1032ec00abff00007f3b0000ebff0000ff3a00004b
:1032fc00fbff00007f3a0000ffff0000ff390000d9
:10330c0000000000803900000000000000390000bf
:10331c0000000000803800000000000000380000b1
:10332c0000000000803700000000000000370000a3
:10333c000000000080360000000000000036000095
:10334c000000000080350000000000000035000087
:10335c000000000080340000000000000034000079
:10336c00000000008033000000000000003300006b
:10337c00000000008032000000000000003200005d
:10338c00000000008031000000000000003100004f
:10339c000000000080300000000000000030000041
:1033ac0000000000802f000000000000002f000033
:1033bc0000000000802e000000000000002e000025
:1033cc0000000000802d000000000000002d000017
:1033dc0000000000802c000000000000002c000009
:1033ec0000000000802b000000000000002b0000fb
:1033fc0000000000802a000000000000002a0000ed
:10340c0000000000802900000000000000290000de
:10341c0000000000802800000000000000280000d0
:10342c0000000000802700000000000000270000c2
:10343c0000000000802600000000000000260000b4
:10344c0000000000802500000000000000250000a6
:10345c000000000080240000000000000024000098
:10346c00000000008023000000000000002300008a
:10347c00000000008022000000000000002200007c
:10348c00f3040000353f00009be80000213f0000e2
:10349c000e1300001d3f00008adc00001b3f0000e3
:1034ac00d68e00001b3f0000687b00001b3f000015
:1034bc008c7600001b3f0000557500001b3f000080
:1034cc00087500001b3f0000f47400001b3f000057
:1034dc00ef7400001b3f0000ee7400001b3f000067
:1034ec00ee7400001b3f0000ee7400001b3f000058
:1034fc00ee7400001b3f0000ee7400001b3f000048
:10350c00ee7400001b3f0000ee7400001b3f000037
:10351c00ee7400001b3f0000ee7400001b3f000027
:10352c00ee7400001b3f0000ee7400001b3f000017
:10353c00ee7400001b3f0000ee7400001b3f000007
:10354c00ee7400001b3f0000ee7400001b3f0000f7
:10355c00ee7400001b3f0000ee7400001b3f0000e7
:10356c00ee7400001b3f0000ee7400001b3f0000d7
:10357c00ee7400001b3f0000ee7400001b3f0000c7
:10358c00ee7400001b3f0000db0f0000493f000001
:10359c0038630000ed3e0000b0db00007a3e000016
:1035ac00d5ad0000fe3d0000deaa00007f3d00000e
:1035bc00aeea0000ff3c0000abfa00007f3c0000cc
:1035cc00abfe0000ff3b0000abff00007f3b0000a8
:1035dc00ebff0000ff3a0000fbff00007f3a000009
:1035ec00ffff0000ff3900000000000080390000e0
:1035fc0000000000003900000000000080380000ce
:10360c0000000000003800000000000080370000bf
:10361c0000000000003700000000000080360000b1
:10362c0000000000003600000000000080350000a3
:10363c000000000000350000000000008034000095
:10364c000000000000340000000000008033000087
:10365c000000000000330000000000008032000079
:10366c00000000000032000000000000803100006b
:10367c00000000000031000000000000803000005d
:10368c00000000000030000000000000802f00004f
:10369c0000000000002f000000000000802e000041
:1036ac0000000000002e000000000000802d000033
:1036bc0000000000002d000000000000802c000025
:1036cc0000000000002c000000000000802b000017
:1036dc0000000000002b000000000000802a000009
:1036ec0000000000002a00000000000080290000fb
:1036fc0000000000002900000000000080280000ed
:10370c0000000000002800000000000080270000de
:10371c0000000000002700000000000080260000d0
:10372c0000000000002600000000000080250000c2
:10373c0000000000002500000000000080240000b4
:10374c0000000000002400000000000080230000a6
:10375c000000000000230000000000008022000098
:10376c000000000000220000db0f0000493f0000b9
:10377c0038630000ed3e0000b0db00007a3e000034
:10378c00d5ad0000fe3d0000deaa00007f3d00002c
:10379c00aeea0000ff3c0000abfa00007f3c0000ea
:1037ac00abfe0000ff3b0000abff00007f3b0000c6
:1037bc00ebff0000ff3a0000fbff00007f3a000027
:1037cc00ffff0000ff3900000000000080390000fe
:1037dc0000000000003900000000000080380000ec
:1037ec0000000000003800000000000080370000de
:1037fc0000000000003700000000000080360000d0
:10380c0000000000003600000000000080350000c1
:10381c0000000000003500000000000080340000b3
:10382c0000000000003400000000000080330000a5
:10383c000000000000330000000000008032000097
:10384c000000000000320000000000008031000089
:10385c00000000000031000000000000803000007b
:10386c00000000000030000000000000802f00006d
:10387c0000000000002f000000000000802e00005f
:10388c0000000000002e000000000000802d000051
:10389c0000000000002d000000000000802c000043
:1038ac0000000000002c000000000000802b000035
:1038bc0000000000002b000000000000802a000027
:1038cc0000000000002a0000000000008029000019
:1038dc00000000000029000000000000802800000b
:1038ec0000000000002800000000000080270000fd
:1038fc0000000000002700000000000080260000ef
:10390c0000000000002600000000000080250000e0
:10391c0000000000002500000000000080240000d2
:10392c0000000000002400000000000080230000c4
:10393c0000000000002300000000000080220000b6
:10394c000000000000220000db0f0000493f0000d7
:10395c0038630000ed3e0000b0db00007a3e000052
:10396c00d5ad0000fe3d0000deaa00007f3d00004a
:10397c00aeea0000ff3c0000abfa00007f3c000008
:10398c00abfe0000ff3b0000abff00007f3b0000e4
:10399c00ebff0000ff3a0000fbff00007f3a000045
:1039ac00ffff0000ff39000000000000803900001c
:1039bc00000000000039000000000000803800000a
:1039cc0000000000003800000000000080370000fc
:1039dc0000000000003700000000000080360000ee
:1039ec0000000000003600000000000080350000e0
:1039fc0000000000003500000000000080340000d2
:103a0c0000000000003400000000000080330000c3
:103a1c0000000000003300000000000080320000b5
:103a2c0000000000003200000000000080310000a7
:103a3c000000000000310000000000008030000099
:103a4c00000000000030000000000000802f00008b
:103a5c0000000000002f000000000000802e00007d
:103a6c0000000000002e000000000000802d00006f
:103a7c0000000000002d000000000000802c000061
:103a8c0000000000002c000000000000802b000053
:103a9c0000000000002b000000000000802a000045
:103aac0000000000002a0000000000008029000037
:103abc000000000000290000000000008028000029
:103acc00000000000028000000000000802700001b
:103adc00000000000027000000000000802600000d
:103aec0000000000002600000000000080250000ff
:103afc0000000000002500000000000080240000f1
:103b0c0000000000002400000000000080230000e2
:103b1c0000000000002300000000000080220000d4
:103b2c000000000000220000010000005e300000d8
:103b3c0001000000001000006830000001000000cf
:103b4c0001100000a430000001000000171000005c
:103b5c00be3000000500000018100000f03000001e
:103b6c0003000000001200001431000004000000eb
:103b7c008012000044310000070000000014000017
:103b8c008c3100000700000001140000d43100004b
:103b9c0007000000021400001c32000007000000a7
:103bac00031400005e320000030000000016000049
:103bbc00803200000300000001160000a232000059
:103bcc000300000002160000c432000003000000d5
:103bdc0003160000fa320000070000000018000075
:103bec00503300000700000001180000a63300004d
:103bfc000700000002180000fc3300000700000062
:103c0c00031800003e34000003000000001a0000fe
:103c1c007834000009000000011a0000e2340000b2
:103c2c0009000000021a00004c35000009000000d9
:103c3c00031a000094350000010000000120000070
:103c4c009c3500000100000002200000a43500009b
:103c5c000100000003200000ac3500000100000052
:103c6c0004200000b435000001000000003000000a
:103c7c00bc3500000100000001300000c43500001c
:103c8c000100000002300000cc35000001000000f3
:103c9c0000400000d435000001000000646000000a
:103cac00dc350000010000006c600000e435000011
:103cbc000100000078600000ec35000001000000fd
:103ccc007a600000f435000001000000ff60000085
:103cdc00fe35000006000000106400002e360000c7
:103cec000100000002650000040000000500000057
:103cfc00060000000a0000000e0000001200000088
:103d0c000400000005000000090000000d00000088
:103d1c00110000001500000025000000000200004a
:103d2c000000000000030000000000000004000080
:103d3c0000000000000500000000000080010000f1
:103d4c000000000080020000000000008003000062
:103d5c0000000000800400000000000000010000d2
:103d6c000101000001000000010000000001000042
:103d7c000101000001010000000000000000000033
:103d8c000000000001000000010000004c65000074
:103d9c006e670000746800003a200000256900007e
:083dac000d0a000000000000f8
:020000040000fa
:103db4000a00fa0020079800320798004307980089
:103dc4002e0290005402900014019000020f78001b
:103dd4001e027800e00f520084003200ae02900010
:103de4003e039000040520008432b80074024200af
:103df40004824200144278000482fb009e024200c6
:103e04002e0290006402900014029000848f5200ed
:103e140078003e002e029000940290002e03900041
:103e2400be03900004052000843ab80074024200e6
:103e340004024300144278000482fb001e02420084
:103e4400e622b8000482420014027800780242009c
:103e5400340290001402be0024479800ae02900081
:103e64003e039000040520008432b800048242001e
:103e74000406b0008082eb00050a7800ae029000d0
:103e84003e039000040520008432b80004824200fe
:103e9400f602420054c8b300844a7800ae0290008f
:103ea4003e039000040520008432b8007e024200e4
:103eb40004824200144278002e039000be03900056
:103ec400050520008539b80082027800fc82420092
:103ed40085024300950078002e039000be039000f5
:103ee400050520008539b80082027800f48242007a
:103ef40085024300154078002e039000be03900015
:103f0400050520008539b80082027800f482420059
:103f1400850243009542900006002000475020008f
:103f24008101780000417800854078002e009000df
:103f3400a2040700ae0290003e0390000405200096
:103f44008432b80004824200780342000400200056
:103f540045502000048bbe00ae0290003e0390004a
:103f6400040520008432b8002406b0000482420014
:103f740014027800e00f52000a003200ae029000f2
:103f84003e039000040520008432b8002406b000eb
:103f94000482420014027800ae4090002e0090008b
:103fa40004000100ae0290003e03900004052000ce
:103fb4008432b80078024200048242001403be0036
:103fc4000400200045502000840f5300858f5b00bf
:103fd40009003a003e0290000442780084407800d0
:103fe4002e009000df0107000300370000000000ee
:103ff40001003700000000000080fa000000060005
:104004000400fa00100798000042eb00044f780007
:10401400040037009e4078001e009000d101070084
:104024001e4fe8001e427800e34f5200f9ff3600ad
:104034000080fa00000006000c00fa004007980017
:10404400214f98002e4a90000483fb00ce0290007a
:10405400040520008432b8000402b0000482420047
:104064001402be00e00f5200e08f5a0010003a0024
:104074002e4a90000480fb002e4a90000483fb002b
:10408400ce029000040520008432b8004402b0003f
:10409400048242001402be00ce03900006052000f4
:1040a4008603b800068343000602b000048bbe00fa
:1040b4002e4a90000483fb00ce02900004052000e9
:1040c4008432b8000402b000048242001402be002c
:1040d40024079800350798002e4a90008482fb003c
:1040e40004052000842ab8008402b000ce029000a7
:1040f400848042002e4a90000483fb00ce0290008c
:10410400040520008432b8007e024200048242008a
:10411400944378002e4a90000483fb00ce02900062
:10412400040520008432b8007c024200048242006c
:10413400140078006402470016c0b30015c0b30031
:104144008101780007417800800078004e009000db
:104154007cd10200000000000002be00048fbe00fb
:104164001e02be00e00f5200e08f5a00020032002f
:104174001e02be00010037006022b8000400be0029
:104184000080fa00000006000e00fa0050079800b4
:10419400414f9800040220000500200024079800e5
:1041a400350798004e4a90008482fb0004052000e5
:1041b400842ab8008402b000de0290000481420028
:1041c4004e4a90000483fb00de02900004052000a8
:1041d4008432b8007e024200048242001440780017
:1041e4004e4a90000483fb00de0290000405200088
:1041f4008432b8007c0242000482420094007800b9
:10420400e80247006402470017c0b30016c0b300b9
:1042140082017800004178005e009000eacf02003d
:10422400000000000002be00048fbe001e02be009b
:10423400e00f5200e08f5a00020032001e02be005e
:10424400150037004e4a90000480fb002e029000b7
:10425400be029000de039000060520008603b8002d
:10426400068343000602b000048bbe004e4a900051
:104274000483fb00de029000040520008432b800b1
:104284000482420046022000040343006022b80076
:10429400048bbe006022b8000400be000080fa0057
:1042a400000006001000fa0030079800014f980043
:1042b4005207980063079800740798000e4a90000c
:1042c4000483fb00be029000040520008432b80081
:1042d4004402b000048242001403be005e02900057
:1042e400ee0290000603420087834a000402200085
:1042f40005002000840f5300858f5b000200360008
:1043040000c2eb005a0037000e4a90000483fb0001
:10431400be029000040520008432b8004402b000bc
:10432400048242001403be005e029000ee0290007c
:104334000603420087834a000e4a90000480fb0073
:10434400be029000040520008402b8000402b000fc
:10435400048242001402be00840f5300858f5b0068
:104364000200360000c2eb00410037000e4a900004
:104374000483fb00be029000040520008432b800d0
:104384004402b000048242001403be0016079800e1
:10439400270798000042eb00044f7800170037000d
:1043a4009e4378000782fb00fe02900004804200d6
:1043b4000e4a90008480fb001e4278000483fb00b8
:1043c400070020001e029000ae0290000602420088
:1043d40087824a003e039000070520008709b80041
:1043e40082037800048243008402b0000402430084
:1043f40014427800044878001e4fe8001e427800fa
:104404000483fb00070020005e029000ee0290008f
:10441400840f5300858f5b00e1ff39000e4a900042
:104424000480fb000e4a90000483fb00be0290004f
:10443400040520008432b8004402b0000482420023
:104444001403be005e029000ee02900006024200d9
:1044540087824a00be039000060520008603b80048
:10446400068343004602b000048bbe000042eb000a
:10447400044078000080fa00000006001000fa00f2
:1044840030079800014f980052079800630798007e
:10449400740798000e4a90000483fb00be0290004b
:1044a400040520008432b8004402b00004824200b3
:1044b4001403be005e029000ee0290000603420068
:1044c40087834a000402200005002000840f530063
:1044d400858f5b000200360000c2eb00410037000c
:1044e4000e4a90000483fb00be02900004052000e5
:1044f4008432b8004402b000048242001403be00b7
:1045040016079800270798000042eb00044f780034
:10451400170037000e4a90008480fb001e4278008a
:104524000483fb00070020001e029000ae029000ee
:104534000602420087824a009e4378000783fb00fc
:10454400fe03900006834300164378003e0090006b
:10455400070520008709b80082037800870340001c
:10456400048243008402b000064a78001e4fe8002b
:104574001e4278000483fb00070020005e029000c6
:10458400ee029000840f5300858f5b00e1ff390039
:104594000e4a90000480fb000e4a90000483fb0046
:1045a400be029000040520008432b8004402b0002a
:1045b400048242001403be005e029000ee029000ea
:1045c4000602420087824a00be03900006052000ce
:1045d4008603b800068343004602b000048bbe0085
:1045e4000042eb00044078000080fa00000006005e
:1045f4000e00fa00881f78001007980041479800c1
:104604005247980033079800044f980056079800c3
:10461400670798000e02e800840178005e4190006c
:10462400ce4090001e0090008e01070000427800ea
:10463400044f78001e427800e04f520007003a0011
:104644005e429000e14f520004003a001e42900086
:10465400844078001e009000420007001e4278004b
:10466400e04f52002b003a005e429000e24f5200ad
:1046740028003a001e4290000484fb001e42900071
:104684000483fb009e029000040520008432b800dd
:104694000406b0000482420014027800040078008a
:1046a400c2e4020000000000000278001e03900033
:1046b400050520008544b80088027800850243007f
:1046c4000506b000840a78001e4290000483fb00b3
:1046d4009e029000040520008432b8000482420047
:1046e400f602420054c8b300844a78001e42900087
:1046f4000483fb009e029000040520008432b8006d
:1047040004824200780242005e039000ee039000af
:10471400068abe005e039000ee0390000e4a9000ed
:10472400be0190004e419000de4090001e009000bb
:10473400a202070000427800044f78001e4278006d
:10474400e04f52000200320000c2eb0001003700cb
:104754000042eb00044078004f0478000080fa0027
:10476400000006000800fa0020079800614798003e
:104774008042eb000042eb008001eb000041eb00c3
:10478400ee4090002e0090002c0007006022b8003c
:10479400048fbe000f0037006e4290000483fb00bc
:1047a400ae029000040520008432b8000482420066
:1047b4001e02420085022000848242000042eb0077
:1047c400844a780014002000050020001e0f4200d7
:1047d4005e974a001e03be00f4012000050020007d
:1047e400840f5300858f5b00ebff36006e42900010
:1047f4000483fb00ae029000040520008432b8005c
:1048040004824200f40242000042eb009442980009
:104814006e4290000483fb00ae0290000405200069
:104824008432b80004824200780342006022b80057
:10483400048bbe000080fa00000006000800fa00a5
:10484400881f7800000f78002147980032479800ad
:104854002307980064479800754798007e429000ab
:10486400e24f5200090032007e429000e34f5200b2
:10487400060032007e429000e44f520003003200f2
:104884007e429000e54f520015003a002e429000ff
:104894000484fb002e4290000481fb0003002000ee
:1048a4006033b80004b1280005192000a1ed2100ef
:1048b4001e007800e2e3020000000000000278001d
:1048c4001e037800050520008544b800880278009e
:1048d400850243000506b000840a780015003700fd
:1048e4002e4290000484fb002e4290000483fb00bf
:1048f4009e027800040520008432b8000406b0004b
:10490400048242001402780004007800c2e4020029
:1049140000000000000278001e0378000505200056
:104924008544b80088027800850243000506b0007b
:10493400840a78002e4290000483fb009e027800d3
:10494400040520008432b80004824200740242004c
:10495400be429000054a78002e4290000483fb007a
:104964009e027800040520008432b80004824200cc
:104974007c024200ae029000050a78002e429000ac
:104984000483fb009e027800040520008432b800f2
:10499400048242007e024200ee429000054a780002
:1049a4002e4290000483fb009e0278000405200040
:1049b4008432b8000482420076024200fe42900033
:1049c400054a78002e4290000483fb009e02780082
:1049d400040520008432b80004824200f60242003a
:1049e4000042eb00944298002e4290000483fb00a6
:1049f4009e027800040520008432b800048242003c
:104a040006022000040343006022b800048bbe00a9
:104a14002e4290000483fb009e02780004052000cf
:104a24008432b8000482420046022000040343009a
:104a34006022b800048bbe002e4290000483fb0069
:104a44009e027800040520008432b80004824200eb
:104a540085042000848242000042eb00844a7800ee
:104a64002e4290000483fb009e027800040520007f
:104a74008432b8000482420085042000848242000b
:104a84000042eb00944298002e4290000483fb0005
:104a94009e027800040520008432b800048242009b
:104aa400a5042000848242000042eb00844a78007e
:104ab4002e4290000483fb009e027800040520002f
:104ac4008432b80004824200c60420000403430078
:104ad4006022b800048bbe002e4290000482fb00ca
:104ae4009e0278000403e800040520008432b80024
:104af400848242000042eb00844a78002e429000f7
:104b04000482fb009e0278000403e80004052000f0
:104b14008432b800848242000042eb009442980040
:104b24002e4290000483fb009e02780004052000be
:104b34008432b800048242002505200084824200a9
:104b44000042eb00844a78002e4290000483fb006c
:104b54009e027800040520008432b80004824200da
:104b64004405b0008002eb00050a78002e42900054
:104b74000483fb009e027800040520008432b80000
:104b840004824200e5052000848242000042eb00da
:104b9400844a78002e4290000483fb009e02780031
:104ba400040520008432b800048242002406b000c8
:104bb4008002eb00050a78000042eb000440780014
:104bc4004f0478000080fa00000006000800fa0094
:104bd4001007980041479800320798000042eb0004
:104be400044f7800180037001e4278000483fb004d
:104bf4009e029000040520008432b8007602420030
:104c04000482420014427800e04f52000d003a0042
:104c14003e0290001e4a78009e4278000583fb0005
:104c24009e029000040520008432b80004824200f1
:104c340074024200ce429000154298000042eb00fc
:104c4400050037001e4fe8001e427800e34f520073
:104c5400e5ff360000c2eb00044078000080fa0053
:104c6400000006000800fa00100798004147980069
:104c740052479800330798000042eb00044f780035
:104c8400330037001e4278000483fb009e0290002c
:104c9400040520008432b8007602420004824200f7
:104ca40014427800e04f5200280032001e4278007f
:104cb4000483fb009e029000040520008432b800a7
:104cc40076024200048242009442780054c8b30041
:104cd40084cf52001d0032001e4278000483fb0082
:104ce4009e029000040520008432b8007402420041
:104cf40004824200944278004e42900084cf5200d5
:104d040012003a001e4278000483fb009e029000c9
:104d1400040520008432b800740242000482420078
:104d2400944290005e42900084cf520007003a0003
:104d34003e029000e00f5200020032003e0290005a
:104d44001e4a78000042eb00050037001e4fe800c1
:104d54001e427800e34f5200caff360000c2eb0047
:104d6400044078000080fa00000006000800fa0001
:104d7400100798004147980052479800330798005d
:104d84000042eb00044f7800280037001e427800f0
:104d94000483fb009e029000040520008432b800c6
:104da400760242000482420014427800e04f52002e
:104db4001d0032001e4278000483fb009e02900016
:104dc400040520008432b8007402420004824200c8
:104dd400944278004e42900084cf520012003a0070
:104de4001e4278000483fb009e029000040520000c
:104df4008432b8007402420004824200944290005b
:104e04005e42900084cf520007003a003e029000b8
:104e1400e00f5200020032003e0290001e4a780069
:104e24000042eb00050037001e4fe8001e427800e8
:104e3400e34f5200d5ff360000c2eb000440780077
:104e44000080fa00000006000800fa00200798001d
:104e54006147980072479800ee4090002e00900041
:104e6400d814070000427800044f78001e427800ee
:104e7400e34f42000200360054c8b300120037006a
:104e84000e82e800840178007e4190009e40780004
:104e94002e009000b5ff07000042780014479800e8
:104ea4001e429000e04f52000200320000c2eb00ac
:104eb400050037002e429000844078002e009000b8
:104ec40028fe07000042eb00044078000080fa004e
:104ed400000006000600fa00000f78002147980041
:104ee400220798002e4290000483fb009e02780063
:104ef400040520008432b8000402b0000482420099
:104f04001402be00e00f5200e08f5a0004003a0081
:104f14002e0390006022b800048bbe0014003700fa
:104f24002e4290000483fb009e02780004052000ba
:104f34008432b8000402b000048242001403be00ac
:104f44002e4290000480fb009e027800040520009d
:104f54008402b8004402b000048242001402be007d
:104f64000402530085825b002e039000048bbe0074
:104f74000042eb00044078000080fa0000000600c4
:104f84000800fa00000f78002147980022079800d3
:104f9400330798002e039000be0390000402200003
:104fa40005002000840f5300858f5b00020036004b
:104fb40000c2eb000b0037002e4290000483fb007c
:104fc4009e027800040520008432b8000482420066
:104fd4000402b0002e039000be039000068abe00b7
:104fe4000042eb00044078000080fa000000060054
:104ff4001600fa00000f98002157980032579800c5
:10500400230f98000e0a9000242a9100e50f520005
:10501400070032000e0a9000a42a9100f407200031
:10502400848f52000200320000c2eb00600037009f
:105034002e529000e14f520021003a000e0a9000d7
:105044005402900094027800150798001e02900004
:10505400e00f5200090032003e5290008482fb00af
:105064001e029000848242000e0a900064029000a6
:1050740014027800848f52000200360000c2eb0054
:105084004b0037000e0a9000940290003e529000ac
:105094000483fb001e02900004024300e622b800d1
:1050a400048242001402780070024200340290002c
:1050b4001402be0004027800240798002000370080
:1050c4000e0a9000540290001403900016079800f2
:1050d4001e029000e00f5200090032003e52900080
:1050e4008482fb001e029000848242000e0a90001b
:1050f4006402900014029000848f52000200360073
:1051040000c2eb002a0037000e0a900094029000bf
:105114003e5290000483fb001e02900004024300f0
:10512400e622b800048242001402780068024200b9
:10513400340290001402be00040278002407980090
:105144000042eb006447980084c0b30074479800a1
:105154000042eb00044f78000a0037001e4278003a
:105164008482fb001e4378000682fb002e0b900015
:105174000402430014427800e882420004f77a00f3
:105184001e4fe8001e427800e74f5200f3ff36003e
:105194000e0a9000040a9300e40247008500780098
:1051a40004007800ea970200000000000042780042
:1051b400044078000080fa00000006001600fa009f
:1051c40050079800414f9800524f98007307980079
:1051d40004579800160f9800270f980004c8b300ce
:1051e400144798007e0290000442780024479800f7
:1051f4007e0290004822de00044278003447980082
:105204000e529000444798001e0a90000442780011
:10521400544798001e0a9000ae0a9000482bdd0007
:105224004822de0004027300c82ade00044278002b
:10523400644798001e0a9000ae0a9000402ade00df
:105244000500200004427800744798001e0a90006c
:10525400ae0a9000482ade000500200004427800cf
:10526400044f98000e02e800840178005e49900023
:10527400ce4890005e0090005dff07000042780079
:10528400044f78001e427800044078000080fa0041
:10529400000006003400fa00881f7800001f980000
:1052a400111f98000042eb002447980034c0b3005b
:1052b400444798000002eb00240f980034c0b30068
:1052c400444798000e1a900054029000140178008c
:1052d400020f98000e1a9000640290009402780065
:1052e400350f98000042eb00644f98000e0a9000be
:1052f400e00f52002b003200260037000e1a9000f7
:10530400940290000e0a9000e622b8000482420043
:1053140024429000e14f520002003e0000c2eb0024
:10532400a41337000e1a9000940290000e0a900005
:10533400e622b800048242001402780068024200a7
:1053440034029000240f98002e0a90001403be002b
:105354001e1a90001402780005002000840f5300e8
:10536400858f5b0005003a0014c0b30044479800e1
:105374006e4b9000364798000a0037006e4a900042
:105384000442e800644f98000e0a90000402e8000a
:10539400040f98008e0a90003e0a9000848f5200f9
:1053a400d6ff36004e429000e34f520042003a00ce
:1053b4000e1a90005402900094039000070f980076
:1053c4000e1a90006402900014019000320f9800ad
:1053d4000042eb00644f98000e0a9000e00f520068
:1053e40035003200300037000e1a9000940290000d
:1053f4000e0a9000e622b800048242002442900083
:10540400e34f520002003e0000c2eb006913370074
:105414000e1a9000940290000e0a9000e622b80042
:1054240004824200140278007002420034029000a8
:10543400240f98002e0a90001403be001e1a900038
:105444001402780005002000840f5300858f5b0050
:105454000f003a0024c0b300444798006e4a9000fd
:10546400344798000e1a9000940290000e0a90009f
:10547400e622b80004824200140278007802420056
:105484003402900094427800254798000a003700bf
:105494006e4a90000442e800644f98000e0a90009f
:1054a4000402e800040f98008e0a90003e0a90005f
:1054b400848f5200ccff36004e429000e34f5200de
:1054c40002003a0000c2eb003a1337001e1a9000a3
:1054d40034429000e84f52000a00320006002000d7
:1054e400078020000042eb008001eb004e41900059
:1054f400be4090000e1890003dfc070000c2eb0077
:105504002c133700340220000e024200840178007c
:105514004e419000be4090000e189000d1fd07004f
:1055240000427800044f780000c2eb001447980052
:105534001e427800e04f520024003a004e42900090
:10554400e14f52000a003a003e6290000483fb00df
:105554008e1a9000040520008432b80076024200be
:105564000482420014427800e44f52000d003200dd
:105574004e429000e24f520014003a003e62900006
:105584000483fb008e1a9000040520008432b800c6
:10559400760242000482420014427800e54f520031
:1055a4000a003a001e1a9000c442900004c8b300d6
:1055b40084cf520003003a0044c0b300144798005b
:1055c4000200370064c0b300144798001e429000e4
:1055d400e14f420005003a001e1a90004442900038
:1055e4000482fb004522de00144798001e4290000e
:1055f4000482fb00cfa2de0066002000070020002a
:10560400860f5200878f5a00d0123e000406010014
:10561400060037004a0237009e043700a30637000d
:10562400e00837004b093700b30d37004e429000b5
:10563400e14f520015013a001e427800e04f52003b
:1056440010003a003e6290000483fb008e1a900022
:10565400040520008432b80076024200048242002d
:1056640014427800044378000614a200064f780020
:105674009e4378000782fb000402ea004f22de000a
:10568400044f78001e427800e04f52000a003200b6
:1056940016022000078020000042eb008001eb008e
:1056a4004e419000be4090000e189000d0fb0700c1
:1056b40000c2eb00bf1237003e6290000483fb007f
:1056c4008e1a9000040520008432b8000406b0004d
:1056d4000482420014027800e10f420029003200e3
:1056e4003e6290000484fb003e6290000483fb0051
:1056f4008e1a9000040520008432b8000406b0001d
:10570400048242001402780004007800c2e402001b
:1057140000000000000278000e1b90000505200028
:105724008544b80088027800850243000506b0006d
:10573400840a78003e6290000484fb003e6290007c
:105744000481fb00030020006033b80004b128008a
:1057540005192000a1ed21000e189000e2e30200db
:1057640000000000000278000e1b900005052000d8
:105774008544b80088027800850243000506b0001d
:10578400840a78003e6290000483fb008e1a900025
:10579400040520008432b8007c02420004824200e6
:1057a40014017800320798003e6290000483fb00e5
:1057b4008e1a9000040520008432b8007e02420054
:1057c4000482420094427800054f98003e629000a3
:1057d4000483fb008e1a9000040520008432b80074
:1057e4007602420004824200144290008482fb004c
:1057f4001e1a9000444290000482fb004422de0002
:10580400044278000482fb0061026200848f52002b
:105814000a00320006002000375020000e4a900093
:10582400be0190004e419000be4090000e189000c2
:105834006ffb070000c2eb005e1237001e1a9000d7
:10584400444290000482fb000402d1000442780028
:105854000482fb000482ea006123b9007400200082
:105864000500200006007800070378008403780010
:1058740005027800070060000402630005002000b0
:10588400c022dd00040020000403be006102b80051
:105894000403730085837300261798003717980054
:1058a4001e1a9000650242002e139000be13900051
:1058b400be6290000601be00854078000e1890007c
:1058c400eefa070000427800044f78001e42780088
:1058d400e04f52000a00320006002000078020003a
:1058e4000e4a9000be0190004e419000be409000d0
:1058f4000e1890003efb070000c2eb002d1237008b
:105904003e6290000483fb008e1a90000405200080
:105914008432b800760242000482420014429000ad
:105924000482fb004422dd008442780004c2b300f8
:1059340004c27200046f98001400200005002000c7
:1059440054079800650798000b0037005e0290002a
:1059540085022000848242000042eb0004f77a00b2
:105964005e029000ee02900061024200e0824a0072
:1059740054079800650798005e039000ee039000ba
:105984007400200005002000840f5300858f5b0005
:10599400eeff3600840220000e02420084017800eb
:1059a4003e419000ce4090000e18900090fd0700fc
:1059b4003e6290008483fb003e6290000483fb00ff
:1059c4008e1a9000040520008432b800760242004a
:1059d40004824200144290000482fb000402e900a5
:1059e4004f22de00044278000e1b900005052000c3
:1059f4008539b8008202780085024300f6824200ad
:105a0400944298001e1a9000444290000482fb00c5
:105a14006102620004427800e04f5200cd1132006e
:105a24003e629000844078000e18900082f90700ce
:105a34000002be00440f9800550f98004e0a9000d3
:105a4400de0a9000e00f5200e08f5a000a00320094
:105a54004e0b9000de0b90000e4a9000be019000a9
:105a64004e419000be4090000e189000e0fa0700ee
:105a740000c2eb00cf1137003e62900084407800f2
:105a84000e18900037fb0700c91137001e4278003a
:105a9400e04f52000e003a003e6290000483fb0087
:105aa4008e1a9000040520008432b8007602420069
:105ab4000482420014427800634f6a009e427800d8
:105ac4000582fb000402ea004f22de00044f780046
:105ad4001e427800e04f52000a00320016022000f5
:105ae400078020000042eb008001eb004e41900053
:105af400be4090000e189000bdfa070000c2eb00f3
:105b0400ac1137003e6290000483fb008e1a9000b3
:105b1400040520008432b8000406b0000482420068
:105b240014027800e10f4200290032003e62900026
:105b34000484fb003e6290000483fb008e1a9000f4
:105b4400040520008432b8000406b0000482420038
:105b54001402780004007800c2e40200000000008f
:105b6400000278000e1b9000050520008544b80053
:105b740088027800850243000506b000840a780094
:105b84003e6290000484fb003e6290000481fb00ae
:105b9400030020006033b80004b128000519200078
:105ba400a1ed21000e189000e2e3020000000000c5
:105bb400000278000e1b9000050520008544b80003
:105bc40088027800850243000506b000840a780044
:105bd4003e6290000483fb008e1a900004052000ae
:105be4008432b8007c02420004824200140378002c
:105bf400360798003e6290000483fb008e1a9000e2
:105c0400040520008432b8007e024200048242006f
:105c140094437800074f98003e6290000483fb0091
:105c24008e1a9000040520008432b80076024200e7
:105c340004824200144290008482fb001e1a9000e9
:105c4400444290000482fb004422de0004427800b7
