:020000040000fa
:080000000002040000000000f2
:020000040000fa
:10000800d0020000d0020000d0020000d0020000a0
:10001800d0020000d0020000d0020000d002000090
:10002800d0020000d0020000d0020000d002000080
:1000380050680000d0020000d0020000d00200008a
:100048001e640000d0020000d0020000d0020000b0
:10005800d0020000d002000058680000d002000062
:10006800d0020000d0020000d0020000d002000040
:10007800d0020000d0020000d0020000d002000030
:1000880082680000d0020000d0020000d002000008
:10009800d0020000d0020000d0020000d002000010
:1000a800d0020000d0020000d0020000d002000000
:1000b8008a680000d0020000d0020000d0020000d0
:1000c800d0020000d0020000d0020000d0020000e0
:1000d800d0020000d0020000c4680000d002000076
:1000e800fe630000d0020000d0020000d002000031
:1000f800d0020000d0020000d0020000d0020000b0
:10010800d0020000d0020000105b0000d002000006
:10011800d0020000cc680000d0020000d00200002d
:10012800d0020000d0020000d0020000d00200007f
:10013800f6680000d0020000d0020000d0020000e3
:10014800d0020000d0020000d0020000d00200005f
:10015800d0020000d0020000d0020000d00200004f
:10016800d0020000d0020000d0020000d00200003f
:10017800d0020000d0020000d0020000d00200002f
:10018800d0020000d0020000d0020000d00200001f
:10019800d0020000d0020000d0020000d00200000f
:1001a800d0020000d0020000d0020000d0020000ff
:1001b800d0020000d0020000d0020000d0020000ef
:1001c800d0020000d0020000d0020000d0020000df
:1001d800d0020000d0020000d0020000d0020000cf
:1001e800d0020000d0020000d0020000d0020000bf
:1001f800d0020000d0020000d0020000d0020000af
:10020800d0020000d0020000d0020000d00200009e
:10021800d0020000d0020000d0020000d00200008e
:10022800d0020000d0020000d0020000d00200007e
:10023800d0020000d0020000d0020000d00200006e
:10024800d0020000d0020000d0020000d00200005e
:10025800d0020000d0020000d0020000d00200004e
:020000040000fa
:100400008f232400eef227000e0188000000000078
:1004100000012000200288000c00070060d72100a6
:10042000010020000f000700000020000000e00095
:1004300002003200000002000000000026640200fa
:10044000000000000040da000000fe00a070200064
:100450000000e0000200320000202000900188002f
:1004600000000600a1028800800078000000eb0078
:100470001a003700e280400054a0b4009101ba0095
:10048000e280400054a0b4009102ba00e280400033
:1004900054a0b4000002eb00472bde00f507b200c9
:1004a000a6018800602ce10008003a000049eb003a
:1004b0000201e800020039003420ec0002f0a00044
:1004c0008301e900f9ff3e00040037006128e100e4
:1004d000010032000082eb00040007001101ba00a5
:1004e0000200e000e3ff3a000000060004d0a30091
:1004f000e20f49001c003900810278003549ba003a
:100500000201e800020039003420ec0002f0a000f3
:100510008301e9000f0032002549ba000201e8001a
:10052000020039003420ec0002f0a0008301e90051
:10053000080032000400e0000600320015c9ba00cd
:100540000201e800020039003420ec0002f0a000b3
:100550008301e9008180e80054a0b4000300e000ba
:10056000e2ff3a00000006009102ba000559780047
:100570008301e900f7ff3200c82ade000559780040
:100580008301e900f3ff32000400e000f1ff3200d4
:1005900011d9ba00eeff3700f86504000000000032
:1005a0000040da000000fe000000fa000748a90041
:1005b000e7026000c82add00f48f2f00e6428000c9
:1005c0000602620005027200e442880068006000d2
:1005d0004300de00610060004a00dd00f4bf2f0030
:1005e000354180000502620000027200344188003b
:1005f0000080fa00000006000000fa00000e8800eb
:10060000110e8800220e88000080fa00000006000b
:100610000000fa00300e8000510e80000080fa00c9
:10062000000006000000fa002148a90041e2a900ec
:100630000148a9000080fa00000006000000fa004e
:100640001012880021128800021288000080fa002f
:100650000000060003f0a200889fbe008a9fbe0033
:100660008c1f7800830107008a0133006450e10089
:100670004f0032006420e1005200320003826c001f
:1006800007003b000905d0000306d000820f54008c
:100690000c065d000200390002003200890178007a
:1006a000030678008582550004003d000003fd002c
:1006b0008103fd008502ea008b854200840f7200f1
:1006c00002003b0060001000e08018006011b800dc
:1006d0000005eb007a28e1000a00390006007800e6
:1006e000c75ddd00f707b200878075002d00370079
:1006f000828171000a017800610560008180d1006b
:100700000080d3008502e900f9ff3b0006044000a9
:100710008784480002003b0060041400e0841c0051
:100720000988a300070032008a817100828171006c
:10073000610164008904d1000884d3008b05e800be
:10074000170037000978a30013003a000b00e000ff
:10075000130034008b05e9000804440089844c0030
:100760000a4474000978a3000d003a000b00e00071
:10077000070034008b05e9000804440089844c001c
:1007800001003a000b0020000978a300f7ff3200b7
:100790000001eb0002003700828171000a0178003d
:1007a000f90007000cf0a70001f0a000420137009b
:1007b0006420e10002003a00838f6c0042013300a4
:1007c0000801be000200be003b013700889fbe004a
:1007d0008a9fbe008c1f7800260107002d01330080
:1007e00003866c006450e1002e0032006420e100ba
:1007f000330032006150e1002f0032006120e1003f
:100800003100320085855500eb07b000090020005b
:1008100008042000050037000804440089844c00c7
:100820000a0031000603430087834b000001530098
:1008300081815b00f8ff33000203be000800a000c6
:100840000804440089844c00f6ff3900c639dd00f5
:100850008301730001003200130020008904d100dd
:100860000884d3000998a300050032000800a700ff
:100870000300a0008904d1000884d3008b05e800a0
:100880008904d1000884d3000001eb000281d2006a
:10089000bd00070001f0a1000cf0a70001f0a000ce
:1008a000050137006420e100070132000801be00a5
:1008b0000200be00f7ff37006120e10002013200b4
:1008c0006000b800f3ff37000000200001f82700a7
:1008d000f0ff3700839f68000100e00002003d0048
:1008e00060001000e08018000300e00002003d00fe
:1008f00060011100e08119002a0107004f00e000ab
:1009000002003b0060001000e080180000000600bc
:10091000140020005a013700f4ff2f00580137005f
:100920000001be00be0007000470a70003f0a10094
:100930006509b100160032000d0035006828e1009d
:1009400006003500f0ff2f00f1ff27000300e00054
:1009500013003b00010028000000050000004000db
:10096000818048008502e900fcff3a00080037005a
:10097000f88f420002003c008000eb000000050000
:100980008100d1000080d3008502e800fcff3a001e
:100990000300e00002003b0060001000e08018004f
:1009a000000006000001be009d0007000470a700c3
:1009b00003f0a10003f8a30013003a006509b10099
:1009c00010003200090035006928e10002003500fe
:1009d0000100280000000500000040008180480060
:1009e0008502e900fcff3a0000000600f88f420093
:1009f000050035008100d1000080d3008502e800a9
:100a0000fcff3a00000006008000eb00000005003b
:100a10004f89de0082017800340137006011b80090
:100a2000420137000001eb00ee0007000400320035
:100a30000200200003f8230001f0a70005ff0700d3
:100a4000000006000400200000003700889fbe0060
:100a50008a9fbe008c1f78004f26dd0085000700ae
:100a60008c0033006120e100430032006250e1005d
:100a700041003e003e0039006420e1003c003200ad
:100a8000058255000f003b000402e80038003a00e0
:100a9000800f5300818f5b00350034000800be00da
:100aa00003f0a10001f0a60003f0a0000cf0a700e5
:100ab000e9fe0700800037000603430087834b00f0
:100ac0000c4646000005530081855b0002003300a0
:100ad0000a03be000c00a0000402e900f6ff3b0080
:100ae000850578000602430087824b0004003a0027
:100af0006000b80009f0a70001f0a0006e00370008
:100b00000002520081825a000704e0000400330012
:100b10000603430087834b008b05e900faff37008b
:100b2000090578000604be000203be006011b8008b
:100b300015000700e00f5200e08f5a000700350053
:100b400002003c000c08a300040032000601be00b5
:100b500003f0a0000cf0a700bffe07000a856800a4
:100b600001f0a1000af0a70001f0a0005200370038
:100b70000800be0050003700100220000cf0a60054
:100b800000808800500037008100200061805500ff
:100b90000b003d000b00200061fe2f000100e10072
:100ba0001d00340082817100610164008904d1005c
:100bb0000884d3000000e800faff3a00710020002a
:100bc0006100640003007000020060000900320050
:100bd00061044400e0844c000988a500050032004f
:100be0008b05e8006808e10002003a008904d100a2
:100bf0000884d300f20f20000258e10005003d00f8
:100c0000c75ddd00f907b200898075000800780033
:100c1000000006000bf827008b007800000005009c
:100c2000c70ade00f107b200f50fb200080032007b
:100c3000e1cf4200020032000170a0002400050054
:100c4000810f700001003200040805004400050017
:100c5000810f700002003a00140005008502e900cf
:100c60000000400081c04800fcff3b000170a00074
:100c7000240005000004be00e9ff07000003be00d9
:100c80000405be000200be00e5ff0700844f7500aa
:100c9000000006000200be006450e10005003600be
:100ca0006420e100020036000968a30001003a0058
:100cb0000800be000160a0004f0678004f05be008e
:100cc0004f04be0000000600f0ff2f00f1ff2700d8
:100cd000f9ff3700889fbe008a9fbe008c1f7800f6
:100ce000e4ff0700ebff330003866c006450e10073
:100cf000240032006420e100270032006150e1004e
:100d0000220032006120e100210032008b85420088
:100d1000eb07b1000134b800003ab8000804420003
:100d200089844a00013ab8000030b8008880400049
:100d300009014a000400330000004000818048009f
:100d4000020149008b05e900c909dd00830170003b
:100d50000100320013002000c814de004814dd003a
:100d60004709de001200b200c808de0008847000e7
:100d700085ff070001f0a1000cf0a70001f0a00022
:100d8000cdff37006120e100cfff32000801be0037
:100d90000200be00f7ff37006150e100fcff3a009f
:100da000c9ff37006022b800060220000000d00012
:100db0008180d2000482d2008582d2000000a0008f
:100dc0000202520083825a000300310002024200f4
:100dd00083824a000000a1000603e900f3ff3a0005
:100de00000000600889fbe008a9fbe000003be0070
:100df0008bff0700850578008281520002002000e9
:100e00006220e10004003a00f307b100040035005d
:100e10007718e100040035000600be00140037001a
:100e20006000b8000f003700f50f2000faff2f0018
:100e30008502d1000a85d3008301e900fcff3b0055
:100e40008184620000046500890f7400f2ff3200a3
:100e50008582ea000a85ea00818462000004650058
:100e600049ff070007f0a70001f0a0000081eb0098
:100e70000200e0004f05be004f04be000000060067
:100e8000889fbe008a9fbe00841f780079ff0700fc
:100e90004f00780011003300f0ff2f00838f6c00ab
:100ea00006003b00040565000a00a70008003700a3
:100eb00009f0a6001000200008003700820f54003f
:100ec000838f5c00030039001000200001003e0009
:100ed0000000200009f0a7000000ea004f05be0056
:100ee0004f04be000000e00000000600881f7800ec
:100ef000030478000300e00007003d0060001000dc
:100f0000e080180060011900e081190002003b0038
:100f100001f02d00030037000400070008f0a700cf
:100f200001f0a0004f04780000000600889fbe007a
:100f30008a9fbe000082700004027100048271006a
:100f4000260032000004be000200be006011b8009e
:100f50006b092000950220000182cf000a003900b1
:100f60000541b1000082cf00070039000541b10002
:100f70000982cf00040039000541b1000882cf008a
:100f8000010039000541b100054252001200320053
:100f90000a003b0082817100610164008100d10080
:100fa0000080d3008984d3000884d3008b05e80037
:100fb0000442e800f7ff3a00070037000804440045
:100fc00089844c0000004800818048008b05e900be
:100fd0000442e900f9ff3a00ebfe07004f05be00ae
:100fe0004f04be00000006000200fa00000f780067
:100ff000020007001e007800af0507000000fa009d
:101000000080fa00000006000000fa00889fbe0081
:101010000104780038029000e20262008084eb0054
:101020003e003200040378000620b20098029000cf
:1010300002003a00e08f520038003a000490a0000d
:101040003404980080047800f90fb200e08f520059
:1010500002003a00a8029000050c7800ea8f5400c4
:1010600005003a000408b20003003a008800780046
:10107000d0002000e4ff0700180290006120b900b2
:1010800058039000e8039000860f5000878f5800a7
:101090000b0032000402e8001404980018027800e3
:1010a000094a7800040ce80015c0b300849f2300af
:1010b000054a7800ea8f540018003a00050037000e
:1010c0008800780009407800a004070080047800b8
:1010d00012003700380290000410b2000f003200f6
:1010e00018019000a80090004800900094050700a7
:1010f00018029000840f5000040032003802900063
:101100000403b300340498008084eb000002eb0079
:101110001404980028029000040c7800090078005c
:101120004f04be000080fa00000006000c00fa0028
:10113000889fbe008a9fbe008c9fbe0080067800fc
:101140000204be00048fbe00010578003a02900040
:10115000e20262006000b80063003200040378001d
:101160000620b2009a02900002003a00e08f52007e
:101170005d003a000490a00034059800e08f520012
:1011800002003a00aa039000070d7800ba0290000e
:1011900004c0200084826200848f520004003a0060
:1011a000210020006011b8000a007800e504070063
:1011b0003a02900004b0a100340598001e027800a5
:1011c0008826b8006000b800e00f560046003200e4
:1011d0001bc0b30028079800390798002a02900026
:1011e000e00f52002c0032003a0290000408b200d6
:1011f000290032005a0490001a029000040454009e
:101200008c0f540003003e00e00f54002200320017
:10121000010037000c0478006142b8001a00780021
:101220000401be008d00780044079800550798001f
:101230002d0107004e0290008486460008065600e5
:101240001a0d42001a029000040444001805980088
:10125000cfc4de005a029000ea029000840f5400ce
:10126000858f5c0009003a000a0078000704070037
:10127000e00f50000f0032002e049000be049000da
:101280005a029000040646000e003700879f230094
:101290008b4b7800070037001d00fb008a007800a8
:1012a00059ff0700e10f4000040032008d06e800fe
:1012b0000c06e900e00f5600c8ff3a002e0490002b
:1012c000be04900061005400e0805c000c0040000f
:1012d000e08048000801be00b2fe07001e02be000a
:1012e0000000520081805a004f06be004f05be002c
:1012f0004f04be000080fa00000006000e00fa0055
:10130000889fbe008a9fbe008c9fbe00049e230063
:1013100005cf8100e08f52000b003a00e40242004a
:1013200005cf890055cf89002402980044cf890059
:10133000a44290000504a00025429800e4429000d9
:101340000504a0006542980067024000e082480062
:101350004e28dd004222de0004027000c22ade00b8
:10136000422cdd00ce24de00890474004224dd001e
:1013700042cf810084a023008a2324000405550065
:1013800024002000110009000405d80000027800a4
:101390006123b90036079800470798000882e800e3
:1013a00004024200240798008002eb00cfd5de0043
:1013b000b6ff2f00070020000a0053008b805b005f
:1013c000008fbe0063064500e0864d000c06440019
:1013d0008d864c00020078000200370015002000c6
:1013e0005e00900020429000610262000200320024
:1013f0000b00370016087800100378002642900092
:1014000061026200fbff320008024000840f5300bb
:1014100003003900e00f5400e08f5c0042003d0003
:10142000900078000100a10051079800808f5000c3
:10143000ebff3e00e18f5200e8ff3a003e029000d1
:10144000ce029000840f5400858f5c0003003600ac
:101450008a0f54008b8f5c000b0039001e03be0006
:10146000860f5400878f5c0002003900640244003c
:10147000060037000a01be000c00be0049fe07004e
:101480008a02b800010037002e02900004007800a4
:1014900064079800da0407006e029000e10f400034
:1014a00007003a00640244000400780064079800d2
:1014b000d30407006e029000e10f40002c003200c0
:1014c00055cf8100800a780055cf8100e483420027
:1014d00025439000870f5000020032000604a00050
:1014e000010037000604a100a64298000402400053
:1014f000640252000408780054cf8900059e23003e
:10150000050a780055cf8100254290000404a00010
:10151000a4429800204290000404a10024409800b6
:101520008002eb00aeff37000001780044cf890055
:10153000840f5300070036001400be0060cf8900fe
:1015400071cf8900120a78008042eb0044cf8100fd
:101550002542980041cf8100010978002242900085
:101560000404a000244198006400410001003700f9
:101570000000eb004f06be004f05be004f04be004a
:101580000080fa00000006000000fa00e00f5000a2
:10159000080032006400500044cf8100840f5000e6
:1015a0000100310040cf8900204290000404a100d6
:1015b000244098000080fa00000006000400fa00b1
:1015c000889fbe008a9fbe0000047800e00f510093
:1015d000e08f590006003a00e00f54003c00320052
:1015e00008007800e8ff07008004eb0039003700ae
:1015f000e00f540004003a000200be003fff070065
:1016000080047800330037006402540094057800a9
:1016100068fa970061026200060032000800780054
:10162000020f780013079800d7ff07009e01900073
:101630001e0178000200be0030ff07008004780021
:10164000e08f540023003200888f540020003200c5
:1016500069bd97000905550042d5de000883550095
:1016600042b3de00cfb3de006152b900860f5200f4
:10167000878f5a00010036000602be004229dd00b5
:10168000ce21de00830171004221dd008800780058
:101690000900780014000700888f54000d00310005
:1016a0004255dd0009054500880f55000900360048
:1016b0000804550042c4de004244dd000904440031
:1016c00064cf810075cf8100048cbe00010037001b
:1016d00088047800090078004f05be004f04be0062
:1016e0000080fa00000006000000fa00889fbe009b
:1016f0008a9fbe000002eb006105b800610cb800d3
:10170000070037006123b800860245000603440045
:10171000964a78000402e80061015100e081590016
:10172000e00f5100e08f5900f6ff3a004f05be0070
:101730004f04be000080fa00000006000c00fa0012
:10174000889fbe0000047800f4ff2700540798002b
:101750008004eb0019079800080f7800280798000c
:10176000240c20003407980068015700ceb8970079
:101770000e007800060007001e027800094a780073
:101780001e0014004f04be000080fa000000060096
:101790003400fa00889fbe008a9fbe008c9fbe0066
:1017a000500f9800221798008006eb00ad0237001a
:1017b0000101e8003207980054c2b300844f500082
:1017c0000a003a000002eb0004067800820078006c
:1017d000610bb800361798004717980000c3b30094
:1017e00007c2b300b6c2b300080037000000fb0018
:1017f000de08900004fe0700e10f4000980232006e
:101800008d06e800960237000402e800be10900042
:101810000101420092427800d3c2b30083cf52004c
:101820000900320005003c0087cf5200080032005a
:1018300086cf52000c003a000700370080cf5200dc
:1018400009003a00060037000c30a000eeff370018
:101850000c00a000ecff37000c10a000eaff3700de
:101860000c20a000e8ff3700620266000100320091
:101870000c00a10068026600010032000c20a100eb
:101880000502fb000403b100e90f520015003e0001
:101890008002eb00050278006110b8000201e80048
:1018a0006113b8003617980047179800ea22b8006d
:1018b0006129b800020340001603fb000603b100d3
:1018c00004024300be139000028143008502e80039
:1018d0001203fb000603b100e90f5300f3ff3600cb
:1018e000080037000002eb00a6c2b30086cf52000a
:1018f00004003a002e109000400278002017980053
:101900000201e8008000eb0031179800e5c2b30047
:1019100092cf120013003a000ce0a000820278007f
:10192000a6c2b300d54f1300090032000201e8003f
:1019300003002000440f98000000eb00680f98009f
:10194000790f98000a1798001b1798000e003700af
:101950002e139000c60378002617980037179800ba
:101960000501e8008003eb006110b800600f9800eb
:10197000710f98000201e8000300200013003700f7
:10198000ea00b8000080430001054100e0854900fd
:101990009a4378008100e8008703fb000703b10049
:1019a000e98f5300f6ff36004e0a9000301798007a
:1019b0000a03be006e0c9000fe0c90000e15900005
:1019c0009e15900006017800e6ff37006138b800e8
:1019d0006e0b9000800243009542780000034100a6
:1019e00036079800c0c6b30080cf520025003200f1
:1019f0000f003c0036c6b30086cf5200760032009e
:101a000004003c00e0cf52001a0232006b43530046
:101a10000f00370046c6b30086cf520017003200d1
:101a20006543430086cf52008a003a001300370016
:101a300036c7b30086cf52002000320007003c00ba
:101a40006443530086cf5200150032000643e8007d
:101a500086cf52007f003a001400370056c7b3000b
:101a600086cf52007f0032006343430086cf52008e
:101a700078003a00054f78000e003700054f7800d7
:101a80007a00370070036600050120000100320073
:101a900005002800050676008703e800cbff370025
:101aa000054f78000c60a00070003700054f7800eb
:101ab0000c50a0000c70a0006c003700054f78009f
:101ac000ae109000c102780021179800050478003c
:101ad000e08f520001003a002899230008037800a3
:101ae0008002eb00010037008502e8008503430017
:101af0000041eb00974f1100fbff3a00850478008e
:101b0000be119000e08f510003003200898f510018
:101b100001003100830478008002eb00890f52003d
:101b200001003600890252006806660018003a007b
:101b300009003700de08900000022000051f980011
:101b400031fd07008e1a9000e10f400001003200c5
:101b50008d06e8008502e900e08f5200f5ff3a00ab
:101b60008082eb000a003700080278003400fb0096
:101b700004047800de089000051f980022fd07008d
:101b80008e1a9000e10f4000010032008d06e8003f
:101b9000090278008404e900e00f5200f2ff3a00e5
:101ba000e00f5600ae01320005067800070037004e
:101bb000de0890000002200013fd0700e10f400046
:101bc000010032008d06e8000c06e900e00f560027
:101bd000f7ff3a00a20137002e139000c6027800ea
:101be0002617980005007800cf80de0001017800fc
:101bf00082017800600f9800710f9800021798001a
:101c0000131798004800de00c80add00008072004b
:101c1000004f78007003660009003200e04f50006a
:101c200007003200e14f40000500320010479800e5
:101c30004e5b9000264798002900200003003700e3
:101c4000ce5b900017479800190020000e04e800b2
:101c5000abff3700054f78000e0478001900200014
:101c6000a7ff3700054f78000c0cb3008c027800fa
:101c7000050cb2002a003a00e00f560005003d00b6
:101c80002e1090004005be004004be0020179800b2
:101c900016003700f00266000e003200ae1290000f
:101ca0004501be0025179800420798005307980089
:101cb00095029000cfaade0065079800750798008e
:101cc0004e049000de0490006e059000fe0590002a
:101cd00006003700ae1390004704780027179800dd
:101ce000cfc4de00090578008a057800e00f5400b3
:101cf000e08f5c00e00f5d00e08f5d0025003d009f
:101d00003c00b3006000b8006011b8000804500047
:101d1000898458000a0559008b8559001d00370039
:101d2000e00f560005003d002e1090004005be005b
:101d30004004be002017980016003700f00266002d
:101d40000e003200ae1290004501be00251798002b
:101d5000020f9800130f98000003eb00260f980065
:101d60008003eb00370f98000e0c90009e0c900043
:101d70002e0d9000be0d9000060037002e10900032
:101d80004004780020179800090020000a00200075
:101d90000b002000be109000e08f500009003a00b8
:101da0001200200032179800e00f5400e08f5c0012
:101db000e00f5d00e08f5d00020032008001eb006b
:101dc000331798008c027800050cb200650f98005c
:101dd000050420006e0b9000850f53003000320088
:101de00003003c00e00f53000800320040003700c1
:101df00005082000ee0b9000858f53001400320080
:101e0000050c2000858f530039003a0015c0b3003f
:101e10000003eb00e78123000603e8004330dd0008
:101e2000070040005001be004000be000040e1003d
:101e300001c8e10002d0e10003d8e1002b00390025
:101e40008542e800f4cf5200f3ff3a002700370044
:101e500015c0b30000012000010020006011b8008f
:101e60000040e10001c8e10002d0e10003d8e10038
:101e70001e003900460020000000d0008180d20002
:101e80000281d2008381d2000603e900faff3a0002
:101e90008542e800f0cf5200f1ff3a00130037000e
:101ea00015c0b30080002000010020006011b800c0
:101eb0000040e10001c8e10002d0e10003d8e100e8
:101ec0000a003900370020000000d0008180d200d5
:101ed0000281d2008381d2008703e900faff3a0031
:101ee0008542e800f5cf5200f1ff3a00054f780037
:101ef0009e02fb003e109000808f520002003d00c9
:101f0000004f780004003700be109000858f50000d
:101f100001003d0035179800e00f52000300320029
:101f2000e3026600010032000402e900050024001b
:101f300085026600060032003e119000820f5200ba
:101f40000200340002025200010037000002eb00e0
:101f50009e02fb008001eb00430f9800850f5200aa
:101f60000200340085025200450f980064026600aa
:101f70002c003200e202660061026600e08f52002f
:101f800006003200b0022000e00f520001003200d3
:101f90000080e800de08900004003700e00f5200e7
:101fa00006003200de0890000002200016fc070048
:101fb000e10f4000010032008d06e8004e0a90005b
:101fc000e00f5200900032000802be000a03be007b
:101fd000ce0c9000de0890000003200054179800fb
:101fe000051f9800661798007717980006fc0700f1
:101ff0005e1290008e1a90006e139000fe139000f7
:10200000e10f4000010032008d06e8008904e9007c
:10201000f0ff3a00490f98000605be000404be0018
:1020200079003700ce0a9000e08f5200180032008d
:102030006802660016003a000802be000a03be00ed
:10204000ce0c9000de08900000022000541798008b
:10205000051f98006617980077179800eafb07009d
:102060005e1290008e1a90006e139000fe13900086
:10207000e10f4000010032008d06e8008904e9000c
:10208000f0ff3a00490f98000605be000404be00a8
:10209000e202660061026600e08f52000600320034
:1020a000b0022000e00f5200010032000080e80082
:1020b000de08900004003700e00f520052003200aa
:1020c000de08900000022000cffb0700e10f400077
:1020d0004d0032008d06e8004b0037003e139000a3
:1020e0000603e9003617980004042000ee0b900068
:1020f000848f53002e00320003003c00e08f530019
:102100000800320039003700040820006e0e9000ed
:10211000840f560012003200040c2000840f560079
:1021200032003a003e1090004302dd00e1812300be
:10213000010242005403be004402be000800be007b
:102140000a01be0073020700a40020000500200061
:102150006033b8007802070004c3b30022003700e0
:1021600014982300ae029000e08f5200010032006c
:10217000049723003e139000c232dd000800be0029
:102180000a01be008502e900050033008301d10089
:102190000281d3008180d3000080d300f9ff370093
:1021a0006f00600000004200104f78000f00370001
:1021b000be139000e33ab8000800be000a01be005a
:1021c000040678000c06e900050033008301d10005
:1021d0000281d3008180d3000080d300f9ff370053
:1021e0006742600000c3b300004f42001e00fb00c6
:1021f000de08900084fb0700e10f4000060032007b
:102200008d06e800040037008c0078000102b2005f
:10221000210798001c1f98003e119000e00f51000c
:10222000aeff3a001e1e9000680666000c003200e9
:10223000ce099000e08f51000900340003067800b9
:10224000de089000000220006ffb0700e10f400055
:10225000010032008d06e8000c06e900f8ff3a00a4
:10226000be00900011407800004f7800e04f500011
:102270004ffd3a000d0078004f06be004f05be002e
:102280004f04be000080fa00000006000000fa00c3
:10229000881f78000004780038019000020278005e
:1022a0001420b200e10f520005003a000002eb00da
:1022b0001404980028029000040c78001c003700d9
:1022c000820278002520b2000001eb0024202000cb
:1022d000848f520019003a00a8009000828f5000ad
:1022e0001600320018029000820f520013003200d4
:1022f0006121b90048009000110107001802900008
:10230000cfa2de00840f5000858f580003003200fa
:10231000380290000403b300340498000002eb007c
:102320001404980028029000040c780038019000f2
:102330000202b200010032000081eb0002007800ce
:102340004f0478000080fa00000006000200fa0046
:10235000889fbe00004f780001047800380290008a
:10236000840478000904b200020032000000fb007f
:102370003b003700e202620005003a000403b300ac
:1023800034049800150498000080eb0034003700f6
:1023900058039000e8039000e00f5300e08f5b00cb
:1023a00007003a0012002000030020008e00780091
:1023b00048009000e2000700190498002700370049
:1023c000a8029000e08f52000b003a00b59f230056
:1023d00025049800050c7800260020000700200046
:1023e0005604980067049800250020001504980002
:1023f0000430a0003404980018019000cf91de0052
:10240000a800900048009000cd000700280290002e
:102410008082eb00150498001e4a7800040ce80046
:10242000a4c0b3009e4f12000c003a003802900086
:102430000410b2000900320018019000cf91de00b4
:10244000a800900048009000bd0007000002eb00cb
:102450001404980028029000040c78001e00fb0071
:102460004f04be000080fa00000006000000fa00e1
:10247000881f78008a9fbe008c9fbe0000047800f1
:10248000110020006011b800180078009b000700c0
:102490000006be00210020006011b800180078007e
:1024a000960007000005be008000eb000c01be0096
:1024b00018007800910007000a00be004f06be0019
:1024c0004f05be004f0478000080fa0000000600af
:1024d0000000fa00881f7800000478001100200036
:1024e0006011b800480090008400070018029000b6
:1024f000e00f520002003d000002eb0014049800bf
:102500002802900098029000e00f5200070032006d
:10251000380290000420b20004003200612ab900a1
:102520000000420081804a0003003700612ab900a0
:1025300004005000858058004f0478000080fa00a5
:10254000000006000400fa00881f780000047800ec
:10255000380290000440a100340498002802900042
:10256000e00f520009003a004800900063000700a5
:10257000010060000082ea0004f0a7000402ea0003
:102580000400e9004f80de0048003700e18f500072
:1025900005003200e28f500008003200e08f50004a
:1025a000100032004000370008007800020f780069
:1025b00013079800c6ff07000600370008007800e0
:1025c000020f78001307980030ff070068004400ee
:1025d000a6ff07001e0178009e0190000201400046
:1025e0008381480008007800020f780013079800e4
:1025f000b7ff07001e0178009e0190000002510005
:1026000081825900030032003803900006b0a00018
:10261000360498003803900063036300e10f530011
:102620000d003a00e00f5200e08f5a000a0035001a
:10263000180390006130b900800f5200818f5a005a
:1026400005003c000403530016049800180c4200d7
:102650000000eb0015003700380290000420b200a3
:102660000900320018029000e00f5200060032000c
:1026700008007800020f78001307980003ff070096
:102680009e0190001e0178008000eb00110498006c
:1026900028029000040c7800480090001700070002
:1026a0004f88de00010037000080eb004f04780007
:1026b0000080fa00000006000000fa00041180000b
:1026c000e00f520007003d0004402000151180007b
:1026d00005026200e00f5200020032002302ab004c
:1026e000feff32000040da00feff37000000fa0073
:1026f00000c0da000080fa00000006000a00fa00bc
:1027000044002000040f780010079800220798006a
:1027100033079800410798000e007800f3ff070088
:102720002e009000be0090000080fa00000006001d
:102730000000fa0000c0da000080fa000000060085
:102740000a00fa00e20f500022003e0024d081006f
:10275000e10f5200060032008723200046232000ac
:102760002423200005232000e08f530004003a00ba
:10277000872220004622200024222000052220005b
:10278000000028001500600003003a00800b78006c
:1027900007002800958a730005402000948262009b
:1027a00001003a0014a0a000820278000600370061
:1027b000940378000710b200fdff3200b103fb0064
:1027c000070b78008502e900e08f5200f8ff3a001d
:1027d0000800370034002000040f7800100798002c
:1027e00021079800320798000e007800d0ff0700fc
:1027f0003e019000020078000080fa000000060010
:102800000000fa00889fbe008004780030d081006c
:10281000e00f500004003a000f0007000084eb00b6
:10282000e00f50000800350038d08100e08f5400e0
:10283000050032000900440007000700e00f5000c7
:1028400001003d000084eb00080078004f04be004a
:102850000080fa00000006000000fa00e00f5000bf
:1028600004003a0084a0230034d0890000027800dc
:10287000060037000082eb0085232400850f5000fe
:1028800002003e0030d089000002eb000400780016
:102890000080fa00000006000000fa00889fbe00d9
:1028a0008a9fbe003004be002005be000404440020
:1028b00085844c0006054d0087854d000898be00b4
:1028c0000a90be000440e10005c8e10006d0e10026
:1028d00007d8e10002003100680040001008e8005d
:1028e0004f05be004f04be000080fa000000060045
:1028f0001000fa00889fbe008a9fbe000605be0039
:102900000404be003002be002003be00049fbe00cf
:102910000697be000802520089825a000a035b0033
:102920008b835b0044079800550798006607980062
:10293000770798000498be000698be00110020009a
:102940003e02be002e03be000820e10009a8e100ff
:102950000ab0e1000bb8e100010039008000eb0093
:10296000108810004f05be004f04be000080fa0022
:10297000000006001400fa00889fbe008a9fbe0077
:102980008c9fbe00590007000605be000404be006f
:102990000006eb004c0798003c0798002c079800b5
:1029a0001c0798000c0f78000d0420004e039000c7
:1029b000be029000860343002e029000e00f5300f9
:1029c00003003d002a000700b3ff070002003700a4
:1029d00027000700c6ff0700ce029000150f9800e1
:1029e000e08f520009003500450007001400200068
:1029f000050020006033b800000072008180720082
:102a00000201730083817300380007000c06e800a0
:102a10008d0f5600e5ff3a001e0a9000e00f5200ad
:102a200004003d000802be000a03be000e0078004c
:102a300099ff07004eba9700e00f520006003a00d7
:102a40003e04be002e05be00580798006907980096
:102a50007a0798000b0f9800290007004f06be0068
:102a60004f05be004f04be000080fa0000000600c3
:102a70004f2bde0087037300470798004f23de00cb
:102a80008582420085027300350798009e029000ff
:102a90004f2bde000402420004027300240798005a
:102aa0001e0278004f23de008582420085027300fb
:102ab00015079800120007004f18de0004024200bc
:102ac000000f72000e0007000000400081804800e7
:102ad0000201490083814900040007000802be008a
:102ae0000a03be000e0078000000060050079800a0
:102af0006107980072079800030f98000000060015
:102b00005e009000ee0090007e0190008e09900023
:102b1000000006000000fa00881f7800180020005e
:102b2000881f780093ff07008f87e9004f04780023
:102b30000080fa00000006000000fa00801feb0091
:102b40008cff07008f87e9000080fa000000060074
:102b50000000fa00889fbe008a9fbe00e00f500070
:102b6000e08f5800e00f5900e08f59000c003d0045
:102b70006044b8006055b8000000540081805c00db
:102b800002015d0083815d0018002000160007002f
:102b900008003d00190007000004eb0005003700a5
:102ba0000004eb001000070002003d0013000700c6
:102bb00018002000d7ff0700e00f54000600320085
:102bc0006022b8006033b8000000520081805a00d3
:102bd00002015b0083815b004f05be004f04be0015
:102be0000080fa0000000600e00f5200e08f5a005b
:102bf000e00f5b00e08f5b00000006006044b8005f
:102c00006055b8000402540085825c0006035d0034
:102c100087835d00000006000000fa00889fbe0068
:102c20008a9fbe008c1f7800e00f5000e08f580094
:102c3000e00f5900e08f59000d003d006044b800de
:102c40006055b8000000540081805c0002015d0006
:102c500083815d001c0020000820e10009a8e1003c
:102c60000ab0e1000bb8e1000d003d00080037009c
:102c70000006eb00e00f5200e08f5a00e00f5b000f
:102c8000e08f5b0006003d006044b8006055b8006e
:102c90000402540085825c0006035d0087835d00aa
:102ca000a5ff0700e00f5600060032006022b800c2
:102cb0006033b8000000520081805a0002015b00be
:102cc00083815b004f0678004f05be004f04be00b5
:082cd0000080fa00000006007c
:020000040000fa
:102cd80041520000434300004f5300005f4300008f
:102ce8004f52000044490000432000002d200000fe
:102cf80046610000746100006c20000065720000ed
:102d0800726f0000722100000a00000020200000fd
:102d1800312e0000302000003c2000007c540000d0
:102d28007c2e00000a0000004152000043530000be
:102d3800494e00005f4300004f5200004449000024
:102d4800432000002d20000046610000746100004f
:102d58006c20000065720000726f00007221000094
:102d68000a0000004c4e00005f4300004f52000074
:102d780044490000432000002d2000004661000067
:102d8800746100006c20000065720000726f000022
:102d9800722100000a00000020200000496e000097
:102da80070750000742000006172000067750000f3
:102db8006d6500006e74000020580000203c000083
:102dc8003d200000302e0000300a000000520000b4
:102dd800385f0000554e0000494600004f52000081
:102de8004d5f000030310000202d0000204600001b
:102df80061740000616c00002065000072720000c0
:102e08006f720000210a0000002000002049000025
:102e18006e7000007574000020760000616c000080
:102e280075650000206f0000662000005345000013
:102e380045440000203d0000203000002e0a00001c
:102e48000053000051520000545f0000434f00003f
:102e58005244000049430000202d00002046000095
:102e680061740000616c000020650000727200004f
:102e78006f720000210a00000020000020580000a6
:102e8800203c0000203000002e0a00000000000056
:102e9800db0f0000493f000038630000ed3e0000f2
:102ea800b0db00007a3e0000d5ad0000fe3d00001a
:102eb800deaa00007f3d0000aeea0000ff3c0000f3
:102ec800abfa00007f3c0000abfe0000ff3b0000b7
:102ed800abff00007f3b0000ebff0000ff3a000063
:102ee800fbff00007f3a0000ffff0000ff390000f1
:102ef80000000000803900000000000000390000d8
:102f080000000000803800000000000000380000c9
:102f180000000000803700000000000000370000bb
:102f280000000000803600000000000000360000ad
:102f3800000000008035000000000000003500009f
:102f48000000000080340000000000000034000091
:102f58000000000080330000000000000033000083
:102f68000000000080320000000000000032000075
:102f78000000000080310000000000000031000067
:102f88000000000080300000000000000030000059
:102f980000000000802f000000000000002f00004b
:102fa80000000000802e000000000000002e00003d
:102fb80000000000802d000000000000002d00002f
:102fc80000000000802c000000000000002c000021
:102fd80000000000802b000000000000002b000013
:102fe80000000000802a000000000000002a000005
:102ff80000000000802900000000000000290000f7
:1030080000000000802800000000000000280000e8
:1030180000000000802700000000000000270000da
:1030280000000000802600000000000000260000cc
:1030380000000000802500000000000000250000be
:1030480000000000802400000000000000240000b0
:1030580000000000802300000000000000230000a2
:103068000000000080220000000000000022000094
:103078004c090000d33f0000f25a0000a43f0000b2
:10308800020b0000913f00005b410000883f0000f8
:103098002b100000843f000005040000823f000060
:1030a80001010000813f000040800000803f0000d7
:1030b80010400000803f000004200000803f000016
:1030c80001100000803f000000080000803f000061
:1030d80000040000803f000000020000803f000064
:1030e80000010000803f000080000000803f0000d9
:1030f80040000000803f000020000000803f0000ea
:1031080010000000803f000008000000803f000021
:1031180004000000803f000002000000803f000023
:1031280001000000803f000001000000803f000017
:1031380000000000803f00004c090000d33f000061
:10314800f25a0000a43f0000020b0000913f00006b
:103158005b410000883f00002b100000843f000006
:1031680005040000823f000001010000813f0000cb
:1031780040800000803f000010400000803f0000b9
:1031880004200000803f000001100000803f000084
:1031980000080000803f000000040000803f00009d
:1031a80000020000803f000000010000803f000096
:1031b80080000000803f000040000000803f0000c9
:1031c80020000000803f000010000000803f000049
:1031d80008000000803f000004000000803f00005d
:1031e80002000000803f000001000000803f000056
:1031f80001000000803f000000000000803f000048
:10320800db0f0000493f000038630000ed3e00007e
:10321800b0db00007a3e0000d5ad0000fe3d0000a6
:10322800deaa00007f3d0000aeea0000ff3c00007f
:10323800abfa00007f3c0000abfe0000ff3b000043
:10324800abff00007f3b0000ebff0000ff3a0000ef
:10325800fbff00007f3a0000ffff0000ff3900007d
:103268000000000080390000000000000039000064
:103278000000000080380000000000000038000056
:103288000000000080370000000000000037000048
:10329800000000008036000000000000003600003a
:1032a800000000008035000000000000003500002c
:1032b800000000008034000000000000003400001e
:1032c8000000000080330000000000000033000010
:1032d8000000000080320000000000000032000002
:1032e80000000000803100000000000000310000f4
:1032f80000000000803000000000000000300000e6
:1033080000000000802f000000000000002f0000d7
:1033180000000000802e000000000000002e0000c9
:1033280000000000802d000000000000002d0000bb
:1033380000000000802c000000000000002c0000ad
:1033480000000000802b000000000000002b00009f
:1033580000000000802a000000000000002a000091
:103368000000000080290000000000000029000083
:103378000000000080280000000000000028000075
:103388000000000080270000000000000027000067
:103398000000000080260000000000000026000059
:1033a800000000008025000000000000002500004b
:1033b800000000008024000000000000002400003d
:1033c800000000008023000000000000002300002f
:1033d8000000000080220000000000000022000021
:1033e800f3040000353f00009be80000213f000087
:1033f8000e1300001d3f00008adc00001b3f000088
:10340800d68e00001b3f0000687b00001b3f0000b9
:103418008c7600001b3f0000557500001b3f000024
:10342800087500001b3f0000f47400001b3f0000fb
:10343800ef7400001b3f0000ee7400001b3f00000b
:10344800ee7400001b3f0000ee7400001b3f0000fc
:10345800ee7400001b3f0000ee7400001b3f0000ec
:10346800ee7400001b3f0000ee7400001b3f0000dc
:10347800ee7400001b3f0000ee7400001b3f0000cc
:10348800ee7400001b3f0000ee7400001b3f0000bc
:10349800ee7400001b3f0000ee7400001b3f0000ac
:1034a800ee7400001b3f0000ee7400001b3f00009c
:1034b800ee7400001b3f0000ee7400001b3f00008c
:1034c800ee7400001b3f0000ee7400001b3f00007c
:1034d800ee7400001b3f0000ee7400001b3f00006c
:1034e800ee7400001b3f0000db0f0000493f0000a6
:1034f80038630000ed3e0000b0db00007a3e0000bb
:10350800d5ad0000fe3d0000deaa00007f3d0000b2
:10351800aeea0000ff3c0000abfa00007f3c000070
:10352800abfe0000ff3b0000abff00007f3b00004c
:10353800ebff0000ff3a0000fbff00007f3a0000ad
:10354800ffff0000ff390000000000008039000084
:103558000000000000390000000000008038000072
:103568000000000000380000000000008037000064
:103578000000000000370000000000008036000056
:103588000000000000360000000000008035000048
:10359800000000000035000000000000803400003a
:1035a800000000000034000000000000803300002c
:1035b800000000000033000000000000803200001e
:1035c8000000000000320000000000008031000010
:1035d8000000000000310000000000008030000002
:1035e800000000000030000000000000802f0000f4
:1035f80000000000002f000000000000802e0000e6
:1036080000000000002e000000000000802d0000d7
:1036180000000000002d000000000000802c0000c9
:1036280000000000002c000000000000802b0000bb
:1036380000000000002b000000000000802a0000ad
:1036480000000000002a000000000000802900009f
:103658000000000000290000000000008028000091
:103668000000000000280000000000008027000083
:103678000000000000270000000000008026000075
:103688000000000000260000000000008025000067
:103698000000000000250000000000008024000059
:1036a800000000000024000000000000802300004b
:1036b800000000000023000000000000802200003d
:1036c8000000000000220000db0f0000493f00005e
:1036d80038630000ed3e0000b0db00007a3e0000d9
:1036e800d5ad0000fe3d0000deaa00007f3d0000d1
:1036f800aeea0000ff3c0000abfa00007f3c00008f
:10370800abfe0000ff3b0000abff00007f3b00006a
:10371800ebff0000ff3a0000fbff00007f3a0000cb
:10372800ffff0000ff3900000000000080390000a2
:103738000000000000390000000000008038000090
:103748000000000000380000000000008037000082
:103758000000000000370000000000008036000074
:103768000000000000360000000000008035000066
:103778000000000000350000000000008034000058
:10378800000000000034000000000000803300004a
:10379800000000000033000000000000803200003c
:1037a800000000000032000000000000803100002e
:1037b8000000000000310000000000008030000020
:1037c800000000000030000000000000802f000012
:1037d80000000000002f000000000000802e000004
:1037e80000000000002e000000000000802d0000f6
:1037f80000000000002d000000000000802c0000e8
:1038080000000000002c000000000000802b0000d9
:1038180000000000002b000000000000802a0000cb
:1038280000000000002a00000000000080290000bd
:1038380000000000002900000000000080280000af
:1038480000000000002800000000000080270000a1
:103858000000000000270000000000008026000093
:103868000000000000260000000000008025000085
:103878000000000000250000000000008024000077
:103888000000000000240000000000008023000069
:10389800000000000023000000000000802200005b
:1038a8000000000000220000db0f0000493f00007c
:1038b80038630000ed3e0000b0db00007a3e0000f7
:1038c800d5ad0000fe3d0000deaa00007f3d0000ef
:1038d800aeea0000ff3c0000abfa00007f3c0000ad
:1038e800abfe0000ff3b0000abff00007f3b000089
:1038f800ebff0000ff3a0000fbff00007f3a0000ea
:10390800ffff0000ff3900000000000080390000c0
:1039180000000000003900000000000080380000ae
:1039280000000000003800000000000080370000a0
:103938000000000000370000000000008036000092
:103948000000000000360000000000008035000084
:103958000000000000350000000000008034000076
:103968000000000000340000000000008033000068
:10397800000000000033000000000000803200005a
:10398800000000000032000000000000803100004c
:10399800000000000031000000000000803000003e
:1039a800000000000030000000000000802f000030
:1039b80000000000002f000000000000802e000022
:1039c80000000000002e000000000000802d000014
:1039d80000000000002d000000000000802c000006
:1039e80000000000002c000000000000802b0000f8
:1039f80000000000002b000000000000802a0000ea
:103a080000000000002a00000000000080290000db
:103a180000000000002900000000000080280000cd
:103a280000000000002800000000000080270000bf
:103a380000000000002700000000000080260000b1
:103a480000000000002600000000000080250000a3
:103a58000000000000250000000000008024000095
:103a68000000000000240000000000008023000087
:103a78000000000000230000000000008022000079
:103a880000000000002200003078000025580000e7
:103a98002c20000030780000255800002c20000061
:103aa80030780000255800002c20000030780000f5
:103ab800255800000d0a000000000000526f0000a9
:103ac800746f0000722000004f66000066730000eb
:103ad800657400003a200000256c0000690d0000a4
:043ae8000a000000d0
:020000040000fa
:103aec00be380000860000008200000000000000cc
:103afc0000000000000000000000000000000000ba
:103b0c0000000000000000000000000000000000a9
:103b1c000000000000000000000000000000000099
:103b2c000000000000000000000000000000000089
:103b3c000000000000000000000000000000000079
:103b4c000000000000000000000000000000000069
:103b5c000000000000000000000000000000000059
:103b6c000000000000000000000000000000000049
:103b7c000000000000000000000000000000000039
:103b8c000000000000000000000000000000000029
:103b9c000000000000000000000000000000000019
:103bac00ba3400008a02000080000000f0390000e6
:103bbc000800000080000000021000001820000027
:103bcc00820000000000000000472100493baa00d1
:103bdc0029c93b0027dd16003caa2900493cfc0002
:103bec00717b3c0027dd96003c500100b03c60002e
:103bfc0023c93c008847e2003c986900fb3cd40098
:103c0c00450a3d00d0d516003dcb6500233dc700cd
:103c1c00f52f3d00c2853c003db11400493d940098
:103c2c00a2553d00773062003d59be006e3d30001c
:103c3c004b7b3d007deb83003d6231008a3dc00033
:103c4c0076903d0099bb96003d7100009d3dc300f0
:103c5c0044a33d001689a9003d5ccc00af3da100fa
:103c6c000fb63d006152bc003d9a9400c23d4d0020
:103c7c00d6c83d007a17cf003d215800d53dc8006d
:103c8c0098db3d0062d8e1003d761700e83d04006a
:103c9c0056ee3d000c94f4003d8dd100fa3d4400ed
:103cac0087003e007fa503003e33c300063ea40000
:103cbc00e0093e00d2fd0c003e7a1a00103e2200b4
:103ccc0037133e00435316003edf6e00193e37009b
:103cdc008a1c3e004ca51f003edbbf00223e270085
:103cec00da253e00edf328003e6f0d002c3e6c00f3
:103cfc00262f3e00e23e32003e155700353ec100f5
:103d0c006e383e00e8853b003ecb9c003e3e2900d1
:103d1c00b3413e0000c944003e51de00473e5e0008
:103d2c00f34a3e00e6074e003ea41b00513e1f0026
:103d3c002f543e00144257003e8254005a3e6b00f2
:103d4c00665d3e00cd7760003e668800633ebb003a
:103d5c0098663e008ba869003e91b7006c3e11003e
:103d6c00c66f3e000bd472003e7ee100753e28000b
:103d7c00ee783e008ffa7b003e2d06007f3e8100e0
:103d8c0008813e00a88d82003e8c1200843e2d00de
:103d9c0097853e00481b87003e419f00883ed5001a
:103dac00228a3e0005a68b003ef228008d3e7a004a
:103dbc00ab8e3e00be2d90003e9faf00913e1a0090
:103dcc0031933e0031b294003e053300963e7400b0
:103ddc00b3973e007f3399003e46b3009a3e87006e
:103dec00329c3e0085b19d003e1f30009f3e53002b
:103dfc00aea03e00232ca2003e8fa900a33e74006f
:103e0c0026a53e0016a3a6003e541f00a83e2c007b
:103e1c009ba93e007f16ab003e8e9100ac3e170076
:103e2c000cae3e003c86af003efcff00b03e57009f
:103e3c0079b23e002cf2b3003e9c6a00b53ea8005d
:103e4c00e2b63e002d5ab8003e4ed100b93ee90014
:103e5c0047bb3e001fbebc003ef03300be3e3b00e5
:103e6c00a9bf3e00001ec1003e609200c23e5b0036
:103e7c0006c43e00af79c5003ec0ec00c63e29002a
:103e8c005fc83e002dd1c9003eab4200cb3ea20024
:103e9c00b3cc3e003524ce003e429400cf3ec90048
:103eac0003d13e00c972d2003e43e100d33e37003d
:103ebc004fd53e00c7bcd6003eae2900d83e3100df
:103ecc0096d93e000c02db003e836d00dc3e5100b7
:103edc00d8dd3e009a42df003e7eac00e03eba00e8
:103eec0015e23e006f7ee3003e7de600e43e2700d7
:103efc004ee63e0028b5e7003ea41b00e93e9900c3
:103f0c0081ea3e00e6e6eb003ead4b00ed3eee00f6
:103f1c00afee3e008813f0003e9b7600f13e27008a
:103f2c00d9f23e000c3bf4003e499c00f53e0000eb
:103f3c00fdf63e00315df8003e99bc00f93e9b0059
:103f4c001bfb3e00d579fc003e88d700fd3eb5003a
:103f5c0034ff3e008c4800003f7bf600003f16000b
:103f6c00a4013f006e5102003f61fe00023f1100b0
:103f7c00ab033f006d5704003f750300053f29005c
:103f8c00af053f008a5a06003fa70500073f6000b7
:103f9c00b0073f00c45a08003fe60400093fa300e5
:103fac00ae093f000c580a003f2101000b3fe30013
:103fbc00a90b3f0050520c003f6afa000c3f1f0047
:103fcc00a20d3f0080490e003f9ef0000e3f4600c0
:103fdc00970f3f00ab3d10003face300103f590082
:103fec0089113f00a12e12003fa6d300123f3600cc
:103ffc0078133f00821c14003f59c000143fed00a1
:10400c0063153f001c0716003fe7a900163f5e0032
:10401c004c173f0070ee17003f2e9000183f8700a2
:10402c0031193f007cd219003f1d73001a3f590013
:10403c00131b3f0031b31b003fb552001c3fd40093
:10404c00f11c3f008e901d003fe42e001e3fe60049
:10405c00cc1e3f00726a1f003fab0700203f7f0061
:10406c00a4203f00ee4021003ff9dc00213f9e00e0
:10407c0078223f00e01323003fbcae00233f340006
:10408c0049243f0047e324003ff67c00253f4000d5
:10409c0016263f0014af26003f954700273fb1007e
:1040ac00df273f00577728003f990e00293f760005
:1040bc00a5293f00de3b2a003ff2d1002a3f9000a9
:1040cc00672b3f00b9fc2b003f8e91002c3fee007c
:1040dc00252d3f00e9b92d003f6e4d002e3f8f007e
:1040ec00e02e3f003b732f003f810500303f630003
:1040fc0097303f00d02831003fc7b900313f5a00fc
:10410c004a323f0088da32003f2f6a00333f830087
:10411c00f9333f00518834003fb91600353fad00ec
:10412c00a4353f003c3236003f55bf00363ff90006
:10413c004b373f0027d837003ff16300383f46002c
:10414c00ef383f00257a39003f8e04003a3f820059
:10415c008e3a3f0011183b003f2ba1003b3fbf00a4
:10416c00293c3f00eeb13c003fa839003d3fec003c
:10417c00c03d3f00bb473e003f14ce003e3ff80021
:10418c00533f3f0055d93f003f4e5e00403fd200a9
:10419c00e2403f00cf6641003f68ea00413f7a00b1
:1041ac006d423f0017f042003f3f7200433ff10069
:1041bc00f3433f002e7544003fe4f500443f2500d7
:1041cc0076453f00f1f545003f477500463f170027
:1041dc00f4463f00717247003f56f000473fb50070
:1041ec006d483f009eea48003f026700493fef00e0
:1041fc00e2493f00685e4a003f5ad9004a3fd60068
:10420c00534b3f00cdcd4b003f4e47004c3f480039
:10421c00c04c3f00ce384d003fcdb0004d3f460066
:10422c00284e3f00499f4e003fd715004f3fdf00ff
:10423c008b4f3f00600150003f5c7600503fe20026
:10424c00ea503f00e15e51003f5bd200513f5f00fe
:10425c0045523f00dcb752003fd42900533f560073
:10426c009b533f00410c54003fb77c00543fa700c8
:10427c00ec543f00105c55003ff3ca00553f600002
:10428c0039563f0037a756003f981400573f73002c
:10429c0081573f00c8ed57003f865900583fce006c
:1042ac00c4583f00902f59003fcc9900593f8200d1
:1042bc00035a3f00b16c5a003f5ad5005a3f7d005b
:1042cc003d5b3f0009a55b003f200c005c3fb0004c
:1042dc00725c3f00a9d85c003f1d3e005d3f1a0098
:1042ec00a35d3f0081075e003f516b005e3fab005a
:1042fc00ce5e3f006e315f003fbc93005f3f7300aa
:10430c00f55f3f00935660003f3db700603f5000a3
:10431c0017613f00de7661003fe5d500613f550037
:10432c0034623f003e9262003fa2ef00623f6e009b
:10433c004c633f00b5a863003f750400643f9e00ca
:10434c005f643f0041ba64003f4d1400653fd200ea
:10435c006d653f00d2c665003f3a1f00663f0c00fa
:10436c0077663f0057ce66003f1c2500673f4a002a
:10437c007b673f00f2d067003f032600683f7d005b
:10438c007a683f0070ce68003fcd2100693fa300e2
:10439c0074693f00e3c669003f9c18006a3fbe0089
:1043ac00696a3f0049ba6a003f4e0a006b3fbc0085
:1043bc00596b3f0093a86b003fe4f6006b3f9e00e7
:1043cc00446c3f00d1916c003f5dde006c3f63009c
:1043dc002a6d3f00d1756d003fbac0006d3f0b00d8
:1043ec000b6e3f00c5546e003fe99d006e3f75009b
:1043fc00e66e3f007b2e6f003fda75006f3fb20018
:10440c00bc6f3f00040370003fae4800703fc1001a
:10441c008d703f004ed270003f441600713fa300d8
:10442c0059713f006b9c71003f9cde00713f360060
:10443c0020723f00396172003fb6a100723f8b00c1
:10444c00e1723f00da2073003f815f00733fa100ef
:10445c009d733f002bdb73003f0d1800743f690008
:10446c0054743f002e9074003f4bcb00743fe2001d
:10447c0005753f00e23f75003f3a7900753f0c002f
:10448c00b2753f0046ea75003fd92100763fe60041
:10449c0058763f004b8f76003f19c500763f610080
:1044ac00fa763f00012f77003f0b6300773f7d00ca
:1044bc0096773f0058c977003f8bfb00773f380059
:1044cc002d783f003e5e78003fbd8e00783f940013
:1044dc00be783f00d5ed78003f7e1c00793f800010
:1044ec004a793f00fb7779003fcfa400793f0b005e
:1044fc00d1793f00b1fc79003fbf27007a3f3700ec
:10450c00527a3f00077c7a003f40a5007a3fe200d8
:10451c00cd7a3f00edf57a003f501d007b3f1c002b
:10452c00447b3f00516a7b003fef8f007b3fe500ef
:10453c00b47b3f0045d97b003f0dfd007b3f3e0027
:10454c00207c3f00c8427c003fbb64007c3f1600cf
:10455c00867c3f00dba67c003ff8c6007c3f7d00dc
:10456c00e67c3f005c057d003fa323007d3f5300ac
:10457c00417d3f006c5e7d003fdd7a007d3fb700e2
:10458c00967d3f00fbb17d003f96cc007d3f9b00ac
:10459c00e67d3f0008007e003fce18007e3ffd0008
:1045ac00307e3f0084487e003f855f007e3fcd001b
:1045bc00757e3f008f8b7e003fa9a0007e3f2d00b3
:1045cc00b57e3f0008c97e003f4ddc007e3ffa00ff
:1045dc00ee7e3f0000017f003f6f12007f3f3600f0
:1045ec00237f3f0066337f003fff42007f3ff00098
:1045fc00517f3f004a607f003ffc6d007f3f1800f9
:10460c007b7f3f009c877f003f7993007f3fbf00fb
:10461c009e7f3f006da97f003f74b3007f3fd300a6
:10462c00bc7f3f009cc57f003fcdcd007f3f670026
:10463c00d57f3f0059dc7f003fa4e2007f3f57004d
:10464c00e87f3f0074ed7f003fe9f1007f3fc7003a
:10465c00f57f3f000ef97f003fadfb007f3fa400cc
:10466c00fd7f3f0015ff7f003fceff007f3f000026
:10467c0000803f008bff7f003f6dfe007f3fb90045
:10468c00fc7f3f006efa7f003f7bf7007f3ff1001d
:10469c00f37f3f00bfef7f003ff7ea007f3f9700bb
:1046ac00e57f3f008fdf7f003ff1d8007f3fab00fd
:1046bc00d17f3f00cdc97f003f59c1007f3f3d00f6
:1046cc00b87f3f0079ae7f003f2fa4007f3f2d00c5
:1046dc00997f3f00a48d7f003f7381007f3fac002a
:1046ec00747f3f003c677f003f3659007f3f880056
:1046fc004a7f3f00433b7f003f672b007f3fe30037
:10470c001a7f3f00c8097f003f05f8007e3fac00d0
:10471c00e57e3f00bbd27e003f23bf007e3ff3000f
:10472c00aa7e3f002d967e003fbf80007e3fba00e0
:10473c006a7e3f001e547e003fda3c007e3fff0045
:10474c00247e3f007c0c7e003f62f3007d3fb20074
:10475c00d97d3f0059bf7d003f6aa4007d3fe30037
:10476c00887d3f00b56c7d003ff04f007d3f94008d
:10477c00327d3f0090147d003f06f6007c3fc30065
:10478c00d67c3f00fab67c003f8996007c3f8200c5
:10479c00757c3f00d2537c003f9c31007c3fbf00b6
:1047ac000e7c3f004aeb7b003f2ec7007b3f7b001b
:1047bc00a27b3f00317d7b003f4f57007b3fc60003
:1047cc00307b3f00a6097b003fefe1007a3fa10060
:1047dc00b97a3f00bc907a003f3067007a3f0c00fa
:1047ec003d7a3f0051127a003fffe600793f060008
:1047fc00bb793f00758e79003f4e6100793f8f0089
:10480c0033793f003a0579003f4dd600783fb90027
:10481c00a6783f008e7678003fcc4500783f72003a
:10482c0014783f0082e277003ffbaf00773fcc006b
:10483c007c773f00174977003fba1400773fd700c9
:10484c00df763f004caa76003f2a7400763f710059
:10485c003d763f00210676003f3ace00753fbc0006
:10486c0095753f00a75c75003ffb2200753fa700c4
:10487c00e8743f00cdad74003f5c7200743f54008f
:10488c0036743f00b5f973003f6fbc00733fa20054
:10489c007e733f003e4073003f430100733fb10005
:1048ac00c1723f00888172003fc84000723f820095
:1048bc00ff713f0094bd71003f0f7b00713f0400fe
:1048cc0038713f0062f470003f18b000703f480030
:1048dc006b703f00e12570003ff4df006f3f5f001d
:1048ec00996f3f0044526f003f810a006f3f3700c1
:1048fc00c26e3f0068796e003ff12f006e3ff300ef
:10490c00e56d3f005f9b6d003f3350006d3f7100c4
:10491c00046d3f0028b86c003f486b006c3fd20020
:10492c001d6c3f00d5cf6b003f4181006b3f1600e3
:10493c00326b3f0065e26a003f1d92006a3f3e0009
:10494c00416a3f00d8ef69003fdc9d00693f490098
:10495c004b693f002ff868003f90a400683f480067
:10496c0050683f008bfb67003f26a600673f3c006a
:10497c0050673f00caf966003fc2a200663f340090
:10498c004b663f000ef365003f639a00653f2000c5
:10499c0041653f0058e764003ff88c00643f12000b
:1049ac0032643f00a6d663003fa27a00633f190031
:1049bc001e633f0009c162003f636300623f360023
:1049cc0005623f0072a661003f284700613f580016
:1049dc00e7603f00018760003f142600603fa000a5
:1049ec00c45f3f00a6625f003f2600005f3f0f00e0
:1049fc009d5e3f0071395e003f5ed5005d3fa400b7
:104a0c00705d3f00740b5d003fbea5005c3f700005
:104a1c003f5c3f00aed85b003f5471005b3f7400bd
:104a2c00095b3f000ea15a003f3238005a3fc000cc
:104a3c00ce593f00c76459003f48fa00583f430025
:104a4c008f583f00b82358003fa6b700573f0e00c1
:104a5c004b573f0001de56003f5d7000563f430050
:104a6c0002563f00929355003f6c2400553fc00006
:104a7c00b4543f008d4454003fd4d300533fa600a0
:104a8c0062533f00f1f052003fa67e00523ff60009
:104a9c000b523f00af9851003ff22400513faf0042
:104aac00b0503f00e63b50003fa8c6004f3fe3002c
:104abc00504f3f00a9da4e003fd863004e3fa20092
:104acc00ec4d3f00d6744d003f93fc004c3fdc0096
:104adc00834c3f009e0a4c003fda90004b3fa000f5
:104aec00164b3f00f19b4a003fbc20004a3f12008e
:104afc00a5493f00e12849003f3bac00483f0e0070
:104b0c002f483f006cb147003f553300473fb7007b
:104b1c00b4463f00a43546003f1cb600453f1e007e
:104b2c0036453f009ab544003fa03400443f310065
:104b3c00b3433f003c3143003fe2ae00423f020032
:104b4c002c423f00aca841003fe12400413fa100b2
:104b5c00a0403f00eb1b40003faf96003f3f0e00d4
:104b6c00113f3f00f88a3e003f5c04003e3f5b0073
:104b7c007d3d3f00d3f53c003fe76d003c3f860098
:104b8c00e53b3f00af5c3b003f63d3003a3fa100e5
:104b9c00493a3f006abf39003fbd3400393fac0091
:104bac00a9383f00151e38003f199200373fb80056
:104bbc0005373f00d17836003f85eb00353fc40008
:104bcc005d353f008dcf34003ff24000343fe200b2
:104bdc00b1333f006c2233003f819200323f210001
:104bec0002323f005c7131003f22e000303f830015
:104bfc004e303f006fbc2f003ff629002f3f0700bf
:104c0c00972e3f00b4032e003ffc6f002d3fcf00ca
:104c1c00db2c3f002c472c003f35b2002b3fc9004a
:104c2c001c2b3f00f9862a003fb3f000293f1800e7
:104c3c005a293f0009c328003f842b00283fab00b2
:104c4c0093273f006efb26003fbb6200263fa3006c
:104c5c00c9253f00273025003f469600243f010020
:104c6c00fc233f00566123003f47c600223fd4007f
:104c7c002a223f00fc8e21003fbff200203f1d0086
:104c8c0056203f0017b91f003fbd1b001f3fed0012
:104c9c007d1e3f00cadf1d003f3141001d3f440017
:104cac00a21c3f0004031c003f4e63001b3f44004a
:104cbc00c31a3f00d5221a003f138200193fdb00b4
:104ccc00e0183f00603f18003f6f9d00173f2b001e
:104cdc00fb163f00825816003f85b500153f340087
:104cec0012153f007e6e14003f64ca00133ff6009d
:104cfc0025133f00348112003f0edc00113f93005e
:104d0c0036113f00b49010003f81ea000f3ffa00cb
:104d1c00430f3f001f9d0e003fe0f5000d3f4d007f
:104d2c004e0d3f0065a60c003f2afe000b3f8a008b
:104d3c00550b3f00a8ac0a003f6003000a3fc500ba
:104d4c0059093f00e6af08003fa30500083f0c00df
:104d5c005b073f0021b006003fe20400063f600005
:104d6c0059053f0079ad04003f500100043fc100dc
:104d7c0054033f00f0a702003fcafa00013f510064
:104d8c004d013f00959f00003fe7e200ff3e1f00f2
:104d9c0086fe3e00d028fd003edaca00fb3e3c00f9
:104dac006cfa3e00f60cf9003e2aad00f73eb60058
:104dbc004cf63e00bcebf4003e1a8a00f33ef200c7
:104dcc0027f23e0022c5f0003ecc6100ef3ef00021
:104ddc00fded3e006b99ec003e613400eb3eaf0004
:104dec00cee93e007768e8003eb80100e73e74006b
:104dfc009ae53e008732e4003e15ca00e23e1c00f4
:104e0c0061e13e009df7df003e978d00de3eea003b
:104e1c0022dd3e00d8b7db003e1f4c00da3e01001d
:104e2c00e0d83e003b73d7003e100600d63e5f0034
:104e3c0098d43e00062ad3003e49bb00d13e060062
:104e4c004cd03e003cdcce003e0d6c00cd3e37001d
:104e5c00fbcb3e00fc89ca003e3b1800c93ef40067
:104e6c00a5c73e004833c6003e16c000c43e5e00d7
:104e7c004cc33e0041d8c1003e9d6300c03e95002e
:104e8c00eebe3e000779bd003e150300bc3e9c0003
:104e9c008cba3e00be15b9003e7c9e00b73eb300f6
:104eac0026b63e0064aeb4003ed23500b33eba0026
:104ebc00bcb13e003d43b0003e3ac900ae3ed3000b
:104ecc004ead3e0028d4ab003ef75800aa3e400041
:104edc00dda83e004661a7003ee7e400a53e0100c8
:104eec0068a43e00d9eaa2003e4c6d00a13e3900f8
:104efc00ef9f3e00e3709e003e28f2009c3ee700d0
:104f0c00729b3e0062f399003e9b7300983e4d00ed
:104f1c00f3963e00bd7295003ea6f100933e6d00e7
:104f2c0070923e00afee90003ead6c008f3e46009e
:104f3c00ea8d3e007b678c003e6de4008a3e1c00cf
:104f4c0061893e0044dd87003e4b5900863eed00f2
:104f5c00d4843e002b5083003e25cb00813edd00e7
:104f6c0045803e005e807d003e7e74007a3e1600d9
:104f7c0068773e00e65a74003e2f4d00713ef300f8
:104f8c003e6e3e00ec2f6b003ea32000683e90006e
:104f9c0010653e003b0062003e1cef005e3e76005a
:104fac00dd5b3e004bcb58003e99b800553e61008e
:104fbc00a5523e00e6914f003ea27d004c3ed7002c
:104fcc0068493e00ca5346003e363e00433e1c0034
:104fdc0028403e007b113d003e55fa00393eeb0067
:104fec00e2363e00fbca33003e85b200303ecc00b8
:104ffc00992d3e008d802a003e0a6700273e010055
:10500c004d243e00b53221003ee317001e3e8b00be
:10501c00fc1a3e0033e117003e11c500143eef00b0
:10502c00a8113e00488c0e003e5d6f000b3eec005c
:10503c0051083e00373405003e401600023e0b007e
:10504c00f0fd3d0010b3f7003d087500f13d000088
:10505c0037eb3d00ecf7e4003d52b800de3db80004
:10506c0078d83d001138d2003de4f600cb3d31003c
:10507c00b5c53d007e73bf003dbe3000b93dfe009e
:10508c00edb23d00b9aaac003ded6600a63d9a001c
:10509c0022a03d0048de99003d709900933d11001f
:1050ac00548d3d00b20e87003d47c800803dc500c1
:1050bc0004753d00ee7768003d0cea005b3d1d0079
:1050cc005b4f3d003acd42003d3e3d00363d4f002a
:1050dc00ae293d00541e1d003d4c8d00103d50006e
:1050ec00fd033d0090d8ee003c67b400d53c580061
:1050fc0092bc3c002f6ea3003c064a008a3cba00ce
:10510c004b623c00680330003c2e7600fb3b2700d2
:10511c00dd963b000e32c9003a0e3200c9ba2700a8
:10512c00dd96bb002e76fb00bb68030030bcba00da
:10513c004b62bc00064a8a00bc2f6e00a3bc580010
:10514c0092bcbc0067b4d500bc90d800eebc50003b
:10515c00fd03bd004c8d1000bd541e001dbd4f0045
:10516c00ae29bd003e3d3600bd3acd0042bd1d000e
:10517c005b4fbd000cea5b00bdee770068bdc5005f
:10518c000475bd0047c88000bdb20e0087bd11007c
:10519c00548dbd0070999300bd48de0099bd9a00f6
:1051ac0022a0bd00ed66a600bdb9aa00acbdfe00f4
:1051bc00edb2bd00be30b900bd7e7300bfbd310085
:1051cc00b5c5bd00e4f6cb00bd113800d2bdb800aa
:1051dc0078d8bd0052b8de00bdecf700e4bd00008d
:1051ec0037ebbd000875f100bd10b300f7bd0b0027
:1051fc00f0fdbd0040160200be37340005beec00c9
:10520c005108be005d6f0b00be488c000ebeef0057
:10521c00a811be0011c51400be33e10017be8b00ef
:10522c00fc1abe00e3171e00beb5320021be010001
:10523c004d24be000a672700be8d80002abecc001c
:10524c00992dbe0085b23000befbca0033beeb0008
:10525c00e236be0055fa3900be7b11003dbe1c0083
:10526c002840be00363e4300beca530046bed7009f
:10527c006849be00a27d4c00bee691004fbe6100a5
:10528c00a552be0099b85500be4bcb0058be760057
:10529c00dd5bbe001cef5e00be3b000062be9000fa
:1052ac001065be00a3206800beec2f006bbef3009f
:1052bc003e6ebe002f4d7100bee65a0074be160045
:1052cc006877be007e747a00be5e80007dbedd0015
:1052dc004580be0025cb8100be2b500083beed0067
:1052ec00d484be004b598600be44dd0087be1c0032
:1052fc006189be006de48a00be7b67008cbe4600ef
:10530c00ea8dbe00ad6c8f00beafee0090be6d009e
:10531c007092be00a6f19300bebd720095be4d000a
:10532c00f396be009b739800be62f30099bee70033
:10533c00729bbe0028f29c00bee370009ebe39003a
:10534c00ef9fbe004c6da100bed9ea00a2be0100c9
:10535c0068a4be00e7e4a500be466100a7be4000fd
:10536c00dda8be00f758aa00be28d400abbed300ff
:10537c004eadbe003ac9ae00be3d4300b0beba0051
:10538c00bcb1be00d235b300be64ae00b4beb30037
:10539c0026b6be007c9eb700bebe1500b9be9c00f2
:1053ac008cbabe001503bc00be077900bdbe9500cb
:1053bc00eebebe009d63c000be41d800c1be5e0003
:1053cc004cc3be0016c0c400be483300c6bef400b9
:1053dc00a5c7be003b18c900befc8900cabe370079
:1053ec00fbcbbe000d6ccd00be3cdc00cebe06007f
:1053fc004cd0be0049bbd100be062a00d3be5f0014
:10540c0098d4be001006d600be3b7300d7be010078
:10541c00e0d8be001f4cda00bed8b700dbbeea00f5
:10542c0022ddbe00978dde00be9df700dfbe1c00a6
:10543c0061e1be0015cae200be873200e4be740012
:10544c009ae5be00b801e700be776800e8beaf0081
:10545c00cee9be006134eb00be6b9900ecbef000ef
:10546c00fdedbe00cc61ef00be22c500f0bef20027
:10547c0027f2be001a8af300bebceb00f4beb600e5
:10548c004cf6be002aadf700bef60c00f9be3c008f
:10549c006cfabe00dacafb00bed02800fdbe1f00ad
:1054ac0086febe00e7e2ff00be959f0000bf5100e4
:1054bc004d01bf00cafa0100bff0a70002bfc10036
:1054cc005403bf0050010400bf79ad0004bf60005d
:1054dc005905bf00e2040600bf21b00006bf0c0056
:1054ec005b07bf00a3050800bfe6af0008bfc500ff
:1054fc005909bf0060030a00bfa8ac000abf8a00ac
:10550c00550bbf002afe0b00bf65a6000cbf4d005b
:10551c004e0dbf00e0f50d00bf1f9d000ebffa0041
:10552c00430fbf0081ea0f00bfb4900010bf93007f
:10553c003611bf000edc1100bf34810012bff60023
:10554c002513bf0064ca1300bf7e6e0014bf340065
:10555c001215bf0085b51500bf82580016bf2b0071
:10556c00fb16bf006f9d1700bf603f0018bfdb002c
:10557c00e018bf0013821900bfd522001abf4400e7
:10558c00c31abf004e631b00bf0403001cbf4400c2
:10559c00a21cbf0031411d00bfcadf001dbfed00c2
:1055ac007d1ebf00bd1b1f00bf17b9001fbf1d0014
:1055bc005620bf00bff22000bffc8e0021bfd400dc
:1055cc002a22bf0047c62200bf56610023bf01003c
:1055dc00fc23bf0046962400bf27300025bfa30044
:1055ec00c925bf00bb622600bf6efb0026bfab0007
:1055fc009327bf00842b2800bf09c30028bf1800c5
:10560c005a29bf00b3f02900bff986002abfc90090
:10561c001c2bbf0035b22b00bf2c47002cbfcf007a
:10562c00db2cbf00fc6f2d00bfb403002ebf0700a6
:10563c00972ebf00f6292f00bf6fbc002fbf830031
:10564c004e30bf0022e03000bf5c710031bf210042
:10565c000232bf0081923200bf6c220033bfe200e5
:10566c00b133bf00f2403400bf8dcf0034bfc40053
:10567c005d35bf0085eb3500bfd1780036bfb80073
:10568c000537bf0019923700bf151e0038bfac009c
:10569c00a938bf00bd343900bf6abf0039bfa100b3
:1056ac00493abf0063d33a00bfaf5c003bbf8600f2
:1056bc00e53bbf00e76d3c00bfd3f5003cbf5b0092
:1056cc007d3dbf005c043e00bff88a003ebf0e006b
:1056dc00113fbf00af963f00bfeb1b0040bfa100c6
:1056ec00a040bf00e1244100bfaca80041bf0200b4
:1056fc002c42bf00e2ae4200bf3c310043bf310040
:10570c00b343bf00a0344400bf9ab50044bf1e0091
:10571c003645bf001cb64500bfa4350046bfb700d8
:10572c00b446bf0055334700bf6cb10047bf0e00f5
:10573c002f48bf003bac4800bfe1280049bf120016
:10574c00a549bf00bc204a00bff19b004abfa00086
:10575c00164bbf00da904b00bf9e0a004cbfdc001a
:10576c00834cbf0093fc4c00bfd674004dbfa2000d
:10577c00ec4dbf00d8634e00bfa9da004ebfe3006a
:10578c00504fbf00a8c64f00bfe63b0050bfaf0054
:10579c00b050bf00f2245100bfaf980051bff600cb
:1057ac000b52bf00a67e5200bff1f00052bfa60004
:1057bc006253bf00d4d35300bf8d440054bfc0000c
:1057cc00b454bf006c245500bf92930055bf4300e6
:1057dc000256bf005d705600bf01de0056bf0e00c2
:1057ec004b57bf00a6b75700bfb8230058bf4300a4
:1057fc008f58bf0048fa5800bfc7640059bfc0009b
:10580c00ce59bf0032385a00bf0ea1005abf7400e7
:10581c00095bbf0054715b00bfaed8005bbf70006a
:10582c003f5cbf00bea55c00bf740b005dbfa40055
:10583c00705dbf005ed55d00bf7139005ebf0f00ab
:10584c009d5ebf0026005f00bfa662005fbfa00088
:10585c00c45fbf0014266000bf01870060bf580002
:10586c00e760bf0028476100bf72a60061bf360029
:10587c000562bf0063636200bf09c10062bf19000b
:10588c001e63bf00a27a6300bfa6d60063bf1200de
:10589c003264bf00f88c6400bf58e70064bf20007e
:1058ac004165bf00639a6500bf0ef30065bf34000d
:1058bc004b66bf00c2a26600bfcaf90066bf3c00bf
:1058cc005067bf0026a66700bf8bfb0067bf480070
:1058dc005068bf0090a46800bf2ff80068bf490053
:1058ec004b69bf00dc9d6900bfd8ef0069bf3e006b
:1058fc00416abf001d926a00bf65e2006abf1600d4
:10590c00326bbf0041816b00bfd5cf006bbfd200a3
:10591c001d6cbf00486b6c00bf28b8006cbf7100d9
:10592c00046dbf0033506d00bf5f9b006dbff30073
:10593c00e56dbf00f12f6e00bf6879006ebf3700b8
:10594c00c26ebf00810a6f00bf4452006fbf5f0080
:10595c00996fbf00f4df6f00bfe1250070bf4800f6
:10596c006b70bf0018b07000bf62f40070bf040011
:10597c003871bf000f7b7100bf94bd0071bf8200f6
:10598c00ff71bf00c8407200bf88810072bfb100b8
:10599c00c172bf0043017300bf3e400073bfa20041
:1059ac007e73bf006fbc7300bfb5f90073bf5400aa
:1059bc003674bf005c727400bfcdad0074bfa7001d
:1059cc00e874bf00fb227500bfa75c0075bfbc006c
:1059dc009575bf003ace7500bf21060076bf7100e9
:1059ec003d76bf002a747600bf4caa0076bfd70064
:1059fc00df76bf00ba147700bf17490077bfcc0021
:105a0c007c77bf00fbaf7700bf82e20077bf7200ec
:105a1c001478bf00cc457800bf8e760078bfb900f3
:105a2c00a678bf004dd67800bf3a050079bf8f002d
:105a3c003379bf004e617900bf758e0079bf0600c7
:105a4c00bb79bf00ffe67900bf5112007abf0c0092
:105a5c003d7abf0030677a00bfbc90007abfa100ce
:105a6c00b97abf00efe17a00bfa609007bbfc60080
:105a7c00307bbf004f577b00bf317d007bbf7b006d
:105a8c00a27bbf002ec77b00bf4aeb007bbfbf00d1
:105a9c000e7cbf009c317c00bfd253007cbf8200c7
:105aac00757cbf0089967c00bffab6007cbfc30032
:105abc00d67cbf0006f67c00bf9014007dbf94001e
:105acc00327dbf00f04f7d00bfb56c007dbfe300a1
:105adc00887dbf006aa47d00bf59bf007dbfb200a6
:105aec00d97dbf0062f37d00bf7c0c007ebfff0040
:105afc00247ebf00da3c7e00bf1e54007ebfba007d
:105b0c006a7ebf00bf807e00bf2d96007ebff30073
:105b1c00aa7ebf0023bf7e00bfbbd2007ebfac00fd
:105b2c00e57ebf0005f87e00bfc809007fbfe3001b
:105b3c001a7fbf00672b7f00bf433b007fbf8800ed
:105b4c004a7fbf0036597f00bf3c67007fbfac0067
:105b5c00747fbf0073817f00bfa48d007fbf2d00b9
:105b6c00997fbf002fa47f00bf79ae007fbf3d009f
:105b7c00b87fbf0059c17f00bfcdc9007fbfab004c
:105b8c00d17fbf00f1d87f00bf8fdf007fbf9700b0
:105b9c00e57fbf00f7ea7f00bfbfef007fbff100da
:105bac00f37fbf007bf77f00bf6efa007fbfb900a9
:105bbc00fc7fbf006dfe7f00bf8bff007fbf00002e
:105bcc000080bf00ceff7f00bf15ff007fbfa40089
:105bdc00fd7fbf00adfb7f00bf0ef9007fbfc7008c
:105bec00f57fbf00e9f17f00bf74ed007fbf570068
:105bfc00e87fbf00a4e27f00bf59dc007fbf6700d5
:105c0c00d57fbf00cdcd7f00bf9cc5007fbfd3002b
:105c1c00bc7fbf0074b37f00bf6da9007fbfbf0006
:105c2c009e7fbf0079937f00bf9c87007fbf1800c9
:105c3c007b7fbf00fc6d7f00bf4a60007fbff00020
:105c4c00517fbf00ff427f00bf6633007fbf36002d
