:020000040000fa
:080000000002040000000000f2
:020000040000fa
:10000800d0020000d0020000d0020000d0020000a0
:10001800d0020000d0020000d0020000d002000090
:10002800d0020000d0020000d0020000d002000080
:10003800e4a60000d0020000d0020000d0020000b8
:1000480020a20000d0020000d0020000d002000070
:10005800d0020000d0020000eca60000d002000090
:10006800d0020000d0020000d0020000d002000040
:10007800d0020000d0020000d0020000d002000030
:1000880016a70000d0020000d0020000d002000035
:10009800d0020000d0020000d0020000d002000010
:1000a800d0020000d0020000d0020000d002000000
:1000b8001ea70000d0020000d0020000d0020000fd
:1000c800d0020000d0020000d0020000d0020000e0
:1000d800d0020000d002000048a70000d0020000b3
:1000e80000a20000d0020000d0020000d0020000f0
:1000f800d0020000d0020000d0020000d0020000b0
:10010800d0020000d002000048940000d002000095
:10011800d002000050a70000d0020000d00200006a
:10012800d0020000d0020000d0020000d00200007f
:100138007aa70000d0020000d0020000d002000020
:10014800d0020000d0020000d0020000d00200005f
:10015800d0020000d0020000d0020000d00200004f
:10016800d0020000d0020000d0020000d00200003f
:10017800d0020000d0020000d0020000d00200002f
:10018800d0020000d0020000d0020000d00200001f
:10019800d0020000d0020000d0020000d00200000f
:1001a800d0020000d0020000d0020000d0020000ff
:1001b800d0020000d0020000d0020000d0020000ef
:1001c800d0020000d0020000d0020000d0020000df
:1001d800d0020000d0020000d0020000d0020000cf
:1001e800d0020000d0020000d0020000d0020000bf
:1001f800d0020000d0020000d0020000d0020000af
:10020800d0020000d0020000d0020000d00200009e
:10021800d0020000d0020000d0020000d00200008e
:10022800d0020000d0020000d0020000d00200007e
:10023800d0020000d0020000d0020000d00200006e
:10024800d0020000d0020000d0020000d00200005e
:10025800d0020000d0020000d0020000d00200004e
:020000040000fa
:100400008f402200eef227000e018800000000005d
:1004100000012000200288000c000700a0452900f0
:10042000010020000f000700000020000000e00095
:100430000200320000000200000000008ca7020051
:10044000000000000040da000000fe0020712000e3
:100450000000e0000200320000202000900188002f
:1004600000000600a1028800800078000000eb0078
:100470001a003700e280400054a0b4009101ba0095
:10048000e280400054a0b4009102ba00e280400033
:1004900054a0b4000002eb00472bde00f507b200c9
:1004a000a6018800602ce10008003a000049eb003a
:1004b0000201e800020039003420ec0002f0a00044
:1004c0008301e900f9ff3e00040037006128e100e4
:1004d000010032000082eb00040007001101ba00a5
:1004e0000200e000e3ff3a000000060004d0a30091
:1004f000e20f49001c003900810278003549ba003a
:100500000201e800020039003420ec0002f0a000f3
:100510008301e9000f0032002549ba000201e8001a
:10052000020039003420ec0002f0a0008301e90051
:10053000080032000400e0000600320015c9ba00cd
:100540000201e800020039003420ec0002f0a000b3
:100550008301e9008180e80054a0b4000300e000ba
:10056000e2ff3a00000006009102ba000559780047
:100570008301e900f7ff3200c82ade000559780040
:100580008301e900f3ff32000400e000f1ff3200d4
:1005900011d9ba00eeff370070a804000000000077
:1005a0000040da000000fe000000fa000748a90041
:1005b000e7026000c82add00e6428000f48f2f00c9
:1005c0000402630005027200e442880068006000d3
:1005d0004300de00610060004a00dd00344180001d
:1005e00004a0a10000027200344188000080fa00db
:1005f000000006000000fa00000e8800110e8800be
:10060000220e88000080fa00000006000000fa00b8
:10061000300e8000510e80000080fa0000000600bd
:100620000000fa002148a90041e2a9000148a90000
:100630000080fa00000006000000fa001012880096
:1006400021128800021288000080fa0000000600d3
:100650000000fa008411800066026200e60f52007a
:100660000c003a00030037003322ab00feff3a00d3
:10067000a5118800b0027800e08f5200faff3a001e
:10068000070037003322ab00feff3a008502fb0073
:10069000a5118800b0427800e0cf5200f9ff3a007f
:1006a0000080fa00000006000000fa000002780056
:1006b00085088000e08f5200030035001061a8001b
:1006c000000028001021b700300880004108800099
:1006d000e00f520001003200008abe000080fa00e4
:1006e0000000060003f0a200889fbe008a9fbe00a3
:1006f0008c1f7800830107008a0133006450e100f9
:100700004f0032006420e1005200320003826c008e
:1007100007003b000905d0000306d000820f5400fb
:100720000c065d00020039000200320089017800e9
:10073000030678008582550004003d000003fd009b
:100740008103fd008502ea008b854200840f720060
:1007500002003b0060001000e08018006011b8004b
:100760000005eb007a28e1000a0039000600780055
:10077000c75ddd00f707b200878075002d003700e8
:10078000828171000a017800610560008180d100da
:100790000080d3008502e900f9ff3b000604400019
:1007a0008784480002003b0060041400e0841c00c1
:1007b0000988a300070032008a81710082817100dc
:1007c000610164008904d1000884d3008b05e8002e
:1007d000170037000978a30013003a000b00e0006f
:1007e000130034008b05e9000804440089844c00a0
:1007f0000a4474000978a3000d003a000b00e000e1
:10080000070034008b05e9000804440089844c008b
:1008100001003a000b0020000978a300f7ff320026
:100820000001eb0002003700828171000a017800ac
:10083000f90007000cf0a70001f0a000420137000a
:100840006420e10002003a00838f6c004201330013
:100850000801be000200be003b013700889fbe00b9
:100860008a9fbe008c1f7800260107002d013300ef
:1008700003866c006450e1002e0032006420e10029
:10088000330032006150e1002f0032006120e100ae
:100890003100320085855500eb07b00009002000cb
:1008a00008042000050037000804440089844c0037
:1008b0000a0031000603430087834b000001530008
:1008c00081815b00f8ff33000203be000800a00036
:1008d0000804440089844c00f6ff3900c639dd0065
:1008e0008301730001003200130020008904d1004d
:1008f0000884d3000998a300050032000800a7006f
:100900000300a0008904d1000884d3008b05e8000f
:100910008904d1000884d3000001eb000281d200d9
:10092000bd00070001f0a1000cf0a70001f0a0003d
:10093000050137006420e100070132000801be0014
:100940000200be00f7ff37006120e1000201320023
:100950006000b800f3ff37000000200001f8270016
:10096000f0ff3700839f68000100e00002003d00b7
:1009700060001000e08018000300e00002003d006d
:1009800060011100e08119002a0107004f00e0001a
:1009900002003b0060001000e0801800000006002c
:1009a000140020005a013700f4ff2f0058013700cf
:1009b0000001be00be0007000470a70003f0a10004
:1009c0006509b100160032000d0035006828e1000d
:1009d00006003500f0ff2f00f1ff27000300e000c4
:1009e00013003b000100280000000500000040004b
:1009f000818048008502e900fcff3a0008003700ca
:100a0000f88f420002003c008000eb00000005006f
:100a10008100d1000080d3008502e800fcff3a008d
:100a20000300e00002003b0060001000e0801800be
:100a3000000006000001be009d0007000470a70032
:100a400003f0a10003f8a30013003a006509b10008
:100a500010003200090035006928e100020035006d
:100a600001002800000005000000400081804800cf
:100a70008502e900fcff3a0000000600f88f420002
:100a8000050035008100d1000080d3008502e80018
:100a9000fcff3a00000006008000eb0000000500ab
:100aa0004f89de0082017800340137006011b80000
:100ab000420137000001eb00ee00070004003200a5
:100ac0000200200003f8230001f0a70005ff070043
:100ad000000006000400200000003700889fbe00d0
:100ae0008a9fbe008c1f78004f26dd00850007001e
:100af0008c0033006120e100430032006250e100cd
:100b000041003e003e0039006420e1003c0032001c
:100b1000058255000f003b000402e80038003a004f
:100b2000800f5300818f5b00350034000800be0049
:100b300003f0a10001f0a60003f0a0000cf0a70054
:100b4000e9fe0700800037000603430087834b005f
:100b50000c4646000005530081855b00020033000f
:100b60000a03be000c00a0000402e900f6ff3b00ef
:100b7000850578000602430087824b0004003a0096
:100b80006000b80009f0a70001f0a0006e00370077
:100b90000002520081825a000704e0000400330082
:100ba0000603430087834b008b05e900faff3700fb
:100bb000090578000604be000203be006011b800fb
:100bc00015000700e00f5200e08f5a0007003500c3
:100bd00002003c000c08a300040032000601be0025
:100be00003f0a0000cf0a700bffe07000a85680014
:100bf00001f0a1000af0a70001f0a00052003700a8
:100c00000800be0050003700100220000cf0a600c3
:100c1000008088005000370081002000618055006e
:100c20000b003d000b00200061fe2f000100e100e1
:100c30001d00340082817100610164008904d100cb
:100c40000884d3000000e800faff3a007100200099
:100c500061006400030070000200600009003200bf
:100c600061044400e0844c000988a50005003200be
:100c70008b05e8006808e10002003a008904d10011
:100c80000884d300f20f20000258e10005003d0067
:100c9000c75ddd00f907b2008980750008007800a3
:100ca000000006000bf827008b007800000005000c
:100cb000c70ade00f107b200f50fb20008003200eb
:100cc000e1cf4200020032000170a00024000500c4
:100cd000810f700001003200040805004400050087
:100ce000810f700002003a00140005008502e9003f
:100cf0000000400081c04800fcff3b000170a000e4
:100d0000240005000004be00e9ff07000003be0048
:100d10000405be000200be00e5ff0700844f750019
:100d2000000006000200be006450e100050036002d
:100d30006420e100020036000968a30001003a00c7
:100d40000800be000160a0004f0678004f05be00fd
:100d50004f04be0000000600f0ff2f00f1ff270047
:100d6000f9ff3700889fbe008a9fbe008c1f780065
:100d7000e4ff0700ebff330003866c006450e100e2
:100d8000240032006420e100270032006150e100bd
:100d9000220032006120e100210032008b854200f8
:100da000eb07b1000134b800003ab8000804420073
:100db00089844a00013ab8000030b80088804000b9
:100dc00009014a000400330000004000818048000f
:100dd000020149008b05e900c909dd0083017000ab
:100de0000100320013002000c814de004814dd00aa
:100df0004709de001200b200c808de000884700057
:100e000085ff070001f0a1000cf0a70001f0a00091
:100e1000cdff37006120e100cfff32000801be00a6
:100e20000200be00f7ff37006150e100fcff3a000e
:100e3000c9ff37006022b800060220000000d00081
:100e40008180d2000482d2008582d2000000a000fe
:100e50000202520083825a00030031000202420063
:100e600083824a000000a1000603e900f3ff3a0074
:100e700000000600889fbe008a9fbe000003be00df
:100e80008bff070085057800828152000200200058
:100e90006220e10004003a00f307b10004003500cd
:100ea0007718e100040035000600be00140037008a
:100eb0006000b8000f003700f50f2000faff2f0088
:100ec0008502d1000a85d3008301e900fcff3b00c5
:100ed0008184620000046500890f7400f2ff320013
:100ee0008582ea000a85ea008184620000046500c8
:100ef00049ff070007f0a70001f0a0000081eb0008
:100f00000200e0004f05be004f04be0000000600d6
:100f1000889fbe008a9fbe00841f780079ff07006b
:100f20004f00780011003300f0ff2f00838f6c001a
:100f300006003b00040565000a00a7000800370012
:100f400009f0a6001000200008003700820f5400ae
:100f5000838f5c00030039001000200001003e0078
:100f60000000200009f0a7000000ea004f05be00c5
:100f70004f04be000000e00000000600881f78005b
:100f8000030478000300e00007003d00600010004b
:100f9000e080180060011900e081190002003b00a8
:100fa00001f02d00030037000400070008f0a7003f
:100fb00001f0a0004f04780000000600889fbe00ea
:100fc0008a9fbe00008270000402710004827100da
:100fd000260032000004be000200be006011b8000e
:100fe0006b092000950220000182cf000a00390021
:100ff0000541b1000082cf00070039000541b10072
:101000000982cf00040039000541b1000882cf00f9
:10101000010039000541b1000542520012003200c2
:101020000a003b0082817100610164008100d100ef
:101030000080d3008984d3000884d3008b05e800a6
:101040000442e800f7ff3a000700370008044400b4
:1010500089844c0000004800818048008b05e9002d
:101060000442e900f9ff3a00ebfe07004f05be001d
:101070004f04be00000006000000fa00034878009c
:101080008100fb00a4002000801f780011000900ef
:101090008400d80001027800800078004f007800ba
:1010a00005c3b30005604200e0cf500003003200ea
:1010b00085c0400071f89f000100370072f89f0062
:1010c0000080fa00000006000000fa00000278002c
:1010d000e3026200d016200014003a00450620000a
:1010e000809fbe00110009000582d80081027800af
:1010f0004f00be000000e800e08f52000b003a00f5
:10110000c412b00005192000809fbe001100090024
:101110000582d800010278004f00be000000e900ff
:10112000e00f520001003a000000e8000080fa00e1
:10113000000006000000fa00889fbe001004be00f8
:10114000c2032000030020000800be00eb0e0700d1
:10115000e0d38800c2032000030020000800be0086
:1011600000fe07000004be00c203200003002000b0
:10117000e20e0700f0d38800c20320000300200025
:101180000800be00f7fd07000004be008201200039
:1011900003002000d90e070000d48800820120003f
:1011a000030020000800be00eefd0700e40240003e
:1011b00074002000809fbe00110009008402d80046
:1011c000010278004f00be0044d48800000478007b
:1011d0006904200002003700000454008904e8007c
:1011e00009007800b8ff0700800f5400faff3d00a7
:1011f00039d488006240600058d488000002eb00b7
:1012000086ba210004003700050454000402e800f7
:101210000080fb000000d100860242009542700071
:101220008582fb00850f5400f7ff3d0024d4880021
:1012300024a82100080ae800660052004f04be00fe
:101240000080fa00000006000400fa0044fc2f00b1
:10125000f5d2800004aab900301f420020974a004e
:101260000e007800b3ff07000080fa0000000600bf
:101270000000fa00889fbe008a9fbe00000478002c
:1012800068029000e322b80025a221000502420076
:101290000ba62100944d78008b02e800d44a780018
:1012a0008b82e80014429000844a780009c2b3009f
:1012b0000502e800094a780048029000e322b800dd
:1012c00085a3210005024200e4824500944a78008b
:1012d000e5824500d44a78008502e8001442900077
:1012e000844a78000502e800094a7800b8009000b6
:1012f0008941780009417800648042005eff070060
:10130000a8009000a3c3b30002c3b3006d804500e2
:1013100059ff070098009000a3c3b30002c3b300b5
:101320007080450054ff07009800780089417800dc
:1013300002c3b300738045004fff0700d800900040
:101340004a062000110009008a00d80080007800b9
:10135000f3c040008041eb000941780076804500f1
:1013600045ff0700d8009000110009008a00d8004e
:10137000a3c0b30002c3b300788045003eff07005e
:101380000b0078004f05be004f04be000080fa003d
:10139000000006000000fa00abff0700b4ff0700e2
:1013a0000080fa00000006000000fa000004780047
:1013b000fe01070008007800160c07000000fa0084
:1013c000889fbe000104780038029000e2026200ab
:1013d0008084eb003e003200040378000620b20057
:1013e0009802900002003a00e08f520038003a0064
:1013f0000490a0003404980080047800f90fb20033
:10140000e08f520002003a00a8029000050c78001c
:10141000ea8f540005003a000408b20003003a00c5
:1014200088007800d0002000e4ff07001802900038
:101430006120b90058039000e8039000860f500027
:10144000878f58000b0032000402e8001404980053
:1014500018027800094a7800040ce80015c0b300af
:10146000c4bb2100054a7800ea8f540018003a00f6
:10147000050037008800780009407800f50a070069
:101480008004780012003700380290000410b20087
:101490000f00320018019000a80090004800900052
:1014a0000a0c070018029000840f5000040032005c
:1014b000380290000403b300340498008084eb00e9
:1014c0000002eb001404980028029000040c78003d
:1014d000090078004f04be000080fa0000000600fa
:1014e0000c00fa00889fbe008a9fbe008c9fbe0041
:1014f000800678000204be00048fbe00010578005b
:101500003a029000e20262006000b800630032001c
:10151000040378000620b2009a02900002003a000c
:10152000e08f52005d003a000490a000340598005e
:10153000e08f520002003a00aa039000070d7800e5
:10154000ba02900004c0200084826200848f52009e
:1015500004003a00210020006011b8000a00780061
:101560003a0b07003a02900004b0a100340598003d
:101570001e0278008826b8006000b800e00f560010
:10158000460032001bc0b3002807980039079800b6
:101590002a029000e00f52002c0032003a02900024
:1015a0000408b200290032005a0490001a02900088
:1015b000040454008c0f540003003e00e00f54005c
:1015c00022003200010037000c0478006142b800ac
:1015d0001a0078000401be008d00780044079800ce
:1015e000550798003a0107004e0290008486460095
:1015f000080656001a0d42001a0290000404440026
:1016000018059800cfc4de005a029000ea0290004c
:10161000840f5400858f5c0009003a000a007800ae
:101620005c0a0700e00f50000f0032002e0490000b
:10163000be0490005a029000040646000e003700d7
:10164000c7bb21008b4b7800070037001d00fb0053
:101650008a00780059ff0700e10f400004003200c3
:101660008d06e8000c06e900e00f5600c8ff3a00be
:101670002e049000be04900061005400e0805c00e5
:101680000c004000e08048000801be00e9fd0700b2
:101690001e02be000000520081805a004f06be00ac
:1016a0004f05be004f04be000080fa000000060097
:1016b0000e00fa00889fbe008a9fbe008c9fbe006d
:1016c00084b92100c5dc8000e08f52000b003a0095
:1016d000e4024200c5dc880015dd88002402980081
:1016e00004dd8800a44290000504a0002542980073
:1016f000e44290000504a0006542980067024000a3
:10170000e08248004e29dd004222de000402710022
:10171000c22ade00422cdd00ce24de0089047400e3
:101720004224dd0000dd800084bd21008a402200cb
:101730000405550024002000809fbe001100090010
:101740000405d800000278004f00be006123b900f4
:1017500036079800470798000882e8000402420014
:10176000240798008002eb00cfd5de00b6ff2f00e3
:10177000070020000a0153008b815b00028fbe002e
:1017800063064500e0864d000c0644008d864c0043
:1017900001003700040078002042900061026200de
:1017a000020032000b0037001608780010037800a2
:1017b0002642900061026200fbff320008024000f6
:1017c000840f530003003900e00f5400e08f5c00e9
:1017d00052003d0010027800800f5200edff3e00e5
:1017e00086bd2100860f52000300390086b9210012
:1017f000860f5200e7ff390016dd8000860f50008b
:1018000057003a0086b92100860f520054003a0072
:101810008502e800e18f5200deff36003e039000b3
:10182000ce039000860f5400878f5c0003003600c3
:101830008a0f54008b8f5c000d0039001e01be0022
:10184000820f5400838f5c00020039000803780087
:10185000080037000a01be000c00be0064079800b3
:1018600074fd07008a03b8006e0290000100370083
:101870002e03900006007800640798005607980031
:101880004f0b07006e0290005e039000e10f4000d6
:1018900008003a00640344000600780056079800e8
:1018a000470b07006e0290005e039000e10f4000be
:1018b0002b00320015dd8000800a780015dd8000e5
:1018c000e4804200a5439000810f500002003200e6
:1018d0000704a000010037000704a100a7429800f8
:1018e00006034000640353000608780016dd8800f4
:1018f00085b92100050b780016dd8000a642900016
:101900000504a00025439800a04290000504a10012
:10191000254098008002eb009eff370004dd880020
:10192000840f5300070036001403be0026dd880034
:1019300037dd8800100a78008042eb0004dd80006b
:101940002542980007dd80000708780020429000bb
:101950000404a00024409800640040000100370007
:101960000000eb004f06be004f05be004f04be0056
:101970000080fa00000006000000fa006400500039
:1019800004dd8000840f50000100310000dd88007c
:10199000204290000404a100244098000080fa0036
:1019a000000006000400fa00889fbe008a9fbe0067
:1019b00000047800e00f5100e08f590006003a0063
:1019c000e00f54003c00320008007800eaff0700f6
:1019d0008004eb0039003700e00f540004003a00a7
:1019e0000200be0032ff0700800478003300370099
:1019f000640254009405780068fa9700610262005e
:101a00000600320008007800020f780013079800e3
:101a1000d9ff07009e0190001e0178000200be0061
:101a200023ff070080047800e08f54002300320079
:101a3000888f54002000320069bd970009055500c9
:101a400042d5de000883550042b3de00cfb3de008e
:101a50006152b900860f5200878f5a00010036008c
:101a60000602be004229dd00ce21de0083017100a6
:101a70004221dd008800780009007800140007008a
:101a8000888f54000d0031004255dd0009054500e6
:101a9000880f5500090036000804550042c4de00d6
:101aa0004244dd000904440024dd800035dd80006f
:101ab000048cbe000100370088047800090078001b
:101ac0004f05be004f04be000080fa000000060073
:101ad0000000fa00889fbe008a9fbe000002eb0053
:101ae0006105b800610cb800070037006123b80039
:101af0008602450006034400964a78000402e80086
:101b000061015100e0815900e00f5100e08f590060
:101b1000f6ff3a004f05be004f04be000080fa00f9
:101b2000000006000000fa00889fbe008a9fbe00e9
:101b3000810478000004eb006105b800060037005e
:101b40000000fb00890078001cfe07000804e80084
:101b5000e10f4000050032000a0244001440780002
:101b6000e04f5000f6ff3a000000eb004f05be00ca
:101b70004f04be000080fa00000006000000fa00da
:101b8000881f780081ac2100e6ff07000004780080
:101b900081ac2100a000200008fe070008007800aa
:101ba0004f0478000080fa00000006000000fa00f0
:101bb00074de8000e00f52000100320004000100da
:101bc000a0ab2100ba08070080ac2100b8080700cc
:101bd00060ad2100b60807000080fa000000060092
:101be0000400fa00889fbe008a9fbe008c9fbe0042
:101bf0004ebb9700e802570059c2b30082a12100f2
:101c0000360037000603e800894f520032003a00e0
:101c1000b601fb0004fd2f00030242008582e900ab
:101c2000e00f52000f003a006105b8000a8fbe00b5
:101c3000150678000d0020000200370007487800e4
:101c40000402e8006125b8009e0378000a80430082
:101c50000a0546009a437800e0cf5300f7ff3a00a8
:101c60001e003700950378008000eb006105b80086
:101c70000404d0000204440018047800809fbe00d1
:101c8000110009008803d800810378004f00be00ce
:101c90000402e9000a8640000404d0000204440063
:101ca00018047800809fbe00110009008803d80046
:101cb000000478004f00be000dc3b3000d4e440079
:101cc0008100e800e00f5200e9ff3a000300400005
:101cd0000003b10001003700045878001642780074
:101ce000e04f5200c7ff3a00044878004f06be009c
:101cf0004f05be004f04be000080fa000000060041
:101d00000200fa00889fbe008a9fbe008c9fbe0022
:101d10000004be000405780061015100e081590013
:101d200082054400fdb721000d06e800080f780089
:101d3000250137008904e80054c2b300844f5300e2
:101d40001a013a0039427800a5c5b300854f520008
:101d5000f900320028003c00edc25200854f5200cd
:101d60009200320012003c00ebc25200854f52003c
:101d70005800320007003c0065782100864f520071
:101d80004c00320015c4b300854f5200f0003a00f9
:101d90004200370085c4b300854f52006f00320007
:101da0008542e800854f5200e9003a006d00370097
:101db00075c5b300854f52009300320007003c0008
:101dc000e4c25200854f52008000320085c2e80014
:101dd000854f5200de003a007e00370085c5b30013
:101de000854f5200b70032008542e800854f52000f
:101df000d7003a00c7003700a5c6b300854f520090
:101e0000630032000f003c00e8c25200854f5200d0
:101e10002c00320004003c008542e900854f52004e
:101e2000cb003a001900370035c6b300854f520089
:101e30002e0032008542e800854f5200c4003a006f
:101e40004400370075c7b300854f5200840032004c
:101e500007003c00eac25200854f52005000320099
:101e6000e3c24200854f5200b9003a0051003700ea
:101e700085c7b300854f52007d0032008542e800df
:101e8000854f5200b2003a00990037006a02900074
:101e90000402d000859c2100110037006a029000e6
:101ea0000402d000659d21000d00370084047800f5
:101eb000e5b721000002eb006141b8006128b800dd
:101ec000b30037004a0290000402d000459e210072
:101ed000030037004a0290000402d000c59f210091
:101ee0000502420094027800f2ff3700da02900007
:101ef000c4762000849f42009a1f78001a02900046
:101f0000841f7800aa029000851f78003a02900092
:101f1000841f78004a0290000402d000459e2100f0
:101f200005024200941f78006a0290000402d0006b
:101f3000859c210005024200941f7800f47821005e
:101f4000841f7800e0b7210025ff0700f0875700c5
:101f5000d7ff3700ba0290003e0037002a029000f7
:101f60006a0037002a029000c5002000809fbe0052
:101f7000110009000502d800010278004f00be00e0
:101f8000e00f520061003a00050278005f00370060
:101f90007a029000841fe800747a21006100370003
:101fa0004a029000841fe8002b0037009a0290003c
:101fb000280037002a02900095782100eb0f52008c
:101fc000bcff3400c5782100baff37009a1f7800a3
:101fd00021003700fa02900074002000809fbe00ac
:101fe000110009008402d800000278008102780004
:101ff0004f00be006a039000868f520043003400f9
:102000000402e80041003700fa029000740020004a
:10201000801f780081037800110009008402d80035
:10202000800278008103fd004f0078006a03900071
:1020300066034300809fbe00110009000403d8001e
:10204000010278004f00be00848f5300010034006d
:102050008502e800851f7800447a210031003700ae
:102060006a029000841f7800a47a21002d003700b6
:10207000da029000c4762000849f4200ba029000e9
:10208000851f78004a0290000402d000459e21007e
:1020900005024200941f78006a0290000402d000fa
:1020a000859c210005024200941f7800d47a21000b
:1020b000841f7800e0b72100c9fe0700ea875700b7
:1020c0007bff37009a1f78001a029000841f780067
:1020d000aa029000851f7800b47b2100841f78003d
:1020e000e0b72100befe0700e887570070ff370009
:1020f000da02900044062000809fbe001100090013
:102100008402d800010278004f00be00841f7800ce
:10211000d1ff3700da029000c4762000849f42008d
:10212000447c2100841f7800e0b72100acfe07004a
:10213000e48757005eff37000a0a90008578210087
:10214000e00f52005bff3200b5d0800059ff37002e
:1021500054c2b300e5b72100844a78000902780030
:10216000c4427800854e7800004eeb00e0cf52006c
:102170004eff32004eff37008b0f540002003a0032
:10218000804deb000d003700054c78000402e8009c
:102190006123b8000604410006034000964278001f
:1021a000e0cf5200f4ff3a00070037008b0f5400d5
:1021b00004003a00080178000049eb006000b80014
:1021c00009003700065c780019437800e04f53009f
:1021d000d8fe3a00080178001e047800064978000d
:1021e00008005100cf80de004f06be004f05be0044
:1021f0004f04be000080fa00000006000c00fa0048
:10220000889fbe0000047800f4ff27005407980060
:102210008004eb0019079800080f78002807980041
:10222000240c20003407980068015700ceb89700ae
:102230000e007800b60007001e027800094a7800f8
:102240001e0014004f04be000080fa0000000600cb
:102250000000fa00889fbe008a9fbe000084fb0039
:10226000d4c6b300844f5000220036004b06200035
:10227000110009000b84d80081057800720040002d
:102280004300dd00696d2100090040006022b800b4
:102290000600200007fe23005001be004000be00e3
:1022a000a50a0700aa002000809fbe0011000900b7
:1022b0008a85d800800578004f00be00e98545007a
:1022c000c35ddd00898545003b02be002b03be00d7
:1022d000990a0700809fbe00110009000a84d800f7
:1022e000010478004f00be004344dd00890444002f
:1022f00013003700ea4f500014003600aa002000f7
:10230000110009000a84d800000478000105780053
:10231000690444004344dd00696d21000904440060
:102320006022b8000600200007fe23003800be002f
:102330002801be00800a07004355dd0089044500de
:102340003902be002903be00080037004344dd0007
:10235000646d2100040444006022b80006002000df
:1023600007fe23003800be002801be00720a0700e5
:102370004f05be004f04be000080fa0000000600ba
:102380000000fa00889fbe008a9fbe00d4c6b3003a
:10239000e04f500029003d000040ea000004fb002f
:1023a000844f50001000340044062000809fbe007f
:1023b000110009000404d800010278004f00be009b
:1023c000a9002000809fbe00110009000902d8006a
:1023d000000278004f00be00690242004322dd0087
:1023e0006a6d210023003700ea4f500010003400ce
:1023f000a4002000110009000404d80001047800a2
:10240000690040004300dd00646d210004004000cd
:102410004344dd00040244005403be004402be00f5
:102420005001be004000be00430a070034003700e0
:102430004344dd00646d21002e0037000004fb00e2
:10244000844f50001d003400440620001100090094
:102450000404d80001027800a9002000110009003e
:102460000902d80000027800690242004322dd0020
:102470006a6221000a0242005403be004402be0008
:102480008b0920008a8545003b00be002b01be0061
:10249000290a0700809fbe00110009000904d80026
:1024a000010478004f00be004344dd000a054400eb
:1024b0003a02be002a03be00dbff3700ea4f50009d
:1024c0000a003400a4002000811f780011000900d8
:1024d0000404d80001047800cf00780069004000af
:1024e0004300dd0064622100c8ff37004344dd0083
:1024f00064622100040444003800be002801be00cc
:102500004f05be004f04be000080fa000000060028
:102510005800fa00889fbe008a9fbe008c9fbe00b4
:1025200000067800221f98000000eb00702798003a
:1025300001017800540637008200e8005107980036
:1025400054c2b300844f500009003a000003eb006e
:1025500086067800010178000300200007c3b3005d
:1025600000c2b300b1c2b3003c279800110037008d
:102570003c0290000404b200040032001c02780007
:10258000004a7800040ee800050037000000fb0058
:102590008c00780089fb0700e10f4000390632000b
:1025a0007e2190000201e80072279800350637006e
:1025b0000603e8000202430094427800dcc2b30044
:1025c0008ccf52000900320005003c0080cf520041
:1025d0000800320081cf52000c003a00070037009b
:1025e00087cf520009003a00060037000d30a000e6
:1025f000efff37000d00a000edff37000d10a00029
:10260000ebff37000d20a000e9ff37003e269000c9
:1026100062836600010032000d00a100688366003d
:10262000010032000d20a1000503fb000603b100ec
:10263000e90f530018003e008002eb00050078000f
:1026400035279800040178006113b800761f9800c0
:10265000072798000201e80003002000ea02b80002
:10266000612bb800fe189000068040001000fb00af
:102670000003b10004004000060241008502e800aa
:102680001403fb000603b100e90f5300f3ff36000b
:10269000302798000a0037000001eb00322798002d
:1026a000a6c2b30086cf520005003a00ae199000d2
:1026b000c3027800231f9800352798000402e80021
:1026c000e5c2b30094cf120021003a000de0a00053
:1026d00084027800a6c2b300d54f13000500320073
:1026e0008002eb000402e8006120b8008503780056
:1026f0000f003700ae1b900047007800271f98009e
:10270000701f98000502e8008002eb006121b8000c
:10271000321f9800431f98000402e8006121b800ae
:10272000c6c6b3000e003700ea3ab800840343007f
:10273000008242008502e8001403fb000603b1009a
:10274000e90f5300f8ff3600771f9800eeff3700bf
:102750000dc0a0008001eb00731f9800eaff370056
:102760006128b800be1b900000824300144278002c
:102770008003410057079800864f52002c0032001a
:10278000c5c6b300854f520014003c00e8c2520099
:10279000854f52002400320009003c00ecc2520078
:1027a000854f52002f003200ebc24200854f52008d
:1027b000b0003200e04f5200b7053200cc003700c5
:1027c00065c6b300854f520020003200e3c24200cc
:1027d000854f5200c6003a001300370035c7b300da
:1027e000854f52002300320007003c00e4c2520033
:1027f000854f5200180032008542e800854f520094
:10280000bb003a001700370055c7b300854f520090
:10281000bb003200e3c24200854f5200b4003a00d0
:10282000044f780011003700044f7800b6003700dd
:10283000f08366000401200001003200040028003b
:10284000848676008502e800c5ff3700044f7800d3
:102850000da0a000ac003700044f78000d60a00070
:10286000a9003700044f78000d50a0000d70a000a3
:10287000a5003700044f78002e1890004002780021
:10288000201f980004047800e00f520001003a0075
:1028900088b02100080378000002eb000100370037
:1028a0000402e800840243008040eb0095cf100052
:1028b000fbff3a00840478007e199000e00f51007d
:1028c00003003200890f51000100310082047800ba
:1028d0000002eb00be219000898f510001003600fc
:1028e00009825100e88666007d1f980038003a0092
:1028f0008406780004c2b30038279800492798005e
:102900005a2798006b279800fe249000100037008b
:10291000bc0290000504b200040032009c02780062
:10292000844a7800050ee800070037008c00780024
:1029300000022000342f9800a0fa07003e2a9000e1
:10294000e10f4000010032008904e8008d06e90033
:10295000e08f5600eeff3a00792798003e24900061
:10296000ce2490005e259000ee2590000082eb00c2
:1029700017003700bc0290000504b20009003200c5
:102980009c0378008802780035437800864b7800f5
:10299000070ee80005047800e04f53000a003a00f3
:1029a0000c003700880278003500fb000504780031
:1029b0008c007800342f980080fa07003e2a90009f
:1029c000e10f4000030032008d06e80001003700ef
:1029d000fe269000890278008504e900e08f52000d
:1029e000e4ff3a007d279800fe189000e08f500029
:1029f000240532008406780004c2b300781f9800d2
:102a0000092798001a2798002b279800fe24900089
:102a100010003700bc0290000504b2000400320030
:102a20009c027800844a7800050ee8000700370011
:102a30008c00780000022000342f98005ffa070015
:102a40003e2a9000e10f4000010032008904e800b6
:102a50008d06e900e08f5600eeff3a0079279800d6
:102a60007e1c90008e2490001e259000ae259000c4
:102a700004053700ae18900041027800211f98002d
:102a800004007800cf80de00010178008201780028
:102a9000301f9800411f9800521f9800631f980034
:102aa0004800de00480add0000007200004f780098
:102ab000f082660009003200e04f5000070032004b
:102ac000e14f40000500320010479800ee72900080
:102ad0002547980029002000030037006e739000fe
:102ae00016479800190020000e04e80072ff370016
:102af000044f78000e047800190020006eff3700a4
:102b0000044f78000d0cb3000470200004826600ae
:102b10008d023200040021000482660002003200af
:102b200067002000771f980070826600090032005d
:102b30002e1a90004401be004400be00241f9800dd
:102b4000301f9800411f9800521f9800631f980083
:102b50000a003700ae1a90004500be00251f9800fd
:102b6000e80707000002be000203be00341f980001
:102b7000451f9800561f9800671f98006022b800f4
:102b80006033b8003e189000ce1890005e19900097
:102b9000ee1990002d070700e00f50000a003d00dd
:102ba0003e189000ce1890005e199000ee1990002b
:102bb00003f0a200301f9800411f9800521f980098
:102bc000631f98003d00b3000002eb00240798004b
:102bd0006022b8006033b8003e189000ce18900014
:102be0005e199000ee1990007c070700e00f50007e
:102bf000370032003e189000ce1890005e19900009
:102c0000ee199000c3080700640147003808070068
:102c10002e0290000402e900e322b800a500200083
:102c2000809fbe00110009000502d8000002780054
:102c30004f00be0024079800e00f520002003d0044
:102c40000402e900240798002e0490000840ea00de
:102c5000cbfd07003e1a9000ce1a90005e1b90003c
:102c6000ee1b9000340807000002be000203be0005
:102c700024179800351798004617980057179800a2
:102c80006022b8000600200007ff2300ef060700bf
:102c9000e00f500002003d000804e9000b0037007f
:102ca0006022b80006002000470224002e10900089
:102cb000be1090004e119000de119000e806070053
:102cc000e00f5000020035000804e80028079800d3
:102cd000fe1a9000f88f52000f003c00054078006b
:102ce0005bfd07000002be000203be003e1890001c
:102cf000ce1890005e199000ee199000560607005d
:102d00000002be000203be00341f9800451f980059
:102d1000561f9800671f98002e049000e90f54007a
:102d200015003c006022b8006033b8003e189000e7
:102d3000ce1890005e199000ee199000270707004a
:102d4000e00f5000320032003e189000ce18900084
:102d50005e199000ee19900089070700e00f5000ff
:102d6000e08f5800e00f5900e08f590028003a002a
:102d7000e10f5400260034000400200005002e005e
:102d8000b6e02200170124002e109000be10900023
:102d90004e119000de119000ac060700e00f5000cd
:102da00002003d0073045400010037007204540017
:102db000280798004e40900071fd07000002be00f9
:102dc0000203be0024179800351798004617980094
:102dd000571798003e189000ce1890005e1990008a
:102de000ee199000a3060700650707000205be0064
:102df0000004be006000b8006011b800301f9800e9
:102e0000411f9800521f9800631f98001700370059
:102e10003e189000ce1890005e199000ee199000b8
:102e2000570707000205be000004be008507070023
:102e30000002be000203be003e189000ce189000b3
:102e40005e199000ee199000300807000002be00e5
:102e50000203be00341f9800451f9800561f9800bb
:102e6000671f98000002eb00240798008000eb0029
:102e700010c0b300e28921000b0037008100e80098
:102e8000430add00020242005403be004402be00b9
:102e90000440e10005c8e10006d0e10007d8e100e8
:102ea000030039000040e800f44f5000f3ff3a00ff
:102eb000004f78002e029000be2290000482520043
:102ec0007e1b9000060252000000fb000000520032
:102ed00030279800e00f5300020032000000e900a4
:102ee000302798006382660003003200be23900002
:102ef0008703e90037279800648266004f0032009c
:102f000062826600e1826600e00f52001700320024
:102f10003c0290000404b200080032001c03780058
:102f2000b4c2b300e08f52000100320004c2e800d6
:102f3000044b7800060ee80008003700b0022000bd
:102f4000e08f5200010032000080e8008c00780021
:102f50001af90700e10f40002a0032007e2090009d
:102f60000000e8007027980026003700e08f52002c
:102f7000240032003c0290000404b200050032003c
:102f80009c02780004c2b300844a7800050ee80071
:102f9000050037008c0078000002200007f90700c8
:102fa000e10f400017003200fe2090008100e80091
:102fb00071279800130037003c0290000404b2000f
:102fc000040032001c027800054a7800040ee80074
:102fd000070037008c00780000032000252f9800a0
:102fe000f6f80700ae2a9000e10f4000030032001f
:102ff0007e2190000201e800722798008904e90010
:103000000600370005c3b3006817980079179800c9
:103010000a1f98001b1f9800be249000e08f5400e8
:10302000e5ff3c00392798006e149000fe149000d4
:103030000e1d90009e1d90007d0037006882660086
:1030400021003a00130037003c0290000404b20053
:10305000040032001c027800054a7800040ee800e3
:10306000070037008c00780000022000252f980010
:10307000d2f80700ae2a9000e10f400003003200b2
:10308000fe2090008100e800712798008904e90083
:103090000600370005c2b30068179800791798003a
:1030a0000a1f98001b1f9800be249000e08f540058
:1030b000e5ff3c00392798006e149000fe14900044
:1030c0000e1d90009e1d900062826600e1826600e7
:1030d000e00f5200170032003c0290000404b200de
:1030e000080032001c037800b4c2b300e08f520025
:1030f0000100320004c2e800044b7800060ee8002c
:1031000008003700b0022000e08f520001003200ba
:103110000080e8008c007800a8f80700e10f40006c
:1031200043003200fe2090008100e80071279800e3
:103130003f003700e08f52003d0032003c0290001b
:103140000404b200050032009c02780004c2b300ff
:10315000844a7800050ee800050037008c007800ee
:103160000002200095f80700e10f40003000320017
:103170007e2190000201e800722798002c003700a1
:103180003c0290000404b2008502fb00e00f5200f4
:10319000130032009c01780063179800c32add00f9
:1031a000e4892100848242005503be004502be002e
:1031b0000800be000a01be0029080700a400200084
:1031c000050020006033b8002e08070006c3b300d6
:1031d000ee129000864a4000050ee800110037000c
:1031e000c32add00e7892100878242005503be0023
:1031f0004502be000800be000a01be001808070014
:10320000a4002000050020006033b8001d0807005e
:103210000003b0008c00780068f80700e10f400060
:10322000030032007e2090000000e8007027980024
:103230001e4278008442e900054f7800e04f5200ba
:10324000cfff3a00110037003c0290000404b200a6
:10325000040032001c027800084a7800040ee800de
:10326000050037008c0078000003200053f80700a9
:10327000e10f4000010032008904e8002e029000b6
:103280000402e900240798000200370008c3b300d5
:10329000fe2490002e029000e00f5200eaff3c0056
:1032a00079279800fe189000f28f50000300340038
:1032b00024c1b300044f7800020037006e799000fb
:1032c000024f78001e4278008402fb00fe19900035
:1032d0008582510065179800e04f520010003200bf
:1032e0003c0290000404b200050032001c02780089
:1032f000e5c2b300054a7800040ee8000500370077
:103300008c007800e00220002cf80700e10f40005c
:10331000030032007e2290000402e8007427980027
:103320001e40780016fc07000002be000203be002b
:103330003e189000ce1890005e199000ee19900093
:103340007d0607000e060700350037003c0290009e
:103350000404b2008502fb00e00f520013003200ab
:103360001c037800761f9800c32add00e78921003e
:10337000878242005503be004502be000800be0021
:103380000a01be00b6070700a400200005002000c7
:103390006033b800bb07070005c3b3007e1a900076
:1033a000054a4000040ee80011003700c32add0082
:1033b000e6892100868242005503be004502be0018
:1033c0000800be000a01be00a5070700a4002000f7
:1033d000050020006033b800aa0707000003b00012
:1033e0008c007800f5f70700e10f40000300320081
:1033f000fe2390008703e800772798001e02fb0059
:103400004322dd00e0892100000242005403be0097
:103410004402be000800be000a01be009907070072
:103420000205be000004be001e4278008442e9008e
:10343000054f7800e04f5200c4ff3a0013003700f8
:10344000bc0290000504b200040032009c02780027
:10345000844a7800050ee800070037008c007800e9
:1034600000032000342f9800d4f707003e2a900074
:10347000e10f400003003200fe2090008100e800d0
:10348000712798008904e9000600370004c3b300df
:10349000701f980001279800122798002327980092
:1034a000ee149000e08f5400e5ff3a007e1c90007f
:1034b0008e2490001e259000ae259000e8866600c0
:1034c00070023200be209000e08f50006d02340088
:1034d0000dc2b3000802be000a03be0081047800da
:1034e0003c0090000004b200040032001c00780090
:1034f0000d487800000ee8000d0037008c007800c1
:1035000000022000342f9800252f9800062f9800e5
:10351000172f9800a9f707003e2a9000ae2a9000c6
:103520000e2b90009e2b9000e10f40000300320014
:103530007e2190000201e800722798008904e900ca
:10354000e7ff3a004d0237008d027800050cb2000b
:103550002a003a00e08f560005003d00ae199000a9
:103560004305be004304be00231f98001600370029
:10357000708266000e0032002e1b90004602be00d4
:10358000261f9800240f9800350f9800160290000f
:103590004fa2de00440f9800540f98002e0c9000ac
:1035a000be0c90004e0d9000de0d9000060037001e
:1035b0002e18900040047800201f9800cfc4de0031
:1035c000090578008a057800e00f5400e08f5c0060
:1035d000e00f5d00e08f5d0023003d003d00b30083
:1035e0006022b8006033b8000804520089845a0091
:1035f0000a055b008b855b001b003700e08f5600df
:1036000005003d00ae1890004105be004104be001b
:10361000211f980014003700f08266000c00320071
:10362000ae1a90004501be00251f98006207980061
:1036300073079800040f9800140f98006e04900010
:10364000fe0490000e0d90009e0d900006003700c5
:10365000ae1b900047047800271f98000900200047
:103660000a0020000b0020007e189000e00f5000a0
:1036700009003a0011002000711f9800e00f54006b
:10368000e08f5c00e00f5d00e08f5d000200320023
:103690000001eb00721f98008d017800030cb2004e
:1036a000331f980004042000848f51003000320042
:1036b00003003c00e08f510008003200400037005a
:1036c00004082000be1a9000848f520014003200bb
:1036d000040c2000848f520039003a0014c0b3005b
:1036e0008002eb00e78921008502e800432bdd0022
:1036f000070343003600be002601be000040e10083
:1037000001c8e10002d0e10003d8e1002b0039003c
:103710000442e800f44f5200f3ff3a00270037005c
:1037200014c0b30000012000010020006011b800a7
:103730000040e10001c8e10002d0e10003d8e1004f
:103740001e003900460020000000d0008180d20019
:103750000281d2008381d2000603e900faff3a0019
:103760000442e800f04f5200f1ff3a001300370026
:1037700014c0b30080002000010020006011b800d8
:103780000040e10001c8e10002d0e10003d8e100ff
:103790000a003900370020000000d0008180d200ec
:1037a0000281d2008381d2008703e900faff3a0048
:1037b0000442e800f54f5200f1ff3a00044f780050
:1037c0001e02fb007e189000800f520002003d0098
:1037d000004f780004003700fe189000848f5000de
:1037e00001003d00741f98003e219000e00f510041
:1037f0000400320063826600020032000201e90028
:103800003227980004002400048266000900320078
:10381000be2190007e1a9000848f51000300340076
:103820008481510033279800020037008002eb00aa
:10383000352798001e02fb000003eb006617980076
:10384000be239000848f5300020034000482530092
:1038500064179800648266004f003200e2826600be
:1038600061826600e08f520017003200bc029000b7
:103870000504b200080032009c027800b6c2b30012
:10388000e00f52000100320006c3e800864a7800cb
:10389000050ee80008003700b0022000e00f5200db
:1038a000010032000080e8008c007800c3f60700b9
:1038b000e10f4000160032007e2090000000e8007a
:1038c0007027980012003700e00f520010003200fd
:1038d0003c0290000404b200050032001c02780093
:1038e00005c2b300054a7800040ee8000500370061
:1038f0008c00780000022000b0f60700e10f4000c5
:1039000003003200fe2090008100e800712798003b
:103910006e119000e00f51002601320004c3b30085
:1039200038279800492798005a2798006b27980055
:10393000ee149000bc0290000504b20004003200b6
:103940009c027800844a7800050ee80007003700e2
:103950008c00780000032000342f980097f60700b1
:103960003e2a9000e10f400003003200fe2090004c
:103970008100e800712798008904e900edff3a0012
:10398000691798003e249000ce2490005e25900098
:10399000ee259000070137006e119000e00f5100f6
:1039a00020003200688266001e003a0004c2b300a4
:1039b00038279800492798005a2798006b279800c5
:1039c000ee149000bc0290000504b2000400320026
:1039d0009c027800844a7800050ee8000700370052
:1039e0008c00780000022000342f980073f6070046
:1039f0003e2a9000e10f400003003200fe209000bc
:103a00008100e800712798008904e900edff3a0081
:103a1000691798003e249000ce2490005e25900007
:103a2000ee259000e282660061826600e08f52001f
:103a300017003200bc0290000504b20008003200fa
:103a40009c027800b6c2b300e00f520001003200c1
:103a500006c3e800864a7800050ee8000800370033
:103a6000b0022000e00f5200010032000080e800a8
:103a70008c00780051f60700e10f4000cd003200c5
:103a80007e2190000201e80072279800c9003700eb
:103a9000e00f5200c70032003c0290000404b20064
:103aa000050032001c02780005c2b300054a780008
:103ab000040ee800050037008c00780000022000aa
:103ac0003ef60700e10f4000ba003200fe219000f0
:103ad0008301e80073279800b60037007e1a900033
:103ae0000402e900741f980004042000be1a90002c
:103af000848f52008b00320003003c00e08f5200a4
:103b00000800320098003700040820003e1b900097
:103b1000840f53006d003200040c2000840f53000a
:103b200091003a007e1c90006143b900e08f56007e
:103b300024003d00433add00cd32de0085027200f4
:103b40004332dd00e0892100040240003404be005d
:103b50002405be000802be000a03be003e209000fd
:103b6000ce2090005e219000ee219000bc05070061
:103b7000004f78000000fb00cf80de0001017800dc
:103b8000820178000802be000a03be002506070075
:103b90003e229000ce2290005e239000ee23900003
:103ba0000002520081825a0002035b0083835b00a3
:103bb00034279800452798005627980067279800d3
:103bc0003f003700ce029000e08f52002700320005
:103bd0003e229000ce2290004338dd00cd30de0042
:103be000810070004330dd00e7892100008343003d
:103bf0003604be002605be000801be000400be005b
:103c0000342f9800252f98008af40700004f780081
:103c10000000fb00cf80de000801be00eb040700bf
:103c20003e2a9000ae2a90000001520081815a0085
:103c3000620f9800730f98008001eb000317980043
:103c40000002eb00141798006e089000fe08900028
:103c50000e1190009e119000302798004127980087
:103c6000522798006327980015003700433add007b
:103c7000cd32de00850272004332dd00e189210091
:103c800004824000140278003e21900080027800f7
:103c9000811f7800110009000481d8008002fd0016
:103ca000cf007800a4002000809fbe001100090012
:103cb0008482d800010278004f00be00044f7800d3
:103cc00003c3b3001ecf41002700370074af2100ab
:103cd000be029000e08f52000100320064ae21006d
:103ce0007e1b9000c232dd003e209000ce2090006e
:103cf0005e219000ee2190008502e900050033006e
:103d00008301d1000281d3008180d3000080d300e1
:103d1000f9ff37006f00600000004200104f78008c
:103d200011003700fe1b9000e33ab8003e209000df
:103d3000ce2090005e219000ee21900004047800d7
:103d40000804e900050033008301d1000281d3009b
:103d50008180d3000080d300f9ff37006742600004
:103d600000c3b300004f42003c0290000404b200c4
:103d7000070032009c0278001e427800844a7800d6
:103d8000050ee800e04f520006003a00120037002e
:103d90001e00fb008c00780088f50700e10f400052
:103da0000d003200fe2090008100e800712798008d
:103db0000900370070816600420798008d01780085
:103dc0000302b2003307980038279800492798006b
:103dd0005a2798006b279800fe1a9000e08f520037
:103de0003eff3a003e249000ce2490005e259000d5
:103df000ee259000e8866600220032006e139000e7
:103e0000e00f53001f0034000dc2b3000802be00d3
:103e10000a03be00ee1490003c0090000004b200c3
:103e2000040032001c0078000d487800000ee80005
:103e30000d0037008c00780000022000342f98001d
:103e4000252f9800062f9800172f98005bf5070084
:103e50003e2a9000ae2a90000e2b90009e2b9000e0
:103e6000e10f4000030032007e2490000804e800c7
:103e7000782798008904e900e7ff3a000605be00ac
:103e80000404be005e01900012407800004f7800ec
:103e9000e04f5000a8f93a007e2090004f06be0087
:103ea0004f05be004f04be000080fa00000006006f
:103eb0000000fa00889fbe008a9fbe0000047800c0
:103ec00038029000630262000080eb002d00320097
:103ed000080078002f000700b804900084ef2f003e
:103ee000048264003404980028009000e00f500021
:103ef000040032006885640002003a003f010700b8
:103f00002a0498004800900063010700e10f400078
:103f10001c003200380290000402b2000080eb0066
:103f200018003a00000021000080640015003200f3
:103f300089de8000e08f540011003200450520002a
:103f400005a5b9000a804400102b9000880f53008b
:103f500006003a009101070084de80000a05420055
:103f60000000eb00102d9800060037000402e80066
:103f7000e80f5200f2ff3a000000eb0001003700aa
:103f8000090078004f05be004f04be000080fa0013
:103f9000000006000000fa00881f78000004780086
:103fa00038019000020278001420b200e10f5200a4
:103fb00005003a000002eb0014049800280290006b
:103fc000040c78001c003700820278002520b20023
:103fd0000001eb0024202000848f520019003a00d9
:103fe000a8009000828f5000160032001802900046
:103ff000820f5200130032006121b9004800900086
:104000003201070018029000cfa2de00840f50009a
:10401000858f580003003200380290000403b3007b
:10402000340498000002eb00140498002802900069
:10403000040c7800380190000202b2000100320046
:104040000081eb00020078004f0478000080fa0045
:10405000000006000200fa00889fbe00004f7800b2
:104060000104780038029000840478000904b2004a
:10407000020032000000fb003b003700e202620059
:1040800005003a000403b3003404980015049800b6
:104090000080eb003400370058039000e8039000e4
:1040a000e00f5300e08f5b0007003a001200200091
:1040b000030020008e0078004800900003010700f4
:1040c0001904980027003700a8029000e08f5200e2
:1040d0000b003a00f5bb210025049800050c780080
:1040e000260020000700200056049800670498006e
:1040f00025002000150498000430a0003404980026
:1041000018019000cf91de00a800900048009000b8
:10411000ee000700280290008082eb001504980052
:104120001e4a7800040ce800a4c0b3009e4f1200a1
:104130000c003a00380290000410b200090032006e
:1041400018019000cf91de00a80090004800900078
:10415000de0007000002eb00140498002802900023
:10416000040c78001e00fb004f04be000080fa0023
:10417000000006000000fa00881f78008a9fbe0039
:104180008c9fbe0000047800110020006011b80070
:1041900018007800af0007000006be0021002000d4
:1041a0006011b80018007800aa0007000005be00e2
:1041b0008000eb000c01be0018007800a50007008d
:1041c0000a00be004f06be004f05be004f04780037
:1041d0000080fa00000006000000fa00881f780046
:1041e00000047800110020006011b8004800900021
:1041f0009800070018029000e00f520002003d00f6
:104200000002eb001404980028029000980290002d
:10421000e00f520007003200380290000420b20084
:1042200004003200612ab9000000420081804a0087
:1042300003003700612ab90004005000858058004f
:104240004f0478000080fa00000006000400fa0025
:10425000881f780000047800380290000440a10014
:104260003404980028029000e00f520009003a0040
:104270004800900077000700010060000082ea001b
:1042800004f0a7000402ea000400e9004f80de0009
:1042900048003700e18f500005003200e28f5000e7
:1042a00008003200e08f500010003200400037005c
:1042b00008007800020f780013079800c6ff070077
:1042c0000600370008007800020f780013079800f6
:1042d00030ff070068004400a6ff07001e017800b9
:1042e0009e01900002014000838148000800780090
:1042f000020f780013079800b7ff07001e0178002f
:104300009e0190000002510081825900030032009a
:104310003803900006b0a0003604980038039000df
:1043200063036300e10f53000d003a00e00f5200f9
:10433000e08f5a000a003500180390006130b90080
:10434000800f5200818f5a0005003c000403530087
:1043500016049800180c42000000eb00150037000e
:10436000380290000420b2000900320018029000c8
:10437000e00f52000600320008007800020f7800bb
:104380001307980003ff07009e0190001e017800ac
:104390008000eb001104980028029000040c7800c3
:1043a000480090002b0007004f88de000100370016
:1043b0000080eb004f0478000080fa000000060047
:1043c0000000fa0090de8000e00f50000300320091
:1043d0001002780094de88000200370020002000e0
:1043e00077000700e10f400002003a00946e2600bb
:1043f000048088000080fa00000006000000fa0037
:1044000094de80000408780090de88000080fa00c6
:10441000000006000000fa0004118000e00f5200c6
:1044200006003d0015118000044020000482620057
:10443000020032002302ab00feff32000040da002f
:10444000feff37000000fa0000c0da000080fa002a
:10445000000006000a00fa0044002000040f780063
:10446000100798002207980033079800410798002a
:104470000e007800f3ff07002e009000be009000b1
:104480000080fa00000006000000fa0000c0da0018
:104490000080fa00000006000a00fa001400200064
:1044a000040f7800100798000e007800f6ff070050
:1044b0001e0090000080fa00000006000000fa00d4
:1044c00000c0da000080fa00000006000a00fa00ce
:1044d000e20f500022003e00a4de8000e10f5200f7
:1044e00006003200872320004623200024232000da
:1044f00005232000e08f530004003a0087222000ab
:10450000462220002422200005222000000028004e
:104510001500600003003a00800b780007002800b7
:10452000958a7300054020009482620001003a00e1
:1045300014a0a000820278000600370094037800df
:104540000710b200fdff3200b103fb00070b78003b
:104550008502e900e08f5200f8ff3a0008003700ba
:1045600034002000040f78001007980021079800fd
:10457000320798000e007800d0ff07003e0190003f
:10458000020078000080fa00000006000000fa0037
:1045900000c0da000080fa00000006000a00fa00fd
:1045a00054002000040f7800100798000e007800d7
:1045b000f6ff07002e0090000080fa0000000600c1
:1045c0000000fa00889fbe0080047800b0de800002
:1045d000e00f500004003a000f0007000084eb00d9
:1045e000e00f500008003500b8de8000e08f540076
:1045f000050032000900440007000700e00f5000ea
:1046000001003d000084eb00080078004f04be006c
:104610000080fa00000006000000fa00e00f5000e1
:1046200004003a0084bd2100b4de88000002780056
:10463000060037000082eb0085402200850f500005
:1046400002003e00b0de88000002eb0004007800ab
:104650000080fa00000006002800fa00889fbe00d3
:104660008a9fbe008c9fbe0007067800878669007f
:104670000c003b00030478008704780008f0a100d8
:1046800009f0a100840f5000858f5800860f590053
:10469000890f5c00030033000cf0a20001003a0017
:1046a0000cf0a100fe0007006400e1005f00320092
:1046b000780147006408e100610032006c014700a6
:1046c000748557003200be001201be003a04be00dd
:1046d0001a05be001e039000be0a90008503530019
:1046e00006003d000004fd008104fd000205fd0000
:1046f0008305fd008703ea00050378000df8a30099
:104700000400320060041400e0841c0060051d00f9
:10471000e0851d006022b8007d0320000d38e10017
:104720008006eb000b0039004433dd00f300b200db
:104730008301730039003700848272000d02780013
:10474000e10664008b85d1000a85d3008984d300fb
:104750000884d3008703e900f7ff3b00080040000e
:10476000898048000a0149008b81490004003b0010
:1047700060001000e080180060011900e08119005d
:104780000358a300090032008d82720084827200f7
:10479000610260008301d1000281d3008180d300d7
:1047a0000080d3000603e8001b0037000348a30085
:1047b00017003a000600e000170034000603e90085
:1047c0000d00a3000000480081804800020149005c
:1047d000838149000348a3000f003a000600e0006f
:1047e000090034000603e900000040008180480011
:1047f000020149008381490001003a000003eb00f7
:104800000348a300f5ff32006022b8000200370021
:1048100084827200618266007500070003f0a100c7
:104820000cf0a70003f0a000b100370064014700be
:104830006408e10002003a000df8a300a9003a0064
:104840003200be001201be00a90037008f1fd10048
:104850002c0307008f87e9000000e000000006003d
:10486000809feb00270307008f87e9000000e0002e
:10487000000006002800fa00889fbe008a9fbe0044
:104880008c9fbe0003866b00850007006400e1007a
:10489000440032006408e1004a0032006100e10097
:1048a000460032006108e10049003200ec06470092
:1048b0006000b8003d02be003d03be00f486570014
:1048c0006011b8003d04be003d05be007d03200020
:1048d0000b0037000000a0008d06e9001300320035
:1048e0000402420085824a0006034b0087834b0086
:1048f0000000400081804800020149008381490096
:104900000802520089825a000a035b008b835b0015
:10491000f0ff3b000802420089824a000a034b0074
:104920008b834b008d06e900edff3a008482720014
:1049300086827200f707b20087827200010032009f
:10494000150020001e0490003e0b9000060354004a
:10495000e63fb0000368a300070032000000a70094
:104960000500a0008301d1000281d3008180d30023
:104970000080d3000603e8008301d1000281d30048
:104980008180d3000080d3000002eb000482d200bb
:104990001700070003f0a1000cf0a70003f0a0002f
:1049a00053003700640247006408e1004d00320004
:1049b0003400be003401be00f6ff37006108e1009c
:1049c000480032006011b8006000b800f1ff370005
:1049d00003ff270002002000fbff3700801feb00d1
:1049e000c80207008f87e9000000e0000000060011
:1049f0001800200057002000080453000d003d005f
:104a00000600200097fc2f000740e1001e00340044
:104a100084827200610260008301d1000281d300b0
:104a20008180d3000080d3000804e800f8ff3a003a
:104a30004700200061046000050474000404640061
:104a40000d00320061004000e08048006001490034
:104a5000e081490003b8a500070032000603e80022
:104a60006538e10004003a008301d1000281d300df
:104a70008180d3000080d300f87f20000830e1005f
:104a800003003500080378006000b8006011b8002a
:104a90004433dd00f300b200830173000000060020
:104aa000680447000294be000094be00fc04470066
:104ab0008694be008494be0009007800da020700e4
:104ac00008007800d802070099007800814f700034
:104ad0000b003b000800be00b30207004f00b1000e
:104ae00003003700f3ff2700f2ff2f006110b90029
:104af0004f06be004f05be004f04be000080fa0006
:104b0000000006008103780069f007000001be0084
:104b10006000b8000478a30013003a006220e100ae
:104b200015003e000d0039008301d1000281d30041
:104b30008180d3008301d1000281d3008180d30022
:104b40008301d1000281d3008180d3000538b000f9
:104b5000c42add00f300b2008381720007f0a700d1
:104b600003f0a00000000600f3ff2700f2ff2f0073
:104b70006110b900fbff370003ff2700f7ff370084
:104b80001400fa00889fbe008a9fbe008c9fbe0062
:104b90000004be000205be00680047000a90be0087
:104ba0000890be00a00207000070a7000bf0a10053
:104bb0000bf8a30020003a009e0990000e09900017
:104bc000fe0090006e0090009e0290003443200092
:104bd00084825200c6ff32000a003c00b4fc2f0061
:104be0000428e100140034008301d1000281d300c5
:104bf0008180d3000080d3008502e800faff3a00ec
:104c0000bbff3700b40020000428e10007003c008f
:104c10000000400081804800020149008381490072
:104c20008502e900faff3a00b1ff370003002800cf
:104c300002002000010037006011b8006000b800d9
:104c4000abff3700889fbe00008270000402710035
:104c5000048271002400320036432000c500200089
:104c60008383cf000a0039000541b1008283cf0061
:104c7000070039000541b1008183cf0004003900ed
:104c80000541b1008083cf00010039000541b1002a
:104c900085c353006022b800120032000a003b00b6
:104ca00084827200610260008301d1000281d3001e
:104cb0008180d3000080d3000603e8008743e8002a
:104cc000f7ff3a00070037000000400081804800ed
:104cd00002014900838149000603e9008743e90096
:104ce000f9ff3a0042ff07004f04be000000060033
:104cf000f70107000509780000000600811f780011
:104d00000100e00002003d0060001000e08018009b
:104d10000300e00002003d0060011100e081190085
:104d2000a70007004f00e00002003b0060001000f9
:104d3000e0801800000006002800fa00889fbe00ee
:104d40008a9fbe008c9fbe0003866b0054ff070045
:104d50000028a30064003a000128a30067003a007d
:104d60000008a30062003a000108a30065003a00b1
:104d70001e009000be08900081064000ed3fb1008b
:104d8000f4805700ee019000111ab8008e099000cf
:104d9000311bb8009e099000311cb800511db800ad
:104da000f485570046000700fe0190003a00070016
:104db0008b85e8003e0007008e0990004000070048
:104dc000ee019000340007008b85e80038000700f2
:104dd0008e099000400007009e0990001b18b80043
:104de000890440000a854800fe0190003400070055
:104df0008b85e80038000700ee01900030000700c6
:104e00008e0990001b18b800890440000a854800ec
:104e10000a98a30008003a000402420085824a0072
:104e200006034b0087834b0008044c0089844c0028
:104e30000a054d008d06e900848272008502730028
:104e40004c3add008502720001003200150020009e
:104e5000443ade001400b2004538de00cb45dd00e8
:104e60000b007000c540de00cb4ddd008b80700074
:104e70004549de00cb55dd000b017100c551de0058
:104e80000d037800dafe070003f0a1000cf0a70084
:104e900003f0a00016ff37001b18b8008502400081
:104ea00006834800e0834b0060044c000700370095
:104eb0001b18b8000603400087834800faff37003c
:104ec0001b18b8008703400008844800e0844c00a9
:104ed00060054d00000006001b18b80008044000e3
:104ee00089844800faff37000108a300fdfe3a005c
:104ef0005800be005801be00e3ff37000008a300c1
:104f0000f8fe3a0009047800f9ff370007f0a20024
:104f1000d1fd37001400fa00889fbe008a9fbe00b2
:104f20008c9fbe000005be000206be006800470060
:104f30000c90be000a90be00bb0107006400e100b7
:104f40001a00320016003e006100e1001a00320033
:104f50006e049000fe0490000e0b90009e0b9000db
:104f60006011b8009e0590000b38b100d5012000fb
:104f700082817100610164008703d1000683d30040
:104f80008984d3000884d3008502e900f8ff3a0041
:104f900021ef07000df0a70001f0a000d4fe3700bc
:104fa000f1ff2700f0ff2f00d1fe370001f82700a6
:104fb00000002000f7ff37006000b800f5ff370061
:104fc0009cef07000400be0000000600020ab900c2
:104fd000001bb9000200b8008100420081004300bc
:104fe000000006000000fa00889fbe008a9fbe00f5
:104ff0003004be002005be000404440085844c003b
:1050000006054d0087854d000898be000a90be0039
:105010000440e10005c8e10006d0e10007d8e10046
:1050200002003100680040001008e8004f05be0093
:105030004f04be000080fa00000006001000fa00d5
:10504000889fbe008a9fbe000605be000404be0005
:105050003002be002003be00049fbe000697be00c3
:105060000802520089825a000a035b008b835b00ae
:10507000440798005507980066079800770798003e
:105080000498be000698be00110020003e02be003b
:105090002e03be000820e10009a8e1000ab0e100eb
:1050a0000bb8e100010039008000eb00108810000f
:1050b0004f05be004f04be000080fa00000006004d
:1050c0001400fa00889fbe008a9fbe008c9fbe001d
:1050d000590007000605be000404be000006eb00f0
:1050e0004c0798003c0798002c0798001c07980074
:1050f0000c0f78000d0420004e039000be029000bb
:10510000860343002e029000e00f530003003d0091
:105110002a000700b3ff070002003700270007003e
:10512000c6ff0700ce029000150f9800e08f5200d6
:10513000090035004500070014002000050020008c
:105140006033b800000072008180720002017300b9
:1051500083817300380007000c06e8008d0f5600ad
:10516000e5ff3a001e0a9000e00f520004003d00e7
:105170000802be000a03be000e00780099ff070077
:105180004eba9700e00f520006003a003e04be00ff
:105190002e05be0058079800690798007a07980006
:1051a0000b0f9800290007004f06be004f05be00f8
:1051b0004f04be000080fa00000006004f2bde0006
:1051c00087037300470798004f23de008582420063
:1051d00085027300350798009e0290004f2bde0079
:1051e0000402420004027300240798001e027800a3
:1051f0004f23de0085824200850273001507980068
:10520000120007004f18de0004024200000f720077
:105210000e000700000040008180480002014900a4
:1052200083814900040007000802be000a03be0093
:105230000e007800000006005007980061079800f3
:1052400072079800030f9800000006005e009000af
:10525000ee0090007e0190008e0990000000060094
:105260000000fa00881f780018002000881f7800ce
:1052700093ff07008f87e9004f0478000080fa0051
:10528000000006000000fa00801feb008cff070002
:105290008f87e9000080fa00000006000000fa0095
:1052a000889fbe008a9fbe00e00f5000e08f58002c
:1052b000e00f5900e08f59000c003d006044b80039
:1052c0006055b8000000540081805c0002015d0060
:1052d00083815d00180020001600070008003d00d3
:1052e000190007000004eb00050037000004eb0084
:1052f0001000070002003d00130007001800200006
:10530000d7ff0700e00f5400060032006022b8000b
:105310006033b8000000520081805a0002015b0037
:1053200083815b004f05be004f04be000080fa0081
:1053300000000600e00f5200e08f5a00e00f5b0013
:10534000e08f5b00000006006044b8006055b800c4
:105350000402540085825c0006035d0087835d00c3
:10536000000006000000fa00889fbe008a9fbe0071
:105370008c1f7800e00f5000e08f5800e00f5900bc
:10538000e08f59000d003d006044b8006055b80042
:105390000000540081805c0002015d0083815d009b
:1053a0001c0020000820e10009a8e1000ab0e1008b
:1053b0000bb8e1000d003d00080037000006eb00cf
:1053c000e00f5200e08f5a00e00f5b00e08f5b00bf
:1053d00006003d006044b8006055b8000402540067
:1053e00085825c0006035d0087835d00a5ff0700e2
:1053f000e00f5600060032006022b8006033b800ab
:105400000000520081805a0002015b0083815b0032
:105410004f0678004f05be004f04be000080fa0022
:10542000000006000000fa00889fbe008a9fbe00b0
:105430008c1f78000006eb00e00f5000e08f580052
:10544000e00f5900e08f590007003d006044b800ac
:105450006055b8000000540081805c0002015d00ce
:1054600083815d001c002000e00f5200e08f5a0095
:10547000e00f5b00e08f5b0007003d006044b80078
:105480006055b8000402540085825c0006035d008c
:1054900087835d000c00a2008a000700e00f560021
:1054a000060032006022b8006033b80000005200ed
:1054b00081805a0002015b0083815b004f06780007
:1054c0004f05be004f04be000080fa000000060039
:1054d0000003be00f6ed07006220e100020032008a
:1054e0000600be0005000500e507b100f107b200a7
:1054f00004f023008480700007f0a70001f0a000f2
:1055000024000500889fbe008a9fbe008c9fbe00bd
:105510000404be000605be00809fbe00829fbe0040
:105520002f000700040678000800be000a01be0034
:105530002b000700840678004f03be004f02be0018
:105540008d4f76007fb0970013003300f0ff2f00df
:105550008b8f6b0006003b000d0666000c00a70059
:105560000a00370007f0a600100020000a003700ec
:10557000880f5200898f5a008a0f5b008b8f5b0067
:10558000030039001000200001003e000000200050
:1055900007f0a7000000ea004f06be004f05be005e
:1055a0004f04be0000000600e48240001078a30013
:1055b00007003200640240001178a3003400be00ee
:1055c0001401be00040032000330a70000000600f2
:1055d0003500be001501be000330a000000006002b
:1055e00005ff270005826100070032000428e10062
:1055f00001003200240005000600070001003a0007
:10560000440005000408050002000700f9ff3a0005
:10561000140005006f826100810270008502710034
:105620008502720000000600800078005002be0073
:105630005003be004439de00f700b200f37f2000c3
:1056400003016100090032000218e10016003a006f
:1056500085017200830173008381730000082000bc
:1056600015003a0040002000130037008501720049
:10567000830173008381730005003a0004a8be0013
:1056800006a8be00100020000b0037000201e90050
:105690000402420085824a0006034b0087834b00c8
:1056a0000748a300f9ff32000740a00004a8be008d
:1056b00006a8be00200020008000980092009800fc
:1056c00000000600889fbe008a9fbe008c9fbe001f
:1056d0000404b8000506b8008904460060854e0041
:1056e0000606b8000a054600e0854e000706b80029
:1056f0008b054600040eb800890446000a854e005a
:10570000e0854d00050eb8000a0546008b854e0069
:10571000060eb8008b0546000416b8000a054600c0
:105720008b854e000516b8008b054600041eb80098
:105730008b0546000800be000a01be004f06be00f1
:0c5740004f05be004f04be000000060034
:020000040000fa
:10574c0041520000434300004f5300005f430000f0
:10575c004f52000044490000432000002d2000005f
:10576c0046610000746100006c200000657200004e
:10577c00726f0000722100000a000000202000005f
:10578c00312e0000302000003c2000007c54000032
:10579c007c2e00000a000000415200004353000020
:1057ac00494e00005f4300004f5200004449000086
:1057bc00432000002d2000004661000074610000b1
:1057cc006c20000065720000726f000072210000f6
:1057dc000a0000004c4e00005f4300004f520000d6
:1057ec0044490000432000002d20000046610000c9
:1057fc00746100006c20000065720000726f000084
:10580c00722100000a00000020200000496e0000f8
:10581c007075000074200000617200006775000054
:10582c006d6500006e74000020580000203c0000e4
:10583c003d200000302e0000300a00000052000015
:10584c00385f0000554e0000494600004f520000e2
:10585c004d5f000030310000202d0000204600007c
:10586c0061740000616c0000206500007272000021
:10587c006f720000210a0000002000002049000087
:10588c006e7000007574000020760000616c0000e2
:10589c0075650000206f0000662000005345000075
:1058ac0045440000203d0000203000002e0a00007e
:1058bc000053000051520000545f0000434f0000a1
:1058cc005244000049430000202d000020460000f7
:1058dc0061740000616c00002065000072720000b1
:1058ec006f720000210a0000002000002058000008
:1058fc00203c0000203000002e0a00000025000093
:10590c0064200000254200002025000059200000e2
:10591c00254900003a2500004d3a000025530000af
:10592c002025000070000000db0f0000493f000044
:10593c0038630000ed3e0000b0db00007a3e000052
:10594c00d5ad0000fe3d0000deaa00007f3d00004a
:10595c00aeea0000ff3c0000abfa00007f3c000008
:10596c00abfe0000ff3b0000abff00007f3b0000e4
:10597c00ebff0000ff3a0000fbff00007f3a000045
:10598c00ffff0000ff39000000000000803900001c
:10599c00000000000039000000000000803800000a
:1059ac0000000000003800000000000080370000fc
:1059bc0000000000003700000000000080360000ee
:1059cc0000000000003600000000000080350000e0
:1059dc0000000000003500000000000080340000d2
:1059ec0000000000003400000000000080330000c4
:1059fc0000000000003300000000000080320000b6
:105a0c0000000000003200000000000080310000a7
:105a1c000000000000310000000000008030000099
:105a2c00000000000030000000000000802f00008b
:105a3c0000000000002f000000000000802e00007d
:105a4c0000000000002e000000000000802d00006f
:105a5c0000000000002d000000000000802c000061
:105a6c0000000000002c000000000000802b000053
:105a7c0000000000002b000000000000802a000045
:105a8c0000000000002a0000000000008029000037
:105a9c000000000000290000000000008028000029
:105aac00000000000028000000000000802700001b
:105abc00000000000027000000000000802600000d
:105acc0000000000002600000000000080250000ff
:105adc0000000000002500000000000080240000f1
:105aec0000000000002400000000000080230000e3
:105afc0000000000002300000000000080220000d5
:105b0c0000000000002200004c090000d33f000000
:105b1c00f25a0000a43f0000020b0000913f00006d
:105b2c005b410000883f00002b100000843f000008
:105b3c0005040000823f000001010000813f0000cd
:105b4c0040800000803f000010400000803f0000bb
:105b5c0004200000803f000001100000803f000086
:105b6c0000080000803f000000040000803f00009f
:105b7c0000020000803f000000010000803f000098
:105b8c0080000000803f000040000000803f0000cb
:105b9c0020000000803f000010000000803f00004b
:105bac0008000000803f000004000000803f00005f
:105bbc0002000000803f000001000000803f000058
:105bcc0001000000803f000000000000803f00004a
:105bdc004c090000d33f0000f25a0000a43f000023
:105bec00020b0000913f00005b410000883f000069
:105bfc002b100000843f000005040000823f0000d1
:105c0c0001010000813f000040800000803f000047
:105c1c0010400000803f000004200000803f000086
:105c2c0001100000803f000000080000803f0000d1
:105c3c0000040000803f000000020000803f0000d4
:105c4c0000010000803f000080000000803f000049
