:020000040000fa
:080000000002040000000000f2
:020000040000fa
:10000800cc020000cc020000cc020000cc020000b0
:10001800cc020000cc020000cc020000cc020000a0
:10002800cc020000cc020000cc020000cc02000090
:10003800b8640000cc020000cc020000cc02000032
:1000480030600000cc020000cc020000cc020000ae
:10005800cc020000cc020000c0640000cc0200000a
:10006800cc020000cc020000cc020000cc02000050
:10007800cc020000cc020000cc020000cc02000040
:10008800ea640000cc020000cc020000cc020000b0
:10009800cc020000cc020000cc020000cc02000020
:1000a800cc020000cc020000cc020000cc02000010
:1000b800f2640000cc020000cc020000cc02000078
:1000c800cc020000cc020000cc020000cc020000f0
:1000d800cc020000cc0200001c650000cc0200002d
:1000e80010600000cc020000cc020000cc0200002e
:1000f800cc020000cc020000cc020000cc020000c0
:10010800cc020000cc020000fe580000cc02000027
:10011800cc02000024650000cc020000cc020000e4
:10012800cc020000cc020000cc020000cc0200008f
:100138004e650000cc020000cc020000cc0200009a
:10014800cc020000cc020000cc020000cc0200006f
:10015800cc020000cc020000cc020000cc0200005f
:10016800cc020000cc020000cc020000cc0200004f
:10017800cc020000cc020000cc020000cc0200003f
:10018800cc020000cc020000cc020000cc0200002f
:10019800cc020000cc020000cc020000cc0200001f
:1001a800cc020000cc020000cc020000cc0200000f
:1001b800cc020000cc020000cc020000cc020000ff
:1001c800cc020000cc020000cc020000cc020000ef
:1001d800cc020000cc020000cc020000cc020000df
:1001e800cc020000cc020000cc020000cc020000cf
:1001f800cc020000cc020000cc020000cc020000bf
:10020800cc020000cc020000cc020000cc020000ae
:10021800cc020000cc020000cc020000cc0200009e
:10022800cc020000cc020000cc020000cc0200008e
:10023800cc020000cc020000cc020000cc0200007e
:10024800cc020000cc020000cc020000cc0200006e
:10025800cc020000cc020000cc020000cc0200005e
:020000040000fa
:100400008f072400eef227000e0188000000000094
:100410000c00070000132200010020000f0007005d
:10042000000020000000e000020032000000020096
:100430000000000060650200000000000040da00db
:100440000000fe00c07020000000e000020032004a
:10045000002020009001880000000600a102880012
:10046000800078000000eb001a003700e2804000b6
:1004700054a0b4009101ba00e280400054a0b4003e
:100480009102ba00e280400054a0b4000002eb00e8
:10049000472bde00f507b200a6018800602ce100c2
:1004a00008003a000049eb000201e80002003900b0
:1004b0003420ec0002f0a0008301e900f9ff3e00c7
:1004c000040037006128e100010032000082eb00e7
:1004d000040007001101ba000200e000e3ff3a0047
:1004e0000000060004d0a300e20f49001c00390000
:1004f000810278003549ba000201e80002003900a3
:100500003420ec0002f0a0008301e9000f0032006b
:100510002549ba000201e800020039003420ec004d
:1005200002f0a0008301e900080032000400e000ae
:100530000600320015c9ba000201e80002003900c5
:100540003420ec0002f0a0008301e9008180e80083
:1005500054a0b4000300e000e2ff3a0000000600ef
:100560009102ba00055978008301e900f7ff3200d3
:10057000c82ade00055978008301e900f3ff320044
:100580000400e000f1ff320011d9ba00eeff37009d
:1005900044660400000000000040da000000fe0095
:1005a0000748a900670160004811dd00e3428000b0
:1005b000f18f2f008180610082807000e14288000d
:1005c00068006000c300de00e1806000ca08dd0052
:1005d0003041800000a0a10001007000304188007f
:1005e00000000600000e8800110e8800220e880010
:1005f00000000600300e8000510e80000000060052
:100600002148a90041e2a9000148a9000000060014
:1006100010128800211288000212880000000600d3
:1006200081118000e6806000e68f50000e003a00e5
:10063000040037003322ab00feff3a00a21188000d
:100640000080e80010017800e00f5100f9ff3a0047
:10065000000006003322ab00feff3a008100fb00e1
:10066000a11188000000e80090407800e0cf500021
:10067000f8ff3a000000060003f0a200889fbe00c9
:100680008a9fbe008c1f7800830107008a01330017
:100690006450e1004f0032006420e100520032005b
:1006a00003826c0007003b000905d0000306d00060
:1006b000820f54000c065d00020039000200320077
:1006c00089017800030678008582550004003d000a
:1006d0000003fd008103fd008502ea008b854200d6
:1006e000840f720002003b0060001000e0801800e0
:1006f0006011b8000005eb007a28e1000a0039001b
:1007000006007800c75ddd00f707b200878075003e
:100710002d003700828171000a01780061056000b8
:100720008180d1000080d3008502e900f9ff3b0001
:10073000060440008784480002003b006004140067
:10074000e0841c000988a300070032008a81710040
:1007500082817100610164008904d1000884d300a2
:100760008b05e800170037000978a30013003a0052
:100770000b00e000130034008b05e900080444007e
:1007800089844c000a4474000978a3000d003a00e3
:100790000b00e000070034008b05e900080444006a
:1007a00089844c0001003a000b0020000978a30066
:1007b000f7ff32000001eb00020037008281710078
:1007c0000a017800f90007000cf0a70001f0a00072
:1007d000420137006420e10002003a00838f6c0080
:1007e000420133000801be000200be003b01370099
:1007f000889fbe008a9fbe008c1f780026010700dc
:100800002d01330003866c006450e1002e0032009d
:100810006420e100330032006150e1002f0032001b
:100820006120e1003100320085855500eb07b00002
:1008300009002000080420000500370008044400d7
:1008400089844c000a0031000603430087834b0073
:100850000001530081815b00f8ff33000203be00fa
:100860000800a0000804440089844c00f6ff390009
:10087000c639dd008301730001003200130020003f
:100880008904d1000884d3000998a3000500320030
:100890000800a7000300a0008904d1000884d30049
:1008a0008b05e8008904d1000884d3000001eb0027
:1008b0000281d200bd00070001f0a1000cf0a700ea
:1008c00001f0a000050137006420e10007013200bb
:1008d0000801be000200be00f7ff37006120e10002
:1008e000020132006000b800f3ff37000000200072
:1008f00001f82700f0ff3700839f68000100e00047
:1009000002003d0060001000e08018000300e000dd
:1009100002003d0060011100e08119002a0107007a
:100920004f00e00002003b0060001000e080180073
:1009300000000600140020005a013700f4ff2f00c9
:10094000580137000001be00be0007000470a70078
:1009500003f0a1006509b100160032000d0035005a
:100960006828e10006003500f0ff2f00f1ff2700a6
:100970000300e00013003b00010028000000050018
:1009800000004000818048008502e900fcff3a0039
:1009900008003700f88f420002003c008000eb00a6
:1009a000000005008100d1000080d3008502e8002e
:1009b000fcff3a000300e00002003b006000100072
:1009c000e0801800000006000001be009d00070046
:1009d0000470a70003f0a10003f8a30013003a007d
:1009e0006509b10010003200090035006928e100f6
:1009f0000200350001002800000005000000400052
:100a0000818048008502e900fcff3a0000000600f2
:100a1000f88f4200050035008100d1000080d3002e
:100a20008502e800fcff3a00000006008000eb00b1
:100a3000000005004f89de00820178003401370094
:100a40006011b800420137000001eb00ee00070022
:100a5000040032000200200003f8230001f0a70088
:100a600005ff07000000060004002000000037001a
:100a7000889fbe008a9fbe008c1f78004f26dd0035
:100a8000850007008c0033006120e1004300320044
:100a90006250e10041003e003e0039006420e10068
:100aa0003c003200058255000f003b000402e800c4
:100ab00038003a00800f5300818f5b00350034000e
:100ac0000800be0003f0a10001f0a60003f0a000a2
:100ad0000cf0a700e9fe0700800037000603430082
:100ae00087834b000c4646000005530081855b0060
:100af000020033000a03be000c00a0000402e9005b
:100b0000f6ff3b00850578000602430087824b0014
:100b100004003a006000b80009f0a70001f0a0004e
:100b20006e0037000002520081825a000704e00084
:100b3000040033000603430087834b008b05e90064
:100b4000faff3700090578000604be000203be0064
:100b50006011b80015000700e00f5200e08f5a0046
:100b60000700350002003c000c08a300040032001e
:100b70000601be0003f0a0000cf0a700bffe0700b6
:100b80000a85680001f0a1000af0a70001f0a000aa
:100b9000520037000800be0050003700100220004d
:100ba0000cf0a60000808800500037008100200073
:100bb000618055000b003d000b00200061fe2f00fe
:100bc0000100e1001d0034008281710061016400b8
:100bd0008904d1000884d3000000e800faff3a003d
:100be00071002000610064000300700002006000da
:100bf0000900320061044400e0844c000988a5002b
:100c0000050032008b05e8006808e10002003a00a8
:100c10008904d1000884d300f20f20000258e100bb
:100c200005003d00c75ddd00f907b2008980750051
:100c300008007800000006000bf827008b00780001
:100c400000000500c70ade00f107b200f50fb20090
:100c500008003200e1cf4200020032000170a00023
:100c600024000500810f7000010032000408050017
:100c700044000500810f700002003a0014000500d6
:100c80008502e9000000400081c04800fcff3b00f5
:100c90000170a000240005000004be00e9ff070069
:100ca0000003be000405be000200be00e5ff070011
:100cb000844f7500000006000200be006450e10091
:100cc000050036006420e100020036000968a30038
:100cd00001003a000800be000160a0004f06780045
:100ce0004f05be004f04be0000000600f0ff2f00bd
:100cf000f1ff2700f9ff3700889fbe008a9fbe00e2
:100d00008c1f7800e4ff0700ebff330003866c00c4
:100d10006450e100240032006420e100270032002a
:100d20006150e100220032006120e1002100320028
:100d30008b854200eb07b1000134b800003ab800df
:100d40000804420089844a00013ab8000030b80023
:100d50008880400009014a00040033000000400080
:100d600081804800020149008b05e900c909dd00c6
:100d7000830170000100320013002000c814de005f
:100d80004814dd004709de001200b200c808de008a
:100d90000884700085ff070001f0a1000cf0a70097
:100da00001f0a000cdff37006120e100cfff32004d
:100db0000801be000200be00f7ff37006150e100ed
:100dc000fcff3a00c9ff37006022b800060220008d
:100dd0000000d0008180d2000482d2008582d2003f
:100de0000000a0000202520083825a00030031007a
:100df0000202420083824a000000a1000603e900cb
:100e0000f3ff3a0000000600889fbe008a9fbe00e4
:100e10000003be008bff0700850578008281520029
:100e2000020020006220e10004003a00f307b10054
:100e3000040035007718e100040035000600be000c
:100e4000140037006000b8000f003700f50f2000d5
:100e5000faff2f008502d1000a85d3008301e90043
:100e6000fcff3b008184620000046500890f740070
:100e7000f2ff32008582ea000a85ea00818462007e
:100e80000004650049ff070007f0a70001f0a0007b
:100e90000081eb000200e0004f05be004f04be00e1
:100ea00000000600889fbe008a9fbe00841f780055
:100eb00079ff07004f00780011003300f0ff2f008a
:100ec000838f6c0006003b00040565000a00a70044
:100ed0000800370009f0a6001000200008003700c5
:100ee000820f5400838f5c00030039001000200043
:100ef00001003e000000200009f0a7000000ea0009
:100f00004f05be004f04be000000e00000000600d8
:100f1000881f7800030478000300e00007003d000c
:100f200060001000e080180060011900e0811900e5
:100f300002003b0001f02d00030037000400070011
:100f400008f0a70001f0a0004f04780000000600a0
:100f5000889fbe008a9fbe0000827000040271005c
:100f600004827100260032000004be000200be00b0
:100f70006011b8006b092000950220000182cf00ab
:100f80000a0039000541b1000082cf000700390096
:100f90000541b1000982cf00040039000541b100cc
:100fa0000882cf00010039000541b100054252001e
:100fb000120032000a003b0082817100610164006e
:100fc0008100d1000080d3008984d3000884d3003d
:100fd0008b05e8000442e800f7ff3a0007003700fd
:100fe0000804440089844c000000480081804800c7
:100ff0008b05e9000442e900f9ff3a00ebfe070027
:101000004f05be004f04be00000006000000fa00bd
:1010100000047800b20107000800780029070700e3
:101020000000fa00889fbe0001047800b80090001c
:10103000628160008084eb003f0032008101780013
:101040000320b2001801900002003a00e00f5100a6
:1010500039003a000190a000310498008004780023
:10106000f90fb200e00f510002003a002800900092
:10107000000c7800ea8f540006003a000100780066
:101080000008b20003003a0088007800d000200079
:10109000e3ff0700180290006120b900580190009a
:1010a000e8019000820f5000838f58000b0032003f
:1010b0000402e80014049800180078000948780039
:1010c000000ce80010c0b300e182230080487800e3
:1010d000ea8f540018003a000500370088007800b5
:1010e00009407800070607008004780012003700e6
:1010f000380090000010b2000f003200180190007c
:10110000a8009000480090001c070700980090007d
:10111000810f500004003200380090000003b3003b
:10112000300498008084eb000000eb00100498006d
:1011300028009000000c7800090078004f04be00e1
:101140000080fa00000006000800fa00889fbe0038
:101150008a9fbe008c9fbe00000478000205be007e
:10116000048fbe00010678003c019000e20161009e
:101170006000b80065003200020278000420b2006e
:101180009c01900002003a00e08f51005f003a009d
:101190000290a00032069800e08f510002003a0051
:1011a000ac019000030e78003c00900002c02000cb
:1011b00002006000820f500004003a00210020006d
:1011c0006011b8000c0078004c0607003c0190004c
:1011d00002b0a100320698001e0078008a03b80011
:1011e0006000b800e00f5300480032008802780029
:1011f000860678002a0798003b07980005057800c6
:101200002c009000e00f50002b0032003c009000ba
:101210000008b20028003200dc0590001c0090009d
:10122000808555008d8f550003003e00e08f5500ee
:1012300021003200010037008d057800615cb800a4
:101240001c0078000801be008a0078001801070021
:10125000080545008b8656001c0e44001c009000bb
:101260000080450010069800cf80de005c019000f1
:10127000ec019000820f5000838f58000a003a0062
:101280000c00780070050700e00f500011003200dc
:101290000d0378002e059000be0590005c009000c4
:1012a000000343001000370010c0b300e3822300a6
:1012b00080497800070037001a00fb008c00780096
:1012c00057ff0700e10f4000040032000a05e80064
:1012d0008d06e900e08f5600c9ff3a000d03780043
:1012e0002e059000be05900061005500e0805d0075
:1012f00006004000e08048000a01be00b2fe070080
:101300001e01be0000005100818059004f06be0042
:101310004f05be004f04be000080fa00000006002a
:101320000600fa00889fbe008a9fbe008c9fbe0008
:1013300062812300b3c08100e08f51000b003a00ae
:10134000e4014100b3c0890003c189002201980073
:10135000f2c08900a24190000304a000234198003c
:10136000e24190000304a000634198006700400040
:10137000e08048004e09dd004200de000000710000
:10138000c208de00420ddd00ce05de008b057500d3
:101390004205dd00f0c081008001eb0081072400e0
:1013a000848423008480500021079800610cb900d8
:1013b00063024400e0824c00048fbe00010037004d
:1013c0000d007800a0409000e18060000200320033
:1013d0000b0037001208780010017800a24090003e
:1013e000e1806000fbff32008a004000810f510065
:1013f00003003900e00f5500e08f5d0054003d0010
:1014000090067800808f5600edff3e008584230013
:10141000858f56000300390061812300818f5600bb
:10142000e7ff390001c18100810f500059003a00e7
:1014300060812300808f560056003a008301e80047
:10144000e18f5100deff360022002000ae00900048
:10145000110009008200d800cf80de00800f550007
:10146000818f5d0006003600880f5500898f5d0072
:10147000030031000a86e8000c0646000f00370022
:10148000b0ff2f00010020000800500089805800a4
:10149000800f5500818f5d00020039000a06780038
:1014a000060037001e01be000200450083804d008b
:1014b0000801be0044fe07008806b8000c00780052
:1014c0006a06070080007800e18f400006003a00bd
:1014d000640645000c007800640607008000780070
:1014e000e18f40002b00320000c18100010878002c
:1014f00000c18100e401400020419000838f500032
:10150000020032000204a000010037000204a10022
:10151000224098000c864000640656008c08780033
:101520000cc1890060812300000e780002c1810097
:10153000224090000004a00020419800214090002b
:101540000004a100a04098008001eb009cff370040
:10155000f1c08900810f5100070036001102be0062
:1015600014c1890025c18900900878008040eb00f3
:10157000f2c0810021419800f5c081000508780083
:10158000a04090000104a0002140980064004000a9
:10159000010037000000eb004f06be004f05be0003
:1015a0004f04be000080fa00000006000000fa00b0
:1015b00064005000f0c08900a04090000104a10028
:1015c000214098000080fa00000006000400fa00a4
:1015d000889fbe008a9fbe0080047800e48054008b
:1015e00091057800e9f89700e1806000060032007c
:1015f00009007800020f780013079800ebff07003e
:101600009e0190001e0178000200be0044ff07000a
:1016100000047800e00f540020003200890f5400cd
:101620001e00320068bd97000805550042d5de0057
:10163000098055004280de00cf80de006152b90093
:10164000800f5200818f5a00010036000002be0058
:101650004229dd00ce21de00830171004221dd0040
:101660000800be0012000700890f54000b00310073
:101670004250dd0008004000890f5000070036008e
:10168000090050004280de004200dd0008004000fa
:1016900012c1810023c181000288be0008007800c9
:1016a0004f05be004f04be000080fa000000060097
:1016b0000000fa000003780002003700315b780078
:1016c0000401be0061025100e0825900e00f5100a8
:1016d000e08f5900f9ff3a000080fa000000060090
:1016e0000000fa00f0c18100e00f5000010032005c
:1016f00000000100a0772300150407008078230074
:101700001304070060792300110407000080fa0029
:10171000000006000c00fa00889fbe00000478005c
:10172000f0ff2700500798008004eb00190798008d
:10173000080f780028079800200c20003007980038
:1017400068015700ceb897000e0078000600070029
:101750001e007800094878001e0014004f04be00e7
:101760000080fa00000006004200fa00889fbe00d8
:101770008a9fbe008c9fbe00201f980061179800b2
:10178000721798000000eb00101f9800e503370067
:10179000ee1090008100e8006117980052c2b3007b
:1017a000824f520007003a000001eb00721f9800c0
:1017b00006c3b30003c2b300b1c2b3006e10900001
:1017c00014003700ae199000330190000204b200fb
:1017d0000500320093017800844978002e1a9000a9
:1017e000030ae800070037000401fb00ae18900070
:1017f000020078000afe070000017800e10f4100b6
:10180000c80332009e1a90008502e800151f980058
:10181000c403370010427800d7c2b300874f52008c
:101820000b0032008002e800874f520005003c00a8
:10183000834f520009003200814f52000e003a00df
:1018400008003700864f52000b003a0007003700af
:101850000230a0000000e800eeff37000200a00008
:10186000030037000210a000010037000220a00092
:1018700005007800e7ff3700721f98006017980096
:10188000e2016100020032000200a100721f980014
:101890007e1c9000e8016400020032000820a100d4
:1018a000781f98008401fb000303b100e98f510009
:1018b0000e003e00010020006e119000ea08b80002
:1018c00001fd2f00808040001200fb00808040005e
:1018d0005200fb000003b100e90f5000f7ff360093
:1018e00021179800621798000c0037000005eb00e4
:1018f0002a179800a2c2b300824f520007003a0094
:10190000fe1590004b0078007b1798002017980078
:10191000ee1090008100e800611798000001eb00d4
:10192000021f9800e2c2b300ee119000934f110025
:1019300022003a007e1a900004e0a000741f980074
:10194000644151008301e8006317980093427800d6
:1019500082cf52000e003a007e139000c60378003a
:1019600076179800071f9800030478000804e80021
:10197000040178008801780012003700ea18b800e6
:101980000003b100810140000201e80002003700bd
:101990008e1990006e1190009200fb0000fd2f0048
:1019a00001004000e90f5000f4ff3600031f9800cb
:1019b000820178007e199000020037007e199000a5
:1019c000ee119000b3427800054f7800c9c6b3000d
:1019d00089cf520024003200721f980063179800cc
:1019e0000f003c0036c6b30086cf5200ab00320079
:1019f00004003c00e0cf52004f03320082c5b30028
:101a00000f00370042c6b30082cf5200c800320038
:101a10006541410082cf5200be003a00c400370049
:101a200036c7b30086cf52002000320007003c00ca
:101a3000f2c6b30082cf5200110032000241e8002a
:101a400082cf5200b3003a001100370052c7b300f2
:101a500082cf5200b30032006341410082cf520076
:101a6000ac003a000d003700700061000100280052
:101a700001003a000101200001017100d1ff37008f
:101a80007e1d90000a60a0007a1f9800a800370011
:101a9000fe1d90000b50a0007b1f98007e18900048
:101aa0000070a000701f9800a1003700fe10900089
:101ab0004103780071179800361f9800e00f53001b
:101ac00002003a00837c2300331f98000002eb00e1
:101ad000441f9800020037008100e800411f980071
:101ae000ce189000be1a9000058040000043eb0025
:101af000904f1300f8ff3a008e1b9000e08f5300c8
:101b0000050032004e1c9000888f53000200310007
:101b100087047800491f98004e1a90000006eb00d9
:101b20002e159000840f5500010036000406550064
:101b3000fe1d9000e886650031003a008c017800b7
:101b400008c2b300ae1c90001000370039009000ae
:101b50000004b20004003200190078000848780040
:101b6000800ce800050037008900780000022000a2
:101b70002bfd0700e10f4000030032001e1890000b
:101b80000000e800101f98008c0178000c06e900a6
:101b9000e08f5100edff3a0019003700340090004b
:101ba0000004b200090032009401780008017800b6
:101bb0003240780080497800030ae8000204780087
:101bc000e04f50000a003a00120037000801780088
:101bd0003200fb000204780084007800042798009b
:101be0000ffd07000e229000e10f400009003200b7
:101bf0009e1890008100e800111f98000500370032
:101c00003e1c9000ce1c90005e1d9000ee1d9000ca
:101c10002e1a9000090078008004e900e00f5000bf
:101c2000deff3a00381f9800491f98005a1f98009d
:101c30006b1f9800e08f5600ba0232001100370087
:101c4000380090000004b200040032001800780050
:101c50000d487800000ce800050037008800780087
:101c600000022000eefc0700e10f400003003200fc
:101c70009e1a90008502e800151f9800090678005a
:101c8000020037000dc2b3002e1c90008c04e90046
:101c9000e00f5600eaff3a00a20237007e139000e0
:101ca0004604780076179800cfc4de000905780056
:101cb0008a0578000802be000a03be004822de0042
:101cc0004828dd0004027000044f7800fe189000e0
:101cd0007086600009003200e04f520007003200b9
:101ce000e14f420005003200144798002847980051
:101cf00022002000421f9800030037001847980078
:101d000013002000431f98000e02e800341f9800c3
:101d100079ff37003e1f980016002000461f9800ec
:101d200075ff3700fe1b9000070cb300771f98006b
:101d30007e189000000cb2003f003a007e1c90001c
:101d4000e00f540005003d007e1290004401be00eb
:101d50004400be007417980010003700fe1a90006f
:101d600070806200120032007e1490004803be00b2
:101d700078179800460798005707980018009000b9
:101d80004f80de0060079800700798004e009000ba
:101d9000de0090006e019000fe019000301f980060
:101da000411f9800521f9800631f98000b003700d6
:101db000fe109000c10278007117980005047800a9
:101dc000cfc4de00090578008a057800381f980026
:101dd000491f98005a1f98006b1f98003e189000ea
:101de000ce1890005e199000ee199000e00f5000a0
:101df000e08f5800e00f5900e08f590036003d0099
:101e0000fe1890003100b300711f98006022b800e6
:101e10006033b8003e1c9000ce1c90005e1d900008
:101e2000ee1d90000804520089845a000a055b00e8
:101e30008b855b0024003700fe1c9000e08f54006f
:101e400005003d007e1290004401be004400be002b
:101e50007417980010003700fe1a9000708062001e
:101e6000120032007e1490004803be0078179800dc
:101e7000460f9800570f98008004eb00690f9800f8
:101e80000005eb007a0f98004e089000de089000e5
:101e90006e099000fe099000301f9800411f9800c5
:101ea000521f9800631f98000b003700fe1090002f
:101eb000c10278007117980005047800090020001d
:101ec0000a0020000b002000381f9800491f9800ce
:101ed0005a1f98006b1f98008e1c9000e08f5400d2
:101ee0000d003a001a0020000a1f98003e189000ca
:101ef000ce1890005e199000ee199000e00f50008f
:101f0000e08f5800e00f5900e08f590002003200c6
:101f10008000eb00011f98007e199000020cb200b7
:101f20001217980006042000860f51003d00320071
:101f300003003c00e00f510008003200530037005e
:101f4000050820009e119000858f51001a00320074
:101f5000050c2000858f51004c003a0012c0b300e0
:101f6000024f7800416223000f0037000200fb009f
:101f70004300dd00010040003002be002003be002f
:101f80003e1c9000ce1c90005e1d9000ee1d900047
:101f90000440e10005c8e10006d0e10007d8e100f7
:101fa0003a003900024fe8001e417800f44f51001a
:101fb000eeff3a003500370012c0b300024f780040
:101fc00004012000050020006033b8001100370034
:101fd0003e1c9000ce1c90005e1d9000ee1d9000f7
:101fe0000440e10005c8e10006d0e10007d8e100a7
:101ff00026003900490020000402d0008582d2006a
:102000000683d2008783d2008904e900faff3a00f0
:10201000004fe8001e407800f04f5000ecff3a00ff
:102020001a00370012c0b300024f7800840020006d
:10203000050020006033b800110037003e1c9000fe
:10204000ce1c90005e1d9000ee1d90000440e1004b
:1020500005c8e10006d0e10007d8e1000b00390017
:10206000390020000402d0008582d2000683d2000d
:102070008783d2008904e900faff3a00004fe800a4
:102080001e407800f54f5000ecff3a001e03fb00a5
:102090000e1d90008a0f530002003d000a4f780089
:1020a000040037008e1d9000868f550001003d0012
:1020b000061f98002e109000e00f5000050032001f
:1020c000fe189000e3826000020032000000e90088
:1020d00020179800050024007e19900085026100f9
:1020e00009003200ae1190000e1a9000848f51004a
:1020f0000300340084815100231798000200370048
:102100008002eb00251798001e03fb008003eb0004
:10211000071798002e149000860f54000200340018
:102120000603540006179800fe1c9000e482640029
:102130004c00320062836400e1836400e00f5300ce
:102140001b0032002e1d9000ba0290000504b20060
:10215000090032001a047800b6c2b300e08f5300c1
:102160000100320006c3e800064c7800ae1d900066
:10217000880de8000a003700d6022000e08f5300e7
:1021800001003a000683e900ae18900006007800ce
:10219000a3fb070000017800e10f410018003200a6
:1021a0001e1890000000e800101f9800140037006f
:1021b000e08f530012003200ae189000b102900080
:1021c0000504b200050032001103780002c2b3001a
:1021d000024b78008608e80006003700ae18900031
:1021e000000220008efb070000017800e10f410093
:1021f000030032001e1990000201e800121f98002f
:102200008e119000e08f51002301320008c3b3000b
:10221000830678002e1e90003c0090000004b2005f
:10222000040032001c00780008487800000ee80026
:10223000050037008c0078000003200078fb0700c1
:10224000e10f4000030032001e1a90000402e80073
:10225000141f98008d06e900efff3a000d17980053
:102260000d0137008e129000e08f520018003200ee
:102270007e1b9000e802630015003a0008c2b3001c
:102280008e1690002e1e90003c0090000004b200bc
:10229000040032001c00780008487800000ee800b6
:1022a000050037008c007800000220005cfb07006e
:1022b000e10f4000030032009e1b90008703e800fe
:1022c000171f98008d06e900efff3a000d179800e0
:1022d0007e1c900062036400e1036400e00f530081
:1022e0001b003200ae1c9000b90290000504b20041
:1022f0000900320019047800b6c2b300e08f530021
:102300000100320006c3e800064c78002e1d900044
:10231000080de8000a003700d6022000e08f5300c5
:1023200001003a000683e900ae189000060078002c
:102330003bfb070000017800e10f4100d6003200ae
:102340009e1d90008b05e8001b1f9800d2003700ef
:10235000e08f5300d00032002e189000b0029000a1
:102360000504b200050032001003780002c2b30079
:10237000024b78000608e80006003700ae1890000f
:102380000002200026fb070000017800e10f410059
:10239000c10032009e1890008100e800111f9800d3
:1023a000bd0037000e1990000201e900021f9800dd
:1023b000000420009e119000808f51009100320097
:1023c00003003c00e08f5100080032009e003700ff
:1023d000000820001e129000800f52007200320090
:1023e000000c2000800f520097003a008e1a9000d7
:1023f0006129b9007e1b9000e00f53002e003d00c4
:102400004318dd00cd10de00810070004310dd00b8
:1024100047622300008043003004be002005be0058
:1024200028179800391798004a1798005b179800ea
:102430000802be000a03be003e189000ce189000ad
:102440005e199000ee1990003e030700004f7800df
:102450000004fb00cfc4de00090578008a0578007f
:102460002e129000be1290004e139000de139000ca
:102470000800be000a01be00a60307000203be005a
:102480000002be003e189000ce1890005e19900029
:10249000ee19900004005000858058000601590094
:1024a00087815900301f9800411f9800521f9800e3
:1024b000631f980039003700be009000e08f500085
:1024c000230032003e1e9000ce1e90004318dd0017
:1024d000cd10de00810070004310dd004262230059
:1024e000000041003004be002005be000801be000f
:1024f0000c00be0034fa0700004f78000000fb001b
:10250000cf80de000801be007e02070000025600f8
:1025100081825e00040f9800150f98008002eb0086
:10252000250f98000003eb00360f98000e0c90006a
:102530009e0c90002e0d9000be0d9000381f98004c
:10254000491f98005a1f98006b1f9800130037000e
:102550004318dd00cd10de00810070004310dd0067
:102560004962230000804400100178003e1d900065
:10257000811f7800110009000285d800cf00780083
:10258000a2002000811f7800110009000280d800fd
:1025900001007800cf007800004f78000bc3b30033
:1025a0001ecf450028003700647a23002e009000db
:1025b000e00f500001003a00747b23008e18900059
:1025c0004209dd003e1c9000ce1c90005e1d900074
:1025d000ee1d9000820278008502e90005003300bc
:1025e0008b05d1000a85d3008984d3000884d300e9
:1025f000f9ff37006f00640000004200104f7800c0
:10260000110037000e1b9000e330b8003e1c900014
:10261000ce1c90005e1d9000ee1d90000002780020
:102620000402e900050033008b05d1000a85d300c0
:102630008984d3000884d300f9ff37006740640021
:1026400005c3b300054f40002e1b900036009000dc
:102650000004b20007003200160178001e40780026
:1026600000497800020be800e04f500006003a00f5
:102670000f0037001e00fb00ae18900068fa07003c
:10268000e10f40000a0032009e1b90008703e80023
:10269000171f9800060037007e1c9000700464002d
:1026a00038079800fe1c90000902b2002907980024
:1026b0000e1d9000e00f55003aff3a00fe1d9000fd
:1026c00068816500170032000e109000e00f500086
:1026d0001400340008c2b300800678002e1e90005b
:1026e0003c0090000004b200040032001c0078009e
:1026f00008487800000ee800050037008c007800dc
:102700000002200046fa0700e10f400003003200fb
:102710009e1890008100e800111f98008d06e900c6
:10272000efff3a006e11900012427800044f7800db
:10273000e04f520016fc3a001e1890004f06be00f3
:102740004f05be004f04be000080fa0000000600e6
:102750000000fa00889fbe008a9fbe008c1f780090
:1027600000057800ba009000e38060000080eb0074
:10277000300032000a007800330007003a0490006d
:1027800080ef2f0000006400300598002a009000c0
:10279000e00f500004003200e805640002003a0037
:1027a000420107002b0598004a00900066010700cf
:1027b000e10f40001f003200ba0590000b02b2008a
:1027c0000080eb001b003a000000210000006400c4
:1027d000180032000cc28100e00f560014003200d5
:1027e0006158b9004205200003002000c501070020
:1027f0000004be0000004600902890008a8f500020
:1028000006003a009001070000c281000804400061
:102810000000eb00102c9800060037008b05e80044
:10282000e88f5500eeff3a000000eb000100370092
:102830000c0078004f0678004f05be004f04be0024
:102840000080fa00000006000000fa00881f7800ef
:102850000004780038009000800078001120b20059
:10286000e18f500005003a008000eb001104980051
:10287000a8009000010c78001c00370000017800cf
:102880002220b2000000eb0021202000810f510027
:1028900019003a00a8009000808f50001600320006
:1028a00018019000800f510013003200cf91de001c
:1028b000480090003101070018019000cf91de0020
:1028c000820f5000838f58000300320038009000c0
:1028d0000003b300300498000000eb0010049800df
:1028e00028009000000c7800380090000002b20030
:1028f000010032000080eb004f0478000080fa00f5
:10290000000006000200fa00889fbe00004f780019
:102910000104780038019000820478000904b200b4
:10292000020032000000fb003b0037006200610043
:1029300005003a000203b300320498001004980026
:102940000080eb003400370058009000e800900051
:10295000e00f5000e08f580007003a0012002000fe
:10296000030020008e00780048009000030107005b
:10297000190498002700370028009000e00f50004d
:102980000b003a001083230020049800000c78000c
:1029900020002000010020005004980061049800ed
:1029a00020002000100498000230a000320498009b
:1029b00018019000cf91de00a80090004800900020
:1029c000ee000700280090008080eb0011049800c2
:1029d0001e487800000ce800a0c0b3009e4f100015
:1029e0000c003a00380090000010b20009003200dc
:1029f00018019000cf91de00a800900048009000e0
:102a0000de0007000000eb00100498002800900092
:102a1000000c78001e00fb004f04be000080fa008e
:102a2000000006000000fa00889fbe008a9fbe00da
:102a30008c1f780000067800110020006011b8009b
:102a40001c007800af0007000005be002100200038
:102a50006011b8001c007800aa0007000004be0046
:102a60008000eb000a01be001c007800a5000700f2
:102a70000800be004f0678004f05be004f04be00a0
:102a80000080fa00000006000000fa00881f7800ad
:102a900000047800110020006011b8004800900088
:102aa0009800070018019000e00f510002003d005f
:102ab0000001eb0012049800a8019000180190009a
:102ac000e08f510007003200b80190000320b200ef
:102ad00004003200cf91de000000410081804900f7
:102ae00003003700cf91de000200500083805800c1
:102af0004f0478000080fa00000006000400fa008d
:102b0000881f780000047800380090000040a10081
:102b10003004980028009000e00f500009003a00af
:102b20004800900077000700010060000080ea0084
:102b30008000ea00008070004f00de000000e90025
:102b400048003700e18f500005003200e28f50004e
:102b500008003200e08f50001000320040003700c3
:102b600008007800020f780013079800c6ff0700de
:102b70000600370008007800020f7800130798005d
:102b800031ff070068004400a6ff07001e0178001f
:102b90009e019000020140008381480008007800f7
:102ba000020f780013079800b7ff07001e01780096
:102bb0009e01900000005100818059000300320006
:102bc0003802900004b0a00034049800380290004d
:102bd00063026200e10f52000d003a00e00f500066
:102be000e08f58000a003500180390006132b900e8
:102bf000840f5000858f580005003c0000035300ef
:102c000016049800180c40000000eb001500370077
:102c1000380090000020b200090032001800900037
:102c2000e00f50000600320008007800020f780024
:102c30001307980004ff07009e0190001e01780012
:102c40008000eb001104980028009000000c780030
:102c5000480090002b0007004f88de00010037007d
:102c60000080eb004f0478000080fa0000000600ae
:102c70000000fa0010c28100e00f50000300320093
:102c80009000780011c28900020037002000200067
:102c900076000700e10f400002003a00916e260026
:102ca000018088000080fa00000006000000fa00a1
:102cb00011c281000108780010c289000080fa006a
:102cc000000006000000fa0000118000e00f500034
:102cd00006003d00111180000040200000806000cf
:102ce000020032002302ab00feff32000040da0097
:102cf000feff37000000fa0000c0da000080fa0092
:102d0000000006000a00fa0044002000040f7800ca
:102d10001007980022079800330798004107980091
:102d20000e007800f3ff07002e009000be00900018
:102d30000080fa00000006000000fa0000c0da007f
:102d40000080fa00000006000a00fa0011002000ce
:102d5000010f7800100798000e007800f6ff0700ba
:102d60001e0090000080fa00000006000000fa003b
:102d700000c0da000080fa00000006000a00fa0035
:102d8000e20f500021003e0020c28100e10f500000
:102d90000600320085232000442320002323200046
:102da00000232000e08f520004003a00852220001a
:102db00044222000232220000022200006002800b8
:102dc0009003630002003a00870a7800100873003d
:102dd000004020001300600001003a0013a0a00092
:102de0000200780006003700930278000510b20058
:102df000fdff3200b102fb00050a78000000e90087
:102e0000e00f5000f8ff3a000800370033002000c0
:102e1000030f7800100798002107980032079800e8
:102e20000e007800d1ff07003e01900002007800fc
:102e30000080fa00000006000000fa0000c0da007e
:102e40000080fa00000006000a00fa00510020008d
:102e5000010f7800100798000e007800f6ff0700b9
:102e60002e0090000080fa00000006000000fa002a
:102e7000889fbe008004780030c28100e00f5000bf
:102e800004003a000f0007000084eb00e00f500040
:102e90000800350038c28100e08f54000500320080
:102ea0000900440007000700e00f500001003d004a
:102eb0000084eb00080078004f04be000080fa0098
:102ec000000006000000fa00e00f500004003a0085
:102ed0008184230031c28900800078000600370019
:102ee0008080eb0082072400820f500002003e0029
:102ef00030c289008000eb00010078000080fa00f9
:102f000000000600020ab900001bb9000200b80068
:102f10008100420081004300000006000000fa002a
:102f2000889fbe008a9fbe003004be002005be0000
:102f30000404440085844c0006054d0087854d003f
:102f40000898be000a90be000440e10005c8e100f8
:102f500006d0e10007d8e10002003100680040001f
:102f60001008e8004f05be004f04be000080fa00c4
:102f7000000006000000fa00889fbe008a9fbe0085
:102f80008c1f7800000678003c04be002c05be00b3
:102f90000400540085805c0006015d0087815d00af
:102fa000009ebe00029ebe00100020000440e10012
:102fb00005c8e10006d0e10007d8e10001003900b2
:102fc0000000eb001c0e10004f0678004f05be00fd
:102fd0004f04be000080fa00000006001200fa0054
:102fe000889fbe008a9fbe008c9fbe000205be0067
:102ff0000004be0054079800650798007607980003
:10300000070f98000000eb00400798003007980079
:103010002007980010079800000f7800000678003d
:10302000fd032000ce0190003e009000038141008e
:10303000ae009000e08f510003003d00210007002a
:10304000b6ff0700020037001e000700c9ff070097
:10305000ce009000e08f50000700350014002000e3
:10306000050020006033b8000804720089847200f3
:103070000a0573008b8573000c06e8008d0f56005f
:10308000e8ff3400e08f500002003d0027000700f9
:10309000a2ff07004eb89700e00f500002003a0070
:1030a0003e04be002e05be000800be000a01be00a0
:1030b0004f06be004f05be004f04be000080fa0060
:1030c00000000600cf01de00028171004207980077
:1030d0004f09de000000400000007100300798003a
:1030e0001e0090004f01de008180400081007100d1
:1030f000210798001e027800cf20de00000040006b
:1031000000807000100798000800be000a01be0091
:103110004f18de0004024200000f72000804440051
:1031200089844c000a054d008b854d005e0290009d
:10313000ee0290007e0390008e0b90000e0078004f
:10314000000006000000fa00881f78001800200028
:10315000881f7800a1ff07008f87e9004f047800df
:103160000080fa00000006000000fa00801feb005b
:103170009aff07008f87e9000080fa000000060030
:103180000000fa00889fbe008a9fbe008c1f780056
:10319000e00f5000e08f5800e00f5900e08f590019
:1031a0000f003d006044b8006055b80000005400b6
:1031b00081805c0002015d0083815d001c002000b5
:1031c0000820e10009a8e1000ab0e1000bb8e10025
:1031d0000d003d001a0007000006eb000a00370052
:1031e0000006eb00e00f5200e08f5a00e00f5b009a
:1031f000e08f5b0004003d006044b8006055b800fb
:103200000f0007001c002000ceff0700e00f560053
:10321000060032006022b8006033b800000052009f
:1032200081805a0002015b0083815b004f067800b9
:103230004f05be004f04be000080fa0000000600eb
:103240000402540085825c0006035d0087835d00f4
:10325000000006000000fa00889fbe008a9fbe00a2
:103260008c1f7800e00f5000e08f5800e00f5900ed
:10327000e08f59000d003d006044b8006055b80073
:103280000000540081805c0002015d0083815d00cc
:103290001c0020000820e10009a8e1000ab0e100bc
:1032a0000bb8e1000d003d00080037000006eb0000
:1032b000e00f5200e08f5a00e00f5b00e08f5b00f0
:1032c00006003d006044b8006055b8000402540098
:1032d00085825c0006035d0087835d00a2ff070016
:1032e000e00f5600060032006022b8006033b800dc
:1032f0000000520081805a0002015b0083815b0064
:103300004f0678004f05be004f04be000080fa0053
:10331000000006000000fa00889fbe008a9fbe00e1
:103320008c1f78000006eb00e00f5000e08f580083
:10333000e00f5900e08f590007003d006044b800dd
:103340006055b8000000540081805c0002015d00ff
:1033500083815d001c002000e00f5200e08f5a00c6
:10336000e00f5b00e08f5b0007003d006044b800a9
:103370006055b8000402540085825c0006035d00bd
:1033800087835d000c00a2000d000700e00f5600cf
:10339000060032006022b8006033b800000052001e
:1033a00081805a0002015b0083815b004f06780038
:1033b0004f05be004f04be000080fa00000006006a
:1033c000889fbe008a9fbe008c9fbe000404b80088
:1033d0000506b8008904460060854e000606b80060
:1033e0000a054600e0854e000706b8008b0546003a
:1033f000040eb800890446000a854e00e0854d00a1
:10340000050eb8000a0546008b854e00060eb80072
:103410008b0546000416b8000a0546008b854e0051
:103420000516b8008b054600041eb8008b05460043
:103430000800be000a01be004f06be004f05be00d8
:083440004f04be00000006006d
:020000040000fa
:1034480041520000434300004f5300005f43000017
:103458004f52000044490000432000002d20000086
:1034680046610000746100006c2000006572000075
:10347800726f0000722100000a0000002020000086
:10348800312e0000302000003c2000007c54000059
:103498007c2e00000a000000415200004353000047
:1034a800494e00005f4300004f52000044490000ad
:1034b800432000002d2000004661000074610000d8
:1034c8006c20000065720000726f0000722100001d
:1034d8000a0000004c4e00005f4300004f520000fd
:1034e80044490000432000002d20000046610000f0
:1034f800746100006c20000065720000726f0000ab
:10350800722100000a00000020200000496e00001f
:10351800707500007420000061720000677500007b
:103528006d6500006e74000020580000203c00000b
:103538003d200000302e0000300a0000005200003c
:10354800385f0000554e0000494600004f52000009
:103558004d5f000030310000202d000020460000a3
:1035680061740000616c0000206500007272000048
:103578006f720000210a00000020000020490000ae
:103588006e7000007574000020760000616c000009
:1035980075650000206f000066200000534500009c
:1035a80045440000203d0000203000002e0a0000a5
:1035b8000053000051520000545f0000434f0000c8
:1035c8005244000049430000202d0000204600001e
:1035d80061740000616c00002065000072720000d8
:1035e8006f720000210a000000200000205800002f
:1035f800203c0000203000002e0a000000000000df
:10360800db0f0000493f000038630000ed3e00007a
:10361800b0db00007a3e0000d5ad0000fe3d0000a2
:10362800deaa00007f3d0000aeea0000ff3c00007b
:10363800abfa00007f3c0000abfe0000ff3b00003f
:10364800abff00007f3b0000ebff0000ff3a0000eb
:10365800fbff00007f3a0000ffff0000ff39000079
:103668000000000080390000000000000039000060
:103678000000000080380000000000000038000052
:103688000000000080370000000000000037000044
:103698000000000080360000000000000036000036
:1036a8000000000080350000000000000035000028
:1036b800000000008034000000000000003400001a
:1036c800000000008033000000000000003300000c
:1036d80000000000803200000000000000320000fe
:1036e80000000000803100000000000000310000f0
:1036f80000000000803000000000000000300000e2
:1037080000000000802f000000000000002f0000d3
:1037180000000000802e000000000000002e0000c5
:1037280000000000802d000000000000002d0000b7
:1037380000000000802c000000000000002c0000a9
:1037480000000000802b000000000000002b00009b
:1037580000000000802a000000000000002a00008d
:10376800000000008029000000000000002900007f
:103778000000000080280000000000000028000071
:103788000000000080270000000000000027000063
:103798000000000080260000000000000026000055
:1037a8000000000080250000000000000025000047
:1037b8000000000080240000000000000024000039
:1037c800000000008023000000000000002300002b
:1037d800000000008022000000000000002200001d
:1037e8004c090000d33f0000f25a0000a43f00003b
:1037f800020b0000913f00005b410000883f000081
:103808002b100000843f000005040000823f0000e8
:1038180001010000813f000040800000803f00005f
:1038280010400000803f000004200000803f00009e
:1038380001100000803f000000080000803f0000e9
:1038480000040000803f000000020000803f0000ec
:1038580000010000803f000080000000803f000061
:1038680040000000803f000020000000803f000072
:1038780010000000803f000008000000803f0000aa
:1038880004000000803f000002000000803f0000ac
:1038980001000000803f000001000000803f0000a0
:1038a80000000000803f00004c090000d33f0000ea
:1038b800f25a0000a43f0000020b0000913f0000f4
:1038c8005b410000883f00002b100000843f00008f
:1038d80005040000823f000001010000813f000054
:1038e80040800000803f000010400000803f000042
:1038f80004200000803f000001100000803f00000d
:1039080000080000803f000000040000803f000025
:1039180000020000803f000000010000803f00001e
:1039280080000000803f000040000000803f000051
:1039380020000000803f000010000000803f0000d1
:1039480008000000803f000004000000803f0000e5
:1039580002000000803f000001000000803f0000de
:1039680001000000803f000000000000803f0000d0
:10397800db0f0000493f000038630000ed3e000007
:10398800b0db00007a3e0000d5ad0000fe3d00002f
:10399800deaa00007f3d0000aeea0000ff3c000008
:1039a800abfa00007f3c0000abfe0000ff3b0000cc
:1039b800abff00007f3b0000ebff0000ff3a000078
:1039c800fbff00007f3a0000ffff0000ff39000006
:1039d80000000000803900000000000000390000ed
:1039e80000000000803800000000000000380000df
:1039f80000000000803700000000000000370000d1
:103a080000000000803600000000000000360000c2
:103a180000000000803500000000000000350000b4
:103a280000000000803400000000000000340000a6
:103a38000000000080330000000000000033000098
:103a4800000000008032000000000000003200008a
:103a5800000000008031000000000000003100007c
:103a6800000000008030000000000000003000006e
:103a780000000000802f000000000000002f000060
:103a880000000000802e000000000000002e000052
:103a980000000000802d000000000000002d000044
:103aa80000000000802c000000000000002c000036
:103ab80000000000802b000000000000002b000028
:103ac80000000000802a000000000000002a00001a
:103ad800000000008029000000000000002900000c
:103ae80000000000802800000000000000280000fe
:103af80000000000802700000000000000270000f0
:103b080000000000802600000000000000260000e1
:103b180000000000802500000000000000250000d3
:103b280000000000802400000000000000240000c5
:103b380000000000802300000000000000230000b7
:103b480000000000802200000000000000220000a9
:103b5800f3040000353f00009be80000213f00000f
:103b68000e1300001d3f00008adc00001b3f000010
:103b7800d68e00001b3f0000687b00001b3f000042
:103b88008c7600001b3f0000557500001b3f0000ad
:103b9800087500001b3f0000f47400001b3f000084
:103ba800ef7400001b3f0000ee7400001b3f000094
:103bb800ee7400001b3f0000ee7400001b3f000085
:103bc800ee7400001b3f0000ee7400001b3f000075
:103bd800ee7400001b3f0000ee7400001b3f000065
:103be800ee7400001b3f0000ee7400001b3f000055
:103bf800ee7400001b3f0000ee7400001b3f000045
:103c0800ee7400001b3f0000ee7400001b3f000034
:103c1800ee7400001b3f0000ee7400001b3f000024
:103c2800ee7400001b3f0000ee7400001b3f000014
:103c3800ee7400001b3f0000ee7400001b3f000004
:103c4800ee7400001b3f0000ee7400001b3f0000f4
:103c5800ee7400001b3f0000db0f0000493f00002e
:103c680038630000ed3e0000b0db00007a3e000043
:103c7800d5ad0000fe3d0000deaa00007f3d00003b
:103c8800aeea0000ff3c0000abfa00007f3c0000f9
:103c9800abfe0000ff3b0000abff00007f3b0000d5
:103ca800ebff0000ff3a0000fbff00007f3a000036
:103cb800ffff0000ff39000000000000803900000d
:103cc80000000000003900000000000080380000fb
:103cd80000000000003800000000000080370000ed
:103ce80000000000003700000000000080360000df
:103cf80000000000003600000000000080350000d1
:103d080000000000003500000000000080340000c2
:103d180000000000003400000000000080330000b4
:103d280000000000003300000000000080320000a6
:103d38000000000000320000000000008031000098
:103d4800000000000031000000000000803000008a
:103d5800000000000030000000000000802f00007c
:103d680000000000002f000000000000802e00006e
:103d780000000000002e000000000000802d000060
:103d880000000000002d000000000000802c000052
:103d980000000000002c000000000000802b000044
:103da80000000000002b000000000000802a000036
:103db80000000000002a0000000000008029000028
:103dc800000000000029000000000000802800001a
:103dd800000000000028000000000000802700000c
:103de80000000000002700000000000080260000fe
:103df80000000000002600000000000080250000f0
:103e080000000000002500000000000080240000e1
:103e180000000000002400000000000080230000d3
:103e280000000000002300000000000080220000c5
:103e38000000000000220000db0f0000493f0000e6
:103e480038630000ed3e0000b0db00007a3e000061
:103e5800d5ad0000fe3d0000deaa00007f3d000059
:103e6800aeea0000ff3c0000abfa00007f3c000017
:103e7800abfe0000ff3b0000abff00007f3b0000f3
:103e8800ebff0000ff3a0000fbff00007f3a000054
:103e9800ffff0000ff39000000000000803900002b
:103ea8000000000000390000000000008038000019
:103eb800000000000038000000000000803700000b
:103ec80000000000003700000000000080360000fd
:103ed80000000000003600000000000080350000ef
:103ee80000000000003500000000000080340000e1
:103ef80000000000003400000000000080330000d3
:103f080000000000003300000000000080320000c4
:103f180000000000003200000000000080310000b6
:103f280000000000003100000000000080300000a8
:103f3800000000000030000000000000802f00009a
:103f480000000000002f000000000000802e00008c
:103f580000000000002e000000000000802d00007e
:103f680000000000002d000000000000802c000070
:103f780000000000002c000000000000802b000062
:103f880000000000002b000000000000802a000054
:103f980000000000002a0000000000008029000046
:103fa8000000000000290000000000008028000038
:103fb800000000000028000000000000802700002a
:103fc800000000000027000000000000802600001c
:103fd800000000000026000000000000802500000e
:103fe8000000000000250000000000008024000000
:103ff80000000000002400000000000080230000f2
:1040080000000000002300000000000080220000e3
:104018000000000000220000db0f0000493f000004
:1040280038630000ed3e0000b0db00007a3e00007f
:10403800d5ad0000fe3d0000deaa00007f3d000077
:10404800aeea0000ff3c0000abfa00007f3c000035
:10405800abfe0000ff3b0000abff00007f3b000011
:10406800ebff0000ff3a0000fbff00007f3a000072
:10407800ffff0000ff390000000000008039000049
:104088000000000000390000000000008038000037
:104098000000000000380000000000008037000029
:1040a800000000000037000000000000803600001b
:1040b800000000000036000000000000803500000d
:1040c80000000000003500000000000080340000ff
:1040d80000000000003400000000000080330000f1
:1040e80000000000003300000000000080320000e3
:1040f80000000000003200000000000080310000d5
:1041080000000000003100000000000080300000c6
:10411800000000000030000000000000802f0000b8
:1041280000000000002f000000000000802e0000aa
:1041380000000000002e000000000000802d00009c
:1041480000000000002d000000000000802c00008e
:1041580000000000002c000000000000802b000080
:1041680000000000002b000000000000802a000072
:1041780000000000002a0000000000008029000064
:104188000000000000290000000000008028000056
:104198000000000000280000000000008027000048
:1041a800000000000027000000000000802600003a
:1041b800000000000026000000000000802500002c
:1041c800000000000025000000000000802400001e
:1041d8000000000000240000000000008023000010
:1041e8000000000000230000000000008022000002
:1041f8000000000000220000496e00006974000001
:10420800696100006c6900007a610000746900004f
:104218006f6e0000204300006f6d0000706c00009e
:1042280065740000652e00000d0a00000000000003
:10423800526f0000746f0000722000004f6600008b
:1042480066730000657400003a200000256c0000c9
:08425800690d00000a000000de
:020000040000fa
:10426000343800000400000082000000000000005c
:1042700000000000a4340000800100008000000065
:104280002638000008000000800000000210000036
:104290000220000082000000000000000047210012
:1042a000493baa0029c93b0027dd16003caa29008a
:1042b000493cfc00717b3c0027dd96003c5001002e
:1042c000b03c600023c93c008847e2003c9869008c
:1042d000fb3cd400450a3d00d0d516003dcb65001f
:1042e000233dc700f52f3d00c2853c003db11400c1
:1042f000493d9400a2553d00773062003d59be0013
:104300006e3d30004b7b3d007deb83003d62310014
:104310008a3dc00076903d0099bb96003d7100003b
:104320009d3dc30044a33d001689a9003d5ccc001f
:10433000af3da1000fb63d006152bc003d9a940014
:10434000c23d4d00d6c83d007a17cf003d21580030
:10435000d53dc80098db3d0062d8e1003d761700ee
:10436000e83d040056ee3d000c94f4003d8dd10074
:10437000fa3d440087003e007fa503003e33c300a2
:10438000063ea400e0093e00d2fd0c003e7a1a0071
:10439000103e220037133e00435316003edf6e00ee
:1043a000193e37008a1c3e004ca51f003edbbf00b3
:1043b000223e2700da253e00edf328003e6f0d0077
:1043c0002c3e6c00262f3e00e23e32003e15570088
:1043d000353ec1006e383e00e8853b003ecb9c0078
:1043e0003e3e2900b3413e0000c944003e51de007c
:1043f000473e5e00f34a3e00e6074e003ea41b0027
:10440000513e1f002f543e00144257003e8254007c
:104410005a3e6b00665d3e00cd7760003e668800c8
:10442000633ebb0098663e008ba869003e91b700d2
:104430006c3e1100c66f3e000bd472003e7ee10060
:10444000753e2800ee783e008ffa7b003e2d060078
:104450007f3e810008813e00a88d82003e8c1200c4
:10446000843e2d0097853e00481b87003e419f00fb
:10447000883ed500228a3e0005a68b003ef2280029
:104480008d3e7a00ab8e3e00be2d90003e9faf0069
:10449000913e1a0031933e0031b294003e05330044
:1044a000963e7400b3973e007f3399003e46b300ba
:1044b0009a3e8700329c3e0085b19d003e1f300031
:1044c0009f3e5300aea03e00232ca2003e8fa900c9
:1044d000a33e740026a53e0016a3a6003e541f006e
:1044e000a83e2c009ba93e007f16ab003e8e91009b
:1044f000ac3e17000cae3e003c86af003efcff0019
:10450000b03e570079b23e002cf2b3003e9c6a00e8
:10451000b53ea800e2b63e002d5ab8003e4ed1008e
:10452000b93ee90047bb3e001fbebc003ef0330071
:10453000be3e3b00a9bf3e00001ec1003e6092008f
:10454000c23e5b0006c43e00af79c5003ec0ec0031
:10455000c63e29005fc83e002dd1c9003eab4200d7
:10456000cb3ea200b3cc3e003524ce003e429400a8
:10457000cf3ec90003d13e00c972d2003e43e100e4
:10458000d33e37004fd53e00c7bcd6003eae290013
:10459000d83e310096d93e000c02db003e836d0010
:1045a000dc3e5100d8dd3e009a42df003e7eac008a
:1045b000e03eba0015e23e006f7ee3003e7de6007d
:1045c000e43e27004ee63e0028b5e7003ea41b006f
:1045d000e93e990081ea3e00e6e6eb003ead4b0085
:1045e000ed3eee00afee3e008813f0003e9b7600fd
:1045f000f13e2700d9f23e000c3bf4003e499c00fe
:10460000f53e0000fdf63e00315df8003e99bc002d
:10461000f93e9b001bfb3e00d579fc003e88d7008d
:10462000fd3eb50034ff3e008c4800003f7bf600a5
:10463000003f1600a4013f006e5102003f61fe00e2
:10464000023f1100ab033f006d5704003f750300ac
:10465000053f2900af053f008a5a06003fa7050025
:10466000073f6000b0073f00c45a08003fe604005f
:10467000093fa300ae093f000c580a003f2101008a
:104680000b3fe300a90b3f0050520c003f6afa00b9
:104690000c3f1f00a20d3f0080490e003f9ef0001e
:1046a0000e3f4600970f3f00ab3d10003face300cc
:1046b000103f590089113f00a12e12003fa6d300e0
:1046c000123f360078133f00821c14003f59c0008f
:1046d000143fed0063153f001c0716003fe7a900db
:1046e000163f5e004c173f0070ee17003f2e900003
:1046f000183f870031193f007cd219003f1d73001d
:104700001a3f5900131b3f0031b31b003fb5520045
:104710001c3fd400f11c3f008e901d003fe42e0092
:104720001e3fe600cc1e3f00726a1f003fab070031
:10473000203f7f00a4203f00ee4021003ff9dc0035
:10474000213f9e0078223f00e01323003fbcae00d3
:10475000233f340049243f0047e324003ff67c0018
:10476000253f400016263f0014af26003f95470026
:10477000273fb100df273f00577728003f990e0001
:10478000293f7600a5293f00de3b2a003ff2d100f9
:104790002a3f9000672b3f00b9fc2b003f8e910011
:1047a0002c3fee00252d3f00e9b92d003f6e4d0056
:1047b0002e3f8f00e02e3f003b732f003f8105000e
:1047c000303f630097303f00d02831003fc7b90029
:1047d000313f5a004a323f0088da32003f2f6a00e8
:1047e000333f8300f9333f00518834003fb916004e
:1047f000353fad00a4353f003c3236003f55bf0089
:10480000363ff9004b373f0027d837003ff16300b0
:10481000383f4600ef383f00257a39003f8e0400cc
:104820003a3f82008e3a3f0011183b003f2ba10017
:104830003b3fbf00293c3f00eeb13c003fa83900a0
:104840003d3fec00c03d3f00bb473e003f14ce0063
:104850003e3ff800533f3f0055d93f003f4e5e00ba
:10486000403fd200e2403f00cf6641003f68ea008f
:10487000413f7a006d423f0017f042003f3f720017
:10488000433ff100f3433f002e7544003fe4f50041
:10489000443f250076453f00f1f545003f47750050
:1048a000463f1700f4463f00717247003f56f00044
:1048b000473fb5006d483f009eea48003f02670051
:1048c000493fef00e2493f00685e4a003f5ad90085
:1048d0004a3fd600534b3f00cdcd4b003f4e4700e3
:1048e0004c3f4800c04c3f00ce384d003fcdb0009b
:1048f0004d3f4600284e3f00499f4e003fd71500d0
:104900004f3fdf008b4f3f00600150003f5c76005f
:10491000503fe200ea503f00e15e51003f5bd200b1
:10492000513f5f0045523f00dcb752003fd42900a1
:10493000533f56009b533f00410c54003fb77c004f
:10494000543fa700ec543f00105c55003ff3ca00f1
:10495000553f600039563f0037a756003f98140076
:10496000573f730081573f00c8ed57003f865900fd
:10497000583fce00c4583f00902f59003fcc9900bb
:10498000593f8200035a3f00b16c5a003f5ad5008c
:104990005a3f7d003d5b3f0009a55b003f200c00b6
:1049a0005c3fb000725c3f00a9d85c003f1d3e0038
:1049b0005d3f1a00a35d3f0081075e003f516b0021
:1049c0005e3fab00ce5e3f006e315f003fbc9300a8
:1049d0005f3f7300f55f3f00935660003f3db700b7
:1049e000603f500017613f00de7661003fe5d50073
:1049f000613f550034623f003e9262003fa2ef00eb
:104a0000623f6e004c633f00b5a863003f75040031
:104a1000643f9e005f643f0041ba64003f4d140054
:104a2000653fd2006d653f00d2c665003f3a1f006a
:104a3000663f0c0077663f0057ce66003f1c25009e
:104a4000673f4a007b673f00f2d067003f032600c4
:104a5000683f7d007a683f0070ce68003fcd21003e
:104a6000693fa30074693f00e3c669003f9c1800da
:104a70006a3fbe00696a3f0049ba6a003f4e0a00b9
:104a80006b3fbc00596b3f0093a86b003fe4f600fe
:104a90006b3f9e00446c3f00d1916c003f5dde0097
:104aa0006c3f63002a6d3f00d1756d003fbac000b6
:104ab0006d3f0b000b6e3f00c5546e003fe99d003b
:104ac0006e3f7500e66e3f007b2e6f003fda75008b
:104ad0006f3fb200bc6f3f00040370003fae480060
:104ae000703fc1008d703f004ed270003f441600f1
:104af000713fa30059713f006b9c71003f9cde0029
:104b0000713f360020723f00396172003fb6a1004c
:104b1000723f8b00e1723f00da2073003f815f003b
:104b2000733fa1009d733f002bdb73003f0d180006
:104b3000743f690054743f002e9074003f4bcb00cb
:104b4000743fe20005753f00e23f75003f3a79008f
:104b5000753f0c00b2753f0046ea75003fd9210051
:104b6000763fe60058763f004b8f76003f19c50030
:104b7000763f6100fa763f00012f77003f0b63001c
:104b8000773f7d0096773f0058c977003f8bfb0049
:104b9000773f38002d783f003e5e78003fbd8e00a5
:104ba000783f9400be783f00d5ed78003f7e1c0032
:104bb000793f80004a793f00fb7779003fcfa4001e
:104bc000793f0b00d1793f00b1fc79003fbf27004e
:104bd0007a3f3700527a3f00077c7a003f40a500b9
:104be0007a3fe200cd7a3f00edf57a003f501d009c
:104bf0007b3f1c00447b3f00516a7b003fef8f00ee
:104c00007b3fe500b47b3f0045d97b003f0dfd00b5
:104c10007b3f3e00207c3f00c8427c003fbb6400dd
:104c20007c3f1600867c3f00dba67c003ff8c60078
:104c30007c3f7d00e67c3f005c057d003fa32300b8
:104c40007d3f5300417d3f006c5e7d003fdd7a007b
:104c50007d3fb700967d3f00fbb17d003f96cc00c5
:104c60007d3f9b00e67d3f0008007e003fce1800a0
:104c70007e3ffd00307e3f0084487e003f855f0020
:104c80007e3fcd00757e3f008f8b7e003fa9a00048
:104c90007e3f2d00b57e3f0008c97e003f4ddc0001
:104ca0007e3ffa00ee7e3f0000017f003f6f120062
:104cb0007f3f3600237f3f0066337f003fff420087
:104cc0007f3ff000517f3f004a607f003ffc6d0056
:104cd0007f3f18007b7f3f009c877f003f799300d8
:104ce0007f3fbf009e7f3f006da97f003f74b300f0
:104cf0007f3fd300bc7f3f009cc57f003fcdcd00f0
:104d00007f3f6700d57f3f0059dc7f003fa4e20072
:104d10007f3f5700e87f3f0074ed7f003fe9f100df
:104d20007f3fc700f57f3f000ef97f003fadfb00de
:104d30007f3fa400fd7f3f0015ff7f003fceff00b7
:104d40007f3f000000803f008bff7f003f6dfe0033
:104d50007f3fb900fc7f3f006efa7f003f7bf7008a
:104d60007f3ff100f37f3f00bfef7f003ff7ea0096
:104d70007f3f9700e57f3f008fdf7f003ff1d80046
:104d80007f3fab00d17f3f00cdc97f003f59c100bd
:104d90007f3f3d00b87f3f0079ae7f003f2fa400ea
:104da0007f3f2d00997f3f00a48d7f003f738100de
:104db0007f3fac00747f3f003c677f003f36590067
:104dc0007f3f88004a7f3f00433b7f003f672b00c7
:104dd0007f3fe3001a7f3f00c8097f003f05f800ce
:104de0007e3fac00e57e3f00bbd27e003f23bf008c
:104df0007e3ff300aa7e3f002d967e003fbf8000dd
:104e00007e3fba006a7e3f001e547e003fda3c00bf
:104e10007e3fff00247e3f007c0c7e003f62f3005b
:104e20007d3fb200d97d3f0059bf7d003f6aa4009d
:104e30007d3fe300887d3f00b56c7d003ff04f0073
:104e40007d3f9400327d3f0090147d003f06f600c8
:104e50007c3fc300d67c3f00fab67c003f899600b9
:104e60007c3f8200757c3f00d2537c003f9c310028
:104e70007c3fbf000e7c3f004aeb7b003f2ec7000b
:104e80007b3f7b00a27b3f00317d7b003f4f570083
:104e90007b3fc600307b3f00a6097b003fefe1006f
:104ea0007a3fa100b97a3f00bc907a003f3067009a
:104eb0007a3f0c003d7a3f0051127a003fffe60036
:104ec000793f0600bb793f00758e79003f4e610047
:104ed000793f8f0033793f003a0579003f4dd60086
:104ee000783fb900a6783f008e7678003fcc450029
:104ef000783f720014783f0082e277003ffbaf00fa
:104f0000773fcc007c773f00174977003fba140009
:104f1000773fd700df763f004caa76003f2a740027
:104f2000763f71003d763f00210676003f3ace0085
:104f3000753fbc0095753f00a75c75003ffb2200e4
:104f4000753fa700e8743f00cdad74003f5c720070
:104f5000743f540036743f00b5f973003f6fbc00d6
:104f6000733fa2007e733f003e4073003f43010049
:104f7000733fb100c1723f00888172003fc840009a
:104f8000723f8200ff713f0094bd71003f0f7b00b4
:104f9000713f040038713f0062f470003f18b000a8
:104fa000703f48006b703f00e12570003ff4df0068
:104fb0006f3f5f00996f3f0044526f003f810a00ce
:104fc0006f3f3700c26e3f0068796e003ff12f00df
:104fd0006e3ff300e56d3f005f9b6d003f33500077
:104fe0006d3f7100046d3f0028b86c003f486b00b6
:104ff0006c3fd2001d6c3f00d5cf6b003f4181005c
:105000006b3f1600326b3f0065e26a003f1d920065
:105010006a3f3e00416a3f00d8ef69003fdc9d00d7
:10502000693f49004b693f002ff868003f90a4009a
:10503000683f480050683f008bfb67003f26a60092
:10504000673f3c0050673f00caf966003fc2a200bc
:10505000663f34004b663f000ef365003f639a00e5
:10506000653f200041653f0058e764003ff88c0031
:10507000643f120032643f00a6d663003fa27a006c
:10508000633f19001e633f0009c162003f63630074
:10509000623f360005623f0072a661003f2847006c
:1050a000613f5800e7603f00018760003f14260021
:1050b000603fa000c45f3f00a6625f003f26000083
:1050c0005f3f0f009d5e3f0071395e003f5ed5007f
:1050d0005d3fa400705d3f00740b5d003fbea50006
:1050e0005c3f70003f5c3f00aed85b003f547100f6
:1050f0005b3f7400095b3f000ea15a003f3238004d
:105100005a3fc000ce593f00c76459003f48fa00db
:10511000583f43008f583f00b82358003fa6b700c0
:10512000573f0e004b573f0001de56003f5d7000b9
:10513000563f430002563f00929355003f6c2400b7
:10514000553fc000b4543f008d4454003fd4d300b9
:10515000533fa60062533f00f1f052003fa67e008d
:10516000523ff6000b523f00af9851003ff224002f
:10517000513faf00b0503f00e63b50003fa8c60093
:105180004f3fe300504f3f00a9da4e003fd8630085
:105190004e3fa200ec4d3f00d6744d003f93fc0003
:1051a0004c3fdc00834c3f009e0a4c003fda9000ed
:1051b0004b3fa000164b3f00f19b4a003fbc200034
:1051c0004a3f1200a5493f00e12849003f3bac009f
:1051d000483f0e002f483f006cb147003f55330059
:1051e000473fb700b4463f00a43546003f1cb60019
:1051f000453f1e0036453f009ab544003fa03400ad
:10520000443f3100b3433f003c3143003fe2ae0036
:10521000423f02002c423f00aca841003fe1240085
:10522000413fa100a0403f00eb1b40003faf960074
:105230003f3f0e00113f3f00f88a3e003f5c0400f4
:105240003e3f5b007d3d3f00d3f53c003fe76d00f6
:105250003c3f8600e53b3f00af5c3b003f63d30033
:105260003a3fa100493a3f006abf39003fbd3400d0
:10527000393fac00a9383f00151e38003f19920095
:10528000373fb80005373f00d17836003f85eb0047
:10529000353fc4005d353f008dcf34003ff2400004
:1052a000343fe200b1333f006c2233003f81920073
:1052b000323f210002323f005c7131003f22e000aa
:1052c000303f83004e303f006fbc2f003ff6290077
:1052d0002f3f0700972e3f00b4032e003ffc6f00c6
:1052e0002d3fcf00db2c3f002c472c003f35b20078
:1052f0002b3fc9001c2b3f00f9862a003fb3f0006a
:10530000293f18005a293f0009c328003f842b0079
:10531000283fab0093273f006efb26003fbb620097
:10532000263fa300c9253f00273025003f469600b1
:10533000243f0100fc233f00566123003f47c60085
:10534000223fd4002a223f00fc8e21003fbff20002
:10535000203f1d0056203f0017b91f003fbd1b0016
:105360001f3fed007d1e3f00cadf1d003f314100a1
:105370001d3f4400a21c3f0004031c003f4e63007d
:105380001b3f4400c31a3f00d5221a003f1382007e
:10539000193fdb00e0183f00603f18003f6f9d00a1
:1053a000173f2b00fb163f00825816003f85b500c3
:1053b000153f340012153f007e6e14003f64ca0092
:1053c000133ff60025133f00348112003f0edc002e
:1053d000113f930036113f00b49010003f81ea0066
:1053e0000f3ffa00430f3f001f9d0e003fe0f50006
:1053f0000d3f4d004e0d3f0065a60c003f2afe00fc
:105400000b3f8a00550b3f00a8ac0a003f60030029
:105410000a3fc50059093f00e6af08003fa3050059
:10542000083f0c005b073f0021b006003fe204008c
:10543000063f600059053f0079ad04003f50010070
:10544000043fc10054033f00f0a702003fcafa0026
:10545000013f51004d013f00959f00003fe7e200f2
:10546000ff3e1f0086fe3e00d028fd003edaca0047
:10547000fb3e3c006cfa3e00f60cf9003e2aad0003
:10548000f73eb6004cf63e00bcebf4003e1a8a0034
:10549000f33ef20027f23e0022c5f0003ecc610050
:1054a000ef3ef000fded3e006b99ec003e613400f4
:1054b000eb3eaf00cee93e007768e8003eb8010061
:1054c000e73e74009ae53e008732e4003e15ca00cc
:1054d000e23e1c0061e13e009df7df003e978d003b
:1054e000de3eea0022dd3e00d8b7db003e1f4c0066
:1054f000da3e0100e0d83e003b73d7003e100600c4
:10550000d63e5f0098d43e00062ad3003e49bb0039
:10551000d13e06004cd03e003cdcce003e0d6c007f
:10552000cd3e3700fbcb3e00fc89ca003e3b180055
:10553000c93ef400a5c73e004833c6003e16c00071
:10554000c43e5e004cc33e0041d8c1003e9d630096
:10555000c03e9500eebe3e000779bd003e1503003b
:10556000bc3e9c008cba3e00be15b9003e7c9e003d
:10557000b73eb30026b63e0064aeb4003ed235005e
:10558000b33eba00bcb13e003d43b0003e3ac90054
:10559000ae3ed3004ead3e0028d4ab003ef75800df
:1055a000aa3e4000dda83e004661a7003ee7e400b9
:1055b000a53e010068a43e00d9eaa2003e4c6d0061
:1055c000a13e3900ef9f3e00e3709e003e28f200ae
:1055d0009c3ee700729b3e0062f399003e9b730085
:1055e000983e4d00f3963e00bd7295003ea6f10038
:1055f000933e6d0070923e00afee90003ead6c00a9
:105600008f3e4600ea8d3e007b678c003e6de400d5
:105610008a3e1c0061893e0044dd87003e4b5900f4
:10562000863eed00d4843e002b5083003e25cb0007
:10563000813edd0045803e005e807d003e7e740040
:105640007a3e160068773e00e65a74003e2f4d0001
:10565000713ef3003e6e3e00ec2f6b003ea3200037
:10566000683e900010653e003b0062003e1cef006b
:105670005e3e7600dd5b3e004bcb58003e99b800a5
:10568000553e6100a5523e00e6914f003ea27d00ce
:105690004c3ed70068493e00ca5346003e363e00a5
:1056a000433e1c0028403e007b113d003e55fa0061
:1056b000393eeb00e2363e00fbca33003e85b200c5
:1056c000303ecc00992d3e008d802a003e0a6700b6
:1056d000273e01004d243e00b53221003ee3170075
:1056e0001e3e8b00fc1a3e0033e117003e11c50040
:1056f000143eef00a8113e00488c0e003e5d6f0086
:105700000b3eec0051083e00373405003e401600c9
:10571000023e0b00f0fd3d0010b3f7003d087500a0
:10572000f13d000037eb3d00ecf7e4003d52b800de
:10573000de3db80078d83d001138d2003de4f600d7
:10574000cb3d3100b5c53d007e73bf003dbe30008e
:10575000b93dfe00edb23d00b9aaac003ded6600da
:10576000a63d9a0022a03d0048de99003d709900b8
:10577000933d1100548d3d00b20e87003d47c80097
:10578000803dc50004753d00ee7768003d0cea00e1
:105790005b3d1d005b4f3d003acd42003d3e3d006c
:1057a000363d4f00ae293d00541e1d003d4c8d007e
:1057b000103d5000fd033d0090d8ee003c67b40062
:1057c000d53c580092bc3c002f6ea3003c064a001a
:1057d0008a3cba004b623c00680330003c2e7600e5
:1057e000fb3b2700dd963b000e32c9003a0e32002b
:1057f000c9ba2700dd96bb002e76fb00bb6803000c
:1058000030bcba004b62bc00064a8a00bc2f6e0056
:10581000a3bc580092bcbc0067b4d500bc90d800b3
:10582000eebc5000fd03bd004c8d1000bd541e00a9
:105830001dbd4f00ae29bd003e3d3600bd3acd0036
:1058400042bd1d005b4fbd000cea5b00bdee770062
:1058500068bdc5000475bd0047c88000bdb20e001c
:1058600087bd1100548dbd0070999300bd48de00c6
:1058700099bd9a0022a0bd00ed66a600bdb9aa00a0
:10588000acbdfe00edb2bd00be30b900bd7e730000
:10589000bfbd3100b5c5bd00e4f6cb00bd11380079
:1058a000d2bdb80078d8bd0052b8de00bdecf7001c
:1058b000e4bd000037ebbd000875f100bd10b3007a
:1058c000f7bd0b00f0fdbd0040160200be373400ee
:1058d00005beec005108be005d6f0b00be488c0099
:1058e0000ebeef00a811be0011c51400be33e100ca
:1058f00017be8b00fc1abe00e3171e00beb53200b7
:1059000021be01004d24be000a672700be8d800025
:105910002abecc00992dbe0085b23000befbca0065
:1059200033beeb00e236be0055fa3900be7b1100f3
:105930003dbe1c002840be00363e4300beca530098
:1059400046bed7006849be00a27d4c00bee691006d
:105950004fbe6100a552be0099b85500be4bcb00aa
:1059600058be7600dd5bbe001cef5e00be3b000053
:1059700062be90001065be00a3206800beec2f0040
:105980006bbef3003e6ebe002f4d7100bee65a00a6
:1059900074be16006877be007e747a00be5e80001a
:1059a0007dbedd004580be0025cb8100be2b5000b2
:1059b00083beed00d484be004b598600be44dd009a
:1059c00087be1c006189be006de48a00be7b670053
:1059d0008cbe4600ea8dbe00ad6c8f00beafee00ff
:1059e00090be6d007092be00a6f19300bebd720025
:1059f00095be4d00f396be009b739800be62f30007
:105a000099bee700729bbe0028f29c00bee37000c6
:105a10009ebe3900ef9fbe004c6da100bed9ea00ca
:105a2000a2be010068a4be00e7e4a500be46610076
:105a3000a7be4000dda8be00f758aa00be28d400cb
:105a4000abbed3004eadbe003ac9ae00be3d430072
:105a5000b0beba00bcb1be00d235b300be64ae0069
:105a6000b4beb30026b6be007c9eb700bebe150015
:105a7000b9be9c008cbabe001503bc00be077900fd
:105a8000bdbe9500eebebe009d63c000be41d80005
:105a9000c1be5e004cc3be0016c0c400be48330089
:105aa000c6bef400a5c7be003b18c900befc8900f5
:105ab000cabe3700fbcbbe000d6ccd00be3cdc0087
:105ac000cebe06004cd0be0049bbd100be062a00a7
:105ad000d3be5f0098d4be001006d600be3b730054
:105ae000d7be0100e0d8be001f4cda00bed8b70018
:105af000dbbeea0022ddbe00978dde00be9df70012
:105b0000dfbe1c0061e1be0015cae200be873200a4
:105b1000e4be74009ae5be00b801e700be776800f5
:105b2000e8beaf00cee9be006134eb00be6b990069
:105b3000ecbef000fdedbe00cc61ef00be22c50062
:105b4000f0bef20027f2be001a8af300bebceb00e2
:105b5000f4beb6004cf6be002aadf700bef60c004f
:105b6000f9be3c006cfabe00dacafb00bed02800c9
:105b7000fdbe1f0086febe00e7e2ff00be959f004f
:105b800000bf51004d01bf00cafa0100bff0a700dd
:105b900002bfc1005403bf0050010400bf79ad0033
:105ba00004bf60005905bf00e2040600bf21b00039
:105bb00006bf0c005b07bf00a3050800bfe6af00ef
:105bc00008bfc5005909bf0060030a00bfa8ac00a8
:105bd0000abf8a00550bbf002afe0b00bf65a60056
:105be0000cbf4d004e0dbf00e0f50d00bf1f9d0026
:105bf0000ebffa00430fbf0081ea0f00bfb4900050
:105c000010bf93003611bf000edc1100bf348100bd
:105c100012bff6002513bf0064ca1300bf7e6e00da
:105c200014bf34001215bf0085b51500bf8258009f
:105c300016bf2b00fb16bf006f9d1700bf603f0013
:105c400018bfdb00e018bf0013821900bfd5220087
