:020000040000fa
:080000000002040000000000f2
:020000040000fa
:10000800d0020000d0020000d0020000d0020000a0
:10001800d0020000d0020000d0020000d002000090
:10002800d0020000d0020000d0020000d002000080
:10003800828d0000d0020000d0020000d002000033
:10004800be880000d0020000d0020000d0020000ec
:10005800d0020000d00200008a8d0000d00200000b
:10006800d0020000d0020000d0020000d002000040
:10007800d0020000d0020000d0020000d002000030
:10008800b48d0000d0020000d0020000d0020000b1
:10009800d0020000d0020000d0020000d002000010
:1000a800d0020000d0020000d0020000d002000000
:1000b800bc8d0000d0020000d0020000d002000079
:1000c800d0020000d0020000d0020000d0020000e0
:1000d800d0020000d0020000e68d0000d00200002f
:1000e8009e880000d0020000d0020000d00200006c
:1000f800d0020000d0020000d0020000d0020000b0
:10010800d0020000d0020000d0020000d00200009f
:10011800d0020000ee8d0000d0020000d0020000e6
:10012800d0020000d0020000d0020000d00200007f
:10013800188e0000d0020000d0020000d00200009b
:10014800d0020000d0020000d0020000d00200005f
:10015800d0020000d0020000d0020000d00200004f
:10016800d0020000d0020000d0020000d00200003f
:10017800d0020000d0020000d0020000d00200002f
:10018800d0020000d0020000d0020000d00200001f
:10019800d0020000d0020000d0020000d00200000f
:1001a800d0020000d0020000d0020000d0020000ff
:1001b800d0020000d0020000d0020000d0020000ef
:1001c800d0020000d0020000d0020000d0020000df
:1001d800d0020000d0020000d0020000d0020000cf
:1001e800d0020000d0020000d0020000d0020000bf
:1001f800d0020000d0020000d0020000d0020000af
:10020800d0020000d0020000d0020000d00200009e
:10021800d0020000d0020000d0020000d00200008e
:10022800d0020000d0020000d0020000d00200007e
:10023800d0020000d0020000d0020000d00200006e
:10024800d0020000d0020000d0020000d00200005e
:10025800d0020000d0020000d0020000d00200004e
:020000040000fa
:10040000ef242400eef227000e0188000000000017
:1004100000012000200288000c00070000122400c8
:10042000010020000f000700000020000000e00095
:100430000200320000000200000000005a8f02009b
:10044000000000000040da000000fe00c06e200046
:100450000000e0000200320000202000900188002f
:1004600000000600a1028800800078000000eb0078
:100470001a003700e280400054a0b4009101ba0095
:10048000e280400054a0b4009102ba00e280400033
:1004900054a0b4000002eb00472bde00f507b200c9
:1004a000a6018800602ce10008003a000049eb003a
:1004b0000201e800020039003420ec0002f0a00044
:1004c0008301e900f9ff3e00040037006128e100e4
:1004d000010032000082eb00040007001101ba00a5
:1004e0000200e000e3ff3a000000060004d0a30091
:1004f000e20f49001c003900810278003549ba003a
:100500000201e800020039003420ec0002f0a000f3
:100510008301e9000f0032002549ba000201e8001a
:10052000020039003420ec0002f0a0008301e90051
:10053000080032000400e0000600320015c9ba00cd
:100540000201e800020039003420ec0002f0a000b3
:100550008301e9008180e80054a0b4000300e000ba
:10056000e2ff3a00000006009102ba000559780047
:100570008301e900f7ff3200c82ade000559780040
:100580008301e900f3ff32000400e000f1ff3200d4
:1005900011d9ba00eeff37000890040000000000f7
:1005a0000040da000000fe000000fa000748a90041
:1005b000e7026000c82add00e6428000f48f2f00c9
:1005c0000402630005027200e442880068006000d3
:1005d0004300de00610060004a00dd00344180001d
:1005e00004a0a10000027200344188000080fa00db
:1005f000000006000000fa00000e8800110e8800be
:10060000220e88000080fa00000006000000fa00b8
:10061000300e8000510e80000080fa0000000600bd
:100620000000fa002148a90041e2a9000148a90000
:100630000080fa00000006000000fa001012880096
:1006400021128800021288000080fa0000000600d3
:1006500003f0a200889fbe008a9fbe008c1f780016
:10066000830107008a0133006450e1004f0032002b
:100670006420e1005200320003826c0007003b005e
:100680000905d0000306d000820f54000c065d005f
:100690000200390002003200890178000306780068
:1006a0008582550004003d000003fd008103fd002c
:1006b0008502ea008b854200840f720002003b0035
:1006c00060001000e08018006011b8000005eb0029
:1006d0007a28e1000a00390006007800c75ddd00d5
:1006e000f707b200878075002d0037008281710006
:1006f0000a017800610560008180d1000080d3008c
:100700008502e900f9ff3b000604400087844800a9
:1007100002003b0060041400e0841c000988a30070
:10072000070032008a8171008281710061016400da
:100730008904d1000884d3008b05e8001700370036
:100740000978a30013003a000b00e0001300340006
:100750008b05e9000804440089844c000a447400b5
:100760000978a3000d003a000b00e00007003400f8
:100770008b05e9000804440089844c0001003a001c
:100780000b0020000978a300f7ff32000001eb0006
:1007900002003700828171000a017800f900070029
:1007a0000cf0a70001f0a000420137006420e10036
:1007b00002003a00838f6c00420133000801be0042
:1007c0000200be003b013700889fbe008a9fbe002a
:1007d0008c1f7800260107002d01330003866c0072
:1007e0006450e1002e0032006420e100330032004a
:1007f0006150e1002f0032006120e1003100320041
:1008000085855500eb07b000090020000804200092
:10081000050037000804440089844c000a003100b8
:100820000603430087834b000001530081815b0076
:10083000f8ff33000203be000800a00008044400d3
:1008400089844c00f6ff3900c639dd00830173004e
:1008500001003200130020008904d1000884d30075
:100860000998a300050032000800a7000300a000bb
:100870008904d1000884d3008b05e8008904d100e5
:100880000884d3000001eb000281d200bd00070004
:1008900001f0a1000cf0a70001f0a0000501370055
:1008a0006420e100070132000801be000200be0022
:1008b000f7ff37006120e100020132006000b8005c
:1008c000f3ff37000000200001f82700f0ff370099
:1008d000839f68000100e00002003d0060001000fe
:1008e000e08018000300e00002003d0060011100fc
:1008f000e08119002a0107004f00e00002003b00e0
:1009000060001000e08018000000060014002000c5
:100910005d013700f4ff2f005b0137000001be00ce
:10092000be0007000470a70003f0a1006509b10034
:10093000160032000d0035006828e1000600350081
:10094000f0ff2f00f1ff27000300e00013003b0041
:1009500001002800000005000000400081804800e0
:100960008502e900fcff3a0008003700f88f4200da
:1009700002003c008000eb00000005008100d10077
:100980000080d3008502e800fcff3a000300e0008d
:1009900002003b0060001000e0801800000006002c
:1009a0000001be009d0007000470a70003f0a10035
:1009b00003f8a30013003a006509b10010003200eb
:1009c000090035006928e100020035000100280017
:1009d0000000050000004000818048008502e90019
:1009e000fcff3a0000000600f88f420005003500c9
:1009f0008100d1000080d3008502e800fcff3a00ae
:100a0000000006008000eb00000005004f89de00ba
:100a100082017800370137006011b80045013700c6
:100a20000001eb00f100070004003200020020008a
:100a300003f8230001f0a70005ff070000000600ef
:100a40000400200000003700889fbe008a9fbe007f
:100a50008c1f78004f26dd00850007008c003300d6
:100a60006120e100430032006250e10041003e009d
:100a70003e0039006420e1003c0032000582550050
:100a80000f003b000402e80038003a00800f5300da
:100a9000818f5b00350034000800be0003f0a10028
:100aa00001f0a60003f0a0000cf0a700e9fe07008b
:100ab000800037000603430087834b000c46460046
:100ac0000005530081855b00020033000a03be006d
:100ad0000c00a0000402e900f6ff3b008505780049
:100ae0000602430087824b0004003a006000b80011
:100af00009f0a70001f0a0006e00370000025200cc
:100b000081825a000704e00004003300060343001a
:100b100087834b008b05e900faff37000905780051
:100b20000604be000203be006011b80015000700f5
:100b3000e00f5200e08f5a000700350002003c0031
:100b40000c08a300040032000601be0003f0a00060
:100b50000cf0a700bffe07000a85680001f0a100a5
:100b60000af0a70001f0a000520037000800be0004
:100b700050003700100220000cf0a6000080880012
:100b80005000370081002000618055000b003d00bf
:100b90000b00200061fe2f000100e1001d00340069
:100ba00082817100610164008904d1000884d3004e
:100bb0000000e800faff3a007100200061006400c4
:100bc000030070000200600009003200610444006c
:100bd000e0844c000988a500050032008b05e80080
:100be0006808e10002003a008904d1000884d300bb
:100bf000f20f20000258e10005003d00c75ddd0056
:100c0000f907b2008980750008007800000006002e
:100c10000bf827008b00780000000500c70ade00f3
:100c2000f107b200f50fb20008003200e1cf420038
:100c3000020032000170a00024000500810f700046
:100c4000010032000408050044000500810f700017
:100c500002003a00140005008502e900000040008f
:100c600081c04800fcff3b000170a000240005008b
:100c70000004be00e9ff07000003be000405be003b
:100c80000200be00e5ff0700844f7500000006006b
:100c90000200be006450e100050036006420e1005f
:100ca000020036000968a30001003a000800be00f7
:100cb0000160a0004f0678004f05be004f04be0043
:100cc00000000600f0ff2f00f1ff2700f9ff3700ba
:100cd000889fbe008a9fbe008c1f7800e4ff07003b
:100ce000ebff330003866c006450e1002400320007
:100cf0006420e100270032006150e1002200320050
:100d00006120e100210032008b854200eb07b10039
:100d10000134b800003ab8000804420089844a004f
:100d2000013ab8000030b8008880400009014a004c
:100d300004003300000040008180480002014900a7
:100d40008b05e900c909dd00830170000100320054
:100d500013002000c814de004814dd004709de003f
:100d60001200b200c808de000884700085ff07008a
:100d700001f0a1000cf0a70001f0a000cdff3700aa
:100d80006120e100cfff32000801be000200be007a
:100d9000f7ff37006150e100fcff3a00c9ff370060
:100da0006022b800060220000000d0008180d2003e
:100db0000482d2008582d2000000a000020252000c
:100dc00083825a00030031000202420083824a00fb
:100dd0000000a1000603e900f3ff3a00000006004e
:100de000efff07000400be0000000600889fbe0061
:100df0008a9fbe000003be0088ff070085057800bb
:100e000082815200020020006220e10004003a00ca
:100e1000f307b100040035007718e1000400350045
:100e20000600be00140037006000b8000f00370055
:100e3000f50f2000faff2f008502d1000a85d300ac
:100e40008301e900fcff3b0081846200000465002f
:100e5000890f7400f2ff32008582ea000a85ea00f9
:100e6000818462000004650046ff070007f0a700c8
:100e700001f0a0000081eb000200e0004f05be0081
:100e80004f04be0000000600889fbe008a9fbe007f
:100e9000841f780076ff07004f00780011003300b0
:100ea000f0ff2f00838f6c0006003b0004056500f7
:100eb0000a00a7000800370009f0a6001000200073
:100ec00008003700820f5400838f5c000300390054
:100ed0001000200001003e000000200009f0a700e3
:100ee0000000ea004f05be004f04be000000e00015
:100ef00000000600881f7800030478000300e0006b
:100f000007003d0060001000e0801800600119003b
:100f1000e081190002003b0001f02d0003003700c2
:100f20000400070008f0a70001f0a0004f047800bb
:100f300000000600889fbe008a9fbe0000827000ed
:100f40000402710004827100260032000004be0019
:100f50000200be006011b8006b092000950220005d
:100f60000182cf000a0039000541b1000082cf00a4
:100f7000070039000541b1000982cf0004003900a3
:100f80000541b1000882cf00010039000541b100e0
:100f900005425200120032000a003b0082817100bb
:100fa000610164008100d1000080d3008984d300f6
:100fb0000884d3008b05e8000442e800f7ff3a00fc
:100fc000070037000804440089844c0000004800f2
:100fd000818048008b05e9000442e900f9ff3a00ee
:100fe000e8fe07004f05be004f04be0000000600eb
:100ff0000000fa0000047800fb01070008007800f8
:10100000250707000000fa000100200000d0890039
:1010100011d0890015c0b300e49f2300054a780071
:101020000080fa00000006000000fa00e49f2300a0
:101030008042eb0094cf120002003a001000200022
:10104000f0ff0700d2e62400631c240000d08100da
:1010500011d08100a10707009403230005002000a0
:101060000002420081824a0004d0890015d0890024
:101070000500780000f0a1000080fa0000000600e2
:101080000000fa00889fbe0001047800380290003a
:10109000e20262008084eb003e003200040378002c
:1010a0000620b2009802900002003a00e08f520041
:1010b00038003a000490a0003404980080047800be
:1010c000f90fb200e08f520002003a00a80290002f
:1010d000050c7800ea8f540005003a000408b200bd
:1010e00003003a0088007800d0002000e4ff0700e9
:1010f000180290006120b90058039000e8039000a6
:10110000860f5000878f58000b0032000402e80061
:101110001404980018027800094a7800040ce800ca
:1011200015c0b30044a02300054a7800ea8f54009c
:1011300018003a0005003700880078000940780060
:10114000e50507008004780012003700380290009f
:101150000410b2000f00320018019000a8009000a7
:1011600048009000fa06070018029000840f500013
:1011700004003200380290000403b30034049800e5
:101180008084eb000002eb00140498002802900019
:10119000040c7800090078004f04be000080fa00bb
:1011a000000006000c00fa00889fbe008a9fbe0067
:1011b0008c9fbe00800678000204be00048fbe0033
:1011c000010578003a029000e20262006000b80077
:1011d00063003200040378000620b2009a029000f7
:1011e00002003a00e08f52005d003a000490a00037
:1011f00034059800e08f520002003a00aa039000e4
:10120000070d7800ba02900004c0200084826200ba
:10121000848f520004003a00210020006011b800c1
:101220000a0078002a0607003a02900004b0a100e4
:10123000340598001e0278008826b8006000b800c7
:10124000e00f5600460032001bc0b300280798008c
:10125000390798002a029000e00f52002c0032005b
:101260003a0290000408b200290032005a049000ab
:101270001a029000040454008c0f540003003e0036
:10128000e00f540022003200010037000c04780007
:101290006142b8001a0078000401be008d00780099
:1012a00044079800550798003a0107004e02900045
:1012b00084864600080656001a0d42001a02900065
:1012c0000404440018059800cfc4de005a029000c0
:1012d000ea029000840f5400858f5c0009003a00f8
:1012e0000a0078004c050700e00f50000f003200a4
:1012f0002e049000be0490005a029000040646009e
:101300000e00370047a023008b4b78000700370002
:101310001d00fb008a00780059ff0700e10f400024
:10132000040032008d06e8000c06e900e00f5600cc
:10133000c8ff3a002e049000be04900061005400e3
:10134000e0805c000c004000e08048000801be0026
:1013500093fe07001e02be000000520081805a006a
:101360004f06be004f05be004f04be000080fa00cd
:10137000000006000e00fa00889fbe008a9fbe0093
:101380008c9fbe00649e230035cf8100e08f520009
:101390000b003a00e402420035cf890085cf890076
:1013a0002402980074cf8900a44290000504a00094
:1013b00025429800e44290000504a0006542980090
:1013c00067024000e08248004e29dd004222de0034
:1013d00004027100c22ade00422cdd00ce24de00b1
:1013e000890474004224dd0070cf8100e4a1230051
:1013f000ea2424000405550024002000809fbe003c
:10140000110009000405d800000278004f00be005a
:101410006123b90036079800470798000882e80062
:1014200004024200240798008002eb00cfd5de00c2
:10143000b6ff2f00070020000a0153008b815b00dc
:10144000028fbe0063064500e0864d000c06440096
:101450008d864c0001003700040078002042900087
:1014600061026200020032000b00370016087800ab
:10147000100378002642900061026200fbff3200f8
:1014800008024000840f530003003900e00f5400ad
:10149000e08f5c0052003d0010027800800f520087
:1014a000edff3e00e6a12300860f52000300390045
:1014b000669e2300860f5200e7ff390086cf810029
:1014c000860f500057003a00669e2300860f520098
:1014d00054003a008502e800e18f5200deff36003a
:1014e0003e039000ce039000860f5400878f5c006f
:1014f000030036008a0f54008b8f5c000d0039000a
:101500001e01be00820f5400838f5c000200390070
:1015100008037800080037000a01be000c00be0076
:10152000640798001efe07008a03b8006e02900050
:10153000010037002e039000060078006407980031
:10154000560798003f0607006e0290005e03900069
:10155000e10f400008003a006403440006007800f0
:1015600056079800370607006e0290005e03900051
:10157000e10f40002b00320085cf8100800a780007
:1015800085cf8100e4804200a5439000810f500088
:10159000020032000704a000010037000704a10088
:1015a000a742980006034000640353000608780031
:1015b00086cf8900659e2300050b780086cf8100c9
:1015c000a64290000504a00025439800a042900088
:1015d0000504a100254098008002eb009eff370023
:1015e00074cf8900840f5300070036001403be0037
:1015f00096cf8900a7cf8900100a78008042eb00bf
:1016000074cf81002542980077cf810007087800c9
:10161000204290000404a000244098006400400090
:10162000010037000000eb004f06be004f05be0072
:101630004f04be000080fa00000006000000fa001f
:101640006400500074cf8100840f5000010031000d
:1016500070cf8900204290000404a100244098002b
:101660000080fa00000006000400fa00889fbe0017
:101670008a9fbe0000047800e00f5100e08f5900ff
:1016800006003a00e00f54003c00320008007800e9
:10169000eaff07008004eb0039003700e00f540038
:1016a00004003a000200be0032ff07008004780008
:1016b00033003700640254009405780068fa9700fc
:1016c000610262000600320008007800020f780014
:1016d00013079800d9ff07009e0190001e017800b3
:1016e0000200be0023ff070080047800e08f540052
:1016f00023003200888f54002000320069bd97001b
:101700000905550042d5de000883550042b3de00ce
:10171000cfb3de006152b900860f5200878f5a00a6
:10172000010036000602be004229dd00ce21de00a7
:10173000830171004221dd008800780009007800f3
:1017400014000700888f54000d0031004255dd0061
:1017500009054500880f55000900360008045500aa
:1017600042c4de004244dd000904440094cf8100fd
:10177000a5cf8100048cbe000100370088047800ea
:10178000090078004f05be004f04be000080fa003b
:10179000000006000000fa00889fbe008a9fbe007d
:1017a0000002eb006105b800610cb80007003700cb
:1017b0006123b8008602450006034400964a78007b
:1017c0000402e80061015100e0815900e00f51007e
:1017d000e08f5900f6ff3a004f05be004f04be00ef
:1017e0000080fa00000006000000fa00a4d081008a
:1017f000e00f52000100320004000100a094230019
:10180000cc03070080952300ca03070060962300dd
:10181000c80307000080fa00000006000c00fa0070
:10182000889fbe0000047800f4ff2700540798004a
:101830008004eb0019079800080f7800280798002b
:10184000240c20003407980068015700ceb8970098
:101850000e007800060007001e027800094a780092
:101860001e0014004f04be000080fa0000000600b5
:101870003800fa00889fbe008a9fbe008c9fbe0081
:1018800080067800321798000000eb00501798008f
:101890009e0337000101e8004207980054c2b300dc
:1018a000844f500008003a000002eb000406780064
:1018b000020478000900200000c3b30007c2b3008f
:1018c000b6c2b300110037003d0290000404b2001c
:1018d000040032001d027800004a7800840ee800ff
:1018e000050037000000fb008d007800e4fd0700d4
:1018f000e10f400084033200de1190008301e80014
:1019000053179800800337000402e80008014200e2
:1019100092427800dac2b3008acf52000900320046
:1019200005003c0087cf52000800320086cf5200ed
:101930000c003a000700370080cf520009003a003f
:10194000060037000c30a000efff37000c00a000ad
:10195000edff37000c10a000ebff37000c20a000bb
:10196000e9ff370062026600010032000c00a100ae
:1019700068026600010032000c20a1000502fb0095
:101980000403b100e90f520012003e008002eb0098
:10199000050278006110b8000201e8006114b80087
:1019a000ea22b8006129b800020340001603fb00d8
:1019b0000603b10004024300020144008502e8006e
:1019c0001203fb000603b100e90f5300f4ff3600d9
:1019d000080037000002eb00a6c2b30086cf520019
:1019e00004003a00be1590004b0278003b179800a7
:1019f0000201e8000000eb0040179800e5c2b300c8
:101a000092cf12000e003a000ce0a0008202780093
:101a1000a6c2b300d54f1300040032008002780044
:101a20000201e800030020000c003700be10900007
:101a30004101780031179800421798000501e8002d
:101a40008003eb006114b8000201e80003002000ed
:101a50000d003700ea00b800008043000504410093
:101a6000e0844900984378008502e8008703fb0082
:101a70000703b100e98f5300f6ff360040179800c6
:101a800008017800eeff37006138b800800244009a
:101a9000954278000003410046079800cac6b3008b
:101aa0008acf5200250032000f003c0036c6b3003a
:101ab00086cf5200a300320004003c00e0cf520069
:101ac000160332006b4353000f00370046c6b300c5
:101ad00086cf5200170032006543430086cf520084
:101ae000b5003a001300370036c7b30086cf520066
:101af0002000320007003c006443530086cf5200b0
:101b0000150032000643e80086cf5200aa003a00d2
:101b10001400370056c7b30086cf5200ab00320026
:101b20006343430086cf5200a3003a00054f78007c
:101b30000e003700054f7800a600370070036600de
:101b4000050120000100320005002800050676008e
:101b50008703e800ccff3700054f78000c60a00039
:101b60009c003700054f78000c50a0000c70a000be
:101b700098003700054f7800be159000cb02780022
:101b80003b17980065179800e08f520002003a005a
:101b900081992300611798006e1390008002eb007a
:101ba000010037008502e800850343000041eb0097
:101bb000974f1100fbff3a0075179800ce11900067
:101bc000e08f510005003200fe129000858f510019
:101bd000020031000303780076179800fe1290008f
:101be0000004eb00850f520001003600050452008e
:101bf0006806660009c2b300110032002d003700ec
:101c00003d0290000404b200040032001d0278007e
:101c1000094a7800840ee800050037008d0078003e
:101c20000002200016fd0700e10f40000300320013
:101c3000de1390008703e800571798000804e900b6
:101c4000e00f5400eeff3a000084eb00190037006b
:101c5000bd0290000504b200090032009d03780027
:101c60008802780035437800864b7800870ee800bc
:101c700005047800e04f53000a003a0012003700d4
:101c8000880278003500fb00050478008d0078009c
:101c9000341f9800fafc07003e1a9000e10f400044
:101ca000090032005e1090000000e8005017980014
:101cb00005003700080278006e149000fe149000b2
:101cc0000e1d90009e1d9000890278008504e90099
:101cd000e08f5200deff3a006817980079179800ed
:101ce0000a1f98001b1f980004047800e00f56009c
:101cf0008502320009c2b3005e1690000e00370064
:101d00003d0290000404b200040032001d0278007d
:101d1000094a7800840ee800050037008d0078003d
:101d200000022000d6fc0700e10f40000100320055
:101d30000c06e8000804e900e00f5400f0ff3a0048
:101d400070023700be1090004104780031179800ef
:101d5000cfc4de00090578008a0578000800be00bf
:101d60000a01be004800de00c80add0000807200e3
:101d7000004f78007003660009003200e04f500009
:101d800007003200e14f4000050032001047980084
:101d90002847980026002000761798000300370097
:101da0001847980017002000771798000e04e800e5
:101db0006817980081ff3700054f78006e1798006c
:101dc0001a0020007a1798007cff3700054f780032
:101dd0000c0cb3008c027800050cb2003b003a00fa
:101de000e00f560005003d00be1290004501be0008
:101df0004500be00351798000f003700f00266005e
:101e0000120032003e1490004803be0038179800bc
:101e1000560798006707980098029000cfaade0046
:101e200075079800050f98005e009000ee00900086
:101e30007e0190008e09900060179800711798003d
:101e4000021f9800131f98000b003700be1090006f
:101e5000c10278003117980005047800cfc4de0075
:101e6000090578008a0578006817980079179800a6
:101e70000a1f98001b1f98006e109000fe10900023
:101e80000e1990009e199000e00f5000e08f58004e
:101e9000e00f5900e08f590032003d003c00b300d4
:101ea0006000b8006011b8006e149000fe1490003d
:101eb0000e1d90009e1d900008045000898458005b
:101ec0000a0559008b85590022003700e00f5600a3
:101ed00005003d00be1290004501be004500be0059
:101ee000351798000f003700f0026600120032002c
:101ef0003e1490004803be0038179800560f980013
:101f0000670f98008004eb00790f98000005eb0044
:101f10000a1798005e089000ee0890007e09900075
:101f20008e1190006017980071179800021f98009a
:101f3000131f98000b003700be109000c1027800fc
:101f40003117980005047800090020000a002000dd
:101f50000b00200068179800791798000a1f980056
:101f60001b1f9800ce149000e08f54000d003a0023
:101f70001a0020004a1798006e109000fe10900082
:101f80000e1990009e199000e00f5000e08f58004d
:101f9000e00f5900e08f5900020032008000eb0092
:101fa000411798000c017800020cb200221798002b
:101fb00005042000850f51003800320003003c006a
:101fc000e00f5100080032004c00370005082000e7
:101fd000ae119000858f510018003200050c2000d2
:101fe000858f510045003a0015c0b3000003eb0097
:101ff0000603e800c333dd00e8872300888343003d
:102000003700be002701be006e149000fe14900041
:102010000e1d90009e1d90000040e10001c8e100ef
:1020200002d0e10003d8e100330039008542e80026
:10203000f4cf5200eeff3a002f00370015c0b30076
:1020400000012000010020006011b8006e14900013
:10205000fe1490000e1d90009e1d90000040e100b7
:1020600001c8e10002d0e10003d8e10022003900fc
:10207000490020000000d0008180d2000281d200ff
:102080008381d2008904e900faff3a008542e80022
:10209000f0cf5200edff3a001700370015c0b30033
:1020a00080002000010020006011b8006e14900034
:1020b000fe1490000e1d90009e1d90000040e10057
:1020c00001c8e10002d0e10003d8e1000a003900b4
:1020d000390020000000d0008180d2000281d200af
:1020e0008381d2008904e900faff3a008542e800c2
:1020f000f5cf5200edff3a00054f78009e02fb003d
:102100004e1590008a8f520002003d000a4f780061
:1021100004003700ce159000858f550001003d006a
:1021200045179800e00f520003003200e3026600fa
:10213000010032000402e900050024008502660067
:10214000060032004e109000800f52000200340052
:1021500000025200010037000002eb009e02fb006b
:102160008000eb0011179800850f52000200340028
:10217000850252001517980064026600450032007f
:10218000e202660061026600e08f52001700320032
:10219000bd0290000504b200080032009d027800e4
:1021a000b6c2b300e00f52000100320006c3e800df
:1021b000864a7800850ee80008003700b00220004b
:1021c000e00f5200010032000080e8008d0078002e
:1021d000abfb0700e10f4000160032005e119000db
:1021e0000201e8005217980012003700e00f520079
:1021f000100032003d0290000404b20005003200dd
:102200001d02780005c2b300054a7800840ee8007c
:10221000050037008d0078000002200098fb0700c1
:10222000e10f400003003200de1190008301e8005e
:10223000531798001e129000e00f52001201320056
:1022400008c3b300840478003d0290000404b20087
:10225000040032001d027800084a7800840ee8006d
:10226000050037008d0078000003200084fb070084
:10227000e10f400003003200de1290008502e8000a
:10228000551798008904e900efff3a0019179800e4
:10229000fd0037001e139000e00f530016003200bf
:1022a0006802660014003a0008c2b3008604780091
:1022b0003d0290000404b200040032001d027800c8
:1022c000084a7800840ee800050037008d00780089
:1022d000000220006afb0700e10f4000030032000b
:1022e000de1390008703e800571798008904e9007f
:1022f000efff3a0019179800e202660061026600db
:10230000e08f520017003200bd0290000504b200b9
:10231000080032009d027800b6c2b300e00f520000
:102320000100320006c3e800864a7800850ee80006
:1023300008003700b0022000e00f52000100320018
:102340000080e8008d0078004dfb0700e10f4000a1
:10235000cd0032005e1490000804e8005817980081
:10236000c9003700e00f5200c70032003d02900064
:102370000404b200050032001d02780005c2b3005b
:10238000054a7800840ee800050037008d007800cb
:10239000000220003afb0700e10f4000ba003200c3
:1023a000de1490008904e80059179800b600370041
:1023b0004e1590000a05e9004a1798000404200011
:1023c000ae159000848f55008b00320003003c0056
:1023d000e08f550008003200980037000408200004
:1023e0002e109000840f50006d003200040c20006d
:1023f000840f500091003a00ce109000610bb9009c
:10240000e00f560024003d00433add00cd32de00ef
:10241000850272004332dd00e2872300040241009e
:102420003404be002405be000802be000a03be003c
:102430006e109000fe1090000e1990009e199000f2
:102440004b030700004f78000000fb00cf80de0048
:1024500001017800820178000802be000a03be0074
:10246000b40307006e129000fe1290000e1b900045
:102470009e1b90000002520081825a0002035b0002
:1024800083835b006417980075179800061f9800f7
:10249000171f98003f003700be029000e08f5200e7
:1024a000270032006e129000fe1290004338dd00cb
:1024b000cd30de00810070004330dd00e78723006f
:1024c000008343003604be002605be000801be009e
:1024d0000400be00341f9800251f980030fa070042
:1024e000004f78000000fb00cf80de000801be0036
:1024f0007a0207003e1a9000ae1a900000045200c3
:1025000081845a00180f9800290f98008004eb006e
:10251000390f98000005eb004a0f98001e08900044
:10252000ae0890003e099000ce0990006017980018
:1025300071179800021f9800131f980015003700ac
:10254000433add00cd32de00850272004332dd0009
:10255000e187230004824000140278006e1190008d
:1025600080027800811f7800110009000481d800e2
:102570008002fd00cf007800a4002000809fbe00f4
:10258000110009008482d800010278004f00be00cb
:10259000044f780003c3b3001ecf4100270037006b
:1025a00074982300ae029000e08f520001003200c8
:1025b000649723004e139000c232dd006e1090002d
:1025c000fe1090000e1990009e1990008502e900ff
:1025d000050033008301d1000281d3008180d30044
:1025e0000080d300f9ff37006f0060000000420058
:1025f000104f780011003700ce139000e33ab80076
:102600006e149000fe1490000e1d90009e1d900010
:10261000040078000000e900050033008b05d100bc
:102620000a85d3008984d3000884d300f9ff3700da
:102630006742640001c3b300014f42003d029000b5
:102640000404b200070032009d0278001e427800a8
:10265000844a7800850ee800e04f520006003a00f8
:102660000e0037001e00fb008d00780084fa070082
:10267000e10f4000090032005e1190000201e80005
:102680005217980005003700f001660033079800e4
:102690000c0278000402b20024079800ce129000c9
:1026a000e08f520042ff3a006806660016003200d2
:1026b0001e139000e00f53001300340008c2b30053
:1026c000860478005e1690003d0290000404b2007b
:1026d000040032001d027800084a7800840ee800e9
:1026e000050037008d0078000002200064fa070022
:1026f000e10f4000010032000c06e8008904e90007
:10270000f1ff3a005c179800ce009000114078006d
:10271000004f7800e04f50005efc3a005e109000e1
:102720004f06be004f05be004f04be000080fa00f9
:10273000000006000000fa00889fbe008a9fbe00cd
:102740000004780038029000630262000080eb0011
:102750002d003200080078002f000700b804900018
:1027600084ef2f0004826400340498002800900055
:10277000e00f5000040032006885640002003a0057
:102780003f0107002a0498004800900063010700f9
:10279000e10f40001c003200380290000402b20039
:1027a0000080eb0018003a00000021000080640067
:1027b00015003200b9d08100e08f540011003200c2
:1027c0004505200005a5b9000a804400102b9000a3
:1027d000880f530006003a0091010700b4d0810031
:1027e0000a0542000000eb00102d9800060037009b
:1027f0000402e800e80f5200f2ff3a000000eb008c
:1028000001003700090078004f05be004f04be00ec
:102810000080fa00000006000000fa00881f78001f
:102820000004780038019000020278001420b20001
:10283000e10f520005003a000002eb00140498007a
:1028400028029000040c78001c00370082027800f7
:102850002520b2000001eb0024202000848f5200cc
:1028600019003a00a8009000828f50001600320034
:1028700018029000820f5200130032006121b9004b
:10288000480090003201070018029000cfa2de003d
:10289000840f5000858f58000300320038029000ea
:1028a0000403b300340498000002eb001404980001
:1028b00028029000040c7800380190000202b20057
:1028c000010032000081eb00020078004f04780024
:1028d0000080fa00000006000200fa00889fbe0097
:1028e000004f7800010478003802900084047800da
:1028f0000904b200020032000000fb003b00370078
:10290000e202620005003a000403b30034049800b8
:10291000150498000080eb00340037005803900045
:10292000e8039000e00f5300e08f5b0007003a00df
:1029300012002000030020008e0078004800900064
:10294000030107001904980027003700a80290002f
:10295000e08f52000b003a0075a023002504980078
:10296000050c78002600200007002000560498007f
:102970006704980025002000150498000430a0008a
:102980003404980018019000cf91de00a800900058
:1029900048009000ee000700280290008082eb00c3
:1029a000150498001e4a7800040ce800a4c0b30087
:1029b0009e4f12000c003a00380290000410b20042
:1029c0000900320018019000cf91de00a8009000ad
:1029d00048009000de0007000002eb00140498009d
:1029e00028029000040c78001e00fb004f04be007b
:1029f0000080fa00000006000000fa00881f78003e
:102a00008a9fbe008c9fbe00000478001100200049
:102a10006011b80018007800af0007000006be0083
:102a2000210020006011b80018007800aa000700fb
:102a30000005be008000eb000c01be00180078000d
:102a4000a50007000a00be004f06be004f05be00ed
:102a50004f0478000080fa00000006000000fa0031
:102a6000881f780000047800110020006011b80071
:102a7000480090009800070018029000e00f5200f4
:102a800002003d000002eb001404980028029000b0
:102a900098029000e00f52000700320038029000c8
:102aa0000420b20004003200612ab9000000420094
:102ab00081804a0003003700612ab90004005000f9
:102ac000858058004f0478000080fa00000006005e
:102ad0000400fa00881f7800000478003802900093
:102ae0000440a1003404980028029000e00f520036
:102af00009003a00480090007700070001006000dc
:102b00000082ea0004f0a7000402ea000400e900e1
:102b10004f80de0048003700e18f50000500320092
:102b2000e28f500008003200e08f500010003200a9
:102b30004000370008007800020f78001307980063
:102b4000c6ff07000600370008007800020f780073
:102b50001307980030ff070068004400a6ff070035
:102b60001e0178009e019000020140008381480010
:102b700008007800020f780013079800b7ff0700dd
:102b80001e0178009e0190000002510081825900d0
:102b9000030032003803900006b0a000360498000d
:102ba0003803900063036300e10f53000d003a0007
:102bb000e00f5200e08f5a000a0035001803900021
:102bc0006130b900800f5200818f5a0005003c002f
:102bd0000403530016049800180c42000000eb0098
:102be00015003700380290000420b20009003200be
:102bf00018029000e00f5200060032000800780032
:102c0000020f78001307980003ff07009e01900051
:102c10001e0178008000eb0011049800280290004b
:102c2000040c7800480090002b0007004f88de005d
:102c3000010037000080eb004f0478000080fa00ac
:102c4000000006000000fa00c0d08100e00f500034
:102c50000300320010027800c4d08900020037005f
:102c60002000200077000700e10f400002003a003a
:102c7000946e2600048088000080fa0000000600a0
:102c80000000fa00c4d0810004087800c0d0890098
:102c90000080fa00000006000000fa000411800025
:102ca000e00f520006003d00151180000440200096
:102cb00004826200020032002302ab00feff3200f9
:102cc0000040da00feff37000000fa0000c0da0022
:102cd0000080fa00000006000a00fa00440020000c
:102ce000040f780010079800220798003307980017
:102cf000410798000e007800f3ff07002e009000b7
:102d0000be0090000080fa00000006000000fa00fb
:102d100000c0da000080fa00000006000a00fa0095
:102d200014002000040f7800100798000e007800af
:102d3000f6ff07001e0090000080fa000000060069
:102d40000000fa0000c0da000080fa00000006006f
:102d50000a00fa00e20f500022003e00d4d08100a9
:102d6000e10f520006003200872320004623200096
:102d70002423200005232000e08f530004003a00a4
:102d80008722200046222000242220000522200045
:102d9000000028001500600003003a00800b780056
:102da00007002800958a7300054020009482620085
:102db00001003a0014a0a00082027800060037004b
:102dc000940378000710b200fdff3200b103fb004e
:102dd000070b78008502e900e08f5200f8ff3a0007
:102de0000800370034002000040f78001007980016
:102df00021079800320798000e007800d0ff0700e6
:102e00003e019000020078000080fa0000000600f9
:102e10000000fa0000c0da000080fa00000006009e
:102e20000a00fa0054002000040f780010079800f0
:102e30000e007800f6ff07002e0090000080fa00d8
:102e4000000006000000fa00889fbe0080047800a1
:102e5000e0d08100e00f500004003a000f000700ae
:102e60000084eb00e00f500008003500e8d081003e
:102e7000e08f5400050032000900440007000700fd
:102e8000e00f500001003d000084eb0008007800d6
:102e90004f04be000080fa00000006000000fa00a7
:102ea000e00f500004003a00e4a12300e4d08900c0
:102eb00000027800060037000082eb00e5242400c1
:102ec000850f500002003e00e0d089000002eb00b8
:102ed000040078000080fa0000000600020ab90031
:102ee000001bb9000200b8008100420081004300cd
:102ef000000006000000fa00889fbe008a9fbe0006
:102f00003004be002005be000404440085844c004b
:102f100006054d0087854d000898be000a90be004a
:102f20000440e10005c8e10006d0e10007d8e10057
:102f300002003100680040001008e8004f05be00a4
:102f40004f04be000080fa00000006001000fa00e6
:102f5000889fbe008a9fbe000605be000404be0016
:102f60003002be002003be00049fbe000697be00d4
:102f70000802520089825a000a035b008b835b00bf
:102f8000440798005507980066079800770798004f
:102f90000498be000698be00110020003e02be004c
:102fa0002e03be000820e10009a8e1000ab0e100fc
:102fb0000bb8e100010039008000eb001088100020
:102fc0004f05be004f04be000080fa00000006005e
:102fd0001400fa00889fbe008a9fbe008c9fbe002e
:102fe000590007000605be000404be000006eb0001
:102ff0004c0798003c0798002c0798001c07980085
:103000000c0f78000d0420004e039000be029000cb
:10301000860343002e029000e00f530003003d00a2
:103020002a000700b3ff070002003700270007004f
:10303000c6ff0700ce029000150f9800e08f5200e7
:10304000090035004500070014002000050020009d
:103050006033b800000072008180720002017300ca
:1030600083817300380007000c06e8008d0f5600be
:10307000e5ff3a001e0a9000e00f520004003d00f8
:103080000802be000a03be000e00780099ff070088
:103090004eba9700e00f520006003a003e04be0010
:1030a0002e05be0058079800690798007a07980017
:1030b0000b0f9800290007004f06be004f05be0009
:1030c0004f04be000080fa00000006004f2bde0017
:1030d00087037300470798004f23de008582420074
:1030e00085027300350798009e0290004f2bde008a
:1030f0000402420004027300240798001e027800b4
:103100004f23de0085824200850273001507980078
:10311000120007004f18de0004024200000f720088
:103120000e000700000040008180480002014900b5
:1031300083814900040007000802be000a03be00a4
:103140000e00780000000600500798006107980004
:1031500072079800030f9800000006005e009000c0
:10316000ee0090007e0190008e09900000000600a5
:103170000000fa00881f780018002000881f7800df
:1031800093ff07008f87e9004f0478000080fa0062
:10319000000006000000fa00801feb008cff070013
:1031a0008f87e9000080fa00000006000000fa00a6
:1031b000889fbe008a9fbe00e00f5000e08f58003d
:1031c000e00f5900e08f59000c003d006044b8004a
:1031d0006055b8000000540081805c0002015d0071
:1031e00083815d00180020001600070008003d00e4
:1031f000190007000004eb00050037000004eb0095
:103200001000070002003d00130007001800200016
:10321000d7ff0700e00f5400060032006022b8001c
:103220006033b8000000520081805a0002015b0048
:1032300083815b004f05be004f04be000080fa0092
:1032400000000600e00f5200e08f5a00e00f5b0024
:10325000e08f5b00000006006044b8006055b800d5
:103260000402540085825c0006035d0087835d00d4
:10327000000006000000fa00889fbe008a9fbe0082
:103280008c1f7800e00f5000e08f5800e00f5900cd
:10329000e08f59000d003d006044b8006055b80053
:1032a0000000540081805c0002015d0083815d00ac
:1032b0001c0020000820e10009a8e1000ab0e1009c
:1032c0000bb8e1000d003d00080037000006eb00e0
:1032d000e00f5200e08f5a00e00f5b00e08f5b00d0
:1032e00006003d006044b8006055b8000402540078
:1032f00085825c0006035d0087835d00a5ff0700f3
:10330000e00f5600060032006022b8006033b800bb
:103310000000520081805a0002015b0083815b0043
:103320004f0678004f05be004f04be000080fa0033
:10333000000006000000fa00889fbe008a9fbe00c1
:103340008c1f78000006eb00e00f5000e08f580063
:10335000e00f5900e08f590007003d006044b800bd
:103360006055b8000000540081805c0002015d00df
:1033700083815d001c002000e00f5200e08f5a00a6
:10338000e00f5b00e08f5b0007003d006044b80089
:103390006055b8000402540085825c0006035d009d
:1033a00087835d000c00a2000d000700e00f5600af
:1033b000060032006022b8006033b80000005200fe
:1033c00081805a0002015b0083815b004f06780018
:1033d0004f05be004f04be000080fa00000006004a
:1033e000889fbe008a9fbe008c9fbe000404b80068
:1033f0000506b8008904460060854e000606b80040
:103400000a054600e0854e000706b8008b05460019
:10341000040eb800890446000a854e00e0854d0080
:10342000050eb8000a0546008b854e00060eb80052
:103430008b0546000416b8000a0546008b854e0031
:103440000516b8008b054600041eb8008b05460023
:103450000800be000a01be004f06be004f05be00b8
:083460004f04be00000006004d
:020000040000fa
:1034680041520000434300004f5300005f430000f7
:103478004f52000044490000432000002d20000066
:1034880046610000746100006c2000006572000055
:10349800726f0000722100000a0000002020000066
:1034a800312e0000302000003c2000007c54000039
:1034b8007c2e00000a000000415200004353000027
:1034c800494e00005f4300004f520000444900008d
:1034d800432000002d2000004661000074610000b8
:1034e8006c20000065720000726f000072210000fd
:1034f8000a0000004c4e00005f4300004f520000dd
:1035080044490000432000002d20000046610000cf
:10351800746100006c20000065720000726f00008a
:10352800722100000a00000020200000496e0000ff
:10353800707500007420000061720000677500005b
:103548006d6500006e74000020580000203c0000eb
:103558003d200000302e0000300a0000005200001c
:10356800385f0000554e0000494600004f520000e9
:103578004d5f000030310000202d00002046000083
:1035880061740000616c0000206500007272000028
:103598006f720000210a000000200000204900008e
:1035a8006e7000007574000020760000616c0000e9
:1035b80075650000206f000066200000534500007c
:1035c80045440000203d0000203000002e0a000085
:1035d8000053000051520000545f0000434f0000a8
:1035e8005244000049430000202d000020460000fe
:1035f80061740000616c00002065000072720000b8
:103608006f720000210a000000200000205800000e
:10361800203c0000203000002e0a000000000000be
:10362800db0f0000493f000038630000ed3e00005a
:10363800b0db00007a3e0000d5ad0000fe3d000082
:10364800deaa00007f3d0000aeea0000ff3c00005b
:10365800abfa00007f3c0000abfe0000ff3b00001f
:10366800abff00007f3b0000ebff0000ff3a0000cb
:10367800fbff00007f3a0000ffff0000ff39000059
:103688000000000080390000000000000039000040
:103698000000000080380000000000000038000032
:1036a8000000000080370000000000000037000024
:1036b8000000000080360000000000000036000016
:1036c8000000000080350000000000000035000008
:1036d80000000000803400000000000000340000fa
:1036e80000000000803300000000000000330000ec
:1036f80000000000803200000000000000320000de
:1037080000000000803100000000000000310000cf
:1037180000000000803000000000000000300000c1
:1037280000000000802f000000000000002f0000b3
:1037380000000000802e000000000000002e0000a5
:1037480000000000802d000000000000002d000097
:1037580000000000802c000000000000002c000089
:1037680000000000802b000000000000002b00007b
:1037780000000000802a000000000000002a00006d
:10378800000000008029000000000000002900005f
:103798000000000080280000000000000028000051
:1037a8000000000080270000000000000027000043
:1037b8000000000080260000000000000026000035
:1037c8000000000080250000000000000025000027
:1037d8000000000080240000000000000024000019
:1037e800000000008023000000000000002300000b
:1037f80000000000802200000000000000220000fd
:103808004c090000d33f0000f25a0000a43f00001a
:10381800020b0000913f00005b410000883f000060
:103828002b100000843f000005040000823f0000c8
:1038380001010000813f000040800000803f00003f
:1038480010400000803f000004200000803f00007e
:1038580001100000803f000000080000803f0000c9
:1038680000040000803f000000020000803f0000cc
:1038780000010000803f000080000000803f000041
:1038880040000000803f000020000000803f000052
:1038980010000000803f000008000000803f00008a
:1038a80004000000803f000002000000803f00008c
:1038b80001000000803f000001000000803f000080
:1038c80000000000803f00004c090000d33f0000ca
:1038d800f25a0000a43f0000020b0000913f0000d4
:1038e8005b410000883f00002b100000843f00006f
:1038f80005040000823f000001010000813f000034
:1039080040800000803f000010400000803f000021
:1039180004200000803f000001100000803f0000ec
:1039280000080000803f000000040000803f000005
:1039380000020000803f000000010000803f0000fe
:1039480080000000803f000040000000803f000031
:1039580020000000803f000010000000803f0000b1
:1039680008000000803f000004000000803f0000c5
:1039780002000000803f000001000000803f0000be
:1039880001000000803f000000000000803f0000b0
:10399800db0f0000493f000038630000ed3e0000e7
:1039a800b0db00007a3e0000d5ad0000fe3d00000f
:1039b800deaa00007f3d0000aeea0000ff3c0000e8
:1039c800abfa00007f3c0000abfe0000ff3b0000ac
:1039d800abff00007f3b0000ebff0000ff3a000058
:1039e800fbff00007f3a0000ffff0000ff390000e6
:1039f80000000000803900000000000000390000cd
:103a080000000000803800000000000000380000be
:103a180000000000803700000000000000370000b0
:103a280000000000803600000000000000360000a2
:103a38000000000080350000000000000035000094
:103a48000000000080340000000000000034000086
:103a58000000000080330000000000000033000078
:103a6800000000008032000000000000003200006a
:103a7800000000008031000000000000003100005c
:103a8800000000008030000000000000003000004e
:103a980000000000802f000000000000002f000040
:103aa80000000000802e000000000000002e000032
:103ab80000000000802d000000000000002d000024
:103ac80000000000802c000000000000002c000016
:103ad80000000000802b000000000000002b000008
:103ae80000000000802a000000000000002a0000fa
:103af80000000000802900000000000000290000ec
:103b080000000000802800000000000000280000dd
:103b180000000000802700000000000000270000cf
:103b280000000000802600000000000000260000c1
:103b380000000000802500000000000000250000b3
:103b480000000000802400000000000000240000a5
:103b58000000000080230000000000000023000097
:103b68000000000080220000000000000022000089
:103b7800f3040000353f00009be80000213f0000ef
:103b88000e1300001d3f00008adc00001b3f0000f0
:103b9800d68e00001b3f0000687b00001b3f000022
:103ba8008c7600001b3f0000557500001b3f00008d
:103bb800087500001b3f0000f47400001b3f000064
:103bc800ef7400001b3f0000ee7400001b3f000074
:103bd800ee7400001b3f0000ee7400001b3f000065
:103be800ee7400001b3f0000ee7400001b3f000055
:103bf800ee7400001b3f0000ee7400001b3f000045
:103c0800ee7400001b3f0000ee7400001b3f000034
:103c1800ee7400001b3f0000ee7400001b3f000024
:103c2800ee7400001b3f0000ee7400001b3f000014
:103c3800ee7400001b3f0000ee7400001b3f000004
:103c4800ee7400001b3f0000ee7400001b3f0000f4
:103c5800ee7400001b3f0000ee7400001b3f0000e4
:103c6800ee7400001b3f0000ee7400001b3f0000d4
:103c7800ee7400001b3f0000db0f0000493f00000e
:103c880038630000ed3e0000b0db00007a3e000023
:103c9800d5ad0000fe3d0000deaa00007f3d00001b
:103ca800aeea0000ff3c0000abfa00007f3c0000d9
:103cb800abfe0000ff3b0000abff00007f3b0000b5
:103cc800ebff0000ff3a0000fbff00007f3a000016
:103cd800ffff0000ff3900000000000080390000ed
:103ce80000000000003900000000000080380000db
:103cf80000000000003800000000000080370000cd
:103d080000000000003700000000000080360000be
:103d180000000000003600000000000080350000b0
:103d280000000000003500000000000080340000a2
:103d38000000000000340000000000008033000094
:103d48000000000000330000000000008032000086
:103d58000000000000320000000000008031000078
:103d6800000000000031000000000000803000006a
:103d7800000000000030000000000000802f00005c
:103d880000000000002f000000000000802e00004e
:103d980000000000002e000000000000802d000040
:103da80000000000002d000000000000802c000032
:103db80000000000002c000000000000802b000024
:103dc80000000000002b000000000000802a000016
:103dd80000000000002a0000000000008029000008
:103de80000000000002900000000000080280000fa
:103df80000000000002800000000000080270000ec
:103e080000000000002700000000000080260000dd
:103e180000000000002600000000000080250000cf
:103e280000000000002500000000000080240000c1
:103e380000000000002400000000000080230000b3
:103e480000000000002300000000000080220000a5
:103e58000000000000220000db0f0000493f0000c6
:103e680038630000ed3e0000b0db00007a3e000041
:103e7800d5ad0000fe3d0000deaa00007f3d000039
:103e8800aeea0000ff3c0000abfa00007f3c0000f7
:103e9800abfe0000ff3b0000abff00007f3b0000d3
:103ea800ebff0000ff3a0000fbff00007f3a000034
:103eb800ffff0000ff39000000000000803900000b
:103ec80000000000003900000000000080380000f9
:103ed80000000000003800000000000080370000eb
:103ee80000000000003700000000000080360000dd
:103ef80000000000003600000000000080350000cf
:103f080000000000003500000000000080340000c0
:103f180000000000003400000000000080330000b2
:103f280000000000003300000000000080320000a4
:103f38000000000000320000000000008031000096
:103f48000000000000310000000000008030000088
:103f5800000000000030000000000000802f00007a
:103f680000000000002f000000000000802e00006c
:103f780000000000002e000000000000802d00005e
:103f880000000000002d000000000000802c000050
:103f980000000000002c000000000000802b000042
:103fa80000000000002b000000000000802a000034
:103fb80000000000002a0000000000008029000026
:103fc8000000000000290000000000008028000018
:103fd800000000000028000000000000802700000a
:103fe80000000000002700000000000080260000fc
:103ff80000000000002600000000000080250000ee
:1040080000000000002500000000000080240000df
:1040180000000000002400000000000080230000d1
:1040280000000000002300000000000080220000c3
:104038000000000000220000db0f0000493f0000e4
:1040480038630000ed3e0000b0db00007a3e00005f
:10405800d5ad0000fe3d0000deaa00007f3d000057
:10406800aeea0000ff3c0000abfa00007f3c000015
:10407800abfe0000ff3b0000abff00007f3b0000f1
:10408800ebff0000ff3a0000fbff00007f3a000052
:10409800ffff0000ff390000000000008039000029
:1040a8000000000000390000000000008038000017
:1040b8000000000000380000000000008037000009
:1040c80000000000003700000000000080360000fb
:1040d80000000000003600000000000080350000ed
:1040e80000000000003500000000000080340000df
:1040f80000000000003400000000000080330000d1
:1041080000000000003300000000000080320000c2
:1041180000000000003200000000000080310000b4
:1041280000000000003100000000000080300000a6
:10413800000000000030000000000000802f000098
:1041480000000000002f000000000000802e00008a
:1041580000000000002e000000000000802d00007c
:1041680000000000002d000000000000802c00006e
:1041780000000000002c000000000000802b000060
:1041880000000000002b000000000000802a000052
:1041980000000000002a0000000000008029000044
:1041a8000000000000290000000000008028000036
:1041b8000000000000280000000000008027000028
:1041c800000000000027000000000000802600001a
:1041d800000000000026000000000000802500000c
:1041e80000000000002500000000000080240000fe
:1041f80000000000002400000000000080230000f0
:1042080000000000002300000000000080220000e1
:104218000000000000220000256c0000692c00004e
:10422800202500006c6900002c200000256c00008f
:08423800690d00000a000000fe
:020000040000fa
:10424000ffff0000ffff0000ffff0000ffff000076
:10425000ffff0000ffff0000ffff0000ffff000066
:10426000ffff0000ffff0000ffff0000ffff000056
:10427000ffff0000ffff0000ffff0000ffff000046
:10428000ffff0000ffff0000ffff0000ffff000036
:10429000ffff0000ffff0000ffff0000ffff000026
:1042a000ffff0000ffff0000ffff0000ffff000016
:1042b000ffff0000ffff0000ffff0000ffff000006
:1042c000ffff0000ffff0000ffff0000ffff0000f6
:1042d000ffff0000ffff0000ffff0000ffff0000e6
:1042e000ffff0000ffff0000ffff0000ffff0000d6
:1042f000ffff0000ffff0000ffff0000ffff0000c6
:1043000007000000000000000000000000000000a6
:10431000000000000000000000000000000000009d
:10432000000000000000000000000000000000008d
:10433000000000000000000000000000000000007d
:10434000000000000000000000000000000000006d
:10435000000000000000000000000000000000005d
:10436000000000000000000000000000000000004d
:10437000000000000000000000000000000000003d
:10438000000000000000000000000000000000002d
:10439000000000000000000000000000000000001d
:1043a000000000000000000000000000000000000d
:1043b00000000000000000000000000000000000fd
:1043c00000000000000000000000000000000000ed
:1043d00000000000000000000000000000000000dd
:1043e00000000000000000000000000000000000cd
:1043f00000000000000000000000000000000000bd
:1044000000000000000000000000000000000000ac
:1044100000000000000000000000000080ff00001d
:10442000ffff0000ffff0000ffff0000ffff000094
:10443000ffff0000ffff0000ffff0000ffff000084
:10444000ffff0000ffff0000ffff0000ffff000074
:10445000ffff0000ffff0000ffff0000ffff000064
:10446000ffff0000ffff0000ffff0000ffff000054
:10447000ffff0000ffff0000ffff0000ffff000044
:10448000ffff0000ffff0000ffff0000ffff000034
:10449000ffff0000ffff0000ffff0000ffff000024
:1044a000ffff0000ffff0000ffff0000ffff000014
:1044b000ffff0000ffff0000ffff0000ffff000004
:1044c000ffff0000ffff0000ffff0000ffff0000f4
:1044d000ffff0000ffff0000ffff0000ffff0000e4
:1044e000ffff0000ffff0000ffff0000ffff0000d4
:1044f000ffff0000ffff0000ffff0000ffff0000c4
:10450000ffff0000ffff0000ffff0000ffff0000b3
:10451000ffff0000ffff0000ffff0000ffff0000a3
:10452000ffff0000ffff0000ffff0000ffff000093
:10453000ffff0000ffff0000ffff0000ffff000083
:10454000ffff0000ffff0000ffff0000ffff000073
:10455000ffff0000ffff0000ffff0000ffff000063
:10456000ffff0000ffff0000ffff0000ffff000053
:10457000ffff0000ffff0000ff1f00000000000021
:10458000000000000000000000000000000000002b
:10459000000000000000000000000000000000001b
:1045a000000000000000000000000000000000000b
:1045b00000000000000000000000000000000000fb
:104890000000000000000000e0ff0000ffff00003b
:1048a000ffff0000ffff0000ffff0000ffff000010
:1048b000ffff0000ffff0000ffff0000ffff000000
:1048c000ffff0000ffff0000ffff0000ffff0000f0
:1048d000ffff0000ffff0000ffff0000ffff0000e0
:1048e000ffff0000ffff0000ffff0000ffff0000d0
:1048f000ffff0000ffff0000ffff0000ffff0000c0
:10490000ffff0000ffff0000ffff0000ffff0000af
:10491000ffff0000ffff0000ffff0000ffff00009f
:10492000ffff0000ffff0000ffff0000ffff00008f
:10493000ffff0000ffff0000ffff0000ffff00007f
:10494000ffff0000ffff0000ffff0000ffff00006f
:10495000ffff0000ffff0000ffff0000ffff00005f
:10496000ffff0000ffff0000ffff0000ffff00004f
:10497000ffff0000ffff0000ffff0000ffff00003f
:10498000ffff0000ffff0000ffff0000ffff00002f
:10499000ffff0000ffff0000ffff0000ffff00001f
:1049a000ffff0000ffff0000ffff0000ffff00000f
:1049b000ffff0000ffff0000ffff00007f0000007e
:1049c00000000000000000000000000000000000e7
:1049d00000000000000000000000000000000000d7
:1049e00000000000000000000000000000000000c7
:1049f00000000000000000000000000000000000b7
:104a000000000000000000000000000000000000a6
:104a10000000000000000000000000000000000096
:104a20000000000000000000000000000000000086
:104a30000000000000000000000000000000000076
:104a40000000000000000000000000000000000066
:104a50000000000000000000000000000000000056
:104a60000000000000000000000000000000000046
:104a70000000000000000000000000000000000036
:104a80000000000000000000000000000000000026
:104a90000000000000000000000000000000000016
:104aa0000000000000000000000000000000000006
:104ab00000000000000000000000000000000000f6
:104ac00000000000000000000000000000000000e6
:104ad00000000000000000000000000000000000d6
:104ae00000000000000000000000000000000000c6
:104af00000000000000000000000000000000000b6
:104b000000000000000000000000000000000000a5
:104b10000000000000000000000000000000000095
:104b20000000000000000000f0ff0000ffff000098
:104b3000ffff0000ffff0000ffff0000ffff00007d
:104b4000ffff0000ffff0000ffff0000ffff00006d
:104b5000ffff0000ffff0000ffff0000ffff00005d
:104b6000ffff0000ffff0000ffff0000ffff00004d
:104b7000ffff0000ffff0000ffff0000ffff00003d
:104b8000ffff0000ffff0000ffff0000ffff00002d
:104b9000ffff0000ffff0000ffff0000ffff00001d
:104ba000ffff0000ffff0000ffff0000ffff00000d
:104bb000ffff0000ffff0000ffff0000ffff0000fd
:104bc000ffff0000ffff0000ffff0000ffff0000ed
:104bd000ffff0000ffff0000ffff0000ffff0000dd
:104be000ffff0000ffff0000ffff0000ffff0000cd
:104bf0003f00000000000000000000000000000076
:104c000000000000000000000000000000000000a4
:104c10000000000000000000000000000000000094
:104c20000000000000000000000000000000000084
:104c30000000000000000000000000000000000074
:104c40000000000000000000000000000000000064
:104c50000000000000000000000000000000000054
:104c60000000000000000000000000000000000044
:104c70000000000000000000000000000000000034
:104c80000000000000000000000000000000000024
:104c90000000000000000000000000000000000014
:104ca0000000000000000000000000000000000004
:104cb00000000000000000000000000000000000f4
:104cc00000000000000000000000000000000000e4
:104cd00000000000000000000000000000000000d4
:104ce00000000000000000000000000000000000c4
:104cf00000000000000000000000000000000000b4
:104d000000000000000000000000000000000000a3
:104d1000000000000000000000f00000ffff0000a5
:104d2000ffff0000ffff0000ffff0000ffff00008b
:104d3000ffff0000ffff0000ffff0000ffff00007b
:104d4000ffff0000ffff0000ffff0000ffff00006b
:104d5000ffff0000ffff0000ffff0000ffff00005b
:104d6000ffff0000ffff0000ffff0000ffff00004b
:104d7000ffff0000ffff0000ffff0000ffff00003b
:104d8000ffff0000ffff0000ffff0000ffff00002b
:104d9000ffff0000ffff0000ffff0000ffff00001b
:104da000ffff0000ffff0000ffff0000ffff00000b
:104db000ffff0000ffff0000ffff0000ffff0000fb
:104dc000ffff0000ffff0000ffff0000ffff0000eb
:104dd000ffff0000ffff0000ffff0000ffff0000db
:104de000ffff0000ffff0000ffff0000ffff0000cb
:104df000ffff0000ff0700000000000000000000af
:104e000000000000000000000000000000000000a2
:104e10000000000000000000000000000000000092
:104e20000000000000000000000000000000000082
:104e30000000000000000000000000000000000072
:104e40000000000000000000000000000000000062
:104e50000000000000000000000000000000000052
:104e60000000000000000000000000000000000042
:104e70000000000000000000000000000000000032
:104e80000000000000000000000000000000000022
:104e90000000000000000000000000000000000012
:104ea0000000000000000000000000000000000002
:104eb00000000000000000000000000000000000f2
:104ec00000000000000000000000000000000000e2
:104ed00000000000000000000000000000000000d2
:104ee00000000000000000000000000000000000c2
:104ef00000000000000000000000000000000000b2
:104f000000000000000000000000000000000000a1
:104f10000000000000000000000000000000000091
:104f20000000000000000000000000000000000081
:104f30000000000000000000000000000000000071
:104f40000000000000000000000000000000000061
:104f50000000000000000000000000000000000051
:104f60000000000000000000000000000000000041
:104f70000000000000000000000000000000000031
:104f80000000000000000000000000000000000021
:104f90000000000000000000000000000000000011
:104fa0000000000000000000000000000000000001
:104fb00000000000000000000000000000000000f1
:104fc00000000000000000000000000000000000e1
:104fd00000000000000000000000000000000000d1
:104fe00000000000000000000000000000000000c1
:104ff00000c00000ffff0000ffff0000ffff0000f7
:10500000ffff0000ffff0000ffff0000ffff0000a8
:10501000ffff0000ffff0000ffff0000ffff000098
:10502000ffff0000ffff0000ffff0000ffff000088
:10503000ffff0000ffff0000ffff0000ffff000078
:10504000ffff0000ffff0000ffff0000ffff000068
:10505000ffff0000ffff0000ffff0000ffff000058
:10506000ffff0000ffff0000ffff0000ffff000048
:10507000ffff0000ffff0000ffff0000ffff000038
:10508000ffff0000ffff0000ffff0000ffff000028
:105090000f00000000000000000000000000000001
:1050a0000000000000000000000000000000000000
:1050b00000000000000000000000000000000000f0
:1050c00000000000000000000000000000000000e0
:1050d00000000000000000000000000000000000d0
:1050e00000000000000000000000000000000000c0
:1050f00000000000000000000000000000000000b0
:10510000000000000000000000000000000000009f
:10511000000000000000000000000000000000008f
:10512000000000000000000000000000000000007f
:10513000000000000000000000000000000000006f
:10514000000000000000000000000000000000005f
:10515000000000000000000000000000000000004f
:10516000000000000000000000000000000000003f
:10517000000000000000000000000000000000002f
:10518000000000000000000000000000000000001f
:10519000000000000000000000000000000000000f
:1051a00000000000000000000000000000000000ff
:1051b00000000000000000000000000000000000ef
:1051c00000000000000000000000000000000000df
:1051d00000000000000000000000000000000000cf
:1051e00000000000000000000000000000000000bf
:1051f00000000000000000000000000000000000af
:10520000000000000000000000000000000000009e
:105210000000000000000000fcff0000ffff000095
:10522000ffff0000ffff0000ffff0000ffff000086
:10523000ffff0000ffff0000ffff0000ffff000076
:10524000ffff0000ffff0000ffff0000ffff000066
:10525000ffff0000ffff0000ffff0000ffff000056
:10526000ffff0000ffff0000ffff0000ffff000046
:10527000ffff0000ffff0000ffff00000f00000025
:10528000000000000000000000000000000000001e
:10529000000000000000000000000000000000000e
:1052a00000000000000000000000000000000000fe
:1052b00000000000000000000000000000000000ee
:1052c00000000000000000000000000000000000de
:1052d00000000000000000000000000000000000ce
:1052e00000000000000000000000000000000000be
:1052f00000000000000000000000000000000000ae
:10530000000000000000000000000000000000009d
:10531000000000000000000000000000000000008d
:10532000000000000000000000000000000000007d
:10533000000000000000000000000000000000006d
:10534000000000000000000000000000000000005d
:10535000000000000000000000000000000000004d
:10536000000000000000000000000000000000003d
:10537000000000000000000000000000000000002d
:10538000000000000000000000000000000000001d
:10539000000000000000000000000000000000000d
:1053a00000000000000000000000000000000000fd
:1053b00000000000000000000000000000000000ed
:1053c00000000000000000000000000000000000dd
:1053d00000000000000000000000000000000000cd
:1053e00000000000000000000000000000000000bd
:1053f00000000000000000000000000000000000ad
:10540000000000000000000000000000000000009c
:1054100000000000000000000000000000c00000cc
:10542000ffff0000ffff0000ffff0000ffff000084
:10543000ffff0000ffff0000ffff0000ffff000074
:10544000ffff0000ffff0000ffff0000ffff000064
:10545000ffff0000ffff0000ffff0000ffff000054
:10546000ffff0000ffff0000ffff0000ffff000044
:10547000ffff0000ffff0000ffff0000ffff000034
:10548000ffff0000ffff0000ffff0000ffff000024
:10549000ffff0000ffff0000ffff0000ffff000014
:1054a000ffff0000ffff0000ffff0000ffff000004
:1054b000ffff0000ffff0000ffff0000ffff0000f4
:1054c000ffff0000ffff0000ffff0000ffff0000e4
:1054d000ffff0000000000000000000000000000ce
:1054e00000000000000000000000000000000000bc
:1054f00000000000000000000000000000000000ac
:10550000000000000000000000000000000000009b
:10551000000000000000000000000000000000008b
:10552000000000000000000000000000000000007b
:10553000000000000000000000000000000000006b
:10554000000000000000000000000000000000005b
:105550000000000000000000f0ff0000ffff00005e
:10556000ffff0000ffff0000ffff0000ffff000043
:10557000ffff0000ffff0000ffff0000ffff000033
:10558000ffff0000ffff0000ffff0000ffff000023
:10559000ffff0000ffff0000ffff0000ffff000013
:1055a000ffff0000ffff0000ffff0000ffff000003
:1055b000ffff0000ffff0000ffff0000ffff0000f3
:1055c000ffff0000ffff0000ffff0000ffff0000e3
:1055d000ffff0000ffff0000ffff0000ffff0000d3
:1055e000ffff0000ffff0000ffff0000ffff0000c3
:1055f000ffff0000ffff0000ffff0000ffff0000b3
:10560000ffff0000ffff0000ffff0000ffff0000a2
:10561000ffff0000ffff0000ffff0000ffff000092
:10562000ffff0000ffff0000ffff0000ffff000082
:10563000ffff0000ffff0000ffff0000ffff000072
:10564000ffff0000ffff0000ffff0000ffff000062
:10565000ffff0000ffff0000ffff0000ffff000052
:10566000ffff0000ffff0000ffff0000ffff000042
:10567000ffff0000ffff0000ffff0000ffff000032
:10568000ffff0000ffff0000ffff0000ffff000022
:10569000ffff0000ffff0000ffff0000ffff000012
:1056a000ffff0000ffff0000ffff0000ffff000002
:1056b000ffff0000ffff0000ffff0000ffff0000f2
:1056c000ffff0000ffff0000ffff0000ffff0000e2
:1056d000ffff0000ffff0000ffff0000ffff0000d2
:1056e000ffff0000ffff0000ffff0000ffff0000c2
:1056f000ff070000000000000000000000000000a4
:105700000000000000000000000000000000000099
:105710000000000000000000000000000000000089
:105720000000000000000000000000000000000079
:105730000000000000000000000000000000000069
:105740000000000000000000000000000000000059
:105750000000000000000000000000000000000049
:105760000000000000000000000000000000000039
:105770000000000000000000000000000000000029
:105780000000000000000000000000000000000019
:105790000000000000000000000000000000000009
:1057a00000000000000000000000000000000000f9
:1057b00000000000000000000000000000000000e9
:1057c00000000000000000000000000000000000d9
:1057d00000000000000000000000000000000000c9
:1057e00000000000000000000000000000000000b9
:1057f00000000000000000000000000000000000a9
:105800000000000000000000000000000000000098
:105810000000000000000000000000000000000088
:105820000000000000000000000000000000000078
:105830000000000000000000000000000000000068
:105840000000000000000000000000000000000058
:105850000000000000000000000000000000000048
:105860000000000000000000000000000000000038
:105870000000000000000000000000000000000028
:105880000000000000000000000000000000000018
:105890000000000000000000000000000000000008
:1058a00000000000000000000000000000000000f8
:1058b00000000000000000000000000000000000e8
:1058c00000000000000000000000000000000000d8
:1058d00000000000000000000000000000000000c8
:1058e000000000000000000000ff0000ffff0000bb
:1058f000ffff0000ffff0000ffff0000ffff0000b0
:10590000ffff0000ffff0000ffff0000ffff00009f
:10591000ffff0000ffff0000ffff0000ffff00008f
:10592000ffff0000ffff0000ffff0000ffff00007f
:105bb000ffff0000ffff00000700000000000000e2
:105bc00000000000000000000000000000000000d5
:105bd00000000000000000000000000000000000c5
:105be00000000000000000000000000000000000b5
:105bf00000000000000000000000000000000000a5
:105e200000000000000000000000000000ff000073
:105e3000ffff0000ffff0000ffff0000ffff00006a
:105e4000ffff0000ffff0000ffff0000ffff00005a
:105e5000ffff0000ffff0000ffff0000ffff00004a
:105e6000ffff0000ffff0000ffff0000ffff00003a
:105e7000ffff0000ffff0000ffff0000ffff00002a
:105e8000ffff0000ffff0000ffff0000ffff00001a
:105e9000ffff0000ffff0000ffff0000ffff00000a
:105ea000ffff0000ffff0000ffff0000ffff0000fa
:105eb000ffff0000ffff0000ffff0000ffff0000ea
:105ec000ffff0000ffff0000ffff0000ffff0000da
:105ed000ffff0000ffff0000ffff0000ffff0000ca
:105ee000ffff0000ffff0000ffff0000ffff0000ba
:105ef000ffff0000ffff0000ffff0000ffff0000aa
:105f0000ffff0000ffff0000ffff0000ffff000099
:105f1000ffff0000ffff0000ffff0000ffff000089
:105f2000ffff0000ffff0000ffff0000ffff000079
:105f3000ffff0000ffff0000ff0300000000000063
:105f40000000000000000000000000000000000051
:105f50000000000000000000000000000000000041
:105f60000000000000000000000000000000000031
:105f70000000000000000000000000000000000021
:105f80000000000000000000000000000000000011
:105f90000000000000000000000000000000000001
:105fa00000000000000000000000000000000000f1
:105fb00000000000000000000000000000000000e1
:105fc00000000000000000000000000000000000d1
:105fd00000000000000000000000000000000000c1
:105fe00000000000000000000000000000000000b1
:105ff00000000000000000000000000000000000a1
:106000000000000000000000000000000000000090
:106010000000000000000000000000000000000080
:106020000000000000000000000000000000000070
:106030000000000000000000000000000000000060
:106040000000000000000000000000000000000050
:1060500000000000e0ff0000ffff0000ffff000065
:10606000ffff0000ffff0000ffff0000ffff000038
:10607000ffff0000ffff0000ffff0000ffff000028
:10608000ffff0000ffff0000ffff0000ffff000018
:10609000ffff0000ffff0000ffff0000ffff000008
:1060a000ffff0000ffff0000ffff0000ffff0000f8
:1060b000ffff0000ffff0000ffff0000ffff0000e8
:1060c000ffff0000ffff0000ffff0000ffff0000d8
:1060d000ffff0000ffff0000ffff0000ffff0000c8
:1060e000ffff0000ffff0000ffff0000ffff0000b8
:1060f000ffff0000ffff0000ffff0000ffff0000a8
:10610000ffff0000ffff0000ffff0000ffff000097
:10611000ffff0000ffff0000ffff0000ffff000087
:10612000ffff0000ffff0000ffff0000ffff000077
:10613000ffff0000ffff0000ffff0000ffff000067
:10614000ffff0000ffff0000ffff0000ffff000057
:10615000ffff0000ffff0000ffff0000ffff000047
:10616000ffff0000ffff0000ffff0000ffff000037
:10617000ffff0000ffff0000ffff0000ffff000027
:10618000ffff0000ffff0000ffff0000ffff000017
:10619000ffff000001000000000000000000000000
:1061a00000000000000000000000000000000000ef
:1061b00000000000000000000000000000000000df
:1061c00000000000000000000000000000000000cf
:1061d00000000000000000000000000000000000bf
:1061e00000000000000000000000000000000000af
:1061f000000000000000000000000000000000009f
:1062000000fc0000ffff0000ffff0000ffff000098
:10621000ffff0000ffff0000ffff0000ffff000086
:10622000ffff0000ffff0000ffff0000ffff000076
:10623000ffff0000ffff0000ffff0000ffff000066
:10624000ffff0000ffff0000ffff0000ffff000056
:10625000ffff0000ffff0000ffff0000ffff000046
:10626000ffff0000ffff0000ffff0000ffff000036
:10627000ffff0000ffff0000ffff0000ffff000026
:10628000ffff0000ffff0000ffff0000ffff000016
:10629000ffff0000ffff0000ffff0000ffff000006
:1062a000ffff0000ffff0000ffff0000ffff0000f6
:1062b000ffff0000ffff0000ffff0000ffff0000e6
:1062c000ffff0000ffff0000ffff0000ffff0000d6
:1062d000ffff0000ffff0000ffff0000ffff0000c6
:1062e000ffff0000ffff0000ffff0000ffff0000b6
:1062f000ffff0000ffff0000ffff0000ffff0000a6
:10630000ffff0000ffff0000ffff0000ffff000095
:10631000ffff0000ffff0000ffff0000ffff000085
:10632000ffff0000ffff0000ffff0000ffff000075
:10633000ffff0000ffff0000ffff0000ffff000065
:10634000ffff0000ffff0000ffff0000ffff000055
:10635000ffff0000ffff0000ffff0000ffff000045
:10636000ffff0000ffff0000ffff0000ff0700002d
:10637000000000000000000000000000000000001d
:10638000000000000000000000000000000000000d
:1063900000000000000000000000000000000000fd
:1063a00000000000000000000000000000000000ed
:1063b00000000000000000000000000000000000dd
