:020000040000fa
:080000000002040000000000f2
:020000040000fa
:10000800d0020000d0020000d0020000d0020000a0
:10001800d0020000d0020000d0020000d002000090
:10002800d0020000d0020000d0020000d002000080
:10003800743f0000d0020000d0020000d00200008f
:100048006e3b0000d0020000d0020000d002000089
:10005800d0020000d00200007c3f0000d002000067
:10006800d0020000d0020000d0020000d002000040
:10007800d0020000d0020000d0020000d002000030
:10008800a63f0000d0020000d0020000d00200000d
:10009800d0020000d0020000d0020000d002000010
:1000a800d0020000d0020000d0020000d002000000
:1000b800ae3f0000d0020000d0020000d0020000d5
:1000c800d0020000d0020000d0020000d0020000e0
:1000d800d0020000d0020000e83f0000d00200007b
:1000e8004e3b0000d0020000d0020000d002000009
:1000f800d0020000d0020000d0020000d0020000b0
:10010800d0020000d0020000b8330000d002000086
:10011800d0020000f03f0000d0020000d002000032
:10012800d0020000d0020000d0020000d00200007f
:100138001a400000d0020000d0020000d0020000e7
:10014800d0020000d0020000d0020000d00200005f
:10015800d0020000d0020000d0020000d00200004f
:10016800d0020000d0020000d0020000d00200003f
:10017800d0020000d0020000d0020000d00200002f
:10018800d0020000d0020000d0020000d00200001f
:10019800d0020000d0020000d0020000d00200000f
:1001a800d0020000d0020000d0020000d0020000ff
:1001b800d0020000d0020000d0020000d0020000ef
:1001c800d0020000d0020000d0020000d0020000df
:1001d800d0020000d0020000d0020000d0020000cf
:1001e800d0020000d0020000d0020000d0020000bf
:1001f800d0020000d0020000d0020000d0020000af
:10020800d0020000d0020000d0020000d00200009e
:10021800d0020000d0020000d0020000d00200008e
:10022800d0020000d0020000d0020000d00200007e
:10023800d0020000d0020000d0020000d00200006e
:10024800d0020000d0020000d0020000d00200005e
:10025800d0020000d0020000d0020000d00200004e
:020000040000fa
:100400000fd12300eef227000e018800000000004b
:1004100000012000200288000c000700c02a2100f3
:10042000010020000f000700000020000000e00095
:10043000020032000000020000000000763b0200d3
:10044000000000000040da000000fe002002200052
:100450000000e0000200320000202000900188002f
:1004600000000600a1028800800078000000eb0078
:100470001a003700e280400054a0b4009101ba0095
:10048000e280400054a0b4009102ba00e280400033
:1004900054a0b4000002eb00472bde00f507b200c9
:1004a000a6018800602ce10008003a000049eb003a
:1004b0000201e800020039003420ec0002f0a00044
:1004c0008301e900f9ff3e00040037006128e100e4
:1004d000010032000082eb00040007001101ba00a5
:1004e0000200e000e3ff3a000000060004d0a30091
:1004f000e20f49001c003900810278003549ba003a
:100500000201e800020039003420ec0002f0a000f3
:100510008301e9000f0032002549ba000201e8001a
:10052000020039003420ec0002f0a0008301e90051
:10053000080032000400e0000600320015c9ba00cd
:100540000201e800020039003420ec0002f0a000b3
:100550008301e9008180e80054a0b4000300e000ba
:10056000e2ff3a00000006009102ba000559780047
:100570008301e900f7ff3200c82ade000559780040
:100580008301e900f3ff32000400e000f1ff3200d4
:1005900011d9ba00eeff3700303d04000000000022
:1005a0000040da000000fe000000fa000748a90041
:1005b000e7026000c82add00e6428000f48f2f00c9
:1005c0000402630005027200e442880068006000d3
:1005d0004300de00610060004a00dd00344180001d
:1005e00004a0a10000027200344188000080fa00db
:1005f000000006000000fa00000e8800110e8800be
:10060000220e88000080fa00000006000000fa00b8
:10061000300e8000510e80000080fa0000000600bd
:100620000000fa0010029000d40e8800100078003c
:10063000b00e88000080fa00000006000000fa00fa
:1006400010029000540e880010007800300e8800d0
:100650000080fa00000006000000fa002148a9000e
:1006600041e2a9000148a9000080fa00000006004c
:100670000000fa001012880021128800021288007f
:100680000080fa000000060003f0a200889fbe0070
:100690008a9fbe008c1f78002a01070031013300b9
:1006a0006450e1004f0032006420e100520032004b
:1006b00003826c0007003b000905d0000306d00050
:1006c000820f54000c065d00020039000200320067
:1006d00089017800030678008582550004003d00fa
:1006e0000003fd008103fd008502ea008b854200c6
:1006f000840f720002003b0060001000e0801800d0
:100700006011b8000005eb007a28e1000a0039000a
:1007100006007800c75ddd00f707b200878075002e
:100720002d003700828171000a01780061056000a8
:100730008180d1000080d3008502e900f9ff3b00f1
:10074000060440008784480002003b006004140057
:10075000e0841c000988a300070032008a81710030
:1007600082817100610164008904d1000884d30092
:100770008b05e800170037000978a30013003a0042
:100780000b00e000130034008b05e900080444006e
:1007900089844c000a4474000978a3000d003a00d3
:1007a0000b00e000070034008b05e900080444005a
:1007b00089844c0001003a000b0020000978a30056
:1007c000f7ff32000001eb00020037008281710068
:1007d0000a017800a00007000cf0a70001f0a000bb
:1007e000e90037006420e10002003a00838f6c00ca
:1007f000e90033000801be000200be00e20037003d
:10080000889fbe008a9fbe008c1f7800cd00070025
:10081000d400330003866c006450e1002e003200e7
:100820006420e100330032006150e1002f0032000b
:100830006120e1003100320085855500eb07b000f2
:1008400009002000080420000500370008044400c7
:1008500089844c000a0031000603430087834b0063
:100860000001530081815b00f8ff33000203be00ea
:100870000800a0000804440089844c00f6ff3900f9
:10088000c639dd008301730001003200130020002f
:100890008904d1000884d3000998a3000500320020
:1008a0000800a7000300a0008904d1000884d30039
:1008b0008b05e8008904d1000884d3000001eb0017
:1008c0000281d2006400070001f0a1000cf0a70033
:1008d00001f0a000ac0037006420e100ae0032005f
:1008e0000801be000200be00f7ff37006120e100f2
:1008f000a90032006000b800f3ff370000002000bc
:1009000001f82700f0ff3700839f68000100e00036
:1009100002003d0060001000e08018000300e000cd
:1009200002003d0060011100e0811900d1000700c4
:100930004f00e00002003b0060001000e080180063
:100940000000060014002000da003700f4ff2f003a
:10095000d80037000001be00650007000470a70042
:1009600003f0a1006509b100160032000d0035004a
:100970006828e10006003500f0ff2f00f1ff270096
:100980000300e00013003b00010028000000050008
:1009900000004000818048008502e900fcff3a0029
:1009a00008003700f88f420002003c008000eb0096
:1009b000000005008100d1000080d3008502e8001e
:1009c000fcff3a000300e00002003b006000100062
:1009d000e0801800000006000001be00440007008f
:1009e0000470a70003f0a10003f8a30013003a006d
:1009f0006509b10010003200090035006928e100e6
:100a00000200350001002800000005000000400041
:100a1000818048008502e900fcff3a0000000600e2
:100a2000f88f4200050035008100d1000080d3001e
:100a30008502e800fcff3a00000006008000eb00a1
:100a4000000005004f89de0082017800b400370005
:100a50006011b800c200370081002000618055009d
:100a60000b003d000b00200061fe2f000100e100a3
:100a70001d00340082817100610164008904d1008d
:100a80000884d3000000e800faff3a00710020005b
:100a90006100640003007000020060000900320081
:100aa00061044400e0844c000988a5000500320080
:100ab0008b05e8006808e10002003a008904d100d3
:100ac0000884d300f20f20000258e10005003d0029
:100ad000c75ddd00f907b200898075000800780065
:100ae000000006000bf827008b00780000000500ce
:100af000c70ade00f107b200f50fb20008003200ad
:100b0000e1cf4200020032000170a0002400050085
:100b1000810f700001003200040805004400050048
:100b2000810f700002003a00140005008502e90000
:100b30000000400081c04800fcff3b000170a000a5
:100b4000240005000004be00e9ff07000003be000a
:100b50000405be000200be00e5ff0700844f7500db
:100b6000000006000200be006450e10005003600ef
:100b70006420e100020036000968a30001003a0089
:100b80000800be000160a0004f0678004f05be00bf
:100b90004f04be0000000600f0ff2f00f1ff270009
:100ba000f9ff3700889fbe008a9fbe008c1f780027
:100bb000e4ff0700ebff330003866c006450e100a4
:100bc000240032006420e100270032006150e1007f
:100bd000220032006120e100210032008b854200ba
:100be000eb07b1000134b800003ab8000804420035
:100bf00089844a00013ab8000030b800888040007b
:100c000009014a00040033000000400081804800d0
:100c1000020149008b05e900c909dd00830170006c
:100c20000100320013002000c814de004814dd006b
:100c30004709de001200b200c808de000884700018
:100c400085ff070001f0a1000cf0a70001f0a00053
:100c5000cdff37006120e100cfff32000801be0068
:100c60000200be00f7ff37006150e100fcff3a00d0
:100c7000c9ff37006022b800060220000000d00043
:100c80008180d2000482d2008582d2000000a000c0
:100c90000202520083825a00030031000202420025
:100ca00083824a000000a1000603e900f3ff3a0036
:100cb00000000600889fbe008a9fbe00841f780047
:100cc000a0ff07004f00780011003300f0ff2f0055
:100cd000838f6c0006003b00040565000a00a70036
:100ce0000800370009f0a6001000200008003700b7
:100cf000820f5400838f5c00030039001000200035
:100d000001003e000000200009f0a7000000ea00fa
:100d10004f05be004f04be000000e00000000600ca
:100d2000881f7800030478000300e00007003d00fe
:100d300060001000e080180060011900e0811900d7
:100d400002003b0001f02d00030037000400070003
:100d500008f0a70001f0a0004f0478000000060092
:100d6000889fbe008a9fbe0000827000040271004e
:100d700004827100260032000004be000200be00a2
:100d80006011b8006b092000950220000182cf009d
:100d90000a0039000541b1000082cf000700390088
:100da0000541b1000982cf00040039000541b100be
:100db0000882cf00010039000541b1000542520010
:100dc000120032000a003b00828171006101640060
:100dd0008100d1000080d3008984d3000884d3002f
:100de0008b05e8000442e800f7ff3a0007003700ef
:100df0000804440089844c000000480081804800b9
:100e00008b05e9000442e900f9ff3a0012ff0700f0
:100e10004f05be004f04be00000006000c00fa00a3
:100e2000889fbe0000047800f4ff27005407980054
:100e30008004eb0019079800080f78002807980035
:100e4000240c20003407980068015700ceb89700a2
:100e50000e007800060007001e027800094a78009c
:100e60001e0014004f04be000080fa0000000600bf
:100e70003a00fa00889fbe008a9fbe008c9fbe0089
:100e80008006780001179800421798000000eb00d8
:100e900060179800770337008e1090008100e800fb
:100ea0000117980054c2b300844f500006003a0066
:100eb000010278000006eb0001c3b30000c2b300da
:100ec000b7c2b300100037003d0290000404b20026
:100ed000040032001d027800004a7800840ee80009
:100ee000050037000000fb008d0078006c03070050
:100ef000e10f40005f0332006e1190000201e80034
:100f0000621798005b03370084027800344378004e
:100f1000d3c2b300834f53000900320005003c00e8
:100f2000804f530008003200874f53000c003a00f6
:100f300007003700814f530009003a0006003700d0
:100f40000c30a000f0ff37000c00a000eeff3700cf
:100f50000c10a000ecff37000c20a000eaff3700c7
:100f600062026600010032000c00a1006802660007
:100f7000010032000c20a1000602fb000403b100b6
:100f8000e90f52000c003e00050378000002eb0060
:100f9000ea22b800b602fb000503b1000482420059
:100fa000860278009603fb000703b100e98f530027
:100fb000f7ff3600080037000002eb00a7c2b300bd
:100fc000874f530004003a004e1390004602780009
:100fd000461798008502e8008003eb005717980039
:100fe000e6c2b300954f13000c003a000ce0a000dd
:100ff00064435300d54f130003003200050378000b
:1010000007007800090037004e149000c8047800eb
:1010100048179800591798008502e80005037800e2
:1010200009003700ea00b80000804300860278001b
:10103000b603fb000703b100e98f5300f9ff360048
:1010400050179800f5ff3700b64278000617980051
:10105000cbc6b3008bcf5200250032000f003c00fe
:1010600036c6b30086cf5200a200320004003c0016
:10107000e0cf5200040332006b4353000f003700ef
:1010800046c6b30086cf52001700320065434300c6
:1010900086cf5200b4003a001300370036c7b300c1
:1010a00086cf52001f00320007003c00644353000b
:1010b00086cf5200140032000643e80086cf52006b
:1010c000a9003a001300370056c7b30086cf52007c
:1010d000aa0032006343430086cf5200a2003a00c8
:1010e000054f78000d003700054f7800a500370048
:1010f000f003660005012000010032000500280011
:1011000005067600d0ff3700054f78000c60a00080
:101110009c003700054f78000c50a0000c70a00018
:1011200098003700054f78004e109000c0027800fc
:101130004017980075179800e08f520002003a009f
:1011400082452300721798007e1390008002eb0006
:10115000010037008502e800850343008041eb0071
:1011600097cf1100fbff3a00051f9800de12900098
:10117000e08f5200050032000e1b9000868f520057
:101180000200310085037800071f98008e1a900036
:101190000004eb00850f52000100360005045200e8
:1011a0006806660009c2b300110032002d00370046
:1011b0003d0290000404b200040032001d027800d9
:1011c000094a7800840ee800050037008d00780099
:1011d00000022000b2020700e10f400003003200cd
:1011e0006e1590000a05e8006a1798000804e900e7
:1011f000e00f5400eeff3a000084eb0019003700c6
:10120000bd0290000504b200090032009d03780081
:101210008802780035437800864b7800870ee80016
:1012200005047800e04f53000a003a00120037002e
:10123000880278003500fb00050478008d007800f6
:10124000441f9800960207004e1a9000e10f4000dc
:10125000090032006e1090000000e800601798004e
:1012600005003700080278007e1490008e1c900064
:101270001e1d9000ae1d9000890278008504e900d3
:10128000e08f5200deff3a0078179800091f98009f
:101290001a1f98002b1f980004047800e00f5600d6
:1012a0007402320009c2b3006e1690000e003700bf
:1012b0003d0290000404b200040032001d027800d8
:1012c000094a7800840ee800050037008d00780098
:1012d0000002200072020700e10f4000010032000e
:1012e0000c06e8000804e900e00f5400f0ff3a00a3
:1012f0005f023700ce10900041047800411798003b
:10130000cfc4de00090578008a0578000800be0019
:101310000a01be004800de00c80add00008072003d
:10132000004f78007003660009003200e04f500063
:1013300007003200e14f40000500320010479800de
:101340002847980026002000061f98000300370059
:101350001847980017002000071f98000e04e800a7
:101360007817980081ff3700054f78007e179800a6
:101370001a0020000a1f98007cff3700054f7800f4
:101380000c0cb3008c027800050cb2003b003a0054
:10139000e00f560005003d00ce1290004501be0052
:1013a0004500be00451798000f003700f0026600a8
:1013b000120032004e1490004803be0048179800f7
:1013c000460798005707980098029000cfaade00c1
:1013d00065079800750798004e009000de009000a9
:1013e0006e019000fe01900070179800011f980098
:1013f000121f9800231f98000b003700ce1090009a
:10140000c10278004117980005047800cfc4de00bf
:10141000090578008a05780078179800091f980058
:101420001a1f98002b1f98007e1090008e189000b5
:101430001e199000ae199000e00f5000e08f580088
:10144000e00f5900e08f590032003d003c00b3002e
:101450006000b8006011b8007e1490008e1c9000ef
:101460001e1d9000ae1d9000080450008984580095
:101470000a0559008b85590022003700e00f5600fd
:1014800005003d00ce1290004501be004500be00a3
:10149000451798000f003700f00266001200320076
:1014a0004e1490004803be0048179800460f98005d
:1014b000570f98008004eb00690f98000005eb00bf
:1014c0007a0f98004e089000de0890006e09900098
:1014d000fe09900070179800011f9800121f9800d5
:1014e000231f98000b003700ce109000c102780037
:1014f0004117980005047800090020000a00200028
:101500000b00200078179800091f98001a1f9800f8
:101510002b1f9800de149000e08f54000d003a005d
:101520001a0020005a1798007e1090008e18900024
:101530001e199000ae199000e00f5000e08f580087
:10154000e00f5900e08f5900020032008000eb00ec
:10155000511798000c017800020cb2003217980065
:1015600005042000850f51003400320003003c00c8
:10157000e00f510008003200480037000508200045
:10158000be119000858f510014003200050c200020
:10159000858f510041003a00e62c230015c0b300ae
:1015a0003600be003601be007e1490008e1c9000f6
:1015b0001e1d9000ae1d90000040e10001c8e1003a
:1015c00002d0e10003d8e100330039008542e80091
:1015d000f4cf5200f2ff3a002f00370015c0b300dd
:1015e00000012000010020006011b8007e1490006e
:1015f0008e1c90001e1d9000ae1d90000040e1006a
:1016000001c8e10002d0e10003d8e1002200390066
:10161000490020000000d0008180d2000281d20069
:101620008381d2008904e900faff3a008542e8008c
:10163000f0cf5200edff3a001700370015c0b3009d
:1016400080002000010020006011b8007e1490008e
:101650008e1c90001e1d9000ae1d90000040e10009
:1016600001c8e10002d0e10003d8e1000a0039001e
:10167000390020000000d0008180d2000281d20019
:101680008381d2008904e900faff3a008542e8002c
:10169000f5cf5200edff3a00054f78009e02fb00a7
:1016a0005e1590008a8f520002003d000a4f7800bc
:1016b00004003700de159000858f550001003d00c5
:1016c00055179800e00f520003003200e302660055
:1016d000010032000402e9000500240085026600d2
:1016e000060032005e109000800f520002003400ad
:1016f00000025200010037000002eb009e02fb00d6
:101700008000eb0021179800850f52000200340082
:1017100085025200251798006402660045003200d9
:10172000e202660061026600e08f5200170032009c
:10173000bd0290000504b200080032009d0278004e
:10174000b6c2b300e00f52000100320006c3e80049
:10175000864a7800850ee80008003700b0022000b5
:10176000e00f5200010032000080e8008d00780098
:101770004b010700e10f4000160032006e1190008f
:101780000201e8006217980012003700e00f5200d3
:10179000100032003d0290000404b2000500320047
:1017a0001d02780005c2b300054a7800840ee800e7
:1017b000050037008d007800000220003801070086
:1017c000e10f400003003200ee1190008301e800b9
:1017d000631798002e129000e00f52005b00320059
:1017e00008c3b300840478003d0290000404b200f2
:1017f000040032001d027800084a7800840ee800d8
:10180000050037008d007800000320002401070048
:10181000e10f400003003200ee1290008502e80064
:10182000651798008904e900efff3a00291798002e
:10183000460037002e139000e00f530016003200d0
:101840006802660014003a0008c2b30086047800fb
:101850003d0290000404b200040032001d02780032
:10186000084a7800840ee800050037008d007800f3
:10187000000220000a010700e10f400003003200cf
:10188000ee1390008703e800671798008904e900c9
:10189000efff3a0029179800e20266006102660035
:1018a000e08f520017003200bd0290000504b20024
:1018b000080032009d027800b6c2b300e00f52006b
:1018c0000100320006c3e800864a7800850ee80071
:1018d00008003700b0022000e00f52000100320083
:1018e0000080e8008d007800ed000700e10f400067
:1018f000160032006e1490000804e8006817980083
:1019000012003700e00f5200100032003d0290003c
:101910000404b200050032001d02780005c2b300c5
:10192000054a7800840ee800050037008d00780035
:1019300000022000da000700e10f4000030032003f
:10194000ee1490008904e800691798005e15900075
:101950008a02e900c32add00642c230004824200cd
:1019600014179800f00566003b0798000c007800fb
:101970000002b20020079800a3003700de1090009c
:101980008100e900511798003e11900003042000e7
:10199000830f51007600320003003c00e00f51003d
:1019a000080032008300370004082000be129000b7
:1019b000848f520058003200040c2000848f5200a3
:1019c0007c003a00e00f56001b003d001e13900003
:1019d0003604be002605be000802be000a03be0093
:1019e0007e1090008e1890001e199000ae19900085
:1019f0000a020700004f78000000fb00cf80de00e5
:101a000001017800820178000802be000a03be00ce
:101a1000730207007e1490008e1c90001e1d900023
:101a2000ae1d90000004540081845c0002055d003e
:101a300083855d0020003700be049000e08f5400d5
:101a4000220032007e1290008e1a90001e1090002c
:101a50003004be002005be000801be000400be0028
:101a6000441f9800351f980082fc0700004f780043
:101a70000000fb00cf80de000801be00420107002d
:101a80004e1a9000be1a90000001520081815a0047
:101a9000020f9800130f98008001eb00230f9800ad
:101aa0000002eb00340f98000e0c90009e0c90008a
:101ab0002e0d9000be0d900078179800091f980019
:101ac0001a1f98002b1f9800100037009e149000da
:101ad000190278007e15900080027800811f78003e
:101ae000110009000485d8008002fd00cf007800b5
:101af000a4002000809fbe00110009008482d8004d
:101b0000010278004f00be00044f78000bc3b30001
:101b10001ecf450027003700744423002e0090009c
:101b2000e00f50000100320064432300de109000fb
:101b3000c20add007e1090008e1890001e199000e1
:101b4000ae1990008502e900050033008301d10041
:101b50000281d3008180d3000080d300f9ff3700d9
:101b6000ef02600005024200144f780011003700b8
:101b70005e119000e312b8007e1490008e1c90005d
:101b80001e1d9000ae1d9000040078000000e900ca
:101b9000050033008b05d1000a85d3008984d3006a
:101ba0000884d300f9ff37006742640001c3b30023
:101bb000014f42003d0290000404b20007003200d1
:101bc0009d0278001e427800844a7800850ee80065
:101bd000e04f520006003a00080037001e00fb00ec
:101be0008d0078002e000700e10f40000300320056
:101bf0006e1190000201e800621798009e1190009b
:101c0000e8815100131798005e129000e00f520017
:101c10005aff3a006806660016003200ae129000c5
:101c2000e08f52001300340008c2b300850478002e
:101c30006e1690003d0290000404b20004003200d1
:101c40001d027800084a7800840ee800050037007d
:101c50008d0078000002200011000700e10f400015
:101c6000010032000c06e8008904e900f1ff3a00a7
:101c70006c1798000e13900016407800004f780003
:101c8000e04f500084fc3a006e1090004f06be00fa
:101c90004f05be004f04be000080fa0000000600a1
:101ca0000000fa00889fbe0001047800380290000e
:101cb000e20262008084eb003b0032000403780003
:101cc0000620b2009802900002003a00e08f520015
:101cd00035003a000490a000340498008004780095
:101ce000f90fb200e08f520002003a00a802900003
:101cf000050c7800ea8f540005003a000408b20091
:101d000003003a0088007800d0002000e4ff0700bc
:101d100018029000d8029000850f52000b0032008c
:101d20000402e8001404980018027800094a7800b8
:101d3000040ce80015c0b300444d2300054a7800a8
:101d4000ea8f540018003a00050037008800780038
:101d5000094078001800070080047800120037005e
:101d6000380290000410b2000f00320018019000f9
:101d7000a80090004800900053000700180290004f
:101d8000840f500004003200380290000403b300b6
:101d9000340498008084eb000002eb0014049800e7
:101da00028029000040c7800090078004f04be005f
:101db0000080fa00000006000200fa00889fbe00c2
:101dc000004f780001047800380290008402780007
:101dd0000504b200020032000000fb0033003700af
:101de000e202620005003a000403b30034049800e4
:101df000150498000080eb002c003700d8049000f8
:101e0000e08f540006003a00120020008e00780097
:101e1000480090002c0007001904980022003700a9
:101e2000a8029000e08f520008003a00754d230090
:101e300025049800050c7800250020005504980022
:101e4000150498000430a000340498001801900094
:101e5000a8009000480090001b0007002802900096
:101e60008082eb00150498001e4a7800040ce800fc
:101e7000a4c0b3009e4f12000b003a00380290003d
:101e80000410b2000800320018019000a800900071
:101e9000480090000c0007000002eb0014049800ba
:101ea00028029000040c78001e00fb004f04be00c6
:101eb0000080fa00000006000000fa0000c0da000e
:101ec0000080fa00000006000a00fa00e20f50004d
:101ed00022003e00f4a68100e10f5200060032000d
:101ee00087232000462320002423200005232000f0
:101ef000e08f530004003a00872220004622200091
:101f00002422200005222000000028001500600087
:101f100003003a00800b780007002800958a7300c0
:101f2000054020009482620001003a0014a0a00045
:101f30008202780006003700940378000710b20090
:101f4000fdff3200b103fb00070b78008502e900ba
:101f5000e08f5200f8ff3a000800370034002000fc
:101f6000040f7800100798002107980032079800a6
:101f70000e007800d0ff07003e01900002007800bc
:101f80000080fa0000000600020ab900001bb90038
:101f90000200b800810042008100430000000600fa
:101fa0000000fa00889fbe008a9fbe003004be0079
:101fb0002005be000404440085844c0006054d0045
:101fc00087854d000898be000a90be000440e100dd
:101fd00005c8e10006d0e10007d8e10002003100a9
:101fe000680040001008e8004f05be004f04be0026
:101ff0000080fa00000006001000fa00889fbe0072
:102000008a9fbe000605be000404be003002be006a
:102010002003be00049fbe000697be0008025200c7
:1020200089825a000a035b008b835b004407980097
:102030005507980066079800770798000498be0037
:102040000698be00110020003e02be002e03be0016
:102050000820e10009a8e1000ab0e1000bb8e100a6
:10206000010039008000eb00108810004f05be0011
:102070004f04be000080fa00000006001400fa00c1
:10208000889fbe008a9fbe008c9fbe00590007003b
:102090000605be000404be000006eb004c079800d5
:1020a0003c0798002c0798001c0798000c0f78003c
:1020b0000d0420004e039000be02900086034300f2
:1020c0002e029000e00f530003003d002a0007009d
:1020d000b3ff07000200370027000700c6ff070014
:1020e000ce029000150f9800e08f520009003500d5
:1020f0004500070014002000050020006033b800f0
:1021000000007200818072000201730083817300fd
:10211000380007000c06e8008d0f5600e5ff3a0076
:102120001e0a9000e00f520004003d000802be00ad
:102130000a03be000e00780099ff07004eba970010
:10214000e00f520006003a003e04be002e05be001d
:1021500058079800690798007a0798000b0f9800b5
:10216000290007004f06be004f05be004f04be0009
:102170000080fa00000006004f2bde00870373008a
:10218000470798004f23de008582420085027300d6
:10219000350798009e0290004f2bde00040242009b
:1021a00004027300240798001e0278004f23de000b
:1021b000858242008502730015079800120007000f
:1021c0004f18de0004024200000f72000e000700ec
:1021d00000004000818048000201490083814900dd
:1021e000040007000802be000a03be000e007800cb
:1021f00000000600500798006107980072079800d9
:10220000030f9800000006005e009000ee009000b2
:102210007e0190008e099000000006000000fa0088
:10222000881f780018002000881f780093ff07009f
:102230008f87e9004f0478000080fa000000060054
:102240000000fa00801feb008cff07008f87e90079
:102250000080fa00000006000000fa00889fbe001f
:102260008a9fbe00e00f5000e08f5800e00f590039
:10227000e08f59000c003d006044b8006055b80084
:102280000000540081805c0002015d0083815d00dc
:10229000180020001600070008003d001900070084
:1022a0000004eb00050037000004eb0010000700fd
:1022b00002003d001300070018002000d7ff0700b0
:1022c000e00f5400060032006022b8006033b8000e
:1022d0000000520081805a0002015b0083815b0094
:1022e0004f05be004f04be000080fa00000006004b
:1022f000e00f5200e08f5a00e00f5b00e08f5b00c0
:10230000000006006044b8006055b80004025400a4
:1023100085825c0006035d0087835d000000060087
:102320000000fa00889fbe008a9fbe008c1f7800c4
:10233000e00f5000e08f5800e00f5900e08f590087
:102340000d003d006044b8006055b8000000540026
:1023500081805c0002015d0083815d001c00200023
:102360000820e10009a8e1000ab0e1000bb8e10093
:102370000d003d00080037000006eb00e00f5200a2
:10238000e08f5a00e00f5b00e08f5b0006003d002d
:102390006044b8006055b8000402540085825c00b7
:1023a00006035d0087835d00a5ff0700e00f560070
:1023b000060032006022b8006033b800000052000e
:1023c00081805a0002015b0083815b004f06780028
:1023d0004f05be004f04be000080fa00000006005a
:1023e0000000fa00889fbe008a9fbe008c1f780004
:1023f0000006eb00e00f5000e08f5800e00f59009e
:10240000e08f590007003d006044b8006055b800f7
:102410000000540081805c0002015d0083815d004a
:102420001c002000e00f5200e08f5a00e00f5b001c
:10243000e08f5b0007003d006044b8006055b800c5
:102440000402540085825c0006035d0087835d0002
:102450000c00a2000d000700e00f5600060032003d
:102460006022b8006033b8000000520081805a003a
:1024700002015b0083815b004f0678004f05be00c0
:102480004f04be000080fa0000000600889fbe00d6
:102490008a9fbe008c9fbe000404b8000506b800e9
:1024a0008904460060854e000606b8000a0546000d
:1024b000e0854e000706b8008b054600040eb80004
:1024c000890446000a854e00e0854d00050eb800df
:1024d0000a0546008b854e00060eb8008b054600a7
:1024e0000416b8000a0546008b854e000516b80094
:1024f0008b054600041eb8008b0546000800be0090
:102500000a01be004f06be004f05be004f04be00cc
:0425100000000600c1
:020000040000fa
:1025140030780000255800002c200000307800009e
:10252400255800002c2000003078000025580000b9
:102534002c20000030780000255800000d0a00000f
:1025440000250000692c000020250000690d000012
:042554000a00000079
:020000040000fa
:1025580066330000880000008200000000000000d0
:102568000000000000000000000000000000000063
:102578000000000000000000000000000000000053
:102588000000000000000000000000000000000043
:102598000000000000000000000000000000000033
:1025a8000000000000000000000000000000000023
:1025b8000000000000000000000000000000000013
:1025c8000000000000000000000000000000000003
:1025d80000000000000000000000000000000000f3
:1025e80000000000000000000000000000000000e3
:1025f80000000000000000000000000000000000d3
:1026080000000000000000000000000000000000c2
:10261800000000003c3000008a020000800000003a
:10262800cc3400000800000080000000da3400000c
:102638000400000080000000ae3400001e0000000e
:1026480080000000603400002800000080000000c6
:102658003e7f00000200000080000000407f000074
:10266800c000000080000000001000003c200000b6
:10267800820000000000000000472100493baa003a
:1026880029c93b0027dd16003caa2900493cfc006b
:10269800717b3c0027dd96003c500100b03c600097
:1026a80023c93c008847e2003c986900fb3cd40001
:1026b800450a3d00d0d516003dcb6500233dc70037
:1026c800f52f3d00c2853c003db11400493d940002
:1026d800a2553d00773062003d59be006e3d300086
:1026e8004b7b3d007deb83003d6231008a3dc0009d
:1026f80076903d0099bb96003d7100009d3dc3005a
:1027080044a33d001689a9003d5ccc00af3da10063
:102718000fb63d006152bc003d9a9400c23d4d0089
:10272800d6c83d007a17cf003d215800d53dc800d6
:1027380098db3d0062d8e1003d761700e83d0400d3
:1027480056ee3d000c94f4003d8dd100fa3d440056
:1027580087003e007fa503003e33c300063ea40069
:10276800e0093e00d2fd0c003e7a1a00103e22001d
:1027780037133e00435316003edf6e00193e370004
:102788008a1c3e004ca51f003edbbf00223e2700ee
:10279800da253e00edf328003e6f0d002c3e6c005c
:1027a800262f3e00e23e32003e155700353ec1005e
:1027b8006e383e00e8853b003ecb9c003e3e29003b
:1027c800b3413e0000c944003e51de00473e5e0072
:1027d800f34a3e00e6074e003ea41b00513e1f0090
:1027e8002f543e00144257003e8254005a3e6b005c
:1027f800665d3e00cd7760003e668800633ebb00a4
:1028080098663e008ba869003e91b7006c3e1100a7
:10281800c66f3e000bd472003e7ee100753e280074
:10282800ee783e008ffa7b003e2d06007f3e810049
:1028380008813e00a88d82003e8c1200843e2d0047
:1028480097853e00481b87003e419f00883ed50083
:10285800228a3e0005a68b003ef228008d3e7a00b3
:10286800ab8e3e00be2d90003e9faf00913e1a00f9
:1028780031933e0031b294003e053300963e740019
:10288800b3973e007f3399003e46b3009a3e8700d7
:10289800329c3e0085b19d003e1f30009f3e530094
:1028a800aea03e00232ca2003e8fa900a33e7400d8
:1028b80026a53e0016a3a6003e541f00a83e2c00e5
:1028c8009ba93e007f16ab003e8e9100ac3e1700e0
:1028d8000cae3e003c86af003efcff00b03e570009
:1028e80079b23e002cf2b3003e9c6a00b53ea800c7
:1028f800e2b63e002d5ab8003e4ed100b93ee9007e
:1029080047bb3e001fbebc003ef03300be3e3b004e
:10291800a9bf3e00001ec1003e609200c23e5b009f
:1029280006c43e00af79c5003ec0ec00c63e290093
:102938005fc83e002dd1c9003eab4200cb3ea2008d
:10294800b3cc3e003524ce003e429400cf3ec900b1
:1029580003d13e00c972d2003e43e100d33e3700a6
:102968004fd53e00c7bcd6003eae2900d83e310048
:1029780096d93e000c02db003e836d00dc3e510020
:10298800d8dd3e009a42df003e7eac00e03eba0051
:1029980015e23e006f7ee3003e7de600e43e270040
:1029a8004ee63e0028b5e7003ea41b00e93e99002c
:1029b80081ea3e00e6e6eb003ead4b00ed3eee0060
:1029c800afee3e008813f0003e9b7600f13e2700f4
:1029d800d9f23e000c3bf4003e499c00f53e000055
:1029e800fdf63e00315df8003e99bc00f93e9b00c3
:1029f8001bfb3e00d579fc003e88d700fd3eb500a4
:102a080034ff3e008c4800003f7bf600003f160074
:102a1800a4013f006e5102003f61fe00023f110019
:102a2800ab033f006d5704003f750300053f2900c5
:102a3800af053f008a5a06003fa70500073f600020
:102a4800b0073f00c45a08003fe60400093fa3004e
:102a5800ae093f000c580a003f2101000b3fe3007c
:102a6800a90b3f0050520c003f6afa000c3f1f00b0
:102a7800a20d3f0080490e003f9ef0000e3f460029
:102a8800970f3f00ab3d10003face300103f5900eb
:102a980089113f00a12e12003fa6d300123f360035
:102aa80078133f00821c14003f59c000143fed000a
:102ab80063153f001c0716003fe7a900163f5e009c
:102ac8004c173f0070ee17003f2e9000183f87000c
:102ad80031193f007cd219003f1d73001a3f59007d
:102ae800131b3f0031b31b003fb552001c3fd400fd
:102af800f11c3f008e901d003fe42e001e3fe600b3
:102b0800cc1e3f00726a1f003fab0700203f7f00ca
:102b1800a4203f00ee4021003ff9dc00213f9e0049
:102b280078223f00e01323003fbcae00233f34006f
:102b380049243f0047e324003ff67c00253f40003e
:102b480016263f0014af26003f954700273fb100e7
:102b5800df273f00577728003f990e00293f76006e
:102b6800a5293f00de3b2a003ff2d1002a3f900012
:102b7800672b3f00b9fc2b003f8e91002c3fee00e5
:102b8800252d3f00e9b92d003f6e4d002e3f8f00e7
:102b9800e02e3f003b732f003f810500303f63006c
:102ba80097303f00d02831003fc7b900313f5a0065
:102bb8004a323f0088da32003f2f6a00333f8300f1
:102bc800f9333f00518834003fb91600353fad0056
:102bd800a4353f003c3236003f55bf00363ff90070
:102be8004b373f0027d837003ff16300383f460096
:102bf800ef383f00257a39003f8e04003a3f8200c3
:102c08008e3a3f0011183b003f2ba1003b3fbf000d
:102c1800293c3f00eeb13c003fa839003d3fec00a5
:102c2800c03d3f00bb473e003f14ce003e3ff8008a
:102c3800533f3f0055d93f003f4e5e00403fd20012
:102c4800e2403f00cf6641003f68ea00413f7a001a
:102c58006d423f0017f042003f3f7200433ff100d2
:102c6800f3433f002e7544003fe4f500443f250040
:102c780076453f00f1f545003f477500463f170090
:102c8800f4463f00717247003f56f000473fb500d9
:102c98006d483f009eea48003f026700493fef0049
:102ca800e2493f00685e4a003f5ad9004a3fd600d1
:102cb800534b3f00cdcd4b003f4e47004c3f4800a3
:102cc800c04c3f00ce384d003fcdb0004d3f4600d0
:102cd800284e3f00499f4e003fd715004f3fdf0069
:102ce8008b4f3f00600150003f5c7600503fe20090
:102cf800ea503f00e15e51003f5bd200513f5f0068
:102d080045523f00dcb752003fd42900533f5600dc
:102d18009b533f00410c54003fb77c00543fa70031
:102d2800ec543f00105c55003ff3ca00553f60006b
:102d380039563f0037a756003f981400573f730095
:102d480081573f00c8ed57003f865900583fce00d5
:102d5800c4583f00902f59003fcc9900593f82003a
:102d6800035a3f00b16c5a003f5ad5005a3f7d00c4
:102d78003d5b3f0009a55b003f200c005c3fb000b5
:102d8800725c3f00a9d85c003f1d3e005d3f1a0001
:102d9800a35d3f0081075e003f516b005e3fab00c3
:102da800ce5e3f006e315f003fbc93005f3f730013
:102db800f55f3f00935660003f3db700603f50000d
:102dc80017613f00de7661003fe5d500613f5500a1
:102dd80034623f003e9262003fa2ef00623f6e0005
:102de8004c633f00b5a863003f750400643f9e0034
:102df8005f643f0041ba64003f4d1400653fd20054
:102e08006d653f00d2c665003f3a1f00663f0c0063
:102e180077663f0057ce66003f1c2500673f4a0093
:102e28007b673f00f2d067003f032600683f7d00c4
:102e38007a683f0070ce68003fcd2100693fa3004b
:102e480074693f00e3c669003f9c18006a3fbe00f2
:102e5800696a3f0049ba6a003f4e0a006b3fbc00ee
:102e6800596b3f0093a86b003fe4f6006b3f9e0050
:102e7800446c3f00d1916c003f5dde006c3f630005
:102e88002a6d3f00d1756d003fbac0006d3f0b0041
:102e98000b6e3f00c5546e003fe99d006e3f750004
:102ea800e66e3f007b2e6f003fda75006f3fb20081
:102eb800bc6f3f00040370003fae4800703fc10084
:102ec8008d703f004ed270003f441600713fa30042
:102ed80059713f006b9c71003f9cde00713f3600ca
:102ee80020723f00396172003fb6a100723f8b002b
:102ef800e1723f00da2073003f815f00733fa10059
:102f08009d733f002bdb73003f0d1800743f690071
:102f180054743f002e9074003f4bcb00743fe20086
:102f280005753f00e23f75003f3a7900753f0c0098
:102f3800b2753f0046ea75003fd92100763fe600aa
:102f480058763f004b8f76003f19c500763f6100e9
:102f5800fa763f00012f77003f0b6300773f7d0033
:102f680096773f0058c977003f8bfb00773f3800c2
:102f78002d783f003e5e78003fbd8e00783f94007c
:102f8800be783f00d5ed78003f7e1c00793f800079
:102f98004a793f00fb7779003fcfa400793f0b00c7
:102fa800d1793f00b1fc79003fbf27007a3f370055
:102fb800527a3f00077c7a003f40a5007a3fe20042
:102fc800cd7a3f00edf57a003f501d007b3f1c0095
:102fd800447b3f00516a7b003fef8f007b3fe50059
:102fe800b47b3f0045d97b003f0dfd007b3f3e0091
:102ff800207c3f00c8427c003fbb64007c3f160039
:10300800867c3f00dba67c003ff8c6007c3f7d0045
:10301800e67c3f005c057d003fa323007d3f530015
:10302800417d3f006c5e7d003fdd7a007d3fb7004b
:10303800967d3f00fbb17d003f96cc007d3f9b0015
:10304800e67d3f0008007e003fce18007e3ffd0071
:10305800307e3f0084487e003f855f007e3fcd0084
:10306800757e3f008f8b7e003fa9a0007e3f2d001c
:10307800b57e3f0008c97e003f4ddc007e3ffa0068
:10308800ee7e3f0000017f003f6f12007f3f360059
:10309800237f3f0066337f003fff42007f3ff00001
:1030a800517f3f004a607f003ffc6d007f3f180062
:1030b8007b7f3f009c877f003f7993007f3fbf0065
:1030c8009e7f3f006da97f003f74b3007f3fd30010
:1030d800bc7f3f009cc57f003fcdcd007f3f670090
:1030e800d57f3f0059dc7f003fa4e2007f3f5700b7
:1030f800e87f3f0074ed7f003fe9f1007f3fc700a4
:10310800f57f3f000ef97f003fadfb007f3fa40035
:10311800fd7f3f0015ff7f003fceff007f3f00008f
:1031280000803f008bff7f003f6dfe007f3fb900ae
:10313800fc7f3f006efa7f003f7bf7007f3ff10086
:10314800f37f3f00bfef7f003ff7ea007f3f970024
:10315800e57f3f008fdf7f003ff1d8007f3fab0066
:10316800d17f3f00cdc97f003f59c1007f3f3d005f
:10317800b87f3f0079ae7f003f2fa4007f3f2d002e
:10318800997f3f00a48d7f003f7381007f3fac0093
:10319800747f3f003c677f003f3659007f3f8800bf
:1031a8004a7f3f00433b7f003f672b007f3fe300a0
:1031b8001a7f3f00c8097f003f05f8007e3fac003a
:1031c800e57e3f00bbd27e003f23bf007e3ff30079
:1031d800aa7e3f002d967e003fbf80007e3fba004a
:1031e8006a7e3f001e547e003fda3c007e3fff00af
:1031f800247e3f007c0c7e003f62f3007d3fb200de
:10320800d97d3f0059bf7d003f6aa4007d3fe300a0
:10321800887d3f00b56c7d003ff04f007d3f9400f6
:10322800327d3f0090147d003f06f6007c3fc300ce
:10323800d67c3f00fab67c003f8996007c3f82002e
:10324800757c3f00d2537c003f9c31007c3fbf001f
:103258000e7c3f004aeb7b003f2ec7007b3f7b0084
:10326800a27b3f00317d7b003f4f57007b3fc6006c
:10327800307b3f00a6097b003fefe1007a3fa100c9
:10328800b97a3f00bc907a003f3067007a3f0c0063
:103298003d7a3f0051127a003fffe600793f060071
:1032a800bb793f00758e79003f4e6100793f8f00f2
:1032b80033793f003a0579003f4dd600783fb90091
:1032c800a6783f008e7678003fcc4500783f7200a4
:1032d80014783f0082e277003ffbaf00773fcc00d5
:1032e8007c773f00174977003fba1400773fd70033
:1032f800df763f004caa76003f2a7400763f7100c3
:103308003d763f00210676003f3ace00753fbc006f
:1033180095753f00a75c75003ffb2200753fa7002d
:10332800e8743f00cdad74003f5c7200743f5400f8
:1033380036743f00b5f973003f6fbc00733fa200bd
:103348007e733f003e4073003f430100733fb1006e
:10335800c1723f00888172003fc84000723f8200fe
:10336800ff713f0094bd71003f0f7b00713f040067
:1033780038713f0062f470003f18b000703f480099
:103388006b703f00e12570003ff4df006f3f5f0086
:10339800996f3f0044526f003f810a006f3f37002a
:1033a800c26e3f0068796e003ff12f006e3ff30058
:1033b800e56d3f005f9b6d003f3350006d3f71002e
:1033c800046d3f0028b86c003f486b006c3fd2008a
:1033d8001d6c3f00d5cf6b003f4181006b3f16004d
:1033e800326b3f0065e26a003f1d92006a3f3e0073
:1033f800416a3f00d8ef69003fdc9d00693f490002
:103408004b693f002ff868003f90a400683f4800d0
:1034180050683f008bfb67003f26a600673f3c00d3
:1034280050673f00caf966003fc2a200663f3400f9
:103438004b663f000ef365003f639a00653f20002e
:1034480041653f0058e764003ff88c00643f120074
:1034580032643f00a6d663003fa27a00633f19009a
:103468001e633f0009c162003f636300623f36008c
:1034780005623f0072a661003f284700613f58007f
:10348800e7603f00018760003f142600603fa0000e
:10349800c45f3f00a6625f003f2600005f3f0f0049
:1034a8009d5e3f0071395e003f5ed5005d3fa40020
:1034b800705d3f00740b5d003fbea5005c3f70006f
:1034c8003f5c3f00aed85b003f5471005b3f740027
:1034d800095b3f000ea15a003f3238005a3fc00036
:1034e800ce593f00c76459003f48fa00583f43008f
:1034f8008f583f00b82358003fa6b700573f0e002b
:103508004b573f0001de56003f5d7000563f4300b9
:1035180002563f00929355003f6c2400553fc0006f
:10352800b4543f008d4454003fd4d300533fa60009
:1035380062533f00f1f052003fa67e00523ff60072
:103548000b523f00af9851003ff22400513faf00ab
:10355800b0503f00e63b50003fa8c6004f3fe30095
:10356800504f3f00a9da4e003fd863004e3fa200fb
:10357800ec4d3f00d6744d003f93fc004c3fdc00ff
:10358800834c3f009e0a4c003fda90004b3fa0005e
:10359800164b3f00f19b4a003fbc20004a3f1200f7
:1035a800a5493f00e12849003f3bac00483f0e00d9
:1035b8002f483f006cb147003f553300473fb700e5
:1035c800b4463f00a43546003f1cb600453f1e00e8
:1035d80036453f009ab544003fa03400443f3100cf
:1035e800b3433f003c3143003fe2ae00423f02009c
:1035f8002c423f00aca841003fe12400413fa1001c
:10360800a0403f00eb1b40003faf96003f3f0e003d
:10361800113f3f00f88a3e003f5c04003e3f5b00dc
:103628007d3d3f00d3f53c003fe76d003c3f860001
:10363800e53b3f00af5c3b003f63d3003a3fa1004e
:10364800493a3f006abf39003fbd3400393fac00fa
:10365800a9383f00151e38003f199200373fb800bf
:1036680005373f00d17836003f85eb00353fc40071
:103678005d353f008dcf34003ff24000343fe2001b
:10368800b1333f006c2233003f819200323f21006a
:1036980002323f005c7131003f22e000303f83007e
:1036a8004e303f006fbc2f003ff629002f3f070028
:1036b800972e3f00b4032e003ffc6f002d3fcf0034
:1036c800db2c3f002c472c003f35b2002b3fc900b4
:1036d8001c2b3f00f9862a003fb3f000293f180051
:1036e8005a293f0009c328003f842b00283fab001c
:1036f80093273f006efb26003fbb6200263fa300d6
:10370800c9253f00273025003f469600243f010089
:10371800fc233f00566123003f47c600223fd400e8
:103728002a223f00fc8e21003fbff200203f1d00ef
:1037380056203f0017b91f003fbd1b001f3fed007b
:103748007d1e3f00cadf1d003f3141001d3f440080
:10375800a21c3f0004031c003f4e63001b3f4400b3
:10376800c31a3f00d5221a003f138200193fdb001d
:10377800e0183f00603f18003f6f9d00173f2b0087
:10378800fb163f00825816003f85b500153f3400f0
:1037980012153f007e6e14003f64ca00133ff60006
:1037a80025133f00348112003f0edc00113f9300c7
:1037b80036113f00b49010003f81ea000f3ffa0035
:1037c800430f3f001f9d0e003fe0f5000d3f4d00e9
:1037d8004e0d3f0065a60c003f2afe000b3f8a00f5
:1037e800550b3f00a8ac0a003f6003000a3fc50024
:1037f80059093f00e6af08003fa30500083f0c0049
:103808005b073f0021b006003fe20400063f60006e
:1038180059053f0079ad04003f500100043fc10045
:1038280054033f00f0a702003fcafa00013f5100cd
:103838004d013f00959f00003fe7e200ff3e1f005b
:1038480086fe3e00d028fd003edaca00fb3e3c0062
:103858006cfa3e00f60cf9003e2aad00f73eb600c1
:103868004cf63e00bcebf4003e1a8a00f33ef20030
:1038780027f23e0022c5f0003ecc6100ef3ef0008a
:10388800fded3e006b99ec003e613400eb3eaf006d
:10389800cee93e007768e8003eb80100e73e7400d4
:1038a8009ae53e008732e4003e15ca00e23e1c005d
:1038b80061e13e009df7df003e978d00de3eea00a5
:1038c80022dd3e00d8b7db003e1f4c00da3e010087
:1038d800e0d83e003b73d7003e100600d63e5f009e
:1038e80098d43e00062ad3003e49bb00d13e0600cc
:1038f8004cd03e003cdcce003e0d6c00cd3e370087
:10390800fbcb3e00fc89ca003e3b1800c93ef400d0
:10391800a5c73e004833c6003e16c000c43e5e0040
:103928004cc33e0041d8c1003e9d6300c03e950097
:10393800eebe3e000779bd003e150300bc3e9c006c
:103948008cba3e00be15b9003e7c9e00b73eb3005f
:1039580026b63e0064aeb4003ed23500b33eba008f
:10396800bcb13e003d43b0003e3ac900ae3ed30074
:103978004ead3e0028d4ab003ef75800aa3e4000aa
:10398800dda83e004661a7003ee7e400a53e010031
:1039980068a43e00d9eaa2003e4c6d00a13e390061
:1039a800ef9f3e00e3709e003e28f2009c3ee70039
:1039b800729b3e0062f399003e9b7300983e4d0057
:1039c800f3963e00bd7295003ea6f100933e6d0051
:1039d80070923e00afee90003ead6c008f3e460008
:1039e800ea8d3e007b678c003e6de4008a3e1c0039
:1039f80061893e0044dd87003e4b5900863eed005c
:103a0800d4843e002b5083003e25cb00813edd0050
:103a180045803e005e807d003e7e74007a3e160042
:103a280068773e00e65a74003e2f4d00713ef30061
:103a38003e6e3e00ec2f6b003ea32000683e9000d7
:103a480010653e003b0062003e1cef005e3e7600c3
:103a5800dd5b3e004bcb58003e99b800553e6100f7
:103a6800a5523e00e6914f003ea27d004c3ed70095
:103a780068493e00ca5346003e363e00433e1c009d
:103a880028403e007b113d003e55fa00393eeb00d0
:103a9800e2363e00fbca33003e85b200303ecc0021
:103aa800992d3e008d802a003e0a6700273e0100be
:103ab8004d243e00b53221003ee317001e3e8b0028
:103ac800fc1a3e0033e117003e11c500143eef001a
:103ad800a8113e00488c0e003e5d6f000b3eec00c6
:103ae80051083e00373405003e401600023e0b00e8
:103af800f0fd3d0010b3f7003d087500f13d0000f2
:103b080037eb3d00ecf7e4003d52b800de3db8006d
:103b180078d83d001138d2003de4f600cb3d3100a5
:103b2800b5c53d007e73bf003dbe3000b93dfe0007
:103b3800edb23d00b9aaac003ded6600a63d9a0085
:103b480022a03d0048de99003d709900933d110088
:103b5800548d3d00b20e87003d47c800803dc5002a
:103b680004753d00ee7768003d0cea005b3d1d00e2
:103b78005b4f3d003acd42003d3e3d00363d4f0093
:103b8800ae293d00541e1d003d4c8d00103d5000d7
:103b9800fd033d0090d8ee003c67b400d53c5800ca
:103ba80092bc3c002f6ea3003c064a008a3cba0037
:103bb8004b623c00680330003c2e7600fb3b27003c
:103bc800dd963b000e32c9003a0e3200c9ba270012
:103bd800dd96bb002e76fb00bb68030030bcba0044
:103be8004b62bc00064a8a00bc2f6e00a3bc58007a
:103bf80092bcbc0067b4d500bc90d800eebc5000a5
:103c0800fd03bd004c8d1000bd541e001dbd4f00ae
:103c1800ae29bd003e3d3600bd3acd0042bd1d0077
:103c28005b4fbd000cea5b00bdee770068bdc500c8
:103c38000475bd0047c88000bdb20e0087bd1100e5
:103c4800548dbd0070999300bd48de0099bd9a005f
:103c580022a0bd00ed66a600bdb9aa00acbdfe005d
:103c6800edb2bd00be30b900bd7e7300bfbd3100ee
:103c7800b5c5bd00e4f6cb00bd113800d2bdb80013
:103c880078d8bd0052b8de00bdecf700e4bd0000f6
:103c980037ebbd000875f100bd10b300f7bd0b0090
:103ca800f0fdbd0040160200be37340005beec0032
:103cb8005108be005d6f0b00be488c000ebeef00c1
:103cc800a811be0011c51400be33e10017be8b0059
:103cd800fc1abe00e3171e00beb5320021be01006b
:103ce8004d24be000a672700be8d80002abecc0086
:103cf800992dbe0085b23000befbca0033beeb0072
:103d0800e236be0055fa3900be7b11003dbe1c00ec
:103d18002840be00363e4300beca530046bed70008
:103d28006849be00a27d4c00bee691004fbe61000e
:103d3800a552be0099b85500be4bcb0058be7600c0
:103d4800dd5bbe001cef5e00be3b000062be900063
:103d58001065be00a3206800beec2f006bbef30008
:103d68003e6ebe002f4d7100bee65a0074be1600ae
:103d78006877be007e747a00be5e80007dbedd007e
:103d88004580be0025cb8100be2b500083beed00d0
:103d9800d484be004b598600be44dd0087be1c009b
:103da8006189be006de48a00be7b67008cbe460058
:103db800ea8dbe00ad6c8f00beafee0090be6d0008
:103dc8007092be00a6f19300bebd720095be4d0074
:103dd800f396be009b739800be62f30099bee7009d
:103de800729bbe0028f29c00bee370009ebe3900a4
:103df800ef9fbe004c6da100bed9ea00a2be010033
:103e080068a4be00e7e4a500be466100a7be400066
:103e1800dda8be00f758aa00be28d400abbed30068
:103e28004eadbe003ac9ae00be3d4300b0beba00ba
:103e3800bcb1be00d235b300be64ae00b4beb300a0
:103e480026b6be007c9eb700bebe1500b9be9c005b
:103e58008cbabe001503bc00be077900bdbe950034
:103e6800eebebe009d63c000be41d800c1be5e006c
:103e78004cc3be0016c0c400be483300c6bef40022
:103e8800a5c7be003b18c900befc8900cabe3700e2
:103e9800fbcbbe000d6ccd00be3cdc00cebe0600e8
:103ea8004cd0be0049bbd100be062a00d3be5f007d
:103eb80098d4be001006d600be3b7300d7be0100e2
:103ec800e0d8be001f4cda00bed8b700dbbeea005f
:103ed80022ddbe00978dde00be9df700dfbe1c0010
:103ee80061e1be0015cae200be873200e4be74007c
:103ef8009ae5be00b801e700be776800e8beaf00eb
:103f0800cee9be006134eb00be6b9900ecbef00058
:103f1800fdedbe00cc61ef00be22c500f0bef20090
:103f280027f2be001a8af300bebceb00f4beb6004e
:103f38004cf6be002aadf700bef60c00f9be3c00f8
:103f48006cfabe00dacafb00bed02800fdbe1f0016
:103f580086febe00e7e2ff00be959f0000bf51004d
:103f68004d01bf00cafa0100bff0a70002bfc1009f
:103f78005403bf0050010400bf79ad0004bf6000c6
:103f88005905bf00e2040600bf21b00006bf0c00bf
:103f98005b07bf00a3050800bfe6af0008bfc50068
:103fa8005909bf0060030a00bfa8ac000abf8a0015
:103fb800550bbf002afe0b00bf65a6000cbf4d00c5
:103fc8004e0dbf00e0f50d00bf1f9d000ebffa00ab
:103fd800430fbf0081ea0f00bfb4900010bf9300e9
:103fe8003611bf000edc1100bf34810012bff6008d
:103ff8002513bf0064ca1300bf7e6e0014bf3400cf
:104008001215bf0085b51500bf82580016bf2b00da
:10401800fb16bf006f9d1700bf603f0018bfdb0095
:10402800e018bf0013821900bfd522001abf440050
:10403800c31abf004e631b00bf0403001cbf44002b
:10404800a21cbf0031411d00bfcadf001dbfed002b
:104058007d1ebf00bd1b1f00bf17b9001fbf1d007d
:104068005620bf00bff22000bffc8e0021bfd40045
:104078002a22bf0047c62200bf56610023bf0100a5
:10408800fc23bf0046962400bf27300025bfa300ad
:10409800c925bf00bb622600bf6efb0026bfab0070
:1040a8009327bf00842b2800bf09c30028bf18002e
:1040b8005a29bf00b3f02900bff986002abfc900fa
:1040c8001c2bbf0035b22b00bf2c47002cbfcf00e4
:1040d800db2cbf00fc6f2d00bfb403002ebf070010
:1040e800972ebf00f6292f00bf6fbc002fbf83009b
:1040f8004e30bf0022e03000bf5c710031bf2100ac
:104108000232bf0081923200bf6c220033bfe2004e
:10411800b133bf00f2403400bf8dcf0034bfc400bc
:104128005d35bf0085eb3500bfd1780036bfb800dc
:104138000537bf0019923700bf151e0038bfac0005
:10414800a938bf00bd343900bf6abf0039bfa1001c
:10415800493abf0063d33a00bfaf5c003bbf86005b
:10416800e53bbf00e76d3c00bfd3f5003cbf5b00fb
:104178007d3dbf005c043e00bff88a003ebf0e00d4
:10418800113fbf00af963f00bfeb1b0040bfa1002f
:10419800a040bf00e1244100bfaca80041bf02001d
:1041a8002c42bf00e2ae4200bf3c310043bf3100a9
:1041b800b343bf00a0344400bf9ab50044bf1e00fb
:1041c8003645bf001cb64500bfa4350046bfb70042
:1041d800b446bf0055334700bf6cb10047bf0e005f
:1041e8002f48bf003bac4800bfe1280049bf120080
:1041f800a549bf00bc204a00bff19b004abfa000f0
:10420800164bbf00da904b00bf9e0a004cbfdc0083
:10421800834cbf0093fc4c00bfd674004dbfa20076
:10422800ec4dbf00d8634e00bfa9da004ebfe300d3
:10423800504fbf00a8c64f00bfe63b0050bfaf00bd
:10424800b050bf00f2245100bfaf980051bff60034
:104258000b52bf00a67e5200bff1f00052bfa6006d
:104268006253bf00d4d35300bf8d440054bfc00075
:10427800b454bf006c245500bf92930055bf43004f
:104288000256bf005d705600bf01de0056bf0e002b
:104298004b57bf00a6b75700bfb8230058bf43000d
:1042a8008f58bf0048fa5800bfc7640059bfc00004
:1042b800ce59bf0032385a00bf0ea1005abf740051
:1042c800095bbf0054715b00bfaed8005bbf7000d4
:1042d8003f5cbf00bea55c00bf740b005dbfa400bf
:1042e800705dbf005ed55d00bf7139005ebf0f0015
:1042f8009d5ebf0026005f00bfa662005fbfa000f2
:10430800c45fbf0014266000bf01870060bf58006b
:10431800e760bf0028476100bf72a60061bf360092
:104328000562bf0063636200bf09c10062bf190074
:104338001e63bf00a27a6300bfa6d60063bf120047
:104348003264bf00f88c6400bf58e70064bf2000e7
:104358004165bf00639a6500bf0ef30065bf340076
:104368004b66bf00c2a26600bfcaf90066bf3c0028
:104378005067bf0026a66700bf8bfb0067bf4800d9
:104388005068bf0090a46800bf2ff80068bf4900bc
:104398004b69bf00dc9d6900bfd8ef0069bf3e00d4
:1043a800416abf001d926a00bf65e2006abf16003d
:1043b800326bbf0041816b00bfd5cf006bbfd2000d
:1043c8001d6cbf00486b6c00bf28b8006cbf710043
:1043d800046dbf0033506d00bf5f9b006dbff300dd
:1043e800e56dbf00f12f6e00bf6879006ebf370022
:1043f800c26ebf00810a6f00bf4452006fbf5f00ea
:10440800996fbf00f4df6f00bfe1250070bf48005f
:104418006b70bf0018b07000bf62f40070bf04007a
:104428003871bf000f7b7100bf94bd0071bf82005f
:10443800ff71bf00c8407200bf88810072bfb10021
:10444800c172bf0043017300bf3e400073bfa200aa
:104458007e73bf006fbc7300bfb5f90073bf540013
:104468003674bf005c727400bfcdad0074bfa70086
:10447800e874bf00fb227500bfa75c0075bfbc00d5
:104488009575bf003ace7500bf21060076bf710052
:104498003d76bf002a747600bf4caa0076bfd700cd
:1044a800df76bf00ba147700bf17490077bfcc008a
:1044b8007c77bf00fbaf7700bf82e20077bf720056
:1044c8001478bf00cc457800bf8e760078bfb9005d
:1044d800a678bf004dd67800bf3a050079bf8f0097
:1044e8003379bf004e617900bf758e0079bf060031
:1044f800bb79bf00ffe67900bf5112007abf0c00fc
:104508003d7abf0030677a00bfbc90007abfa10037
:10451800b97abf00efe17a00bfa609007bbfc600e9
:10452800307bbf004f577b00bf317d007bbf7b00d6
:10453800a27bbf002ec77b00bf4aeb007bbfbf003a
:104548000e7cbf009c317c00bfd253007cbf820030
:10455800757cbf0089967c00bffab6007cbfc3009b
:10456800d67cbf0006f67c00bf9014007dbf940087
:10457800327dbf00f04f7d00bfb56c007dbfe3000a
:10458800887dbf006aa47d00bf59bf007dbfb2000f
:10459800d97dbf0062f37d00bf7c0c007ebfff00a9
:1045a800247ebf00da3c7e00bf1e54007ebfba00e6
:1045b8006a7ebf00bf807e00bf2d96007ebff300dd
:1045c800aa7ebf0023bf7e00bfbbd2007ebfac0067
:1045d800e57ebf0005f87e00bfc809007fbfe30085
:1045e8001a7fbf00672b7f00bf433b007fbf880057
:1045f8004a7fbf0036597f00bf3c67007fbfac00d1
:10460800747fbf0073817f00bfa48d007fbf2d0022
:10461800997fbf002fa47f00bf79ae007fbf3d0008
:10462800b87fbf0059c17f00bfcdc9007fbfab00b5
:10463800d17fbf00f1d87f00bf8fdf007fbf970019
:10464800e57fbf00f7ea7f00bfbfef007fbff10043
:10465800f37fbf007bf77f00bf6efa007fbfb90012
:10466800fc7fbf006dfe7f00bf8bff007fbf000097
:104678000080bf00ceff7f00bf15ff007fbfa400f2
:10468800fd7fbf00adfb7f00bf0ef9007fbfc700f5
:10469800f57fbf00e9f17f00bf74ed007fbf5700d1
:1046a800e87fbf00a4e27f00bf59dc007fbf67003e
:1046b800d57fbf00cdcd7f00bf9cc5007fbfd30095
:1046c800bc7fbf0074b37f00bf6da9007fbfbf0070
:1046d8009e7fbf0079937f00bf9c87007fbf180033
:1046e8007b7fbf00fc6d7f00bf4a60007fbff0008a
:1046f800517fbf00ff427f00bf6633007fbf360097
:10470800237fbf006f127f00bf0001007fbffa0048
:10471800ee7ebf004ddc7e00bf08c9007ebf2d00c5
:10472800b57ebf00a9a07e00bf8f8b007ebfcd00e5
:10473800757ebf00855f7e00bf8448007ebffd0098
:10474800307ebf00ce187e00bf0800007ebf9b00f1
:10475800e67dbf0096cc7d00bffbb1007dbfb700f2
:10476800967dbf00dd7a7d00bf6c5e007dbf530083
:10477800417dbf00a3237d00bf5c05007dbf7d0098
:10478800e67cbf00f8c67c00bfdba6007cbf160035
:10479800867cbf00bb647c00bfc842007cbf3e0073
:1047a800207cbf000dfd7b00bf45d9007bbfe50025
:1047b800b47bbf00ef8f7b00bf516a007bbf1c003a
:1047c800447bbf00501d7b00bfedf5007abfe200bf
:1047d800cd7abf0040a57a00bf077c007abf3700ba
:1047e800527abf00bf277a00bfb1fc0079bf0b0027
:1047f800d179bf00cfa47900bffb770079bf8000d3
:104808004a79bf007e1c7900bfd5ed0078bf9400bf
:10481800be78bf00bd8e7800bf3e5e0078bf38000e
:104828002d78bf008bfb7700bf58c90077bf7d008c
:104838009677bf000b637700bf012f0077bf610039
:10484800fa76bf0019c57600bf4b8f0076bfe60029
:104858005876bf00d9217600bf46ea0075bf0c0024
:10486800b275bf003a797500bfe23f0075bfe2003c
:104878000575bf004bcb7400bf2e900074bf690054
:104888005474bf000d187400bf2bdb0073bfa10068
:104898009d73bf00815f7300bfda200073bf8b0078
:1048a800e172bf00b6a17200bf39610072bf360065
:1048b8002072bf009cde7100bf6b9c0071bfa3001b
:1048c8005971bf0044167100bf4ed20070bfc100bd
:1048d8008d70bf00ae487000bf04030070bfb20007
:1048e800bc6fbf00da756f00bf7b2e006fbf75000d
:1048f800e66ebf00e99d6e00bfc554006ebf0b0099
:104908000b6ebf00bac06d00bfd175006dbf6300ec
:104918002a6dbf005dde6c00bfd191006cbf9e00a8
:10492800446cbf00e4f66b00bf93a8006bbfbc00eb
:10493800596bbf004e0a6b00bf49ba006abfbe0080
:10494800696abf009c186a00bfe3c60069bfa3007c
:104958007469bf00cd216900bf70ce0068bf7d00bb
:104968007a68bf0003266800bff2d00067bf4a001c
:104978007b67bf001c256700bf57ce0066bf0c00d1
:104988007766bf003a1f6600bfd2c60065bfd20077
:104998006d65bf004d146500bf41ba0064bf9e003d
:1049a8005f64bf0075046400bfb5a80063bf6e00f4
:1049b8004c63bf00a2ef6200bf3e920062bf550089
:1049c8003462bf00e5d56100bfde760061bf5000ec
:1049d8001761bf003db76000bf93560060bf73000a
:1049e800f55fbf00bc935f00bf6e31005fbfab00d7
:1049f800ce5ebf00516b5e00bf8107005ebf1a002c
:104a0800a35dbf001d3e5d00bfa9d8005cbfb0001c
:104a1800725cbf00200c5c00bf09a5005bbf7d0075
:104a28003d5bbf005ad55a00bfb16c005abf820027
:104a3800035abf00cc995900bf902f0059bfce0030
:104a4800c458bf0086595800bfc8ed0057bf73004f
:104a58008157bf0098145700bf37a70056bf6000a2
:104a68003956bf00f3ca5500bf105c0055bfa700f8
:104a7800ec54bf00b77c5400bf410c0054bf560033
:104a88009b53bf00d4295300bfdcb70052bf5f005f
:104a98004552bf005bd25100bfe15e0051bfe2004a
:104aa800ea50bf005c765000bf60010050bfdf00d5
:104ab8008b4fbf00d7154f00bf499f004ebf460020
:104ac800284ebf00cdb04d00bfce38004dbf4800c6
:104ad800c04cbf004e474c00bfcdcd004bbfd600e9
:104ae800534bbf005ad94a00bf685e004abfef0067
:104af800e249bf0002674900bf9eea0048bfb5000f
:104b08006d48bf0056f04700bf71720047bf1700dd
:104b1800f446bf0047754600bff1f50045bf2500c4
:104b28007645bf00e4f54400bf2e750044bff10090
:104b3800f343bf003f724300bf17f00042bf7a0043
:104b48006d42bf0068ea4100bfcf660041bfd20096
:104b5800e240bf004e5e4000bf55d9003fbff8009d
:104b6800533fbf0014ce3e00bfbb47003ebfec0022
:104b7800c03dbf00a8393d00bfeeb1003cbfbf003b
:104b8800293cbf002ba13b00bf1118003bbf82008e
:104b98008e3abf008e043a00bf257a0039bf46001e
:104ba800ef38bf00f1633800bf27d80037bff900de
:104bb8004b37bf0055bf3600bf3c320036bfad0093
:104bc800a435bf00b9163500bf51880034bf830033
:104bd800f933bf002f6a3300bf88da0032bf5a00aa
:104be8004a32bf00c7b93100bfd0280031bf6300c7
:104bf8009730bf0081053000bf3b73002fbf8f0087
:104c0800e02ebf006e4d2e00bfe9b9002dbfee00ab
:104c1800252dbf008e912c00bfb9fc002bbf900042
:104c2800672bbf00f2d12a00bfde3b002abf760007
:104c3800a529bf00990e2900bf57770028bfb100ea
:104c4800df27bf0095472700bf14af0026bf4000ed
:104c58001626bf00f67c2500bf47e30024bf3400ba
:104c68004924bf00bcae2300bfe0130023bf9e0051
:104c78007822bf00f9dc2100bfee400021bf7f0091
:104c8800a420bf00ab072000bf726a001fbfe60068
:104c9800cc1ebf00e42e1e00bf8e90001dbfd400a6
:104ca800f11cbf00b5521c00bf31b3001bbf590037
:104cb800131bbf001d731a00bf7cd20019bf8700e9
:104cc8003119bf002e901800bf70ee0017bf5e00ac
:104cd8004c17bf00e7a91600bf1c070016bfed0060
:104ce8006315bf0059c01400bf821c0014bf3600f2
:104cf8007813bf00a6d31200bfa12e0012bf59001f
:104d08008911bf00ace31000bfab3d0010bf4600e7
:104d1800970fbf009ef00e00bf8049000ebf1f0016
:104d2800a20dbf006afa0c00bf5052000cbfe3008e
:104d3800a90bbf0021010b00bf0c58000abfa3003c
:104d4800ae09bf00e6040900bfc45a0008bf6000ee
:104d5800b007bf00a7050700bf8a5a0006bf290091
:104d6800af05bf0075030500bf6d570004bf1100f4
:104d7800ab03bf0061fe0200bf6e510002bf160008
:104d8800a401bf007bf60000bf8c480000bfb5003f
:104d980034ffbe0088d7fd00bed57900fcbe9b005d
:104da8001bfbbe0099bcf900be315d00f8be0000d7
:104db800fdf6be00499cf500be0c3b00f4be270082
:104dc800d9f2be009b76f100be881300f0beee005b
:104dd800afeebe00ad4bed00bee6e600ebbe9900bf
:104de80081eabe00a41be900be28b500e7be270083
:104df8004ee6be007de6e400be6f7e00e3beba006c
:104e080015e2be007eace000be9a4200dfbe510053
:104e1800d8ddbe00836ddc00be0c0200dbbe3100b5
:104e280096d9be00ae29d800bec7bc00d6be370092
:104e38004fd5be0043e1d300bec97200d2bec9003f
:104e480003d1be004294cf00be352400cebea200de
:104e5800b3ccbe00ab42cb00be2dd100c9be2900e9
:104e68005fc8be00c0ecc600beaf7900c5be5b001f
:104e780006c4be006092c200be001e00c1be3b0058
:104e8800a9bfbe00f033be00be1fbe00bcbee90015
:104e980047bbbe004ed1b900be2d5a00b8bea8000f
:104ea800e2b6be009c6ab500be2cf200b3be570045
:104eb80079b2be00fcffb000be3c8600afbe170052
:104ec8000caebe008e91ac00be7f1600abbe2c00af
:104ed8009ba9be00541fa800be16a300a6be74005e
:104ee80026a5be008fa9a300be232c00a2be530096
:104ef800aea0be001f309f00be85b1009dbe8700da
:104f0800329cbe0046b39a00be7f330099be74003f
:104f1800b397be0005339600be31b20094be1a00a6
:104f28003193be009faf9100bebe2d0090be7a00a7
:104f3800ab8ebe00f2288d00be05a6008bbed50044
:104f4800228abe00419f8800be481b0087be2d00f4
:104f58009785be008c128400bea88d0082be810099
:104f68000881be002d067f00be8ffa007bbe280098
:104f7800ee78be007ee17500be0bd40072be110053
:104f8800c66fbe0091b76c00be8ba80069bebb009f
:104f98009866be0066886300becd770060be6b0071
:104fa800665dbe0082545a00be14420057be1f0000
:104fb8002f54be00a41b5100bee607004ebe5e0083
:104fc800f34abe0051de4700be00c90044be2900b6
:104fd800b341be00cb9c3e00bee885003bbec1008d
:104fe8006e38be0015573500bee23e0032be6c007a
:104ff800262fbe006f0d2c00beedf30028be270043
:10500800da25be00dbbf2200be4ca5001fbe37005c
:105018008a1cbe00df6e1900be43530016be220074
:105028003713be007a1a1000bed2fd000cbea400d1
:10503800e009be0033c30600be7fa50003be4400de
:105048008700be008dd1fa00bd0c9400f4bd0400a9
:1050580056eebd007617e800bd62d800e1bdc80075
:1050680098dbbd002158d500bd7a1700cfbd4d0093
:10507800d6c8bd009a94c200bd615200bcbda10053
:105088000fb6bd005cccaf00bd168900a9bdc3003a
:1050980044a3bd0071009d00bd99bb0096bdc00032
:1050a8007690bd0062318a00bd7deb0083bd300083
:1050b8004b7bbd0059be6e00bd77300062bd9400c9
:1050c800a255bd00b1144900bdc285003cbdc70052
:1050d800f52fbd00cb652300bdd0d50016bdd4008b
:1050e800450abd009869fb00bc884700e2bc600027
:1050f80023c9bc005001b000bc27dd0096bcfc00f1
:10510800717bbc00aa294900bc27dd0016bcaa0097
:1051180029c9bb0047214900bb00000000805a0094
:105128008a203e005d0c17003e0e9600e2be560037
:1051380038803f00bc683f00bcc89b00d1be7000ef
:10514800023c3c006d687f003f808f00a2bedc00ff
:105158008fa13f008484ab003f974f00953fb40078
:105168003058bf0081796c00be9e2e00993e000029
:10517800ee330000480000008000000036340000d4
:105188002a0000008200000030313200333435003c
:105198003637380039414200434445004600300064
:1051a80031323300343536003738390061626300f4
:1051b8006465660000286e00756c6c0029000000ac
:1051c800c6320000a00000008200000001000000bc
:1051d8000000000000000a000000000000000000bd
:1051e800006400000000000000000000e803000068
:1051f8000000000000001000270000000000000070
:1052080000a08600010000000000000040420f00de
:1052180000000000000080009698000000000000d8
:105228000000e100f50500000000000000ca9a0037
:105238003b00000000000000e40b540002000000e6
:105248000000e80076481700000000000010a500e4
:10525800d4e8000000000000a0724e001809000009
:10526800000040007a10f3005a0000000080c600d9
:10527800a47e8d000300000000c16f00f2862300a9
:10528800000000008a5d78004563010000006400aa
:10529800a7b3b600e00d000000e889000423c700aa
:1052a8008a000000d43400000600000080000000de
:1052b800883400002600000082000000d534000079
:1052c80000d534000900000000020000d7340000b7
:1052d80000d734000e0201000000000000000000aa
:1052e80000000000060202000000000088340000f0
:1052f800de3400000200000082000000010000000f
:0453080000000000a1
:020000040000fa
:10530c005600fa00202f98006022b800042f980055
:10531c00152f98006022b80094a18900a5a18900de
:10532c006022b800048fbe003700370094a18100c2
:10533c00a5a1810004027800860420000e0343001e
:10534c00840078006022b800d2cc2c00c3ec23007f
:10535c000600780042040700800320000e00400085
:10536c004e229000de2290006e239000fe239000cf
:10537c00c50407004e189000de1890006e199000be
:10538c00fe1990000e2290009e2290002e23900079
:10539c00be239000270207006022b8002407980063
:1053ac003507980007003700000000002e0290001f
:1053bc00be02900061024200e0824a00240798007d
:1053cc00350798002e039000be039000f4182000bf
:1053dc0005002000840f5300858f5b00f2ff360020
:1053ec0094a18100a5a1810061025200e0825a00c3
:1053fc0094a18900a5a189001400200005002000bb
:10540c001e0f42005e974a00f47f2000050020002a
:10541c001e03be00840f5300858f5b00c3ff360054
:10542c00060320000e0343008000eb006022b8004e
:10543c00d2cc2c00c3f4230006007800080407002b
:10544c00000220000e0040000e1a90009e1a9000e0
:10545c002e1b9000be1b90008b0407000e109000ba
:10546c009e1090002e119000be1190004e129000d4
:10547c00de1290006e139000fe139000ed010700f9
:10548c0007003700000000002e029000be029000c2
:10549c0061024200e0824a00240798003507980018
:1054ac002e039000be039000f44f2300c500200093
:1054bc00840f5300858f5b00f2ff3600040520003b
:1054cc000e024200040078001003020000000000ed
:1054dc00040520000e024200040078001e030200a6
:1054ec0000000000780347008000eb006022b80049
:1054fc006011b80006007800d90307006800470067
:10550c004e0a9000de0a90006e0b9000fe0b90008d
:10551c005d0407004e009000de0090006e019000cc
:10552c00fe0190000e0a90009e0a90002e0b900037
:10553c00be0b9000bf0107000042eb000440780056
:10554c000080fa00000006000400fa00008fbe0084
:10555c001e02be00749f8900859f89000080fa009e
:10556c00000006000000fa0034a0810045a0810074
:10557c0002802600330020000400be0084040200d8
:10558c00000000000002be000400be000080fa0013
:10559c00000006000000fa0036a0810047a0810040
:1055ac0054a0810065a081000402530085825b0039
:1055bc0002802600330020000400be008404020098
:1055cc00000000000002be000400be002205020024
:1055dc00000000000002be0062f22500d34024004f
:1055ec000400be0000040200000000000002be0027
:1055fc00d49f8900e59f8900d49f8100e59f81009d
:10560c000400be00aa040200000000000002be005c
:10561c000400be000080fa00000006001c00fa0026
:10562c00889fbe0006030200000000000002be00be
:10563c0014a0890025a0890036a0810047a0810014
:10564c0014a0810025a08100041f430005974b0086
:10565c00789f8100899f81001e00be0022050200f8
:10566c00000000000002be00b2fd200093b4230035
:10567c000400be00d2050200000000000002be00c3
:10568c000401be000800be0044030200000000003c
:10569c000002be00b49f8900c59f890076a08100de
:1056ac0087a0810004808100158081000401be0068
:1056bc000600be00d2050200000000000002be0081
:1056cc000404be0096a08100a7a081002480810064
:1056dc00358081000401be000600be00d205020028
:1056ec00000000000002be000401be000800be0065
:1056fc0046030200000000000002be000404be00cd
:10570c00b6a08100c7a08100448081005580810033
:10571c000401be000600be00d2050200000000001d
:10572c000002be000401be000800be0046030200d9
:10573c00000000000002be000404be0026818100af
:10574c0037818100b49f8100c59f81000401be0098
:10575c000600be00d2050200000000000002be00e0
:10576c000401be000800be00460302000000000059
:10577c000002be00d4a08900e5a0890096a081009b
:10578c00a7a0810064808100758081000401be00a7
:10579c000600be00d2050200000000000002be00a0
:1057ac000404be0096a08100a7a081008480810023
:1057bc00958081000401be000600be00d2050200e7
:1057cc00000000000002be000401be000800be0084
:1057dc0046030200000000000002be000404be00ec
:1057ec00b6a08100c7a08100a4808100b580810093
:1057fc000401be000600be00d2050200000000003d
:10580c000002be000401be000800be0046030200f8
:10581c00000000000002be000404be0046818100ae
:10582c0057818100b49f8100c59f81000401be0097
:10583c000600be00d2050200000000000002be00ff
:10584c000401be000800be00460302000000000078
:10585c000002be00f4a0890005a18900b6a0810059
:10586c00c7a08100c4808100d58081000401be00e6
:10587c000600be00d2050200000000000002be00bf
:10588c000404be0096a08100a7a08100e4808100e2
:10589c00f58081000401be000600be00d2050200a6
:1058ac00000000000002be000401be000800be00a3
:1058bc0046030200000000000002be000404be000b
:1058cc00b6a08100c7a081000481810015818100f0
:1058dc000401be000600be00d2050200000000005c
:1058ec000002be000401be000800be004603020018
:1058fc00000000000002be000404be0066818100ae
:10590c0077818100b49f8100c59f81000401be0096
:10591c000600be00d2050200000000000002be001e
:10592c000401be000800be00460302000000000097
:10593c000002be0014a1890025a18900d4a0810019
:10594c00e5a0810074a0890085a08900f4a08100e5
:10595c0005a1810094a08900a5a0890014a1810053
:10596c0025a18100b4a08900c5a089008681810091
:10597c009781810074a0810085a081000401be0084
:10598c000600be00d2050200000000000002be00ae
:10599c000404be00a6818100b781810094a081001f
:1059ac00a5a081000401be000600be00d2050200c5
:1059bc00000000000002be000401be000800be0092
:1059cc0046030200000000000002be000404be00fa
:1059dc00c6818100d7818100b4a08100c5a081005f
:1059ec000401be000600be00d2050200000000004b
:1059fc000002be000401be000800be004603020007
:105a0c00000000000002be0005f0a200f49f890017
:105a1c0005a08900f49f810005a0810018c0b30087
:105a2c003233230033f323000400be00a60402002b
:105a3c000000000000027800e00f520001003c0062
:105a4c000044eb00e04f54000500320034332300d7
:105a5c0035f32300f49f890005a08900120037005c
:105a6c00f49f810005a0810018c0b30032332300dd
:105a7c0033f32b000400be00a2040200000000005f
:105a8c0000027800e00f5200010035000044eb00ea
:105a9c00e04f5400040032003433230035f32b0064
:105aac00f49f890005a08900f49f810005a0810066
:105abc0018c0b3006011b8000400be00a6040200b8
:105acc000000000000027800e00f520001003c00d2
:105adc000044eb00e04f54000b00320014a0810096
:105aec0025a081000420b0000580b00014a089001e
:105afc0025a08900f49f810005a08100949f890056
:105b0c00a59f89000d00370016a0810027a08100f9
:105b1c0004e02f00f5ff2f000602420087824a00a6
:105b2c0014a0890025a08900f49f810005a08100a4
:105b3c0005f0a200949f8900a59f890014a0810004
:105b4c0025a08100068020000700200004035300dc
:105b5c0085835b00f47f2000050028000600780098
:105b6c0007037800840378000502780007006000c2
:105b7c00040263006123b800c033dd00060020007e
:105b8c000602be006103b800060272008782720032
:105b9c00e00f5200e08f5a0008003d0061025200f5
:105bac00e0825a0006802f00f7ff2f0006027200d9
:105bbc008782720061024200e0824a0014a08900d0
:105bcc0025a0890014a0810025a081000402780082
:105bdc00969f8100a79f8100740047008400780085
:105bec006022b8000601be001d02070064004700d9
:105bfc002e0a9000be0a90004e0b9000de0b900017
:105c0c00a10207002e009000be0090004e019000f3
:105c1c00de0190006e029000fe0290000e0b9000d0
:105c2c009e0b9000030007004f04be000080fa009a
:105c3c00000006001000fa00889fbe008a9fbe007c
