:020000040000fa
:080000000002040000000000f2
:020000040000fa
:10000800c8020000ce020000e6020000d402000090
:10001800da020000e0020000e6020000e60200004a
:10002800e6020000e6020000e6020000e602000028
:1000380000060000e6020000e6020000e6020000fa
:10004800e6020000e6020000e6020000e602000008
:10005800e6020000e6020000e6020000e6020000f8
:10006800e6020000e6020000e6020000e6020000e8
:10007800e6020000e6020000e6020000e6020000d8
:100088000a060000e6020000e6020000e6020000a0
:10009800e6020000e6020000e6020000e6020000b8
:1000a800e6020000e6020000e6020000c8050000c3
:1000b800e6020000e6020000e6020000e602000098
:1000c800e6020000e6020000e6020000e602000088
:1000d800e6020000e6020000e6020000e602000078
:1000e800e6020000e6020000e6020000e602000068
:1000f800e6020000e6020000e6020000e602000058
:10010800e6020000e6020000e6020000e602000047
:10011800e6020000e6020000e6020000e602000037
:10012800e6020000e6020000e6020000e602000027
:10013800e6020000e6020000e6020000e602000017
:10014800e6020000e6020000e6020000e602000007
:10015800e6020000e6020000e6020000e6020000f7
:10016800e6020000e6020000e6020000e6020000e7
:10017800e6020000e6020000e6020000e6020000d7
:10018800e6020000e6020000e6020000e6020000c7
:10019800e6020000e6020000e6020000e6020000b7
:1001a800e6020000e6020000e6020000e6020000a7
:1001b800e6020000e6020000e6020000e602000097
:1001c800e6020000e6020000e6020000e602000087
:1001d800e6020000e6020000e6020000e602000077
:1001e800e6020000e6020000e6020000e602000067
:1001f800e6020000e6020000e6020000e602000057
:10020800e6020000e6020000e6020000e602000046
:10021800e6020000e6020000e6020000e602000036
:10022800e6020000e6020000e6020000e602000026
:10023800e6020000e6020000e6020000e602000016
:10024800e6020000e6020000e6020000e602000006
:10025800e6020000e6020000e6020000e6020000f6
:020000040000fa
:100400002f0121000ef727000e01880000000000d8
:100410000c000700809f2000010020000f00070053
:10042000000020000000e000020032000000020096
:1004300000000000a4050200000000000040da00f7
:100440000000fe00000020000000e000020032007a
:10045000000020009001880000000600a102880032
:10046000800078000000eb001a003700e2804000b6
:1004700054a0b4009101ba00e280400054a0b4003e
:100480009102ba00e280400054a0b4000002eb00e8
:10049000472bde00f507b200a6018800602ce100c2
:1004a00008003a000049eb000201e80002003900b0
:1004b0003420ec0002f0a0008301e900f9ff3e00c7
:1004c000040037006128e100010032000082eb00e7
:1004d000040007001101ba000200e000e3ff3a0047
:1004e0000000060004d0a300e20f49001c00390000
:1004f000810278003549ba000201e80002003900a3
:100500003420ec0002f0a0008301e9000f0032006b
:100510002549ba000201e800020039003420ec004d
:1005200002f0a0008301e900080032000400e000ae
:100530000600320015c9ba000201e80002003900c5
:100540003420ec0002f0a0008301e9008180e80083
:1005500054a0b4000300e000e2ff3a0000000600ef
:100560009102ba00055978008301e900f7ff3200d3
:10057000c82ade00055978008301e900f3ff320044
:100580000400e000f1ff320011d9ba00eeff37009d
:100590000000fa00c028a900ffff37000000fa00a1
:1005a000c068a900ffff37000000fa00c048a9009a
:1005b000ffff37000000fa00c088a900ffff3700e6
:1005c0000000fa00c0a8a900ffff37000040da00d1
:0405d0000000fe0029
:020000040000fa
:1005d4000000fa000002eb0011002000f2ff2f00df
:1005e400e3ff210004007800f001070045442400e3
:1005f4003433230023222200121121008100200021
:100604000000eb00700207000080fa000000060002
:100614000000fa00889fbe008a9fbe008c9fbe0027
:10062400304490000884fb004441dd006112b900ad
:1006340002f82700030020008200d0000403d00049
:10064400068140004220a800858149004200a9009b
:100654004220ae004200a8000281d3009101800034
:10066400030278009401880000000000120378005f
:100674009101880000000000e100630008003a00d6
:100684004333dd004533de000700200026009800d8
:100694003700980041c0b300214098004100370062
:1006a400c1ff21000103630007002000c033dd0007
:1006b4000600200026009800370098004444dd001e
:1006c4000885e8006155b90002f8270003002000fe
:1006d4008200d0000a02d000048540004220a80015
:1006e4008b8549004200a9004220ae004200a800c8
:1006f4000a85d300910180000b02780094018800e0
:10070400000000001a067800910188000000000033
:10071400f1ff2000010666000d002000466ddd009b
:10072400ca65de008b0575004665dd000a034300db
:100734008b834b0026009800370098006404440023
:100744006144b9000202be008400d0000801d00058
:10075400028240004220a80089824a004200a90087
:100764004220ae004200a8000482d300920180001f
:100774008500780091018800000000009400780052
:100784009201880000000000ca08de000103430053
:10079400e0834b00260098003700980031c0b30076
:1007a4002140980011c0b30011409800b04090005f
:1007b4008180fb00c408dd00668440006144b90008
:1007c40002f82700030020000203d0008803d000b1
:1007d400070243004220a800898249004200a90080
:1007e4004220ae004200a8000482d300960180009b
:1007f4008503780097018800000000001402780047
:100804009601880000000000044898000203be001e
:100814000602d0008802d000050342004220a8004e
:1008240089834b004200a9004220ae004200a80088
:100834000683d300950180000702780094018800a4
:1008440000000000160278009501880000000000f6
:100854004822de0014489800688440006144b900ce
:100864000202be000403d0008803d0000702430044
:100874004220a80089824a004200a9004220ae001a
:100884004200a8000482d30096018000850378000a
:100894009701880000000000140278009601880087
:1008a40000000000244898000203be000602d000a5
:1008b4008802d000050342004220a80089834b002f
:1008c4004200a9004220ae004200a8000683d300e3
:1008d4009501800007027800940188000000000060
:1008e4001602780095018800000000004822de000e
:1008f400344898006a8440006144b9000202be0092
:100904000403d0008803d000070243004220a8005b
:1009140089824a004200a9004220ae004200a80099
:100924000482d30096018000850378009701880033
:100934000000000014027800960188000000000006
:10094400444898000203be000602d0008802d0008a
:10095400050342004220a80089834b004200a900fd
:100964004220ae004200a8000683d3009501800017
:100974000702780094018800000000001602780045
:1009840095018800000000004822de0054489800c9
:100994006c8440006144b9000202be000403d0002c
:1009a4008803d000070243004220a80089824a003d
:1009b4004200a9004220ae004200a8000482d300f5
:1009c40096018000850378009701880000000000ec
:1009d4001402780096018800000000006448980022
:1009e4000203be000602d0008802d00005034200c4
:1009f4004220a80089834b004200a9004220ae0097
:100a04004200a8000683d300950180000702780005
:100a14009401880000000000160278009501880007
:100a2400000000004822de0074489800e480400082
:100a3400610bb9000202be008400d0000601d000a0
:100a4400028240004220a80087824a004200a90096
:100a54004220ae004200a8000482d300920180002c
:100a6400850078009101880000000000840078006f
:100a7400910078009201880000000000efc060003f
:100a8400015098004f06be004f05be004f04be0043
:100a94000080fa00000006000000fa000000eb00ed
:100aa40000408800104088002040880030408800c2
:100ab400404088000080fa00000006000000fa00b0
:100ac400a0042000303a880000fe2f004427b6001e
:100ad400f0f32f004427b600a109200012002000e3
:100ae4008007200033742000804978008149780011
:100af40082497800123a80000200a00071052000ab
:100b04006004200023742000804978008149780023
:100b1400824978000200270001002100103a800079
:100b240002006000810f5000fcff3a000102200027
:100b3400103a800001006000fdff32000080fa00de
:100b4400000006000000fa00110ea900112ea900f1
:100b5400114ea900116ea900d8ff0700ceff0700af
:100b6400d601070099010700ab010700150ea80084
:100b74002468a8000c04a8000c24a80094fe070014
:100b84003064a80000000000feff37003600f800c3
:100b9400809fbe00829fbe00849fbe00869fbe00d1
:100ba4000000fa000468a9000a04ab000100320046
:100bb4000a04a9000a24ab00080032002024ab0078
:100bc4000300320010c0b30003f0b7002024a900d2
:100bd400000021008efe07000a24a900156ea8005b
:100be4000080fa004f03be004f02be004f01be005a
:100bf4004f00be003600f900004006000000fa0075
:100c04000088a900152ea8000080fa000040060004
:100c14000000fa000308a900154ea8000080fa009d
:100c2400004006000000fa00889fbe008a9fbe00b4
:100c34000004a8000003400006034300074420000a
:100c4400070343004284de000804440007422000f6
:100c540007044400c383de008783430089412000e6
:100c640089834300e18f500008003a00e38061006b
:100c7400e8804000429dde00cfd5de004555dd0012
:100c84000a8b400012039800050037004511dd006f
:100c9400020b7800f27f2000030020001303980069
:100ca400e3006000c208dd00f20020000111dd0055
:100cb4000281ea00180161000122dd00040c7100c8
:100cc400e700600081804000320020000111dd0057
:100cd4000281ea0017016100812add00850b7100a1
:100ce400110020000008dd001424b7000004a9004e
:100cf4004f05be004f04be000080fa00000006004d
:100d04000000fa00881f78000004a80000004000da
:100d1400000040000543200005004000e10f5200a0
:100d240012003a006112b8006383610007002000da
:100d34004299de00cf91de00f87f200002016400ba
:100d440003002000e18f500004003a0068034300d0
:100d54004511dd0002084300020037004511dd00a3
:100d640006084100140098000c003700f47f2000ae
:100d74000201620003002000e18f500003003a00ea
:100d84004511dd0068084100020037004511dd000f
:100d9400020878008000eb00110098000004a9000c
:100da4004f0478000080fa00000006000000fa00fa
:100db400889fbe008a9fbe008c1f7800e08f500081
:100dc4001000320002037800f603b200070020008e
:100dd400c69cde00ca1add004614de0008847200d8
:100de400faff2000080565004299de00cf91de007d
:100df400f57f200002816200030020000b00200028
:100e040005003700f57f2000028162000300200006
:100e14006033b8000605be00e10f52000e003a0030
:100e2400610ab8000410a000421cdd00ce14de00ec
:100e3400890474004214dd00080272008982720081
:100e44004a3cdd00c634de00890474004a34dd0007
:100e54000890a0000b003700421add00ce12de001d
:100e6400850272004212dd006109b80002027200bc
:100e7400838272004a3cdd00c634de0089047400bb
:100e84004a34dd00e08f5000140032004401dd00dc
:100e94006113b90002f82700030020000206d00005
:100ea4008600d000010146004220a8008781490045
:100eb4004200a9004220ae004200a8000281d300f3
:100ec4000410a000a101800083027800a50188001d
:100ed40004097800a1018800120037004401dd00f4
:100ee4006113b90002f82700030020000206d000b5
:100ef4008600d000010146004220a80087814900f5
:100f04004200a9004220ae004200a8000281d300a2
:100f1400a101800003037800a60188000409780079
:100f2400a10188004400dd000083e8006133b900ba
:100f340002f82700030020000202d0008602d0003d
:100f4400050342004220a800878349004200a9000b
:100f54004220ae004200a8000683d300a101800015
:100f640007027800a40188000a0b7800a101880018
:100f7400640040006100b9000202be000406d00013
:100f84000001d000020246004220a80081824a00eb
:100f94004200a9004220ae004200a8000482d3000f
:100fa400a001800085007800a1018800080a78006b
:100fb400a00188004f0678004f05be004f04be0014
:100fc4000080fa00000006000400fa00889fbe00ba
:100fd4008a9fbe008c9fbe00010f78001207980004
:100fe4004401dd00640541006155b90006f827009d
:100ff400070020000604d0008a04d0000900440041
:101004004220a8008b804b004200a9004220ae0081
:101014004200a8000080d3000604be000806d000e9
:101024008a06d0000d0446004220a8008b844c00a0
:101034004200a9004220ae004200a8000884d30068
:101044009b018000090578009a01880000000000d7
:10105400180578009b0188000000000008ff2f009d
:10106400080465009e04780088864400a801800076
:1010740001057800aa0188000d087800a8018800fd
:10108400660041006100b9000604be000805d000f6
:101094008005d0000b0445004220a80081844c0048
:1010a4004200a9004220ae004200a8000884d300f8
:1010b400a001800089007800a10188001e0690002c
:1010c4000c0c7800a0018800680041006100b900a0
:1010d4000604be008806d0000005d0000a8446003d
:1010e4004220a80081844c004200a9004220ae00a6
:1010f4004200a8000884d300a00180008900780081
:10110400a1018800030c7800a00188006a00410056
:101114006100b9000604be008805d0000006d000b6
:101124000c8445004220a80081844c004200a900a0
:101134004220ae004200a8000884d300a001800031
:1011440089007800a1018800040c7800a0018800bf
:101154006c0041006100b9000601be008206d000a7
:101164000002d000048146004220a8008181490089
:101174004200a9004220ae004200a8000281d30030
:10118400a001800083007800a1018800050978008f
:10119400a00188004f06be004f05be004f04be00ec
:1011a4000080fa00000006000000fa000004a80015
:1011b400110020000008dd000080ea001424b600bd
:1011c4000004a9000080fa00000006000000fa00f4
:1011d4000000eb00805f8800905f8800000222001e
:1011e40000588800204420006058880070002000c7
:1011f40070588800600420001058880000f8270008
:1012040020588800305888002088a80001eba800e6
:101214000080fa00000006000000fa000000eb0065
:10122400805f8800905f88000002200000598800d9
:101234000044200060598800700020007059880024
:101244007b0040001059880000f8270020598800ce
:10125400305988002308a80021eba8000080fa0078
:10126400000006000000fa00000c20001024b70063
:1012740000fc2f001024b600800320001224b700c5
:1012840012e4a80091208000f08f2f0000806000fd
:1012940001502000010070009020880091208000ff
:1012a40080ff2f00008060000020a00090208800b4
:1012b40012c4a8000080fa00000006000000fa0032
:1012c40001208000f08f2f000080600000a0a000ab
:1012d40000208800020e2000010820000020800069
:1012e40002006000810f5000fcff3a00ddff0700a0
:1012f400f0ff21000624b6008002eb001400200059
:1013040084007800f2ff2f00e3ff2100040078003e
:1013140044fe07001400200084007800f2ff2f0030
:10132400f3ff21000400780075fe0700f08f2f0002
:101334000024b600010e200000208000010060009f
:10134400fdff3a002a24ef002a04f8002804f900db
:101354002804f8002204f9002204f8002004f9000b
:1013640030e4a80031e4a900300020003024b700a4
:10137400003020003024b700123a80000260a1003f
:101384006004200071052000237420008049780047
:101394008149780082497800508ea80050aea90097
:1013a400a336800002f82f00028161004206b300d8
:1013b400a236880093348000f20f2c000281610071
:1013c40003e020000301710092348800123a800087
:1013d4000260a000237420008049780081497800cd
:0c13e400824978000080fa00000006003a
:020000040000fa
:1013f000807f00004000000080000000001000001e
:0c1400001200000080000000000000004e
:020000040000fa
:0200000401f009
:04000c0078ff000079
:020000040000fa
:0200000401f009
:040010007fff00006e
:020000040000fa
:0200000401f009
:040014007fff00006a
:020000040000fa
:0200000401f009
:04001c00dfff000002
:00000001FF
